:04000000CCEF6EF0E3
:10DD7000036E8C94035063EC6FF0C80E00D0E82E55
:10DD8000FDD71200036E8C84035063EC6FF0C80E55
:10DD900000D0E82EFDD7120000EE46F0220EEE6A0B
:10DDA000E806FDE1000EF86E0001D7EF6EF0000E00
:10DDB000896E000E8A6E000E8B6E000E8C6E000E49
:10DDC0008D6E92689368000E946E000E956E000E34
:10DDD000966E000EC26E0F0EC16E14EC6FF027EC43
:10DDE00077F000EF00F00A500B10D8B418D0010EF5
:10DDF0000C6E04D0D8900A360B360C2A0BAEFAD72C
:10DE00000A50085C0B500958D8A004D00A50085E8C
:10DE10000B50095AD8900B320A320C2EF1D708C099
:10DE200008F009C009F01200C30E046ECD0EE82EF2
:10DE3000FED7042EFCD700F0330EB8EC6EF0320E95
:10DE4000B8EC6EF0280EB8EC6EF00F0EB8EC6EF079
:10DE5000060EB8EC6EF0010EB8EC6EF0C30E046E58
:10DE6000CD0EE82EFED7042EFCD700F00F0EB8EC36
:10DE70006EF01200000E066E000E056E03500410C8
:10DE8000D8B41CD0010E076E04D0D89003360436E7
:10DE9000072A04AEFAD7D890053606360350015C3F
:10DEA00004500258D8A005D00350015E0450025A15
:10DEB0000580D89004320332072EEDD705C001F05B
:10DEC00006C002F01200026E0250F00B016E8C5080
:10DED0000F0B8C6E01508C108C6E000EF2BE010E7A
:10DEE000666EF29E8C86530EE82EFED700F08C965E
:10DEF000C80E00D0E82EFDD766B002D0F29E01D049
:10DF0000F28E0238F00B026E0250F00B016E8C5054
:10DF10000F0B8C6E01508C108C6E000EF2BE010E39
:10DF2000666EF29E8C86530EE82EFED700F08C961D
:10DF3000C80E00D0E82EFDD766B002D0F29E01D008
:10DF4000F28E1200000E066E000E056E15D0000E49
:10DF5000066E010E056E50D0000E066E020EFAD748
:10DF6000000E066E030EF6D7000E066E040EF2D7F4
:10DF7000000E066E000EEED701C003F002C004F0E2
:10DF80000450000AD8A4F4D70350030AD8B4DFD74A
:10DF9000040AD8B4DCD70D0AD8B4DED7060AD8B440
:10DFA000D6D7010AD8B4DCD7020AD8B4D5D71E0A0E
:10DFB000D8B4D6D7030AD8B4D3D7010AD8B4CCD7AB
:10DFC000050AD8B4CDD70F0AD8B4CED7030AD8B42F
:10DFD000C7D7010AD8B4C4D7060AD8B4C5D7020A2D
:10DFE000D8B4BED73D0AD8B4BFD7050AD8B4BCD779
:10DFF0000C0AD8B4B9D7BCD705C001F006C002F0EE
:10E0000012003AD0000E066E010E2FD0000E066EE2
:10E01000020E2BD0000E066E030E27D0000E066EE9
:10E02000070E23D0000E066E080E1FD0000E066EDF
:10E03000090E1BD0000E066E0A0E17D0000E066EDB
:10E040000B0E13D0000E066E0C0E0FD0000E066ED7
:10E050000D0E0BD0000E066E0E0E07D0000E066ED3
:10E060000F0E03D0000E066E100E056E36D001C0E6
:10E0700005F002C006F031D001C003F002C004F088
:10E080000450000AD8A4F3D70350010AD8B4BED76D
:10E09000030AD8B4BFD70A0AD8B4C0D7010AD8B483
:10E0A000C1D7030AD8B4C2D71E0AD8B4ABD7010A65
:10E0B000D8B4C8D7030AD8B4C9D70E0AD8B4CAD7B7
:10E0C000010AD8B4CBD7030AD8B4CCD73B0AD8B40A
:10E0D000B1D7090AD8B4B2D7CAD705C001F006C073
:10E0E00002F012000F0E126E000E136E7DD0250E80
:10E0F0001818D8B404D01850C2EC6EF075D0000EC9
:10E10000146E0DC0F6FF0EC0F7FF0D4A0E2A080070
:10E11000F5CF18F01850000AD8B41200640AD8B429
:10E1200003D00D0AD8A460D012C0D9FF13C0DAFF03
:10E13000DECF16F0DDCF17F0020E1226000E1322EE
:10E1400017AE06D0030E1412166C171ED8B0172A7D
:10E15000010E186E050E1818D8B412D01850020D02
:10E16000D90EF324F66EFD0EF420F76E0900F5507B
:10E17000165C0900F5501758D8A002D0182AEAD723
:10E1800014C011F0030E1116D8B403D02D0EC2EC3A
:10E190006EF018C015F024D01550020DD90EF324DE
:10E1A000F66EFD0EF420F76E0900F5CF03F00A00BD
:10E1B000F5CF04F016C001F017C002F03AEC6FF092
:10E1C00001C008F002C009F0000E0B6E0A0E0A6EC4
:10E1D000F3EC6EF00850300F186E1850C2EC6EF071
:10E1E00015061528D8A4D8D70DC0F6FF0EC0F7FF26
:10E1F0000D4A0E2A0800F5CF18F01850D8B41200B6
:10E2000076D7010EB8EC6EF0C30E1D6ECD0EE82E63
:10E21000FED71D2EFCD700F06F0E0D6EFE0E0E6E9B
:10E220001BC00FF01CC010F072EC70F0C00EB8EC08
:10E230006EF0000E206E000E1F6E000E266E000E99
:10E24000256E20EE5EF010EE27F0070EDBCFE3FF29
:10E25000E806FCE2000E246E000E236E000E226E15
:10E26000000E216E19C001F01AC002F0A2EC6FF08E
:10E2700001C01FF002C020F081A2FED781380F0B31
:10E280000F0B2F6E81B2FED70E0E2F18D8B46DD0A3
:10E290000F0E2F18D8A405D0000E226E010E216E8D
:10E2A00064D02F50D8B407D02F04D8B404D0020EB5
:10E2B0002F18D8A429D01F50255C20502658D8B03C
:10E2C000DBD72F50010DC80EF324F66EFD0EF4209F
:10E2D000F76E0800F550C2EC6EF02F501D6E1E6AEE
:10E2E000010E1D26000E1E22D8902534D96E26342C
:10E2F000DA6E270ED926000EDA221DC0DEFF1EC000
:10E30000DDFF254A262AB8D70C0E2F18D8A4B4D77B
:10E31000010EB8EC6EF0C30E1D6ECD0EE82EFED7CA
:10E320001D2EFCD700F06F0E0D6EFE0E0E6E1BC084
:10E330000FF01CC010F072EC70F0C00EB8EC6EF074
:10E34000000E266E000E256E000E286E000E276E43
:10E35000000E2A6E000E296E000E2C6E000E2B6E23
:10E36000000E2E6E000E2D6E87D721042210D8A429
:10E3700005D0000E1A6E640E196E120019C001F05D
:10E380001AC002F0270E036E000E046EE4EC7AF061
:10E3900001C023F002C024F023502410D8A426D0BA
:10E3A000010EB8EC6EF0C30E1D6ECD0EE82EFED73A
:10E3B0001D2EFCD700F02C0E0D6EFF0E0E6E72ECB3
:10E3C00070F0C00EB8EC6EF0AB0E0D6EFF0E0E6E60
:10E3D00072EC70F0330E1E6EBB0E1D6EE00EE82E5A
:10E3E000FED71D2EFCD71E2EFAD70BD723C019F04F
:10E3F00024C01AF012000C0EB8EC6EF0010EB8EC4E
:10E400006EF0C30E1B6ECD0EE82EFED71B2EFCD772
:10E4100000F00E0E0D6EFF0E0E6E72EC70F0C00E60
:10E42000B8EC6EF0000E236E000E226E000E1F6E12
:10E43000000E1E6E000E216E000E206E81A2FED711
:10E4400081380F0B0F0B246E81B2FED70E0E2418ED
:10E45000D8B4B9D02450D8B423D02404D8B420D010
:10E46000020E2418D8B41CD0040E2418D8B418D026
:10E47000050E2418D8B414D0060E2418D8B410D021
:10E48000080E2418D8B40CD0090E2418D8B408D01B
:10E490000A0E2418D8B404D00D0E2418D8A46AD0BB
:10E4A00022502310D8A446D02404D8B41CD0020E85
:10E4B0002418D8B418D0040E2418D8B414D0050EDB
:10E4C0002418D8B410D0060E2418D8B40CD0080ED6
:10E4D0002418D8B408D0090E2418D8B404D00A0ED1
:10E4E0002418D8A411D0020E2226000E2322245074
:10E4F000010DC80EF324F66EFD0EF420F76E080031
:10E50000F550C2EC6EF034D02450D8A497D72450E4
:10E51000010DC80EF324F66EFD0EF420F76E080010
:10E52000F550C2EC6EF0224A232A20D01E26000E9F
:10E530001F2284D722042310D8A480D7070E246476
:10E5400004D00D0E2418D8A479D72450010DC80E7C
:10E55000F324F66EFD0EF420F76E0800F550C2ECC1
:10E560006EF0224A232A2450D8A402D0140EDED7FB
:10E570002450DCD70C0E2418D8A41DD0010EB8EC02
:10E580006EF0C30E1B6ECD0EE82EFED71B2EFCD7F1
:10E5900000F00E0E0D6EFF0E0E6E72EC70F0C00EDF
:10E5A000B8EC6EF0000E236E000E226E000E1F6E91
:10E5B000000E1E6E43D70F0E2418D8A43FD7000EAE
:10E5C000216E640E206E640E20182110D8A405D090
:10E5D00020C019F021C01AF012001EC001F01FC0A7
:10E5E00002F001EC70F001C01CF002C01DF01CC074
:10E5F00019F01DC01AF01200010EB8EC6EF0C30E37
:10E600001B6ECD0EE82EFED71B2EFCD700F0EF0EB2
:10E610000D6EFE0E0E6E72EC70F0C00EB8EC6EF069
:10E62000950E0D6EFF0E0E6E72EC70F0660E1C6E87
:10E63000760E1B6EC10EE82EFED71B2EFCD71C2EAD
:10E64000FAD700F0010EB8EC6EF0C30E1B6ECD0EC3
:10E65000E82EFED71B2EFCD700F01D0E0D6EFE0E11
:10E660000E6E72EC70F0C00EB8EC6EF0CB0E0D6E4C
:10E67000FF0E0E6E72EC70F081A2FED781380F0B88
:10E680000F0B1E6E81B2FED71E50D8B40FD01E04E1
:10E69000D8B40CD0020E1E18D8B408D0040E1E1820
:10E6A000D8B404D0050E1E18D8A4E6D71E50010D0C
:10E6B000B70EF324F66EFD0EF420F76E0800F55049
:10E6C000C2EC6EF0330E1C6EBB0E1B6EE00EE82E1D
:10E6D000FED71B2EFCD71C2EFAD7010EB8EC6EF01D
:10E6E000C30E1B6ECD0EE82EFED71B2EFCD700F0FE
:10E6F000ED0E0D6EFF0E0E6E72EC70F0330E1C6E92
:10E70000BB0E1B6EE00EE82EFED71B2EFCD71C2E78
:10E71000FAD7010EB8EC6EF0C30E1B6ECD0EE82ECC
:10E72000FED71B2EFCD700F02E0E0D6EFE0E0E6EC9
:10E7300072EC70F0C00EB8EC6EF0D40E0D6EFF0EE1
:10E740000E6E72EC70F01A0E1C6E5E0E1B6E6E0E6C
:10E75000E82EFED71B2EFCD71C2EFAD700D081A2A4
:10E76000FED7010EB8EC6EF0C30E1B6ECD0EE82E78
:10E77000FED71B2EFCD700F07F0E0D6EFE0E0E6E28
:10E7800072EC70F0C00EB8EC6EF0FA0E0D6EFF0E6B
:10E790000E6E72EC70F01A0E1C6E5E0E1B6E6E0E1C
:10E7A000E82EFED71B2EFCD71C2EFAD700D081A254
:10E7B000FED7010EB8EC6EF0C30E1B6ECD0EE82E28
:10E7C000FED71B2EFCD700F08F0E0D6EFE0E0E6EC8
:10E7D00072EC70F0C00EB8EC6EF0F40E0D6EFF0E21
:10E7E0000E6E72EC70F01A0E1C6E5E0E1B6E6E0ECC
:10E7F000E82EFED71B2EFCD71C2EFAD700D081A204
:10E80000FED7010EB8EC6EF0C30E1B6ECD0EE82ED7
:10E81000FED71B2EFCD700F0E90E0D6EFD0E0E6E1E
:10E8200072EC70F0C00EB8EC6EF05F0E0D6EFE0E66
:10E830000E6E72EC70F01A0E1C6E5E0E1B6E6E0E7B
:10E84000E82EFED71B2EFCD71C2EFAD700D081A2B3
:10E85000FED7010EB8EC6EF0C30E1B6ECD0EE82E87
:10E86000FED71B2EFCD700F0AF0E0D6EFE0E0E6E07
:10E8700072EC70F01A0E1C6E5E0E1B6E6E0EE82EA1
:10E88000FED71B2EFCD71C2EFAD700D081A2FED7B4
:10E89000010EB8EC6EF0C30E1B6ECD0EE82EFED747
:10E8A0001B2EFCD700F0FF0E0D6EFE0E0E6E72ECEE
:10E8B00070F0C00EB8EC6EF0630E0D6EFF0E0E6EB3
:10E8C00072EC70F0660E1C6E760E1B6EC10EE82E9A
:10E8D000FED71B2EFCD71C2EFAD700F0010EB8EC89
:10E8E0006EF0C30E1B6ECD0EE82EFED71B2EFCD78E
:10E8F00000F07D0E0D6EFF0E0E6E72EC70F0C00E0D
:10E90000B8EC6EF0CF0E0D6EFE0E0E6E72EC70F067
:10E9100081A2FED781380F0B0F0B1D6E81B2FED77F
:10E920001DC019F01A6A1200010EB8EC6EF0C30E89
:10E930001B6ECD0EE82EFED71B2EFCD700F09F0ECF
:10E940000D6EFE0E0E6E19C00FF01AC010F072ECB4
:10E9500070F0C00EB8EC6EF0000E246E000E236E48
:10E96000000E1E6E000E1D6E000E266E000E256E31
:10E97000000E206E000E1F6E20EE56F010EE28F0F6
:10E98000070EDBCFE3FFE806FCE2000E226E000E6E
:10E99000216E81A2FED781380F0B0F0B276E81B23B
:10E9A000FED70E0E2718D8B480D00F0E2718D8A483
:10E9B00005D0000E226E010E216E77D00C0E2718A6
:10E9C000D8A42DD0010EB8EC6EF0C30E1B6ECD0E88
:10E9D000E82EFED71B2EFCD700F09F0E0D6EFE0E0C
:10E9E0000E6E19C00FF01AC010F072EC70F0C00E6D
:10E9F000B8EC6EF0000E246E000E236E000E296E31
:10EA0000000E286E000E2B6E000E2A6E000E2D6E6C
:10EA1000000E2C6E000E2F6E000E2E6EBAD72450F4
:10EA2000B8E1040E235CD8B0B4D7030E2718D8B4CD
:10EA300004D0070E2718D8A413D02750010DC80EF4
:10EA4000F324F66EFD0EF420F76E0800F550C2ECCC
:10EA50006EF027501B6E1C6A1AD0234A242A99D7BD
:10EA60000B0E2718D8A495D72750010DC80EF324F4
:10EA7000F66EFD0EF420F76E0800F550C2EC6EF055
:10EA800027501B6E1C6A010E1B26000E1C22D890FC
:10EA90002334D96E2434DA6E280ED926000EDA22F9
:10EAA0001BC0DEFF1CC0DDFFD8D721042210D8A474
:10EAB00004D0000E266E640E99D10C0E2818291071
:10EAC000D8A410D02A502B10D8A40CD02C502D1024
:10EAD000D8A408D02E502F10D8A404D0000E266E33
:10EAE0000C0E84D1030E28182910D8A410D02A5057
:10EAF0002B10D8A40CD02C502D10D8A408D02E50F8
:10EB00002F10D8A404D0000E266E030E6FD1070E6E
:10EB100028182910D8A410D02A502B10D8A40CD013
:10EB20002C502D10D8A408D02E502F10D8A404D0CB
:10EB3000000E266E070E5AD1030E28182910D8A4ED
:10EB400011D0070E2A182B10D8A40CD02C502D1041
:10EB5000D8A408D02E502F10D8A404D0000E266EB2
:10EB60000A0E44D1030E28182910D8A411D00C0E77
:10EB70002A182B10D8A40CD02C502D10D8A408D0B3
:10EB80002E502F10D8A404D0000E266E0F0E2ED1BA
:10EB9000070E28182910D8A411D00C0E2A182B10F3
:10EBA000D8A40CD02C502D10D8A408D02E502F1043
:10EBB000D8A404D0000E266E130E18D1030E281808
:10EBC0002910D8A412D0030E2A182B10D8A40DD0C7
:10EBD000070E2C182D10D8A408D02E502F10D8A412
:10EBE00004D0000E266E0D0E01D1030E2818291038
:10EBF000D8A412D0030E2A182B10D8A40DD00C0EB6
:10EC00002C182D10D8A408D02E502F10D8A404D022
:10EC1000000E266E120EEAD0030E28182910D8A472
:10EC200012D0070E2A182B10D8A40DD0070E2C18BE
:10EC30002D10D8A408D02E502F10D8A404D0000E28
:10EC4000266E110ED3D0030E28182910D8A412D086
:10EC50000C0E2A182B10D8A40DD00C0E2C182D1029
:10EC6000D8A408D02E502F10D8A404D0000E266EA1
:10EC70001B0EBCD0030E28182910D8A412D0070EE2
:10EC80002A182B10D8A40DD00C0E2C182D10D8A497
:10EC900008D02E502F10D8A404D0000E266E160EC9
:10ECA000A5D0070E28182910D8A412D0070E2A18AC
:10ECB0002B10D8A40DD00C0E2C182D10D8A408D0D1
:10ECC0002E502F10D8A404D0000E266E1A0E8ED00F
:10ECD000070E28182910D8A412D00C0E2A182B10B1
:10ECE000D8A40DD00C0E2C182D10D8A408D02E505E
:10ECF0002F10D8A404D0000E266E1F0E77D0030E5E
:10ED000028182910D8A413D0030E2A182B10D8A421
:10ED10000ED0070E2C182D10D8A409D00C0E2E18CA
:10ED20002F10D8A404D0000E266E190E5FD0030E4B
:10ED300028182910D8A413D0070E2A182B10D8A4ED
:10ED40000ED0070E2C182D10D8A409D00C0E2E189A
:10ED50002F10D8A404D0000E266E1D0E47D0030E2F
:10ED600028182910D8A413D0070E2A182B10D8A4BD
:10ED70000ED00C0E2C182D10D8A409D00C0E2E1865
:10ED80002F10D8A404D0000E266E220E2FD0030E12
:10ED900028182910D8A413D00C0E2A182B10D8A488
:10EDA0000ED00C0E2C182D10D8A409D00C0E2E1835
:10EDB0002F10D8A404D0000E266E270E17D0070EF1
:10EDC00028182910D8A414D00C0E2A182B10D8A457
:10EDD0000FD00C0E2C182D10D8A40AD00C0E2E1803
:10EDE0002F10D8A405D0000E266E2B0E256E2AD02B
:10EDF000010EB8EC6EF0C30E1B6ECD0EE82EFED7E2
:10EE00001B2EFCD700F03A0E0D6EFF0E0E6E72EC4C
:10EE100070F0C00EB8EC6EF0AB0E0D6EFF0E0E6E05
:10EE200072EC70F0330E1C6EBB0E1B6EE00EE82E03
:10EE3000FED71B2EFCD71C2EFAD7000E266E000E16
:10EE4000256E72D525C019F026C01AF01200010EE9
:10EE5000B8EC6EF0C30E306ECD0EE82EFED7302E1D
:10EE6000FCD700F00C0EB8EC6EF0E50E0D6EFF0E48
:10EE70000E6E72EC70F0660E316E760E306EC10E54
:10EE8000E82EFED7302EFCD7312EFAD700F0010E37
:10EE9000B8EC6EF0C30E306ECD0EE82EFED7302EDD
:10EEA000FCD700F02E0E0D6EFE0E0E6E72EC70F0A2
:10EEB000C00EB8EC6EF00C0E0D6EFE0E0E6E72EC07
:10EEC00070F081A2FED7010EB8EC6EF0C30E306E6A
:10EED000CD0EE82EFED7302EFCD700F00C0EB8EC8D
:10EEE0006EF0DF0E0D6EFE0E0E6E72EC70F0C00E48
:10EEF000B8EC6EF03F0E0D6EFE0E0E6E72EC70F002
:10EF0000660E316E760E306EC10EE82EFED7302EB4
:10EF1000FCD7312EFAD700F0010EB8EC6EF0C30E1C
:10EF2000306ECD0EE82EFED7302EFCD700F0B60E98
:10EF30000D6EFF0E0E6E72EC70F0C00EB8EC6EF03F
:10EF40008A0E0D6EFF0E0E6E72EC70F0660E316E54
:10EF5000760E306EC10EE82EFED7302EFCD7312E45
:10EF6000FAD700F0010EB8EC6EF0C30E306ECD0E85
:10EF7000E82EFED7302EFCD700F0480E0D6EFF0EA7
:10EF80000E6E72EC70F0C00EB8EC6EF00C0E0D6EE2
:10EF9000FE0E0E6E72EC70F081A2FED781380F0B60
:10EFA0000F0B366E81B2FED70E0E3618D8A484D25F
:10EFB000000E3F6E000E3E6E000E436E000E426E5F
:10EFC000000E396E000E386E000E3B6E000E3A6E6B
:10EFD000000E336E000E326E000E456E000E446E53
:10EFE000000E416E000E406E000E3D6E000E3C6E37
:10EFF00032043310D8A45CD13F5004E1080E3E5CCB
:10F00000D8A02AD0010EB8EC6EF0C30E306ECD0E33
:10F01000E82EFED7302EFCD700F00C0EB8EC6EF0C8
:10F02000700E0D6EFF0E0E6E72EC70F0C00EB8EC2E
:10F030006EF0FB0E0D6EFD0E0E6E72EC70F0660E35
:10F04000316E760E306EC10EE82EFED7302EFCD714
:10F05000312EFAD700F01200010EB8EC6EF0C30E9C
:10F06000306ECD0EE82EFED7302EFCD700F00C0E01
:10F07000B8EC6EF0BF0E0D6EFE0E0E6E72EC70F000
:10F08000C00EB8EC6EF0CF0E0D6EFE0E0E6E72EC72
:10F0900070F081A2FED781380F0B0F0B376E81B253
:10F0A000FED70E0E3718D8A4FCD0010EB8EC6EF0C7
:10F0B000C30E306ECD0EE82EFED7302EFCD700F0FA
:10F0C000FBEC71F019C044F01AC045F0640E44180E
:10F0D0004510D8A405D0000E456E000E446EBCD776
:10F0E000000E436E000E426E43502CE1080E425C4F
:10F0F000D8B028D0D8904234D96E4334DA6E460E58
:10F10000D926000EDA224450DE1819E14550DE18E7
:10F11000D8A415D0000E396E010E386ED890423446
:10F12000D96E4334DA6E460ED926000EDA22DE504E
:10F13000DE10D8A404D0000E3B6E010E3A6E424A97
:10F14000432AD2D738043910D8A460D03A043B10EF
:10F15000D8A42ED0010EB8EC6EF0C30E306ECD0EDA
:10F16000E82EFED7302EFCD700F00C0EB8EC6EF077
:10F17000C10E0D6EFF0E0E6E72EC70F0C00EB8EC8C
:10F180006EF04F0E0D6EFE0E0E6E72EC70F0660E8F
:10F19000316E760E306EC10EE82EFED7302EFCD7C3
:10F1A000312EFAD700F0000E3B6E000E3A6E29D0D9
:10F1B000010EB8EC6EF0C30E306ECD0EE82EFED709
:10F1C000302EFCD700F00C0EB8EC6EF01D0E0D6E5C
:10F1D000FF0E0E6E72EC70F0C00EB8EC6EF0DD0E2D
:10F1E0000D6EFF0E0E6E72EC70F0660E316E760EC6
:10F1F000306EC10EE82EFED7302EFCD7312EFAD756
:10F2000000F0000E396E000E386EF6D6010EB8EC26
:10F210006EF0C30E306ECD0EE82EFED7302EFCD72A
:10F2200000F044C019F045C01AF094EC74F019C015
:10F2300040F01AC041F0640E40184110D8A405D027
:10F24000000E416E000E406E30D740C019F041C034
:10F250001AF044C01BF045C01CF001EC71F019C05D
:10F260003CF01AC03DF0640E3C183D10D8A409D003
:10F27000000E416E000E406E000E3D6E000E3C6EA4
:10F28000C5D7D8903E34D96E3F34DA6E460ED926B3
:10F29000000EDA2244C0DEFF45C0DDFF3E4A3F2AB1
:10F2A00004D00F0E3718D8B41200000E376EA4D653
:10F2B000010EB8EC6EF0C30E306ECD0EE82EFED708
:10F2C000302EFCD700F0FBEC71F019C044F01AC0EE
:10F2D00045F0640E44184510D8A409D0000E456EC0
:10F2E000000E446E000E336E010E326EB5D6000E67
:10F2F000336E010E326E000E436E000E426E4350AE
:10F300002CE1080E425CD8B028D0D8904234D96E97
:10F310004334DA6E460ED926000EDA224450DE1847
:10F3200019E14550DE18D8A415D0000E396E010E33
:10F33000386ED8904234D96E4334DA6E460ED926F0
:10F34000000EDA22DE50DE10D8A404D0000E3B6E90
:10F35000010E3A6E424A432AD2D738043910D8A453
:10F3600060D03A043B10D8A42ED0010EB8EC6EF059
:10F37000C30E306ECD0EE82EFED7302EFCD700F037
:10F380000C0EB8EC6EF0C10E0D6EFF0E0E6E72EC30
:10F3900070F0C00EB8EC6EF04F0E0D6EFE0E0E6EDD
:10F3A00072EC70F0660E316E760E306EC10EE82E85
:10F3B000FED7302EFCD7312EFAD700F0000E3B6E70
:10F3C000000E3A6E29D0010EB8EC6EF0C30E306E0E
:10F3D000CD0EE82EFED7302EFCD700F00C0EB8EC88
:10F3E0006EF01D0E0D6EFF0E0E6E72EC70F0C00E04
:10F3F000B8EC6EF0DD0E0D6EFF0E0E6E72EC70F05E
:10F40000660E316E760E306EC10EE82EFED7302EAF
:10F41000FCD7312EFAD700F0000E396E000E386E90
:10F42000E7D5010EB8EC6EF0C30E306ECD0EE82EAF
:10F43000FED7302EFCD700F044C019F045C01AF0BA
:10F4400094EC74F019C040F01AC041F0640E4018FA
:10F450004110D8A405D0000E416E000E406E28D792
:10F4600040C019F041C01AF044C01BF045C01CF068
:10F4700001EC71F019C03CF01AC03DF0640E3C186C
:10F480003D10D8A409D0000E416E000E406E000E53
:10F490003D6E000E3C6EC5D7D8903E34D96E3F34D9
:10F4A000DA6E460ED926000EDA2244C0DEFF45C0D1
:10F4B000DDFF3E4A3F2A9CD50F0E3618D8A45AD0FD
:10F4C000FCEC72F019C034F01AC035F00E0E34188E
:10F4D0003510D8B4F5D70F0E34183510D8A420D075
:10F4E000010EB8EC6EF0C30E306ECD0EE82EFED7D6
:10F4F000302EFCD700F00C0EB8EC6EF0A00E0D6EA6
:10F50000FF0E0E6E72EC70F0660E316E760E306E7F
:10F51000C10EE82EFED7302EFCD7312EFAD728D0D8
:10F52000010EB8EC6EF0C30E306ECD0EE82EFED795
:10F53000302EFCD700F00C0EB8EC6EF0560E0D6EAF
:10F54000FF0E0E6E72EC70F0C00EB8EC6EF0A00EF6
:10F550000D6EFF0E0E6E72EC70F0660E316E760E52
:10F56000306EC10EE82EFED7302EFCD7312EFAD7E2
:10F5700000F01200010EB8EC6EF0C30E306ECD0E2E
:10F58000E82EFED7302EFCD700F00C0EB8EC6EF053
:10F59000560E0D6EFF0E0E6E72EC70F0C00EB8ECD3
:10F5A0006EF0A00E0D6EFF0E0E6E72EC70F0660E19
:10F5B000316E760E306EC10EE82EFED7302EFCD79F
:10F5C000312EFAD700F01200000E086E000E076E02
:10F5D000AED303C0D9FF04C0DAFFDE04DE10D8B416
:10F5E00009D003C0D9FF04C0DAFF020EDE18DE1016
:10F5F000D8A4DCD3000E086E010E51D103C0D9FF90
:10F6000004C0DAFFDE04DE10D8B409D003C0D9FF8D
:10F6100004C0DAFF020EDE18DE10D8A4C7D3000E35
:10F62000086E020E3CD103C0D9FF04C0DAFFDE042D
:10F63000DE10D8B412D003C0D9FF04C0DAFF020E26
:10F64000DE18DE10D8B409D003C0D9FF04C0DAFF39
:10F65000030EDE18DE10D8A4A9D3000E086E030E28
:10F660001ED103C0D9FF04C0DAFF030EDE18DE107E
:10F67000D8B49CD320EE02F00350D9260450DA22ED
:10F68000030EDE18DE10D8B491D303C0D9FF04C036
:10F69000DAFFDE50DE10D8B489D320EE02F003503A
:10F6A000D9260450DA22DE50DE10D8B47FD3000E03
:10F6B000086E040EF4D020EE02F00350D926045058
:10F6C000DA22030EDE18DE10D8A40CD003C0D9FF56
:10F6D00004C0DAFFDE04DE10D8A468D3000E086E82
:10F6E000050EDDD003C0D9FF04C0DAFF030EDE181B
:10F6F000DE10D8B45BD303C0D9FF04C0DAFFDE50FC
:10F70000DE10D8B453D3000E086E050EC8D020EE1C
:10F7100002F00350D9260450DA22030EDE18DE1060
:10F72000D8A40CD003C0D9FF04C0DAFFDE04DE1079
:10F73000D8A43CD3000E086E060EB1D003C0D9FF8A
:10F7400004C0DAFF030EDE18DE10D8B42FD303C0D6
:10F75000D9FF04C0DAFFDE50DE10D8B427D3000E84
:10F76000086E060E9CD003C0D9FF04C0DAFFDE0489
:10F77000DE10D8A41BD320EE02F00350D92604508B
:10F78000DA22DE04DE10D8A411D320EE04F00350F8
:10F79000D9260450DA22DE04DE10D8B40BD020EED5
:10F7A00004F00350D9260450DA22020EDE18DE10CF
:10F7B000D8A4FCD2000E086E070E71D003C0D9FF8A
:10F7C00004C0DAFFDE04DE10D8A4F0D220EE02F08E
:10F7D0000350D9260450DA22DE04DE10D8A4E6D283
:10F7E00020EE04F00350D9260450DA22DE04DE10A5
:10F7F000D8B40BD020EE04F00350D9260450DA22FE
:10F80000020EDE18DE10D8A4D1D2000E086E080E4B
:10F8100046D020EE02F00350D9260450DA22DE044E
:10F82000DE10D8A4C3D220EE04F00350D926045031
:10F83000DA22DE04DE10D8A4B9D203C0D9FF04C096
:10F84000DAFFDE04DE10D8B409D003C0D9FF04C04B
:10F85000DAFF020EDE18DE10D8A4A8D2000E086E61
:10F86000090E1DD003C0D9FF04C0DAFFDE04DE108C
:10F87000D8A417D020EE02F00350D9260450DA2283
:10F88000DE04DE10D8A40DD020EE04F00350D926FB
:10F890000450DA22DE04DE10D8A403D059D0076E5B
:10F8A00085D203C0D9FF04C0DAFF020EDE18DE10D5
:10F8B000D8A414D020EE02F00350D9260450DA2246
:10F8C000DE04DE10D8A40AD020EE04F00350D926BE
:10F8D0000450DA22DE04DE10D8B43AD003C0D9FFD7
:10F8E00004C0DAFFDE04DE10D8A415D020EE02F04A
:10F8F0000350D9260450DA22020EDE18DE10D8A4F6
:10F900000AD020EE04F00350D9260450DA22DE0497
:10F91000DE10D8B41DD003C0D9FF04C0DAFFDE0466
:10F92000DE10D8A443D220EE02F00350D9260450B2
:10F93000DA22DE04DE10D8A439D220EE04F003501F
:10F94000D9260450DA22020EDE18DE10D8A42ED2F8
:10F95000000E086E0A0EA3D703C0D9FF04C0DAFF59
:10F96000DE04DE10D8A414D020EE02F00350D92615
:10F970000450DA22DE04DE10D8A40AD020EE04F00F
:10F980000350D9260450DA22DE04DE10D8B457D052
:10F9900003C0D9FF04C0DAFF020EDE18DE10D8A4BF
:10F9A00014D020EE02F00350D9260450DA22DE04EF
:10F9B000DE10D8A40AD020EE04F00350D92604505B
:10F9C000DA22DE04DE10D8B43AD003C0D9FF04C076
:10F9D000DAFFDE04DE10D8A415D020EE02F00350CA
:10F9E000D9260450DA22020EDE18DE10D8A40AD07E
:10F9F00020EE04F00350D9260450DA22DE04DE1093
:10FA0000D8B41DD003C0D9FF04C0DAFFDE04DE1075
:10FA1000D8A4CCD120EE02F00350D9260450DA222B
:10FA2000DE04DE10D8A4C2D120EE04F00350D926A3
:10FA30000450DA22020EDE18DE10D8A4B7D1000E70
:10FA4000086E0B0E2CD703C0D9FF04C0DAFFDE040A
:10FA5000DE10D8A4ABD120EE02F00350D92604501A
:10FA6000DA22DE04DE10D8A4A1D120EE04F0035087
:10FA7000D9260450DA22DE04DE10D8B40BD020EEF2
:10FA800004F00350D9260450DA22020EDE18DE10EC
:10FA9000D8A48CD1000E086E0C0E01D703C0D9FF7C
:10FAA00004C0DAFFDE04DE10D8A414D020EE02F089
:10FAB0000350D9260450DA22DE04DE10D8A40AD07E
:10FAC00020EE04F00350D9260450DA22DE04DE10C2
:10FAD000D8B457D003C0D9FF04C0DAFF020EDE1835
:10FAE000DE10D8A414D020EE02F00350D926045022
:10FAF000DA22DE04DE10D8A40AD020EE04F003508F
:10FB0000D9260450DA22DE04DE10D8B43AD003C07D
:10FB1000D9FF04C0DAFFDE04DE10D8A415D020EE31
:10FB200002F00350D9260450DA22020EDE18DE104D
:10FB3000D8A40AD020EE04F00350D9260450DA22CB
:10FB4000DE04DE10D8B41DD003C0D9FF04C0DAFF34
:10FB5000DE04DE10D8A42AD120EE02F00350D9260C
:10FB60000450DA22DE04DE10D8A420D120EE04F006
:10FB70000350D9260450DA22020EDE18DE10D8A473
:10FB800015D1000E086E0D0E8AD603C0D9FF04C031
:10FB9000DAFFDE04DE10D8A409D120EE02F0035013
:10FBA000D9260450DA22DE04DE10D8A4FFD020EEDD
:10FBB00004F00350D9260450DA22DE04DE10D8A463
:10FBC000F5D020EE06F00350D9260450DA22DE04E8
:10FBD000DE10D8A4EBD0000E086E0E0E60D603C067
:10FBE000D9FF04C0DAFFDE04DE10D8A4DFD020EE97
:10FBF00002F00350D9260450DA22DE04DE10D8A425
:10FC0000D5D020EE04F00350D9260450DA22DE04C9
:10FC1000DE10D8A4CBD020EE06F00350D926045035
:10FC2000DA22DE04DE10D8A4C1D0000E086E0F0E5A
:10FC300036D603C0D9FF04C0DAFFDE04DE10D8A434
:10FC4000B5D020EE02F00350D9260450DA22DE04AB
:10FC5000DE10D8A4ABD020EE04F00350D926045017
:10FC6000DA22DE04DE10D8A4A1D020EE06F0035084
:10FC7000D9260450DA22DE04DE10D8A497D0000E74
:10FC8000086E100E0CD603C0D9FF04C0DAFFDE04E4
:10FC9000DE10D8A48BD020EE02F00350D9260450F9
:10FCA000DA22DE04DE10D8A481D020EE04F0035066
:10FCB000D9260450DA22DE04DE10D8A477D020EE54
:10FCC00006F00350D9260450DA22DE04DE10D8A450
:10FCD0006DD0000E086E110EE2D503C0D9FF04C02E
:10FCE000DAFFDE04DE10D8A461D020EE02F003506B
:10FCF000D9260450DA22DE04DE10D8A457D020EE34
:10FD000004F00350D9260450DA22DE04DE10D8A411
:10FD10004DD020EE06F00350D9260450DA22DE043E
:10FD2000DE10D8A443D0000E086E120EB8D501C064
:10FD300005F002C006F00650000AD8A437D00550DE
:10FD4000030AD8B446D4040AD8B458D40D0AD8B497
:10FD500088D4060AD8B467D4010AD8B404D5020AF4
:10FD6000D8B4A9D41E0AD8B454D5030AD8B426D519
:10FD7000010AD8B4CCD4050AD8B4EED50F0AD8B449
:10FD800004D7030AD8B45FD6010AD8B46BD5060AE3
:10FD9000D8B425D7020AD8B481D63D0AD8B449D7F9
:10FDA000050AD8B470D70C0AD8B497D707C001F0A9
:10FDB00008C002F012000031323341343536423788
:10FDC0003839432A302344003132335234353646F1
:10FDD0003738394C2A3023440001000A006400E817
:10FDE00003102700010210022852656D61696E69D7
:10FDF0006E67207069656365733A00647261776548
:10FE00007273207265616368656421006265676969
:10FE10006E206F7065726174696F6E2E00506C6534
:10FE200061736520696E707574206C6F6700507225
:10FE300065737320616E79206B657920746F006340
:10FE40006162696E657420736F7274657221006EF1
:10FE5000756D62657220707265737365642E0052F1
:10FE60003A332020463A313220204C3A3130004497
:10FE7000726177657220256920666F6F643A004F62
:10FE80007065726174696F6E2074696D653A004DBA
:10FE900061726B656420647261776572733A0044C5
:10FEA000726177657220256920646965743A00443F
:10FEB00072617765722053756D6D6172793A004198
:10FEC0006E6F74686572206472617765723F00239B
:10FED000203D205965732C2044203D204E6F005753
:10FEE000656C636F6D6520746F20796F7572003576
:10FEF0002070726576696F7573206C6F677300444C
:10FF0000726177657220313A205246313200447274
:10FF100061776572206E756D6265723A0044726138
:10FF200077657220616C726561647900496E7661F3
:10FF30006C696420666F6F642100496E76616C693C
:10FF400064206469657421006F7220707265737338
:10FF5000202320746F00496E76616C6964206B65A4
:10FF600079210044726177657220323A204C310069
:10FF70004D6178696D756D206F66203800416E6F38
:10FF800074686572206C6F673F0076696577206CD6
:10FF90006F67732C00617661696C61626C652E001D
:10FFA0005265626F6F74696E672E005472792061BA
:10FFB0006761696E2E005072657373204420746F00
:10FFC000004E6F20647261776572006E756D6265B8
:10FFD000723A20006D6F7665206F6E2E00696E207C
:10FFE00075736521005374616E64627900477265B0
:10FFF00061742100312C20313300323A3339000052
:020000040020DA
:08000000FFFFFFFFFFFFFFFF00
:020000040030CA
:0E000000FF061F1EFF8381FF0F400FE00F4021
:00000001FF
