:0400000063EF56F064
:10A97200CAEC54F0C5801200CAEC54F0C58412002F
:10A98200EA01363534333231CAEC54F002C0C9FF21
:10A992001200C7B4FED7C5CF01F01F0E0116D8B4FE
:10A9A2001200F7D7036E8C9403509CEC56F0C80E3D
:10A9B20000D0E82EFDD71200016EA6B2FED701C06C
:10A9C200A9FFA69EA69CA680A8501200036E8C84A6
:10A9D20003509CEC56F0C80E00D0E82EFDD71200B2
:10A9E200036E000E026E3A0E036005D02F0E036452
:10A9F20002D0010E026E02C001F001301200026E9E
:10AA0200CAEC54F0C586CAEC54F0C9CF03F0CAECC4
:10AA120054F002B002D0C59A01D0C58AC58803504D
:10AA22001200000E046E000E036E000E046E000E85
:10AA3200036E0404D8B01200000E016E035038EC0D
:10AA420055F0034A042AF5D701500302F3CF05F06B
:10AA5200F4CF06F001500402F3500626025003021E
:10AA6200F350062605C001F006C002F01200026E85
:10AA7200A6B2FED7A68402C0A9FF01C0A8FFA69E67
:10AA8200A69CF29E550EA76EAA0EA76EA682F28E05
:10AA9200A6B2FED7A6941200FCFFE8FFC4FFEBFFAC
:10AAA200F3FFC3FFEAFFF2FFE6FFEEFFC7FFC2FFBD
:10AAB200CCFFC6FFC1FFCBFFD5FFD0FFBFFFE4FF36
:10AAC200FAFFBEFFE3FFF9FFDFFFF6FFBDFFE2FF84
:10AAD200DEFFDAFFBCFF0A500B10D8B418D0010E0B
:10AAE2000C6E04D0D8900A360B360C2A0BAEFAD76D
:10AAF2000A50085C0B500958D8A004D00A50085ECE
:10AB02000B50095AD8900B320A320C2EF1D708C0DA
:10AB120008F009C009F01200C30E046ECD0EE82E33
:10AB2200FED7042EFCD700F0330ED3EC54F0320ED5
:10AB3200D3EC54F0280ED3EC54F00F0ED3EC54F0B7
:10AB4200060ED3EC54F0010ED3EC54F0C30E046E97
:10AB5200CD0EE82EFED7042EFCD700F00F0ED3EC5C
:10AB620054F01200000E066E000E056E0350041023
:10AB7200D8B41CD0010E076E04D0D8900336043628
:10AB8200072A04AEFAD7D890053606360350015C80
:10AB920004500258D8A005D00350015E0450025A56
:10ABA2000580D89004320332072EEDD705C001F09C
:10ABB20006C002F01200056E000E096E000E086E4D
:10ABC200000E076E000E066E000E096E000E086E75
:10ABD2000DD00850011808E109500218D8A404D079
:10ABE200000E076E010E066E084A092A0550036E12
:10ABF200046A0350085C04500958D8A0EAD706C07A
:10AC020001F007C002F01200C69A94869488800E62
:10AC1200C76E280EC66E000EC56E000E016E5A0E6D
:10AC2200026E620E036E020E046E0EC012F00FC0B0
:10AC320013F010C014F011C015F0020ED8901236A5
:10AC4200133614361536E82EF9D712C005F013C0A4
:10AC520006F014C007F015C008F0DBEC56F0010452
:10AC6200C86E1200000E086E000E076E000E0A6E0D
:10AC7200000E096E000E0A6E000E096E0A501DE1EA
:10AC820018D0D8900934D96E0A34DA6E0150D92618
:10AC92000250DA220350DE1808E10450DE18D8A46C
:10ACA20004D009C007F00AC008F0094A0A2A0A506B
:10ACB20004E1080E095CD8A0E4D707C001F008C07F
:10ACC20002F012009A0EF66EAA0EF76E000EF86EE1
:10ACD20002EE50F010EE3EF00900F5CFEEFFE55027
:10ACE200E150FAE1820EF66EA90EF76E000EF86ED2
:10ACF20000EE6EF010EE08F00900F5CFEEFFE55021
:10AD0200E150FAE102EE00F0500EEE6AE806FDE1D3
:10AD120001EE8AF06C0EEE6AE806FDE100EED0F07C
:10AD2200300EEE6AE806FDE1796A786A776A766A39
:10AD32000001DBEF59F0026E0250F00B016E8C50F5
:10AD42000F0B8C6E01508C108C6E000EF2BE010E39
:10AD5200786EF29E8C86530EE82EFED700F08C960B
:10AD6200C80E00D0E82EFDD778B002D0F29E01D0F6
:10AD7200F28E0238F00B026E0250F00B016E8C5014
:10AD82000F0B8C6E01508C108C6E000EF2BE010EF9
:10AD9200786EF29E8C86530EE82EFED700F08C96CB
:10ADA200C80E00D0E82EFDD778B002D0F29E01D0B6
:10ADB200F28E1200000E096E000E0A6E000E0B6E6D
:10ADC200000E0C6E0550061007100810D8B42AD0D9
:10ADD200010E0D6E06D0D8900536063607360836B7
:10ADE2000D2A08AEF8D7D89009360A360B360C363B
:10ADF2000550015C06500258075003580850045889
:10AE0200D8A009D00550015E0650025A0750035AD5
:10AE12000850045A0980D8900832073206320532A7
:10AE22000D2EE1D709C001F00AC002F00BC003F0F9
:10AE32000CC004F01200000E016E5A0E026E620E79
:10AE4200036E020E046E0FC013F010C014F011C096
:10AE520015F012C016F0060ED890133614361536B9
:10AE62001636E82EF9D713C005F014C006F015C047
:10AE720007F016C008F014EC58F00104AF6EAC9C59
:10AE8200AC98AC8AAB9CAB8820EE08F06E50D92609
:10AE92006F50DA22010EDF6E20EE09F06E50D926D5
:10AEA2006F50DA22010EDF6E400E0101EE6F020ECC
:10AEB200EF6F949C948EAB8E1200000E076E000E04
:10AEC200066E000E056E000E046E000E076E460E34
:10AED200066E075014E1690E065CD8B010D0065019
:10AEE200DDEC54F0036E0350046E056A04C001F0F9
:10AEF2000650230F38EC55F0064A072AEAD7000E0F
:10AF0200076E230E066E075014E1460E065CD8B09B
:10AF120010D00650DDEC54F0036E0350046E056A47
:10AF220004C001F00650230F38EC55F0064A072AF8
:10AF3200EAD7000E076E000E066E075014E1230ECC
:10AF4200065CD8B012000650DDEC54F0036E0350DC
:10AF5200046E056A04C001F00650230F38EC55F068
:10AF6200064A072AEAD71200000E066E000E056E88
:10AF720015D0000E066E010E056E50D0000E066E44
:10AF8200020EFAD7000E066E030EF6D7000E066EFC
:10AF9200040EF2D7000E066E000EEED701C003F0CB
:10AFA20002C004F00450000AD8A4F4D70350030AE4
:10AFB200D8B4DFD7040AD8B4DCD70D0AD8B4DED7A8
:10AFC200060AD8B4D6D7010AD8B4DCD7020AD8B454
:10AFD200D5D71E0AD8B4D6D7030AD8B4D3D7010A14
:10AFE200D8B4CCD7050AD8B4CDD70F0AD8B4CED7A7
:10AFF200030AD8B4C7D7010AD8B4C4D7060AD8B44A
:10B00200C5D7020AD8B4BED73D0AD8B4BFD7050AFD
:10B01200D8B4BCD70C0AD8B4B9D7BCD705C001F094
:10B0220006C002F01200000E0A6E08AE0AD0081E18
:10B03200071E061E056C000E062207220822010EBC
:10B042000A6E04AE0AD0041E031E021E016C000E1C
:10B05200022203220422010E0A1A000E0B6E000EB7
:10B062000C6E000E0D6E000E0E6E055006100710CF
:10B072000810D8B42AD0010E096E06D0D890053631
:10B08200063607360836092A08AEF8D7D8900B36A6
:10B092000C360D360E360550015C0650025807502C
:10B0A200035808500458D8A009D00550015E065034
:10B0B200025A0750035A0850045A0B80D89008329B
:10B0C200073206320532092EE1D70A50D8B408D029
:10B0D2000E1E0D1E0C1E0B6C000E0C220D220E22DB
:10B0E2000BC001F00CC002F00DC003F00EC004F062
:10B0F20012003AD0000E066E010E2FD0000E066E20
:10B10200020E2BD0000E066E030E27D0000E066E26
:10B11200070E23D0000E066E080E1FD0000E066E1C
:10B12200090E1BD0000E066E0A0E17D0000E066E18
:10B132000B0E13D0000E066E0C0E0FD0000E066E14
:10B142000D0E0BD0000E066E0E0E07D0000E066E10
:10B152000F0E03D0000E066E100E056E36D001C023
:10B1620005F002C006F031D001C003F002C004F0C5
:10B172000450000AD8A4F3D70350010AD8B4BED7AA
:10B18200030AD8B4BFD70A0AD8B4C0D7010AD8B4C0
:10B19200C1D7030AD8B4C2D71E0AD8B4ABD7010AA2
:10B1A200D8B4C8D7030AD8B4C9D70E0AD8B4CAD7F4
:10B1B200010AD8B4CBD7030AD8B4CCD73B0AD8B447
:10B1C200B1D7090AD8B4B2D7CAD705C001F006C0B0
:10B1D20002F01200000E066E000E056E0DD0000E7B
:10B1E200066E010E03D0000E066E020E056E65D0CD
:10B1F200000E066E000EFAD701C003F002C004F082
:10B202000450000AD8A4F4D70350030AD8B4E7D7ED
:10B21200070AD8B4E8D70C0AD8B4E1D7010AD8B4DF
:10B22200E2D7030AD8B4DBD7010AD8B4DCD71A0AAA
:10B23200D8B4D5D7030AD8B4D2D7010AD8B4CFD755
:10B24200070AD8B4D0D7010AD8B4CDD7030AD8B4E4
:10B25200C6D7010AD8B4C7D70D0AD8B4C4D7010AD1
:10B26200D8B4C1D73B0AD8B4BAD7010AD8B4B7D731
:10B27200030AD8B4B8D7010AD8B4B1D7070AD8B4E8
:10B28200B2D7010AD8B4AFD7030AD8B4A8D7010AF3
:10B29200D8B4A5D70F0AD8B4A2D7010AD8B4A3D775
:10B2A200030AD8B49CD7010AD8B49DD7070AD8B4E8
:10B2B20096D7020AD8B493D79BD705C001F006C02F
:10B2C20002F01200000E066E000E056E0DD0000E8A
:10B2D200066E020E056E69D0000E066E010EFAD7DA
:10B2E200000E066E000EF6D701C003F002C004F095
:10B2F2000450000AD8A4F4D70350010AD8B4ECD7FA
:10B30200030AD8B4E4D70A0AD8B4E6D7010AD8B4F3
:10B31200E3D7030AD8B4DBD7010AD8B4D8D7070ACF
:10B32200D8B4DAD7010AD8B4D7D7030AD8B4D4D755
:10B33200010AD8B4CCD71F0AD8B4C9D7060AD8B4E0
:10B34200C6D7010AD8B4C3D70F0AD8B4C0D7010AE6
:10B35200D8B4BDD7030AD8B4BFD7010AD8B4B7D777
:10B36200070AD8B4B9D7010AD8B4B6D7030AD8B4F1
:10B37200B3D7010AD8B4ABD73F0AD8B4ADD7010AC4
:10B38200D8B4AAD7030AD8B4A7D7010AD8B49FD78A
:10B39200090AD8B49CD7010AD8B49ED7070AD8B4F0
:10B3A2009BD7010AD8B498D79BD705C001F006C035
:10B3B20002F01200000E896E000E8A6E000E8B6E75
:10B3C200000E8C6E000E8D6E92689368000E946E65
:10B3D200000E956E000E966E000EC26E0F0EC16EBE
:10B3E2008DEC55F0010ED3EC54F0C30E646ECD0E0D
:10B3F200E82EFED7642EFCD700F00C0ED3EC54F0EE
:10B402009B0E0D6EFF0E0E6E9AEC64F0800E0F6EA8
:10B41200250E106E000E116E000E126E1CEC57F00F
:10B42200000E6B6E000E6A6E000E676E000E666E88
:10B43200000E696E000E686E000E6D6E000E6C6E70
:10B44200FB0EDDEC54F0646E64506C6E6D6A6C2819
:10B452006D10D8A41FD012EC55F0010ED3EC54F0AD
:10B46200C30E646ECD0EE82EFED7642EFCD700F01C
:10B47200BC0E0D6EFD0E0E6E9AEC64F0660E656EDD
:10B48200760E646EC10EE82EFED7642EFCD7652EB2
:10B49200FAD700F0BEEC76F05EC06AF05FC06BF0E7
:10B4A2006A046B10D8B4C2EC62F0764A772A00EFD5
:10B4B20000F0000E066E000E056E11D0000E066E34
:10B4C200010E07D0000E066E020E03D0000E066EAD
:10B4D200030E056E74D0000E066E000EFAD701C080
:10B4E20003F002C004F00450000AD8A4F4D70350B9
:10B4F200050AD8B4E3D7030AD8B4E4D7010AD8B40A
:10B50200E5D70B0AD8B4DAD7010AD8B4DBD7030AD5
:10B51200D8B4DCD7010AD8B4D1D71F0AD8B4D2D74D
:10B52200010AD8B4CBD7030AD8B4CCD7010AD8B40D
:10B53200CDD7070AD8B4C2D7010AD8B4C3D70D0AE7
:10B54200D8B4BCD7010AD8B4BDD7050AD8B4BAD783
:10B55200010AD8B4BBD7030AD8B4B8D7010AD8B401
:10B56200B1D73F0AD8B4AAD7010AD8B4ABD7030AD5
:10B57200D8B4A4D7010AD8B4A1D7070AD8B49ED7A1
:10B58200010AD8B49FD7030AD8B49CD7010AD8B409
:10B592009DD70F0AD8B49AD7010AD8B493D7030A11
:10B5A200D8B48CD7010AD8B489D7070AD8B48AD7B5
:10B5B200010AD8B48BD7030AD8B488D78CD705C070
:10B5C20001F006C002F01200000E166E000E156E9B
:10B5D200000E186E000E176E000E106E000E0F6E2B
:10B5E200000E146E000E136E000E126E000E116E1F
:10B5F200FA0EDDEC54F00D6E0D500F6E106A0F5006
:10B602001010D8B405D0040E0F181010D8A405D00D
:10B61200000E146E000E136E10D0FF0E0F24016E7A
:10B62200FF0E1020026E000E046E230E036E25EC38
:10B6320055F001C013F002C014F0000E186E0B0E8C
:10B64200176E18504DE1230E175CD8B01200175038
:10B652001324DDEC54F00D6E0D50156E166AD89061
:10B662001134D96E1234DA6E0750D9260850DA2214
:10B6720015C0DEFF16C0DDFF175013240D6E0D2816
:10B68200DDEC54F00E6E0E50156E166AD890113421
:10B69200D96E1234DA6E0950D9260A50DA2215C050
:10B6A200DEFF16C0DDFF17501324020FDDEC54F04D
:10B6B2000D6E0D50156E166AD8901134D96E123473
:10B6C200DA6E0B50D9260C50DA2215C0DEFF16C0F6
:10B6D200DDFF114A122A030E1726000E1822B1D7D7
:10B6E2001200000E066E640E056E49D0000E066E44
:10B6F200020E43D0000E066E000E3FD0000E066E04
:10B70200010E3BD0000E066E030E37D0000E066E01
:10B71200040E33D0000E066E050E2FD0000E066EFC
:10B72200060E2BD0000E066E070E27D0000E066EF8
:10B73200080E23D0000E066E090E1FD0000E066EF4
:10B742000A0E1BD0000E066E0B0E17D0000E066EF0
:10B752000C0E13D0000E066E0D0E0FD0000E066EEC
:10B762000E0E0BD0000E066E0F0E07D0000E066EE8
:10B77200100E03D0000E066E110E056E3FD001C0F2
:10B7820003F002C004F00450000AD8A437D00350DA
:10B79200030AD8B4AFD7040AD8B4B0D70D0AD8B4C4
:10B7A200B1D7060AD8B4A2D7010AD8B4B7D7020AC9
:10B7B200D8B4ACD71E0AD8B4B9D7030AD8B4B2D712
:10B7C200010AD8B4A7D7050AD8B4B8D70F0AD8B493
:10B7D200C1D7030AD8B4B6D7010AD8B4ABD7060A80
:10B7E200D8B4BCD7020AD8B4B1D73D0AD8B4BAD7B4
:10B7F200050AD8B4BBD70C0AD8B4BCD705C001F02F
:10B8020006C002F01200000E086E000E076E60D035
:10B8120003500410D8A404D0000E086E010E08D004
:10B82200030445D0030E03180410D8A403D0F4D7A0
:10B83200076E7CD0040E03180410D8B4EDD7060EA0
:10B8420003180410D8B436D0070E30D0030E0318F4
:10B852000410D8B4E1D7040E03180410D8B4DCD70E
:10B86200050E03180410D8B4D7D7060E0318041017
:10B87200D8A4EAD71FD0080E03180410D8B41AD0DF
:10B88200090E14D0080E0BD0080E03180410D8B4F9
:10B89200C3D7090E03180410D8B4BED70A0E031872
:10B8A2000410D8B4B9D70B0E01D00C0E0318041033
:10B8B200D8A43CD0000E086E020EBAD70C0E0318A4
:10B8C2000410D8A433D0A8D7000E086E000EB0D74B
:10B8D20001C005F002C006F00650000AD8A4F4D751
:10B8E2000550000AD8B494D7030AD8B49BD7070AE4
:10B8F200D8B4ACD7020AD8B4BED7010AD8B4BBD7E1
:10B902000F0AD8B4BFD7010AD8B4BED7030AD8B435
:10B91200BBD7070AD8B4C9D7030AD8B4CFD7010A0C
:10B92200D8B4CCD71F0AD8B4C9D7CED707C001F034
:10B9320008C002F01200000E086E000E076E7BD0E7
:10B9420003500410D8A404D0000E086E010E20D0BB
:10B9520003040410D8A49DD0000E086E020E18D065
:10B96200030E03180410D8B4EFD7040E0318041002
:10B97200D8B4F2D7060E03180410D8B4E5D7070ED0
:10B982000318E7D7030E03180410D8A403D0DCD79A
:10B99200076E7FD0040E03180410D8B4D5D7050E55
:10B9A20003180410D8B4D0D7060E03180410D8B464
:10B9B200D3D7E5D7080E03180410D8A422D0C4D7D1
:10B9C200080E03180410D8B4C7D70B0ED9D7080E27
:10B9D20003180410D8B4B8D7090E03180410D8B449
:10B9E200B3D70A0E03180410D8B4B6D70B0E031837
:10B9F2000410D8A44ED0A8D7080E03180410D8B447
:10BA0200ABD7090EBDD7080E03180410D8B49CD7C3
:10BA1200090E03180410D8B497D70A0E031804109D
:10BA2200D8A4D3D791D70C0EABD70C0EE0D7000E0B
:10BA3200086E000EADD701C005F002C006F0065038
:10BA4200000AD8A4F4D70550010AD8B479D7020A5B
:10BA5200D8B486D7060AD8B495D7030AD8B4AAD7D9
:10BA62000E0AD8B4ADD7020AD8B4B1D7010AD8B4F5
:10BA7200C3D7070AD8B4C7D7010AD8B4D6D7030A9E
:10BA8200D8B4D1D7010AD8B4D0D71E0AD8B4CDD7EA
:10BA9200CED707C001F008C002F01200000E086EF7
:10BAA200000E076E8FD003500410D8B40BD00304DD
:10BAB2000410D8B410D0020E7AD0030E031804106A
:10BAC200D8A404D0000E086E010E2ED0040E031866
:10BAD2000410D8A404D0000E086E020E25D0050E64
:10BAE20003180410D8A413D0000E086E030E1CD045
:10BAF200030E03180410D8B4E5D7040E031804107B
:10BB0200D8B4E9D7050E03180410D8B4EDD7060E41
:10BB120003180410D8B4D6D7070E01D0090E0318A3
:10BB22000410D8A480D0D7D7076E7DD0080E031892
:10BB32000410D8B4D0D7090E03180410D8B4D4D73F
:10BB42000A0E03180410D8B4CFD70B0EE8D7080E8C
:10BB520003180410D8B4B6D7090E03180410D8B4C9
:10BB6200BAD70A0E03180410D8B4ACD70B0E16D0ED
:10BB7200080E03180410D8A4D1D7A4D7080E0318AE
:10BB82000410D8B4A8D7090E03180410D8B4ACD73F
:10BB92000A0E03180410D8A4D8D7A6D70318041085
:10BBA200D8A441D08FD70C0EF9D70C0EB8D70318F2
:10BBB2000410D8A438D098D70C0EF9D7000E086E0E
:10BBC200000EB2D701C005F002C006F00650000A0E
:10BBD200D8A4F4D70550020AD8B465D7060AD8B457
:10BBE2006CD7010AD8B484D7020AD8B4C1D70E0AD6
:10BBF200D8B49CD7030AD8B4AAD7010AD8B4B8D704
:10BC0200070AD8B4BBD7010AD8B4CDD7030AD8B42F
:10BC1200CAD7010AD8B4C9D71F0AD8B4CDD7010AE6
:10BC2200D8B4CAD7CBD707C001F008C002F01200BF
:10BC3200010ED3EC54F0C30E2D6ECD0EE82EFED7BE
:10BC42002D2EFCD700F04C0E0D6EFD0E0E6E2BC08D
:10BC52000FF02CC010F09AEC64F0C00ED3EC54F04C
:10BC6200000E306E000E2F6E000E366E000E356E18
:10BC720020EED8F010EE38F0070EDBCFE3FFE80637
:10BC8200FCE2000E346E000E336E000E326E000EB9
:10BC9200316E29C001F02AC002F0B5EC57F001C0A4
:10BCA2002FF002C030F081A2FED781380F0B0F0BAC
:10BCB200376E81B2FED70F0E3718D8B470D00E0E81
:10BCC2003718D8A405D0000E326E010E316E67D03F
:10BCD2003750D8B407D03704D8B404D0020E37187E
:10BCE200D8A42CD02F50355C30503658D8B0DBD782
:10BCF2003750010D620EF324F66EFC0EF420F76E3F
:10BD0200F86A000EF8220800F550E7EC54F03750BC
:10BD12002D6E2E6A010E2D26000E2E22D89035345D
:10BD2200D96E3634DA6E380ED926000EDA222DC0DC
:10BD3200DEFF2EC0DDFF354A362AB5D70C0E371886
:10BD4200D8A4B1D7010ED3EC54F0C30E2D6ECD0E94
:10BD5200E82EFED72D2EFCD700F04C0E0D6EFD0EF8
:10BD62000E6E2BC00FF02CC010F09AEC64F0C00ED7
:10BD7200D3EC54F0000E366E000E356E000E396EA6
:10BD8200000E386E000E3B6E000E3A6E000E3D6ED7
:10BD9200000E3C6E000E3F6E000E3E6E84D73104E4
:10BDA2003210D8A405D0000E2A6E640E296E12003D
:10BDB20029C001F02AC002F0380E036E000E046E94
:10BDC200E4EC6BF001C033F002C034F033503410B5
:10BDD200D8A426D0010ED3EC54F0C30E2D6ECD0E96
:10BDE200E82EFED72D2EFCD700F0710E0D6EFE0E42
:10BDF2000E6E9AEC64F0C00ED3EC54F00C0E0D6E85
:10BE0200FF0E0E6E9AEC64F0330E2E6EBB0E2D6E8C
:10BE1200E00EE82EFED72D2EFCD72E2EFAD708D70D
:10BE220033C029F034C02AF012000C0ED3EC54F0C7
:10BE3200010ED3EC54F0C30E2B6ECD0EE82EFED7BE
:10BE42002B2EFCD700F0DB0E0D6EFD0E0E6E9AEC63
:10BE520064F0C00ED3EC54F0000E336E000E326E5E
:10BE6200000E2F6E000E2E6E000E316E000E306E22
:10BE720081A2FED781380F0B0F0B346E81B2FED731
:10BE82000F0E3418D8B4C3D00E0E3418D8A405D06F
:10BE9200000E316E640E306EBAD03450D8B423D056
:10BEA2003404D8B420D0020E3418D8B41CD0040EF6
:10BEB2003418D8B418D0050E3418D8B414D0060EDD
:10BEC2003418D8B410D0080E3418D8B40CD0090ED7
:10BED2003418D8B408D00A0E3418D8B404D00D0ED1
:10BEE2003418D8A473D032503310D8A44CD03404B0
:10BEF200D8B41CD0020E3418D8B418D0040E34189A
:10BF0200D8B414D0050E3418D8B410D0060E341894
:10BF1200D8B40CD0080E3418D8B408D0090E34188E
:10BF2200D8B404D00A0E3418D8A414D0020E322683
:10BF3200000E33223450010D620EF324F66EFC0E15
:10BF4200F420F76EF86A000EF8220800F550E7ECCC
:10BF520054F03AD03450D8A48BD73450010D620E2D
:10BF6200F324F66EFC0EF420F76EF86A000EF82247
:10BF72000800F550E7EC54F0324A332A23D02E263B
:10BF8200000E2F2275D732043310D8A471D7070EB2
:10BF9200346404D00D0E3418D8A46AD73450010D7D
:10BFA200620EF324F66EFC0EF420F76EF86A000EB1
:10BFB200F8220800F550E7EC54F0324A332A3450A4
:10BFC200D8A402D0140EDBD73450D9D70C0E3418B3
:10BFD200D8A44ED7010ED3EC54F0C30E2B6ECD0E67
:10BFE200E82EFED72B2EFCD700F0DB0E0D6EFD0ED9
:10BFF2000E6E9AEC64F0C00ED3EC54F0000E336E69
:10C00200000E326E000E2F6E000E2E6E31D7640EB1
:10C0120030183110D8A405D030C029F031C02AF030
:10C0220012002EC001F02FC002F07AEC58F001C0CD
:10C032002CF002C02DF02CC029F02DC02AF01200E5
:10C0420001040210D8B40AD0030E01180210D8B4A9
:10C0520005D0050E01180210D8A405D0000E026EFC
:10C06200000E016E1200020E01180210D8B40AD09E
:10C07200040E01180210D8B405D0060E01180210E1
:10C08200D8A405D0000E026E010E016E1200070E3A
:10C0920001180210D8A405D0000E026E020E016E25
:10C0A2001200080E01180210D8B40AD00C0E0118A2
:10C0B2000210D8B405D0110E01180210D8A405D070
:10C0C200000E026E030E016E1200090E011802101C
:10C0D200D8B40AD00D0E01180210D8B405D0120E31
:10C0E20001180210D8A405D0000E026E040E016ED3
:10C0F20012000E0E01180210D8B405D0130E01184A
:10C102000210D8A405D0000E026E050E016E1200B8
:10C112000A0E01180210D8B40AD00F0E011802102C
:10C12200D8B405D0140E01180210D8A405D0000E00
:10C13200026E060E016E12000B0E01180210D8B428
:10C142000AD0100E01180210D8B405D0150E01182D
:10C152000210D8A405D0000E026E070E016E120066
:10C16200160E01180210D8B41ED0180E01180210B3
:10C17200D8B419D01A0E01180210D8B414D01C0E5B
:10C1820001180210D8B40FD0200E01180210D8B432
:10C192000AD0240E01180210D8B405D0260E0118B8
:10C1A2000210D8A405D0000E026E080E016E120015
:10C1B200170E01180210D8B419D0190E0118021066
:10C1C200D8B414D01D0E01180210D8B40FD0210E0D
:10C1D20001180210D8B40AD0250E01180210D8B4E2
:10C1E20005D0270E01180210D8A405D0000E026E49
:10C1F200090E016E12001E0E01180210D8B40AD0E8
:10C20200220E01180210D8B405D0280E011802100F
:10C21200D8A405D0000E026E0A0E016E12001B0E8B
:10C2220001180210D8B40FD01F0E01180210D8B492
:10C232000AD0230E01180210D8B405D0290E011815
:10C242000210D8A405D0000E026E0B0E016E120071
:10C252002A0E01180210D8B414D02B0E01180210A5
:10C26200D8B40FD02C0E01180210D8B40AD02D0E5B
:10C2720001180210D8B405D02E0E01180210D8A44D
:10C2820005D0000E026E0C0E016E1200000E026E40
:10C29200000E016E1200FA0EDDEC54F05C6E000E20
:10C2A2005B6E000E5A6E000E576E000E566E000E3A
:10C2B200596E000E586E5C50D8A42BD0010ED3ECF0
:10C2C20054F0C30E546ECD0EE82EFED7542EFCD77A
:10C2D20000F0930E0D6EFF0E0E6E9AEC64F0C00E1F
:10C2E200D3EC54F0F60E0D6EFE0E0E6E9AEC64F068
:10C2F200660E556E760E546EC10EE82EFED7542E83
:10C30200FCD7552EFAD700F0000E536E0E0E526E69
:10C3120012005C04D8A453D0000E5B6E010E5A6E5C
:10C32200010ED3EC54F0C30E546ECD0EE82EFED7A0
:10C33200542EFCD700F0F90E0D6EFD0E0E6E9AEC27
:10C3420064F0C00ED3EC54F0F60E0D6EFE0E0E6EBF
:10C352009AEC64F0660E556E760E546EC10EE82E9F
:10C36200FED7542EFCD7552EFAD700F0010ED3EC8F
:10C3720054F0C30E546ECD0EE82EFED7542EFCD7C9
:10C3820000F00A0E0D6EFD0E0E6E9AEC64F0C00EF9
:10C39200D3EC54F09B0E0D6EFE0E0E6E9AEC64F012
:10C3A2001A0E556E5E0E546E6E0EE82EFED7542E89
:10C3B200FCD7552EFAD700D081B2D4D0FDD7010ECA
:10C3C200D3EC54F0C30E546ECD0EE82EFED7542E8D
:10C3D200FCD700F01B0E0D6EFD0E0E6E5CC00FF052
:10C3E200106A9AEC64F0C00ED3EC54F0F60E0D6EA7
:10C3F200FE0E0E6E9AEC64F0660E556E760E546E5C
:10C40200C10EE82EFED7542EFCD7552EFAD700F0D7
:10C41200010ED3EC54F0C30E546ECD0EE82EFED7AF
:10C42200542EFCD700F0E80E0D6EFC0E0E6E9AEC48
:10C4320064F0C00ED3EC54F0600E0D6EFF0E0E6E63
:10C442009AEC64F081A2FED781380F0B0F0B5D6E60
:10C4520081B2FED75D50D8B40BD05D04D8B408D0F9
:10C46200020E5D18D8B404D0040E5D18D8A4EAD721
:10C472005DC001F0026A5C50DCEC55F001C056F080
:10C4820002C057F056045710D8A4DCD75D50010DF6
:10C49200510EF324F66EFC0EF420F76EF86A000ECD
:10C4A200F8220800F550E7EC54F0040E5D18D8A409
:10C4B20004D05DC05AF05B6A06D0010E5D245A6E4C
:10C4C2005B6A000E5B22330E556EBB0E546EE00E9D
:10C4D200E82EFED7542EFCD7552EFAD7010ED3ECF8
:10C4E20054F0C30E546ECD0EE82EFED7542EFCD758
:10C4F20000F0AA0E0D6EFF0E0E6E9AEC64F0330E73
:10C50200556EBB0E546EE00EE82EFED7542EFCD7AD
:10C51200552EFAD7010ED3EC54F0C30E546ECD0E45
:10C52200E82EFED7542EFCD700F00A0E0D6EFD0E3B
:10C532000E6E9AEC64F0C00ED3EC54F09B0E0D6EAE
:10C54200FE0E0E6E9AEC64F01A0E556E5E0E546E6E
:10C552006E0EE82EFED7542EFCD7552EFAD700D0F9
:10C5620081A2FED75AC029F05BC02AF02CEC69F0F8
:10C5720029C058F02AC059F058C052F059C053F09F
:10C582001200000E0001CD6F000ECC6F000EB56FD1
:10C59200000EB46F000E816F000E806F000E936F5D
:10C5A200000E926F000ECF6F000ECE6F000EB76FAF
:10C5B200000EB66F000EB96F000EB86F000EBB6FA3
:10C5C200000EBA6F21EEDAF010EE82F00F0EDBCF22
:10C5D200E3FFE806FCE221EECAF010EEBCF00F0E1B
:10C5E200DBCFE3FFE806FCE221EEBAF010EE94F0B6
:10C5F2000F0EDBCFE3FFE806FCE221EEAAF010EE1D
:10C60200A4F00F0EDBCFE3FFE806FCE2000EB56FED
:10C61200010EB46F820E076E000E086E940E096E44
:10C62200000E0A6EA40E0B6E000E0C6EE5EC5AF0B4
:10C63200820E016E000E026EBC0E036E000E046EC0
:10C6420042EC71F0000E0001CD6F000ECC6FCD51A7
:10C6520005E1080ECC5DD8B0120001D01200D890CE
:10C66200CC35D96ECD35DA6EBC0ED926000EDA2263
:10C67200DE50DE10D8B456D1D890CC35D96ECD3537
:10C68200DA6EBC0ED926000EDA22DECFB4F0DDCF90
:10C69200B5F0CCC039F0CDC03AF0D89039363A3640
:10C6A200020E3926000E3A22BC0E3924D96E000E33
:10C6B2003A20DA6EDECF92F0DDCF93F0010ED3ECAA
:10C6C20054F0C30E396ECD0EE82EFED7392EFCD7AC
:10C6D20000F0560E0D6EFF0E0E6E9AEC64F0C00E58
:10C6E200D3EC54F04C0E0D6EFF0E0E6ED89000017E
:10C6F200CC35D96ECD35DA6EBC0ED926000EDA22D3
:10C70200DECF0FF0DDCF10F09AEC64F0660E3A6ED9
:10C71200760E396EC10EE82EFED7392EFCD73A2E90
:10C72200FAD700F0820E016E000E026ED890000160
:10C73200CC35D96ECD35DA6EBC0ED926000EDA2292
:10C74200DECF03F0DDCF04F033EC56F001C0CEF0C3
:10C7520002C0CFF0010ED3EC54F0C30E396ECD0EF1
:10C76200E82EFED7392EFCD700F0720E0D6EFF0EAA
:10C772000E6ED8900001CE35D96ECF35DA6E940E9A
:10C78200D926000EDA22DECF39F0DDCF3AF0D8908A
:10C7920039363A36500E3924D96E020E3A20DA6E04
:10C7A200DECF0FF0DDCF10F09AEC64F0C00ED3ECC8
:10C7B20054F0690E0D6EFF0E0E6ED8900001CE354C
:10C7C200D96ECF35DA6EA40ED926000EDA22DECF6C
:10C7D20039F0DDCF3AF0D89039363A36740E392432
:10C7E200D96E020E3A20DA6EDECF0FF0DDCF10F0F6
:10C7F2009AEC64F0660E3A6E760E396EC10EE82E31
:10C80200FED7392EFCD73A2EFAD700F0D890000185
:10C81200CE35D96ECF35DA6E940ED926000EDA22D5
:10C82200DECF01F0DDCF02F0D890CE35D96ECF3514
:10C83200DA6EA40ED926000EDA22DECF03F0DDCFA7
:10C8420004F004EC5CF001C0B6F002C0B7F0D8907E
:10C852000001CE35D96ECF35DA6E940ED926000E90
:10C86200DA22DECF01F0DDCF02F0D890CE35D96EDC
:10C87200CF35DA6EA40ED926000EDA22DECF03F00F
:10C88200DDCF04F09CEC5CF001C0B8F002C0B9F05E
:10C89200D8900001CE35D96ECF35DA6E940ED926F6
:10C8A200000EDA22DECF01F0DDCF02F0D890CE35D5
:10C8B200D96ECF35DA6EA40ED926000EDA22DECF7B
:10C8C20003F0DDCF04F04FEC5DF001C0BAF002C01E
:10C8D200BBF0010ED3EC54F0C30E396ECD0EE82E30
:10C8E200FED7392EFCD700F0620E0D6EFE0E0E6ED4
:10C8F200B6C00FF0B7C010F0B8C011F0B9C012F056
:10C90200BAC013F0BBC014F09AEC64F0660E3A6E33
:10C91200760E396EC10EE82EFED7392EFCD73A2E8E
:10C92200FAD700F00001CC4BCD2BCD5101E191D6CD
:10C9320012000F0E1F6E000E206EE6D1250E281873
:10C94200D8B404D02850E7EC54F0DED1000E276EA4
:10C95200000E266E000E256E03D025840D4A0E2A87
:10C962000DC0F6FF0EC0F7FFF86A0800F550300A56
:10C97200D8B4F3D70DC0F6FF0EC0F7FFF86A08006F
:10C98200F550F1EC54F0D8A092D0000E276E000EB4
:10C99200266E26C001F027C002F0000E046E0A0EB9
:10C9A200036E25EC55F001C026F002C027F0D00E30
:10C9B200176EFF0E186E0DC0F6FF0EC0F7FFF86A75
:10C9C2000800F550196E1A6A1750192618501A22C3
:10C9D200195026261A5027220D4A0E2A0DC0F6FF9C
:10C9E2000EC0F7FFF86A0800F550F1EC54F0D8A039
:10C9F2005ED0CFD7258E76D01FC0D9FF20C0DAFFF8
:10CA0200DECF1DF0DDCF1EF0020E1F26000E20220B
:10CA12001D501E10D8A404D0A30E1D6EFF0E1E6E54
:10CA2200000E226E000E216E02D0214A222A2150CF
:10CA32001D24176E22501E20186E17C0F6FF18C054
:10CA4200F7FFF86A0800F5500009D8A4EED726507F
:10CA5200215C27502258D8B005D02150265E2250A2
:10CA6200275A08D0000E276E000E266E03D0200E25
:10CA7200E7EC54F02606D8A027062628F8E1272856
:10CA8200D8B40CD0F4D71DC0F6FF1EC0F7FFF86A69
:10CA92000800F550E7EC54F01D4A1E2A2106D8A0E2
:10CAA20022062128F0E12228D8B42ED1ECD70DC0DD
:10CAB200F6FF0EC0F7FF0D4A0E2AF86A0800F5CFFE
:10CAC20028F02850000AD8B41200640AD8B40AD058
:10CAD2000D0AD8B407D01A0AD8B48ED70B0AD8B424
:10CAE20089D712D125BE15D01FC0D9FF20C0DAFFC9
:10CAF200DECF23F0DDCF24F0020E1F26000E20220F
:10CB020024AE4AD0030E2512236C241ED8B0242A48
:10CB120043D01FC0D9FF20C0DAFFDECF23F0DDCF24
:10CB220024F0020E1F26000E202236D0010E286E9F
:10CB3200050E2818D8B438D02850020D730EF324ED
:10CB4200F66EFC0EF420F76EF86A000EF822090069
:10CB5200F550235C0900F5502458D8A025D0282A86
:10CB6200E7D7010E286E040E2818D8B41DD028501D
:10CB7200020D7D0EF324F66EFC0EF420F76EF86AB9
:10CB8200000EF8220900F550235C0900F5502458E4
:10CB9200D8A00AD0282AE7D72550800B000AD8B49B
:10CBA200C5D7800AD8B4DDD726502710D8B409D00B
:10CBB20025C017F0030E1716D8B403D02606D8A046
:10CBC2002706800E28BE7F0E176E2650285C27503F
:10CBD200800A1758D8B007D02850265E000E28BE0B
:10CBE200FF0E275A04D0000E276E000E266E25A4D3
:10CBF20014D025C017F0030E1716D8B403D02D0E8B
:10CC0200E7EC54F026502710D8B41ED0300EE7ECD3
:10CC120054F02606D8A02706F5D726502710D8B4F8
:10CC22000AD0200EE7EC54F02606D8A0270626509C
:10CC32002710D8A4F6D725C017F0030E1716D8B4BC
:10CC420003D02D0EE7EC54F028C01CF059D01C5034
:10CC5200020D730EF324F66EFC0EF420F76EF86AE2
:10CC6200000EF8220900F5CF03F00A00F5CF04F018
:10CC720023C001F024C002F0B3EC55F001C008F06B
:10CC820002C009F0000E0B6E0A0E0A6E6CEC55F033
:10CC92000850300F286E31D023C001F024C002F0BA
:10CCA2001C50020D7D0EF324F66EFC0EF420F76E7E
:10CCB200F86A000EF8220900F5CF03F00A00F5CF5A
:10CCC20004F0B3EC55F001500F0B1B6E1B50010D1D
:10CCD200A40EF324F66EFC0EF420F76EF86A000E32
:10CCE200F8220800F5CF28F008D02550800B000A62
:10CCF200D8B4ADD7800AD8B4CFD72850E7EC54F0D7
:10CD02001C061C28D8A4F1D70DC0F6FF0EC0F7FFF1
:10CD12000D4A0E2AF86A0800F5CF28F02850D8B438
:10CD220012000CD6010ED3EC54F0C30E2B6ECD0EB6
:10CD3200E82EFED72B2EFCD700F07C0E0D6EFD0EDA
:10CD42000E6E29C00FF02AC010F09AEC64F0C00EEB
:10CD5200D3EC54F0000E346E000E336E000E2E6EC5
:10CD6200000E2D6E000E366E000E356E000E306E09
:10CD7200000E2F6E20EED0F010EE38F0070EDBCF53
:10CD8200E3FFE806FCE2000E326E000E316E81A275
:10CD9200FED781380F0B0F0B376E81B2FED70F0E05
:10CDA2003718D8B486D00E0E3718D8A405D0000E86
:10CDB200326E010E316E7DD00C0E3718D8A42DD0F4
:10CDC200010ED3EC54F0C30E2B6ECD0EE82EFED71F
:10CDD2002B2EFCD700F07C0E0D6EFD0E0E6E29C0C0
:10CDE2000FF02AC010F09AEC64F0C00ED3EC54F0AD
:10CDF200000E346E000E336E000E396E000E386E69
:10CE0200000E3B6E000E3A6E000E3D6E000E3C6E42
:10CE1200000E3F6E000E3E6EBAD73450B8E1040EDB
:10CE2200335CD8B0B4D7030E3718D8B404D0070E89
:10CE32003718D8A416D03750010D620EF324F66EBF
:10CE4200FC0EF420F76EF86A000EF8220800F55086
:10CE5200E7EC54F037502B6E2C6A1DD0334A342A3B
:10CE620096D70B0E3718D8A492D73750010D620E01
:10CE7200F324F66EFC0EF420F76EF86A000EF82228
:10CE82000800F550E7EC54F037502B6E2C6A010E77
:10CE92002B26000E2C22D8903334D96E3434DA6E1D
:10CEA200380ED926000EDA222BC0DEFF2CC0DDFFA1
:10CEB200D5D731043210D8A404D0000E366E640ED9
:10CEC20099D10C0E38183910D8A410D03A503B1012
:10CED200D8A40CD03C503D10D8A408D03E503F10EE
:10CEE200D8A404D0000E366E0C0E84D1030E38186E
:10CEF2003910D8A410D03A503B10D8A40CD03C50D2
:10CF02003D10D8A408D03E503F10D8A404D0000E43
:10CF1200366E030E6FD1070E38183910D8A410D010
:10CF22003A503B10D8A40CD03C503D10D8A408D0A5
:10CF32003E503F10D8A404D0000E366E070E5AD1D0
:10CF4200030E38183910D8A411D0070E3A183B1026
:10CF5200D8A40CD03C503D10D8A408D03E503F106D
:10CF6200D8A404D0000E366E0A0E44D1030E38182F
:10CF72003910D8A411D00C0E3A183B10D8A40CD0FA
:10CF82003C503D10D8A408D03E503F10D8A404D045
:10CF9200000E366E0F0E2ED1070E38183910D8A497
:10CFA20011D00C0E3A183B10D8A40CD03C503D10B6
:10CFB200D8A408D03E503F10D8A404D0000E366E3C
:10CFC200130E18D1030E38183910D8A412D0030E3C
:10CFD2003A183B10D8A40DD0070E3C183D10D8A427
:10CFE20008D03E503F10D8A404D0000E366E0D0E6D
:10CFF20001D1030E38183910D8A412D0030E3A18F2
:10D002003B10D8A40DD00C0E3C183D10D8A408D06B
:10D012003E503F10D8A404D0000E366E120EEAD055
:10D02200030E38183910D8A412D0070E3A183B1044
:10D03200D8A40DD0070E3C183D10D8A408D03E50FD
:10D042003F10D8A404D0000E366E110ED3D0030EBA
:10D0520038183910D8A412D00C0E3A183B10D8A4A4
:10D062000DD00C0E3C183D10D8A408D03E503F10F5
:10D07200D8A404D0000E366E1B0EBCD0030E381896
:10D082003910D8A412D0070E3A183B10D8A40DD0EC
:10D092000C0E3C183D10D8A408D03E503F10D8A426
:10D0A20004D0000E366E160EA5D0070E38183910B1
:10D0B200D8A412D0070E3A183B10D8A40DD00C0EEB
:10D0C2003C183D10D8A408D03E503F10D8A404D03C
:10D0D200000E366E1A0E8ED0070E38183910D8A4EC
:10D0E20012D00C0E3A183B10D8A40DD00C0E3C18DE
:10D0F2003D10D8A408D03E503F10D8A404D0000E52
:10D10200366E1F0E77D0030E38183910D8A413D0FC
:10D11200030E3A183B10D8A40ED0070E3C183D104F
:10D12200D8A409D00C0E3E183F10D8A404D0000E8B
:10D13200366E190E5FD0030E38183910D8A413D0EA
:10D14200070E3A183B10D8A40ED0070E3C183D101B
:10D15200D8A409D00C0E3E183F10D8A404D0000E5B
:10D16200366E1D0E47D0030E38183910D8A413D0CE
:10D17200070E3A183B10D8A40ED00C0E3C183D10E6
:10D18200D8A409D00C0E3E183F10D8A404D0000E2B
:10D19200366E220E2FD0030E38183910D8A413D0B1
:10D1A2000C0E3A183B10D8A40ED00C0E3C183D10B1
:10D1B200D8A409D00C0E3E183F10D8A404D0000EFB
:10D1C200366E270E17D0070E38183910D8A414D08F
:10D1D2000C0E3A183B10D8A40FD00C0E3C183D1080
:10D1E200D8A40AD00C0E3E183F10D8A405D0000EC9
:10D1F200366E2B0E356E2AD0010ED3EC54F0C30ED0
:10D202002B6ECD0EE82EFED72B2EFCD700F07F0E14
:10D212000D6EFE0E0E6E9AEC64F0C00ED3EC54F05E
:10D222000C0E0D6EFF0E0E6E9AEC64F0330E2C6E29
:10D23200BB0E2B6EE00EE82EFED72B2EFCD72C2E2B
:10D24200FAD7000E366E000E356E6CD535C029F059
:10D2520036C02AF01200FF0E2924016EFF0E2A208A
:10D26200026E000E046E230E036E25EC55F001C013
:10D2720050F002C051F05050DDEC54F02B6E2B50A8
:10D282002D6E2E6A5028DDEC54F02B6E2B502F6E33
:10D29200306A5050020FDDEC54F02B6E2B50316E81
:10D2A200326A5050030FDDEC54F02B6E2B50426E5D
:10D2B200436A5050040FDDEC54F02B6E2B50336E4A
:10D2C200346A5050050FDDEC54F02B6E2B50356E46
:10D2D200366A5050060FDDEC54F02B6E2B50376E31
:10D2E200386A5050070FDDEC54F02B6E2B50486E0D
:10D2F200496A5050080FDDEC54F02B6E2B504A6EE9
:10D302004B6A5050090FDDEC54F02B6E2B504C6ED3
:10D312004D6A50500A0FDDEC54F02B6E2B504E6EBE
:10D322004F6A50500B0FDDEC54F02B6E2B50446EB5
:10D33200456A50500C0FDDEC54F02B6E2B503D6EB5
:10D342003E6A50500D0FDDEC54F02B6E2B503F6EA9
:10D35200406A000E476E000E466E010ED3EC54F08A
:10D36200C30E2B6ECD0EE82EFED72B2EFCD700F06F
:10D37200B10E0D6EFF0E0E6E9AEC64F0C00ED3EC81
:10D3820054F0170E0D6EFE0E0E6E2DC00FF02EC055
:10D3920010F02FC011F030C012F031C013F032C0C3
:10D3A20014F09AEC64F0240E2C6E830E2B6ECF0ECA
:10D3B200E82EFED72B2EFCD72C2EFAD700F081A216
:10D3C200FED742C001F043C002F0000E046E3C0ED4
:10D3D200036EB3EC55F001C039F002C03AF042C01E
:10D3E20008F043C009F0000E0B6E3C0E0A6E6CECA6
:10D3F20055F008C03BF009C03CF0010ED3EC54F0EC
:10D40200C30E2B6ECD0EE82EFED72B2EFCD700F0CE
:10D412005C0E0D6EFD0E0E6E9AEC64F0C00ED3EC37
:10D4220054F08B0E0D6EFF0E0E6E39C00FF03AC027
:10D4320010F03BC011F03CC012F09AEC64F0240EE4
:10D442002C6E830E2B6ECF0EE82EFED72B2EFCD722
:10D452002C2EFAD700F081A2FED7010ED3EC54F0A5
:10D46200C30E2B6ECD0EE82EFED72B2EFCD700F06E
:10D472006C0E0D6EFD0E0E6E9AEC64F0C00ED3ECC7
:10D4820054F04E504F10D8A41ED04C504D10D8A47A
:10D492001AD04A504B10D8A416D0140E0D6EFE0EA0
:10D4A2000E6E48C00FF049C010F09AEC64F0240EE2
:10D4B2002C6E830E2B6ECF0EE82EFED72B2EFCD7B2
:10D4C2002C2EFAD765D04E504F10D8A41ED04C50F7
:10D4D2004D10D8A41AD0100E0D6EFE0E0E6E48C05E
:10D4E2000FF049C010F04AC011F04BC012F09AEC94
:10D4F20064F0240E2C6E830E2B6ECF0EE82EFED718
:10D502002B2EFCD72C2EFAD743D04E504F10D8A436
:10D512001ED00C0E0D6EFE0E0E6E48C00FF049C0EE
:10D5220010F04AC011F04BC012F04CC013F04DC0C5
:10D5320014F09AEC64F0240E2C6E830E2B6ECF0E38
:10D54200E82EFED72B2EFCD72C2EFAD721D0080E90
:10D552000D6EFE0E0E6E48C00FF049C010F04AC0AC
:10D5620011F04BC012F04CC013F04DC014F04EC07D
:10D5720015F04FC016F09AEC64F0240E2C6E830E58
:10D582002B6ECF0EE82EFED72B2EFCD72C2EFAD7E1
:10D5920000F081A2FED7010ED3EC54F0C30E2B6E25
:10D5A200CD0EE82EFED72B2EFCD700F0920E0D6E7C
:10D5B200FC0E0E6E9AEC64F0C00ED3EC54F0F90E31
:10D5C2000D6EFC0E0E6E33C00FF034C010F035C07D
:10D5D20011F036C012F037C013F038C014F09AECD4
:10D5E20064F0240E2C6E830E2B6ECF0EE82EFED727
:10D5F2002B2EFCD72C2EFAD700F081A2FED7010EDB
:10D60200D3EC54F0C30E2B6ECD0EE82EFED72B2E8C
:10D61200FCD700F0EA0E0D6EFD0E0E6E9AEC64F071
:10D62200240E2C6E830E2B6ECF0EE82EFED72B2EE1
:10D63200FCD72C2EFAD700F081A2FED7000E476E3F
:10D64200000E466E475005E1080E465CD8B089D000
:10D6520001D087D0010ED3EC54F0C30E2B6ECD0E49
:10D66200E82EFED72B2EFCD700F0FF0E2924016EE8
:10D67200FF0E2A20026E000E046E230E036E25ECAE
:10D6820055F001C02BF002C02CF046C001F047C09B
:10D6920002F0000E046E030E036E25EC55F00150ED
:10D6A2002B24506E02502C20516E50500B0FDDEC8B
:10D6B20054F02B6E2B50446E456A50500C0FDDEC2B
:10D6C20054F02B6E2B503D6E3E6A50500D0FDDEC28
:10D6D20054F02B6E2B503F6E406A44504510D8B424
:10D6E2003BD0170E0D6EFF0E0E6E44C00FF045C0FC
:10D6F20010F09AEC64F0C00ED3EC54F0B70E0D6E3D
:10D70200FF0E0E6ED8903D34D96E3E34DA6E500E56
:10D71200D926020EDA22DECF0FF0DDCF10F0D8903C
:10D722003F34D96E4034DA6E740ED926020EDA22F4
:10D73200DECF11F0DDCF12F09AEC64F0240E2C6EE5
:10D74200830E2B6ECF0EE82EFED72B2EFCD72C2E5F
:10D75200FAD700F081A2FED7464A472A475001E194
:10D7620073D7010ED3EC54F0C30E2B6ECD0EE82E00
:10D77200FED72B2EFCD700F0D10E0D6EFE0E0E6ED4
:10D782009AEC64F0C00ED3EC54F0AC0E0D6EFD0EAC
:10D792000E6E9AEC64F0240E2C6E830E2B6ECF0E5E
:10D7A200E82EFED72B2EFCD72C2EFAD700F081A222
:10D7B200FED781380F0B0F0B416E81B2FED741C0ED
:10D7C20029F02A6A1200000E086E000E076EF9EFA9
:10D7D20070F003C0D9FF04C0DAFFDE04DE10D8A463
:10D7E20005D0000E086E010EF7EF70F003C0D9FFEE
:10D7F20004C0DAFF020EDE18DE10D8A43DEF71F08D
:10D80200000E086E020EF7EF70F003C0D9FF04C0DD
:10D81200DAFFDE04DE10D8A405D0000E086E030E77
:10D82200F7EF70F003C0D9FF04C0DAFF020EDE1872
:10D83200DE10D8A43DEF71F0000E086E040EF7EF73
:10D8420070F003C0D9FF04C0DAFFDE04DE10D8A4F2
:10D8520005D0000E086E050EF7EF70F003C0D9FF79
:10D8620004C0DAFF020EDE18DE10D8A405D0000EC6
:10D87200086E060EF7EF70F003C0D9FF04C0DAFF9E
:10D88200030EDE18DE10D8A43DEF71F0000E086E14
:10D89200070EF7EF70F003C0D9FF04C0DAFFDE0411
:10D8A200DE10D8A40FD020EE02F00350D926045087
:10D8B200DA22DE04DE10D8A405D0000E086E080EAF
:10D8C200F7EF70F003C0D9FF04C0DAFFDE04DE1008
:10D8D200D8A410D020EE02F00350D9260450DA2248
:10D8E200020EDE18DE10D8A405D0000E086E090E56
:10D8F200F7EF70F003C0D9FF04C0DAFF020EDE18A2
:10D90200DE10D8A40FD020EE02F00350D926045026
:10D91200DA22DE04DE10D8A405D0000E086E0A0E4C
:10D92200F7EF70F003C0D9FF04C0DAFF020EDE1871
:10D93200DE10D8A43DEF71F020EE02F00350D9269C
:10D942000450DA22020EDE18DE10D8A43DEF71F088
:10D95200000E086E0B0EF7EF70F003C0D9FF04C083
:10D96200DAFFDE04DE10D8A40FD020EE02F003505E
:10D97200D9260450DA22DE04DE10D8A405D0000E27
:10D98200086E0C0EF7EF70F003C0D9FF04C0DAFF87
:10D99200DE04DE10D8A410D020EE02F00350D92607
:10D9A2000450DA22020EDE18DE10D8A405D0000ED2
:10D9B200086E0D0EF7EF70F003C0D9FF04C0DAFF56
:10D9C200DE04DE10D8A410D020EE02F00350D926D7
:10D9D2000450DA22030EDE18DE10D8A405D0000EA1
:10D9E200086E0E0EF7EF70F003C0D9FF04C0DAFF25
:10D9F200020EDE18DE10D8A40ED020EE02F0035084
:10DA0200D9260450DA22DE04DE10D8A404D0000E97
:10DA1200086E0F0EEBD303C0D9FF04C0DAFF020E6B
:10DA2200DE18DE10D8A43DEF71F020EE02F00350B4
:10DA3200D9260450DA22020EDE18DE10D8A43DEFF9
:10DA420071F0000E086E100ED1D303C0D9FF04C0CE
:10DA5200DAFFDE04DE10D8A40ED020EE02F003506E
:10DA6200D9260450DA22DE04DE10D8A404D0000E37
:10DA7200086E110EBBD303C0D9FF04C0DAFFDE0467
:10DA8200DE10D8A40FD020EE02F00350D9260450A5
:10DA9200DA22020EDE18DE10D8A404D0000E086EC0
:10DAA200120EA4D303C0D9FF04C0DAFFDE04DE10D5
:10DAB200D8A40FD020EE02F00350D9260450DA2267
:10DAC200030EDE18DE10D8A404D0000E086E130E6A
:10DAD2008DD303C0D9FF04C0DAFF020EDE18DE10B8
:10DAE200D8A40ED020EE02F00350D9260450DA2238
:10DAF200DE04DE10D8A404D0000E086E140E76D315
:10DB020003C0D9FF04C0DAFF020EDE18DE10D8A46B
:10DB1200B3D320EE02F00350D9260450DA22020ECB
:10DB2200DE18DE10D8A4A8D3000E086E150E5ED340
:10DB320003C0D9FF04C0DAFFDE04DE10D8A418D077
:10DB420020EE02F00350D9260450DA22DE04DE1061
:10DB5200D8A40ED020EE04F00350D9260450DA22C5
:10DB6200DE04DE10D8A404D0000E086E160E3ED3DA
:10DB720003C0D9FF04C0DAFFDE04DE10D8A47CD3D0
:10DB820020EE02F00350D9260450DA22DE04DE1021
:10DB9200D8A472D320EE04F00350D9260450DA221E
:10DBA200020EDE18DE10D8A467D3000E086E170E20
:10DBB2001DD303C0D9FF04C0DAFFDE04DE10D8A4EF
:10DBC20018D020EE02F00350D9260450DA22DE04E7
:10DBD200DE10D8A40ED020EE04F00350D926045053
:10DBE200DA22DE04DE10D8A404D0000E086E180E6D
:10DBF200FDD203C0D9FF04C0DAFFDE04DE10D8A4D0
:10DC02003BD320EE02F00350D9260450DA22DE0480
:10DC1200DE10D8A431D320EE04F00350D9260450EC
:10DC2200DA22020EDE18DE10D8A426D3000E086E09
:10DC3200190EDCD203C0D9FF04C0DAFFDE04DE1005
:10DC4200D8A418D020EE02F00350D9260450DA22CC
:10DC5200DE04DE10D8A40ED020EE04F00350D92644
:10DC62000450DA22DE04DE10D8A404D0000E086EBE
:10DC72001A0EBCD203C0D9FF04C0DAFF020EDE18AE
:10DC8200DE10D8A4F9D220EE02F00350D9260450B7
:10DC9200DA22DE04DE10D8A4EFD220EE04F0035024
:10DCA200D9260450DA22DE04DE10D8A4E5D2000E12
:10DCB200086E1B0E9BD203C0D9FF04C0DAFFDE043C
:10DCC200DE10D8A418D020EE02F00350D92604505A
:10DCD200DA22DE04DE10D8A40ED020EE04F00350C7
:10DCE200D9260450DA22DE04DE10D8A404D0000EB5
:10DCF200086E1C0E7BD203C0D9FF04C0DAFFDE041B
:10DD0200DE10D8A419D020EE02F00350D926045018
:10DD1200DA22DE04DE10D8A40FD020EE04F0035085
:10DD2200D9260450DA22020EDE18DE10D8A404D05E
:10DD3200000E086E1D0E5AD203C0D9FF04C0DAFFCE
:10DD4200DE04DE10D8A419D020EE02F00350D9264A
:10DD52000450DA22020EDE18DE10D8A40ED020EE15
:10DD620004F00350D9260450DA22DE04DE10D8A4CF
:10DD720004D0000E086E1E0E39D203C0D9FF04C0B3
:10DD8200DAFF020EDE18DE10D8A476D220EE02F000
:10DD92000350D9260450DA22DE04DE10D8A46CD255
:10DDA20020EE04F00350D9260450DA22DE04DE10FD
:10DDB200D8A462D2000E086E1F0E18D203C0D9FF7B
:10DDC20004C0DAFFDE04DE10D8A418D020EE02F080
:10DDD2000350D9260450DA22DE04DE10D8A40ED075
:10DDE20020EE04F00350D9260450DA22DE04DE10BD
:10DDF200D8A404D0000E086E200EF8D103C0D9FFBB
:10DE020004C0DAFFDE04DE10D8A419D020EE02F03E
:10DE12000350D9260450DA22DE04DE10D8A40FD033
:10DE220020EE04F00350D9260450DA22020EDE1846
:10DE3200DE10D8A404D0000E086E210ED7D103C084
:10DE4200D9FF04C0DAFFDE04DE10D8A419D020EE18
:10DE520002F00350D9260450DA22020EDE18DE1038
:10DE6200D8A40ED020EE04F00350D9260450DA22B2
:10DE7200DE04DE10D8A404D0000E086E220EB6D145
:10DE820003C0D9FF04C0DAFF020EDE18DE10D8A4E8
:10DE9200F3D120EE02F00350D9260450DA22DE0438
:10DEA200DE10D8A4E9D120EE04F00350D9260450A4
:10DEB200DA22DE04DE10D8A4DFD1000E086E230EB3
:10DEC20095D103C0D9FF04C0DAFFDE04DE10D8A466
:10DED20018D020EE02F00350D9260450DA22DE04D4
:10DEE200DE10D8A40ED020EE04F00350D926045040
:10DEF200DA22DE04DE10D8A404D0000E086E240E4E
:10DF020075D103C0D9FF04C0DAFFDE04DE10D8A445
:10DF1200B3D120EE02F00350D9260450DA22DE04F7
:10DF2200DE10D8A4A9D120EE04F00350D926045063
:10DF3200DA22020EDE18DE10D8A49ED1000E086E80
:10DF4200250E54D103C0D9FF04C0DAFFDE04DE106F
:10DF5200D8A418D020EE02F00350D9260450DA22B9
:10DF6200DE04DE10D8A40ED020EE04F00350D92631
:10DF72000450DA22DE04DE10D8A404D0000E086EAB
:10DF8200260E34D103C0D9FF04C0DAFFDE04DE104E
:10DF9200D8A419D020EE02F00350D9260450DA2278
:10DFA200DE04DE10D8A40FD020EE04F00350D926F0
:10DFB2000450DA22020EDE18DE10D8A404D0000EBD
:10DFC200086E270E13D103C0D9FF04C0DAFFDE04A6
:10DFD200DE10D8A419D020EE02F00350D926045046
:10DFE200DA22020EDE18DE10D8A40ED020EE04F0E3
:10DFF2000350D9260450DA22DE04DE10D8A404D05D
:10E00200000E086E280EF2D003C0D9FF04C0DAFF5A
:10E01200020EDE18DE10D8A42FD120EE02F003503B
:10E02200D9260450DA22DE04DE10D8A425D120EE4F
:10E0320004F00350D9260450DA22DE04DE10D8A4FC
:10E042001BD1000E086E290ED1D003C0D9FF04C027
:10E05200DAFFDE04DE10D8A40FD120EE02F0035066
:10E06200D9260450DA22DE04DE10D8A405D120EE2F
:10E0720004F00350D9260450DA22DE04DE10D8A4BC
:10E08200FBD020EE06F00350D9260450DA22DE043B
:10E09200DE10D8A4F1D0000E086E2A0EA7D003C05D
:10E0A200D9FF04C0DAFFDE04DE10D8A4E5D020EEEA
:10E0B20002F00350D9260450DA22DE04DE10D8A47E
:10E0C200DBD020EE04F00350D9260450DA22DE041D
:10E0D200DE10D8A4D1D020EE06F00350D926045089
:10E0E200DA22DE04DE10D8A4C7D0000E086E2B0E92
:10E0F2007DD003C0D9FF04C0DAFFDE04DE10D8A44D
:10E10200BBD020EE02F00350D9260450DA22DE04FE
:10E11200DE10D8A4B1D020EE04F00350D92604506A
:10E12200DA22DE04DE10D8A4A7D020EE06F00350D7
:10E13200D9260450DA22DE04DE10D8A49DD0000EC7
:10E14200086E2C0E53D003C0D9FF04C0DAFFDE04E0
:10E15200DE10D8A491D020EE02F00350D92604504C
:10E16200DA22DE04DE10D8A487D020EE04F00350B9
:10E17200D9260450DA22DE04DE10D8A47DD020EEA7
:10E1820006F00350D9260450DA22DE04DE10D8A4A9
:10E1920073D0000E086E2D0E29D003C0D9FF04C023
:10E1A200DAFFDE04DE10D8A467D020EE02F00350BE
:10E1B200D9260450DA22DE04DE10D8A45DD020EE87
:10E1C20004F00350D9260450DA22DE04DE10D8A46B
:10E1D20053D020EE06F00350D9260450DA22DE0492
:10E1E200DE10D8A449D0000E086E2E0E076E44D061
:10E1F20001C005F002C006F00650000AD8A43CD0C7
:10E202000550030AD8B4EAEF6BF0040AD8B406EF5B
:10E212006CF00D0AD8B44CEF6CF0060AD8B422EFB9
:10E222006CF0010AD8B484D4020AD8B4AEEF6CF010
:10E232001E0AD8B4FFD4030AD8B4BBD4010AD8B496
:10E2420004D4050AD8B4BAD50F0AD8B4FED6030A44
:10E25200D8B437D6010AD8B42ED5060AD8B41FD7F7
:10E26200020AD8B46FD63D0AD8B443D7050AD8B447
:10E272006AD70C0AD8B491D707C001F008C002F0DF
:10E282001200000E386E000E376E000E366E000E53
:10E29200356E20EEF8F010EE0BF0070EDBCFE3FF49
:10E2A200E806FCE2000E326E000E316E20EEF0F057
:10E2B20010EE1BF0070EDBCFE3FFE806FCE2000ED8
:10E2C2002E6E000E2D6E20EEE8F010EE23F0070EFB
:10E2D200DBCFE3FFE806FCE2000E346E000E336E85
:10E2E20020EEE0F010EE13F0070EDBCFE3FFE806BE
:10E2F200FCE2000E2C6E000E2B6E000E386E000E2D
:10E30200376E38501DE1080E375CD8B019D0D8905E
:10E312003734D96E3834DA6E0150D9260250DA22F7
:10E32200D8903734E16E3834E26E0350E12604505F
:10E33200E222DECFE6FFDDCFE5FF374A382AE1D71A
:10E34200000E386E000E376E385005E1080E375C4D
:10E35200D8B049D101D047D1D8903734D96E3834AA
:10E36200DA6E0350D9260450DA22DE04DE10D8B465
:10E372002AD0D8903734D96E3834DA6E0350D92681
:10E382000450DA22020EDE18DE10D8B41CD0D89067
:10E392003734D96E3834DA6E0350D9260450DA2273
:10E3A200030EDE18DE10D8B40ED0D8903734D96EF2
:10E3B2003834DA6E0350D9260450DA22040EDE18FD
:10E3C200DE10D8A419D0D8903734D96E3834DA6E2A
:10E3D2000350D9260450DA22D8903134E16E323417
:10E3E200E26E0B0EE126000EE222DECFE6FFDDCF6B
:10E3F200E5FF314A322AF2D0D8903734D96E383418
:10E40200DA6E0350D9260450DA22050EDE18DE1029
:10E41200D8B42AD0D8903734D96E3834DA6E035053
:10E42200D9260450DA22060EDE18DE10D8B41CD02B
:10E43200D8903734D96E3834DA6E0350D926045066
:10E44200DA22070EDE18DE10D8B40ED0D890373498
:10E45200D96E3834DA6E0350D9260450DA22080E07
:10E46200DE18DE10D8A419D0D8903734D96E3834DB
:10E47200DA6E0350D9260450DA22D8902D34E16E98
:10E482002E34E26E1B0EE126000EE222DECFE6FF04
:10E49200DDCFE5FF2D4A2E2AA1D0D8903734D96E90
:10E4A2003834DA6E0350D9260450DA22090EDE1807
:10E4B200DE10D8B42AD0D8903734D96E3834DA6E18
:10E4C2000350D9260450DA220A0EDE18DE10D8B420
:10E4D2001CD0D8903734D96E3834DA6E0350D9262E
:10E4E2000450DA220B0EDE18DE10D8B40ED0D8900B
:10E4F2003734D96E3834DA6E0350D9260450DA2212
:10E502000C0EDE18DE10D8A419D0D8903734D96E8C
:10E512003834DA6E0350D9260450DA22D8903334D4
:10E52200E16E3434E26E230EE126000EE222DECFEB
:10E53200E6FFDDCFE5FF334A342A50D0D890373496
:10E54200D96E3834DA6E0350D9260450DA220D0E11
:10E55200DE18DE10D8B42AD0D8903734D96E3834C9
:10E56200DA6E0350D9260450DA220E0EDE18DE10BF
:10E57200D8B41CD0D8903734D96E3834DA6E035000
:10E58200D9260450DA220F0EDE18DE10D8B40ED0CF
:10E59200D8903734D96E3834DA6E0350D926045005
:10E5A200DA22100EDE18DE10D8A418D0D890373434
:10E5B200D96E3834DA6E0350D9260450DA22D89054
:10E5C2002B34E16E2C34E26E130EE126000EE222B1
:10E5D200DECFE6FFDDCFE5FF2B4A2C2A374A382A69
:10E5E200385001E1B3D6000E386E000E376E57D0A8
:10E5F200000E366E000E356E4AD0D8903534D96E84
:10E602003634DA6E0B0ED926000EDA22D890373461
:10E61200E16E3834E26E0B0EE126000EE222DE508D
:10E62200E65CDE50E658D8B030D0D8903734D96E98
:10E632003834DA6E0B0ED926000EDA22DECF2FF036
:10E64200DDCF30F0D8903534D96E3634DA6E0B0E19
:10E65200D926000EDA22D8903734E16E3834E26ED1
:10E662000B0EE126000EE222DECFE6FFDDCFE5FF54
:10E67200D8903534D96E3634DA6E0B0ED926000EA8
:10E68200DA222FC0DEFF30C0DDFF354A362A315094
:10E69200355C32503658D8A0B0D7374A382A315074
:10E6A200375C32503858D8A0A3D7000E386E000E0F
:10E6B200376E57D0000E366E000E356E4AD0D890A7
:10E6C2003534D96E3634DA6E230ED926000EDA22AC
:10E6D200D8903734E16E3834E26E230EE126000E14
:10E6E200E222DE50E65CDE50E658D8B030D0D89058
:10E6F2003734D96E3834DA6E230ED926000EDA2278
:10E70200DECF2FF0DDCF30F0D8903534D96E3634ED
:10E71200DA6E230ED926000EDA22D8903734E16E53
:10E722003834E26E230EE126000EE222DECFE6FF4F
:10E73200DDCFE5FFD8903534D96E3634DA6E230E4C
:10E74200D926000EDA222FC0DEFF30C0DDFF354AA7
:10E75200362A3350355C34503658D8A0B0D7374AB1
:10E76200382A3350375C34503858D8A0A3D7000E1B
:10E77200386E000E376E57D0000E366E000E356EB4
:10E782004AD0D8903734D96E3834DA6E1B0ED92677
:10E79200000EDA22D8903534E16E3634E26E1B0E6A
:10E7A200E126000EE222DE50E65CDE50E658D8B0EA
:10E7B20030D0D8903734D96E3834DA6E1B0ED92661
:10E7C200000EDA22DECF2FF0DDCF30F0D8903534D4
:10E7D200D96E3634DA6E1B0ED926000EDA22D890A4
:10E7E2003734E16E3834E26E1B0EE126000EE2226F
:10E7F200DECFE6FFDDCFE5FFD8903534D96E363473
:10E80200DA6E1B0ED926000EDA222FC0DEFF30C0D0
:10E81200DDFF354A362A2D50355C2E503658D8A0A9
:10E82200B0D7374A382A2D50375C2E503858D8A0E6
:10E83200A3D7000E386E000E376E57D0000E366E1C
:10E84200000E356E4AD0D8903734D96E3834DA6E2D
:10E85200130ED926000EDA22D8903534E16E363402
:10E86200E26E130EE126000EE222DE50E65CDE507E
:10E87200E658D8B030D0D8903734D96E3834DA6E02
:10E88200130ED926000EDA22DECF2FF0DDCF30F0C4
:10E89200D8903534D96E3634DA6E130ED926000E7E
:10E8A200DA22D8903734E16E3834E26E130EE12664
:10E8B200000EE222DECFE6FFDDCFE5FFD890353451
:10E8C200D96E3634DA6E130ED926000EDA222FC034
:10E8D200DEFF30C0DDFF354A362A2B50355C2C5026
:10E8E2003658D8A0B0D7374A382A2B50375C2C502C
:10E8F2003858D8A0A3D7FE0E056EFF0E066E33C0A1
:10E9020007F034C008F0D8900736083605500726BD
:10E9120006500822230E0724D96E000E0820DA6E54
:10E922000A0EDE18DE10D8B41AD0FE0E056EFF0EE7
:10E93200066E33C007F034C008F0D89007360836A8
:10E942000550072606500822230E0724D96E000E12
:10E952000820DA6E090EDE18DE10D8A462D0000E8E
:10E96200386E000E376E57D0000E366E000E356EC2
:10E972004AD0D8903534D96E3634DA6E130ED92691
:10E98200000EDA22D8903734E16E3834E26E130E7C
:10E99200E126000EE222DE50E65CDE50E658D8B0F8
:10E9A20030D0D8903734D96E3834DA6E130ED92677
:10E9B200000EDA22DECF2FF0DDCF30F0D8903534E2
:10E9C200D96E3634DA6E130ED926000EDA22D890BA
:10E9D2003734E16E3834E26E130EE126000EE22285
:10E9E200DECFE6FFDDCFE5FFD8903534D96E363481
:10E9F200DA6E130ED926000EDA222FC0DEFF30C0E7
:10EA0200DDFF354A362A2B50355C2C503658D8A0BB
:10EA1200B0D7374A382A2B50375C2C503858D8A0F8
:10EA2200A3D7070E1B181C10D8B405D0080E1B184C
:10EA32001C10D8A462D0000E386E000E376E57D06C
:10EA4200000E366E000E356E4AD0D8903734D96E2D
:10EA52003834DA6E230ED926000EDA22D8903534F5
:10EA6200E16E3634E26E230EE126000EE222DE5023
:10EA7200E65CDE50E658D8B030D0D8903734D96E44
:10EA82003834DA6E230ED926000EDA22DECF2FF0CA
:10EA9200DDCF30F0D8903534D96E3634DA6E230EAD
:10EAA200D926000EDA22D8903734E16E3834E26E7D
:10EAB200230EE126000EE222DECFE6FFDDCFE5FFE8
:10EAC200D8903534D96E3634DA6E230ED926000E3C
:10EAD200DA222FC0DEFF30C0DDFF354A362A33503E
:10EAE200355C34503658D8A0B0D7374A382A33501C
:10EAF200375C34503858D8A0A3D7FE0E056EFF0EEF
:10EB0200066E31C007F032C008F0D89007360836DA
:10EB120005500726065008220B0E0724D96E000E58
:10EB22000820DA6EDE04DE10D8B41AD0FE0E056EAE
:10EB3200FF0E066E31C007F032C008F0D8900736DB
:10EB4200083605500726065008220B0E0724D96EF8
:10EB5200000E0820DA6E020EDE18DE10D8A462D093
:10EB6200000E386E000E376E57D0000E366E000E55
:10EB7200356E4AD0D8903534D96E3634DA6E1B0EE3
:10EB8200D926000EDA22D8903734E16E3834E26E9C
:10EB92001B0EE126000EE222DE50E65CDE50E65855
:10EBA200D8B030D0D8903734D96E3834DA6E1B0EE4
:10EBB200D926000EDA22DECF2FF0DDCF30F0D8904A
:10EBC2003534D96E3634DA6E1B0ED926000EDA22AF
:10EBD200D8903734E16E3834E26E1B0EE126000E17
:10EBE200E222DECFE6FFDDCFE5FFD8903534D96EE5
:10EBF2003634DA6E1B0ED926000EDA222FC0DEFF63
:10EC020030C0DDFF354A362A2D50355C2E5036583D
:10EC1200D8A0B0D7374A382A2D50375C2E503858F2
:10EC2200D8A0A3D7000E386E000E376E18D0D89039
:10EC32003734D96E3834DA6E0B0ED926000EDA224A
:10EC4200D8903734E16E3834E26E0350E126045036
:10EC5200E222DECFE6FFDDCFE5FF374A382A315028
:10EC6200375C32503858D8A0E2D7000E386E000E0A
:10EC7200376E1ED0D8903734D96E3834DA6E1B0E08
:10EC8200D926000EDA2231503724056E3250382050
:10EC9200066ED8900536063605500324E16E0650FE
:10ECA2000420E26EDECFE6FFDDCFE5FF374A382AE9
:10ECB2002D50375C2E503858D8A0DCD7000E386E55
:10ECC200000E376E22D0D8903734D96E3834DA6ECF
:10ECD200230ED926000EDA2231503724056E325027
:10ECE2003820066E2D5005262E500622D890053665
:10ECF200063605500324E16E06500420E26EDECF94
:10ED0200E6FFDDCFE5FF374A382A3350375C34500F
:10ED12003858D8A0D8D7000E386E000E376E26D0DD
:10ED2200D8903734D96E3834DA6E130ED926000EE5
:10ED3200DA2231503724056E32503820066E2D50BB
:10ED420005262E5006223350052634500622D8902E
:10ED52000536063605500324E16E06500420E26EA5
:10ED6200DECFE6FFDDCFE5FF374A382A2B50375C8E
:10ED72002C503858D8B01200D3D721EE9AF011EEA9
:10ED820050F00F0EDBCFE3FFE806FCE221EE8AF043
:10ED920011EE00F00F0EDBCFE3FFE806FCE222EEFD
:10EDA20030F011EE10F00F0EDBCFE3FFE806FCE2CD
:10EDB20022EE20F011EE20F00F0EDBCFE3FFE8068B
:10EDC200FCE222EE10F011EE30F00F0EDBCFE3FF8B
:10EDD200E806FCE222EE00F011EE40F00F0EDBCF6F
:10EDE200E3FFE806FCE2000E0101876F000E866F6A
:10EDF200000E896F000E886F000E786F000E776F1D
:10EE0200000E7A6F000E796F000E686F000E676F4A
:10EE1200000E836F000E826F000E816F000E806FF6
:10EE2200000E856F000E846F000E7F6F000E7C6FE8
:10EE3200000E7B6F000E6D6F000E6C6F000E6F6F19
:10EE4200000E6E6F000E716F000E706F000E736F0A
:10EE5200000E726F000E756F000E746F000E7E6FE3
:10EE6200000E7D6F010ED3EC54F0C30E606ECD0E1A
:10EE7200E82EFED7602EFCD700F00C0ED3EC54F037
:10EE82009B0E0D6EFF0E0E6E9AEC64F0660E616EB6
:10EE9200760E606EC10EE82EFED7602EFCD7612E74
:10EEA200FAD700F0010ED3EC54F0C30E606ECD0E13
:10EEB200E82EFED7602EFCD700F00A0E0D6EFD0E76
:10EEC2000E6E9AEC64F0C00ED3EC54F0C60E0D6ECA
:10EED200FC0E0E6E9AEC64F081A2FED7010ED3EC0A
:10EEE20054F0C30E606ECD0EE82EFED7602EFCD716
:10EEF20000F00C0ED3EC54F09C0E0D6EFD0E0E6E57
:10EF02009AEC64F0C00ED3EC54F02C0E0D6EFD0E94
:10EF12000E6E9AEC64F0330E616EBB0E606EE00E04
:10EF2200E82EFED7602EFCD7612EFAD7030E016EB3
:10EF3200FA0E38EC55F0120E016E000E38EC55F058
:10EF4200020E016E010E38EC55F01C0E016E020E1F
:10EF520038EC55F05B0E016E030E38EC55F0030EE3
:10EF6200016E040E38EC55F00F0E016E050E38ECF2
:10EF720055F0080E016E060E38EC55F00C0E016EBF
:10EF8200070E38EC55F0010E016E080E38EC55F004
:10EF92000D0E016E090E38EC55F0000E016E0A0ED0
:10EFA20038EC55F0A00E0E6E860E0F6E010E106E2E
:10EFB200000E116E05EC56F0B9EC54F0000E036E23
:10EFC200D10E026EC5EC54F0000E01017E6F000EF0
:10EFD2007D6F7E5112E1060E7D5DD8B00ED0600EBF
:10EFE2007D25D96E010E7E21DA6E000E00EC55F001
:10EFF200DF6E01017D4B7E2BECD7010E00EC55F04C
:10F002000101666FBDEC54F0010ED3EC54F0C30E57
:10F01200606ECD0EE82EFED7602EFCD700F0DE0E1D
:10F022000D6EFE0E0E6E9AEC64F0C00ED3EC54F030
:10F03200380E0D6EFF0E0E6E9AEC64F0660E616E67
:10F04200760E606EC10EE82EFED7602EFCD7612EC2
:10F05200FAD700F0010ED3EC54F0C30E606ECD0E61
:10F06200E82EFED7602EFCD700F0350E0D6EFE0E98
:10F072000E6E66C10FF0106A65C111F0126A64C1AA
:10F0820013F0146A9AEC64F0C00ED3EC54F0440E00
:10F092000D6EFE0E0E6E62C10FF0106A61C111F0AC
:10F0A200126A60C113F0146A9AEC64F0660E616E23
:10F0B200760E606EC10EE82EFED7602EFCD7612E52
:10F0C200FAD700F0010ED3EC54F0C30E606ECD0EF1
:10F0D200E82EFED7602EFCD700F02D0E0D6EFF0E2F
:10F0E2000E6E9AEC64F0C00ED3EC54F0EB0E0D6E83
:10F0F200FE0E0E6E9AEC64F0660E616E760E606E17
:10F10200C10EE82EFED7602EFCD7612EFAD700F092
:10F11200010ED3EC54F0C30E606ECD0EE82EFED776
:10F12200602EFCD700F0A90E0D6EFE0E0E6E9AEC4C
:10F1320064F0C00ED3EC54F0C60E0D6EFC0E0E6ED3
:10F142009AEC64F081A2FED781380F0B0F0B0101FC
:10F152006B6F81B2FED70F0E01016B19D8A497EF26
:10F162007DF067056811D8A4D9D1875104E1080E52
:10F17200865DD8A02AD0010ED3EC54F0C30E606E87
:10F18200CD0EE82EFED7602EFCD700F00C0ED3EC8D
:10F1920054F0C40E0D6EFE0E0E6E9AEC64F0C00EAC
:10F1A200D3EC54F0B50E0D6EFC0E0E6E9AEC64F0BC
:10F1B200660E616E760E606EC10EE82EFED7602E70
:10F1C200FCD7612EFAD700F028D3010ED3EC54F00D
:10F1D200C30E606ECD0EE82EFED7602EFCD700F077
:10F1E2000C0ED3EC54F08C0E0D6EFD0E0E6E9AECDE
:10F1F20064F0C00ED3EC54F0AC0E0D6EFD0E0E6E2C
:10F202009AEC64F081A2FED781380F0B0F0B01013B
:10F21200766F81B2FED70F0E01017619D8A477D18D
:10F22200010ED3EC54F0C30E606ECD0EE82EFED765
:10F23200602EFCD700F016EC5FF029C082F12AC0E4
:10F2420083F1640E010182198311D8A405D0000E46
:10F25200836F000E826FB9D7000E896F000E886F20
:10F2620089512CE1080E885DD8B028D0D890883515
:10F27200D96E8935DA6E500ED926010EDA22825104
:10F28200DE1819E18351DE18D8A415D0000E786F6C
:10F29200010E776FD8908835D96E8935DA6E500EA7
:10F2A200D926010EDA22DE50DE10D8A404D0000ED8
:10F2B2007A6F010E796F884B892BD2D77705781137
:10F2C200D8A462D079057A11D8A42FD0010ED3EC3C
:10F2D20054F0C30E606ECD0EE82EFED7602EFCD722
:10F2E20000F00C0ED3EC54F0420E0D6EFF0E0E6EBB
:10F2F2009AEC64F0C00ED3EC54F03C0E0D6EFD0E91
:10F302000E6E9AEC64F0660E616E760E606EC10E41
:10F31200E82EFED7602EFCD7612EFAD700F0000E41
:10F3220001017A6F000E796F29D0010ED3EC54F0EF
:10F33200C30E606ECD0EE82EFED7602EFCD700F015
:10F342000C0ED3EC54F0530E0D6EFE0E0E6E9AECB4
:10F3520064F0C00ED3EC54F07B0E0D6EFF0E0E6EF9
:10F362009AEC64F0660E616E760E606EC10EE82E47
:10F37200FED7602EFCD7612EFAD700F0000E0101F5
:10F38200786F000E776FF1D6010ED3EC54F0C30EF6
:10F39200606ECD0EE82EFED7602EFCD700F082C143
:10F3A20029F083C12AF093EC66F029C080F12AC0CB
:10F3B20081F1640E010180198111D8A405D0000EDB
:10F3C200816F000E806F2CD780C129F081C12AF095
:10F3D20082C12BF083C12CF019EC5EF029C084F1BC
:10F3E2002AC085F1640E010184198511D8A409D0BF
:10F3F200000E816F000E806F000E856F000E846F0D
:10F40200C3D7D8908635D96E8735DA6E500ED92695
:10F41200010EDA2282C1DEFF83C1DDFF80C101F06D
:10F4220081C102F072EC5BF001C072F102C073F1B3
:10F43200D89001018635D96E8735DA6E300ED9261D
:10F44200010EDA2272C1DEFF73C1DDFF84C101F059
:10F4520085C102F021EC60F001C074F102C075F1C7
:10F46200D89001018635D96E8735DA6E400ED926DD
:10F47200010EDA2274C1DEFF75C1DDFF84C101F025
:10F4820085C102F063EC59F001C06CF102C06DF16C
:10F4920084C101F085C102F0EBEC58F001C06EF1BD
:10F4A20002C06FF184C101F085C102F05AEC5AF03A
:10F4B20001C070F102C071F1D89001018635D96E98
:10F4C2008735DA6E000ED926010EDA226CC1DEFF14
:10F4D2006DC1DDFFD8908635D96E8735DA6E100E94
:10F4E200D926010EDA226EC1DEFF6FC1DDFFD89090
:10F4F2008635D96E8735DA6E200ED926010EDA22CC
:10F5020070C1DEFF71C1DDFF864B872B04D00E0E6A
:10F512007619D8B482D1000E766F27D6010ED3ECBD
:10F5220054F0C30E606ECD0EE82EFED7602EFCD7CF
:10F5320000F016EC5FF029C082F12AC083F1640E5C
:10F54200010182198311D8A409D0000E836F000E25
:10F55200826F000E686F010E676F37D6000E686FFC
:10F56200010E676F000E896F000E886F89512CE1C2
:10F57200080E885DD8B028D0D8908835D96E8935E4
:10F58200DA6E500ED926010EDA228251DE1819E106
:10F592008351DE18D8A415D0000E786F010E776F54
:10F5A200D8908835D96E8935DA6E500ED926010E7B
:10F5B200DA22DE50DE10D8A404D0000E7A6F010EDB
:10F5C200796F884B892BD2D777057811D8A462D06E
:10F5D20079057A11D8A42FD0010ED3EC54F0C30EC2
:10F5E200606ECD0EE82EFED7602EFCD700F00C0E1A
:10F5F200D3EC54F0420E0D6EFF0E0E6E9AEC64F0D8
:10F60200C00ED3EC54F03C0E0D6EFD0E0E6E9AEC55
:10F6120064F0660E616E760E606EC10EE82EFED745
:10F62200602EFCD7612EFAD700F0000E01017A6F2E
:10F63200000E796F29D0010ED3EC54F0C30E606E28
:10F64200CD0EE82EFED7602EFCD700F00C0ED3ECC8
:10F6520054F0530E0D6EFE0E0E6E9AEC64F0C00E58
:10F66200D3EC54F07B0E0D6EFF0E0E6E9AEC64F02E
:10F67200660E616E760E606EC10EE82EFED7602EAB
:10F68200FCD7612EFAD700F0000E0101786F000E50
:10F69200776F67D5010ED3EC54F0C30E606ECD0EBA
:10F6A200E82EFED7602EFCD700F082C129F083C17C
:10F6B2002AF093EC66F029C080F12AC081F1640E31
:10F6C200010180198111D8A405D0000E816F000EAE
:10F6D200806F24D780C129F081C12AF082C12BF02A
:10F6E20083C12CF019EC5EF029C084F12AC085F1A7
:10F6F200640E010184198511D8A409D0000E816F0E
:10F70200000E806F000E856F000E846FC3D7D890F5
:10F712008635D96E8735DA6E500ED926010EDA2279
:10F7220082C1DEFF83C1DDFF80C101F081C102F031
:10F7320072EC5BF001C072F102C073F1D89001016A
:10F742008635D96E8735DA6E300ED926010EDA2269
:10F7520072C1DEFF73C1DDFF84C101F085C102F019
:10F7620021EC60F001C074F102C075F1D890010182
:10F772008635D96E8735DA6E400ED926010EDA2229
:10F7820074C1DEFF75C1DDFF84C101F085C102F0E5
:10F7920063EC59F001C06CF102C06DF184C101F05B
:10F7A20085C102F0EBEC58F001C06EF102C06FF1BE
:10F7B20084C101F085C102F05AEC5AF001C070F127
:10F7C20002C071F1D89001018635D96E8735DA6EA3
:10F7D200000ED926010EDA226CC1DEFF6DC1DDFFFB
:10F7E200D8908635D96E8735DA6E100ED926010E7D
:10F7F200DA226EC1DEFF6FC1DDFFD8908635D96E89
:10F802008735DA6E200ED926010EDA2270C1DEFFAC
:10F8120071C1DDFF864B872BA4D40101865187116C
:10F82200D8A405D0000E5F6E000E5E6E1200010EAF
:10F83200D3EC54F0C30E606ECD0EE82EFED7602ED0
:10F84200FCD700F0D70E0D6EFC0E0E6E9AEC64F033
:10F85200C00ED3EC54F08D0E0D6EFE0E0E6E9AECB1
:10F8620064F0330E616EBB0E606EE00EE82EFED7C2
:10F87200602EFCD7612EFAD7010ED3EC54F0C30EE2
:10F88200606ECD0EE82EFED7602EFCD700F0220E61
:10F892000D6EFF0E0E6E9AEC64F0C00ED3EC54F0B7
:10F8A200830E0D6EFF0E0E6E9AEC64F0330E616ED7
:10F8B200BB0E606EE00EE82EFED7602EFCD7612EE6
:10F8C200FAD7000E0101896F000E886F895105E198
:10F8D200080E885DD8B07DD001D07BD0D890883515
:10F8E200D96E8935DA6E500ED926010EDA22DE5033
:10F8F200DE10D8B468D0010ED3EC54F0C30E606EA3
:10F90200CD0EE82EFED7602EFCD700F0170E0D6E3E
:10F91200FF0E0E6ED89001018835D96E8935DA6EE8
:10F92200500ED926010EDA22DECF0FF0DDCF10F015
:10F932009AEC64F0C00ED3EC54F0B70E0D6EFF0ECD
:10F942000E6ED89001018835D96E8935DA6E300E87
:10F95200D926010EDA22DECF60F0DDCF61F0D89039
:10F9620060366136500E6024D96E020E6120DA6E66
:10F97200DECF0FF0DDCF10F0D8908835D96E893503
:10F98200DA6E400ED926010EDA22DECF62F0DDCF2A
:10F9920063F0D89062366336740E6224D96E020E1A
:10F9A2006320DA6EDECF11F0DDCF12F09AEC64F054
:10F9B2004D0E616E190E606E500EE82EFED7602E4F
:10F9C200FCD7612EFAD70101884B892B895101E1BD
:10F9D2007FD7010ED3EC54F0C30E606ECD0EE82E2D
:10F9E200FED7602EFCD700F0260E0D6EFE0E0E6EB8
:10F9F2009AEC64F0C00ED3EC54F0CC0E0D6EFD0EFA
:10FA02000E6E9AEC64F0330E616EBB0E606EE00E09
:10FA1200E82EFED7602EFCD7612EFAD7FA0EDDEC67
:10FA220054F001017F6F040E7F19D8B45EEC57F0D9
:10FA3200000E0101896F000E886F895172E1080E74
:10FA4200885DD8B06ED07F51D8B404D0040E7F192F
:10FA5200D8A40FD088C101F089C102F0000E046E53
:10FA6200030E036E25EC55F001C07BF102C07CF160
:10FA720022D0FF0E01017F25016E026AFF0E0222D3
:10FA8200000E046E230E036E25EC55F001C060F0EB
:10FA920002C061F088C101F089C102F0000E046E5B
:10FAA200030E036E25EC55F00150602401017B6FBB
:10FAB200025061207C6FD89001018835D96E89355A
:10FAC200DA6E500ED926010EDA22DF50016E7B511A
:10FAD2000B0F38EC55F0D89001018835D96E893575
:10FAE200DA6E300ED926010EDA22DF50016E7B511A
:10FAF2000C0F38EC55F0D89001018835D96E893554
:10FB0200DA6E400ED926010EDA22DF50016E7B51E9
:10FB12000D0F38EC55F00101884B892B895101E119
:10FB22008ED7000E5F6E010E5E6E12000E0E6B1906
:10FB3200D8A45FD04CEC61F052C069F153C06AF1B5
:10FB42000F0E010169196A11D8B4F4D70E0E6919A2
:10FB52006A11D8A420D0010ED3EC54F0C30E606E0B
:10FB6200CD0EE82EFED7602EFCD700F00C0ED3ECA3
:10FB720054F0010E0D6EFF0E0E6E9AEC64F0660EDE
:10FB8200616E760E606EC10EE82EFED7602EFCD737
:10FB9200612EFAD728D0010ED3EC54F0C30E606E5A
:10FBA200CD0EE82EFED7602EFCD700F00C0ED3EC63
:10FBB20054F0B70E0D6EFE0E0E6E9AEC64F0C00E8F
:10FBC200D3EC54F0010E0D6EFF0E0E6E9AEC64F043
:10FBD200660E616E760E606EC10EE82EFED7602E46
:10FBE200FCD7612EFAD700F0000E5F6E000E5E6E3B
:10FBF2001200010ED3EC54F0C30E606ECD0EE82E4F
:10FC0200FED7602EFCD700F00C0ED3EC54F0B70EEA
:10FC12000D6EFE0E0E6E9AEC64F0C00ED3EC54F034
:10FC2200010E0D6EFF0E0E6E9AEC64F0660E616EA2
:10FC3200760E606EC10EE82EFED7602EFCD7612EC6
:10FC4200FAD700F0000E5F6E000E5E6E12000031F9
:10FC520032334134353642373839432A302344006F
:10FC620031323352343536463738394C2A30234410
:10FC72000001000A006400E80310270100100000E0
:10FC820001001000280006240218000102100228B8
:10FC920052656D61696E696E67207069656365732F
:10FCA2003A00303132333435363738396162636481
:10FCB200656600647261776572732072656163685C
:10FCC20065642100626567696E206F706572617498
:10FCD200696F6E2E00496E70757473207375626D54
:10FCE200697474656400506C6561736520696E7037
:10FCF2007574206C6F6700523A25692020463A25B8
:10FD02006920204C3A256900507265737320616E38
:10FD120079206B657920746F002569207072657691
:10FD2200696F7573206C6F677300636162696E65DA
:10FD32007420736F7274657221006E756D626572E4
:10FD420020707265737365642E0044726177657208
:10FD520020256920666F6F643A004F706572617486
:10FD6200696F6E2074696D653A004D61726B6564EE
:10FD720020647261776572733A00447261776572CA
:10FD820020256920646965743A00416E6F74686564
:10FD920072206472617765723F0057656C636F6DA4
:10FDA2006520746F20796F75720023203D204E6F9D
:10FDB2002C2044203D2059657300436C65617269B3
:10FDC2006E6720454550524F4D00626567696E204F
:10FDD20073686F72746C792E004472617765722059
:10FDE2006E756D6265723A00496E70757420537556
:10FDF2006D6D6172793A00312070726576696F7546
:10FE020073206C6F670025692C2025692C202569D9
:10FE12002C20256900253032692F253032692F25A3
:10FE2200303269004F7065726174696F6E20776954
:10FE32006C6C00253032782F253032782F25303205
:10FE42007800253032783A253032783A25303278C7
:10FE52000044726177657220616C72656164790039
:10FE6200523A256920463A2569204C3A25690049CB
:10FE72006E76616C696420666F6F642100496E76EC
:10FE8200616C6964206469657421007375636365DC
:10FE9200737366756C6C7921006D6F766520666F81
:10FEA20072776172642E006F7220707265737320B4
:10FEB2004420746F00496E76616C6964206B6579C9
:10FEC20021004D6178696D756D206F6620380041A3
:10FED2006E6F74686572206C6F673F004375727253
:10FEE200656E7420646174650076696577206C6F55
:10FEF20067732C00617661696C61626C652E0052D9
:10FF020065626F6F74696E672E0054727920616743
:10FF120061696E2E004472617765722025693A002C
:10FF220053756D6D617279206F66005072657373DF
:10FF3200202320746F00616E642074696D653A003D
:10FF42004E6F2064726177657200647261776572C8
:10FF5200202569004D6F76696E6720746F006E759B
:10FF62006D6265723A2000666F6F643A20257300F5
:10FF7200646965743A20257300696E207573652182
:10FF820000696E707574733A0025693A25303269DA
:10FF9200004E6F206C6F6773005374616E646279F8
:10FFA20000286E756C6C29004772656174210044EB
:10FFB2006174653A00257325730031313131005285
:10FFC20046464C005252464C0052464C4C00464C5F
:10FFD2004C4C00524C4C4C00323131003132310029
:10FFE200313132005246460052524600524C4C00C9
:0DFFF20052524C00323200313300520000F8
:020000040020DA
:08000000FFFFFFFFFFFFFFFF00
:020000040030CA
:0E000000FF061F1EFF8381FF0F400FE00F4021
:00000001FF
