:04000000CBEF71F0E1
:10E36E00036E8C94035062EC72F0C80E00D0E82E4F
:10E37E00FDD71200036E8C84035062EC72F0C80E4F
:10E38E0000D0E82EFDD7120000EE46F0220EEE6A07
:10E39E00E806FDE1000EF86E0001D6EF71F0000EFA
:10E3AE00896E000E8A6E000E8B6E000E8C6E000E45
:10E3BE008D6E92689368000E946E000E956E000E30
:10E3CE00966E000EC26E0F0EC16E13EC72F06EECF6
:10E3DE007BF000EF00F00A500B10D8B418D0010EED
:10E3EE000C6E04D0D8900A360B360C2A0BAEFAD728
:10E3FE000A50085C0B500958D8A004D00A50085E89
:10E40E000B50095AD8900B320A320C2EF1D708C095
:10E41E0008F009C009F01200C30E046ECD0EE82EEE
:10E42E00FED7042EFCD700F0330EB7EC71F0320E8F
:10E43E00B7EC71F0280EB7EC71F00F0EB7EC71F06F
:10E44E00060EB7EC71F0010EB7EC71F0C30E046E50
:10E45E00CD0EE82EFED7042EFCD700F00F0EB7EC33
:10E46E0071F01200000E066E000E056E03500410C1
:10E47E00D8B41CD0010E076E04D0D89003360436E3
:10E48E00072A04AEFAD7D890053606360350015C3B
:10E49E0004500258D8A005D00350015E0450025A11
:10E4AE000580D89004320332072EEDD705C001F057
:10E4BE0006C002F01200026E0250F00B016E8C507C
:10E4CE000F0B8C6E01508C108C6E000EF2BE010E76
:10E4DE00666EF29E8C86530EE82EFED700F08C965A
:10E4EE00C80E00D0E82EFDD766B002D0F29E01D045
:10E4FE00F28E0238F00B026E0250F00B016E8C5051
:10E50E000F0B8C6E01508C108C6E000EF2BE010E35
:10E51E00666EF29E8C86530EE82EFED700F08C9619
:10E52E00C80E00D0E82EFDD766B002D0F29E01D004
:10E53E00F28E1200000E066E000E056E15D0000E45
:10E54E00066E010E056E50D0000E066E020EFAD744
:10E55E00000E066E030EF6D7000E066E040EF2D7F0
:10E56E00000E066E000EEED701C003F002C004F0DE
:10E57E000450000AD8A4F4D70350030AD8B4DFD746
:10E58E00040AD8B4DCD70D0AD8B4DED7060AD8B43C
:10E59E00D6D7010AD8B4DCD7020AD8B4D5D71E0A0A
:10E5AE00D8B4D6D7030AD8B4D3D7010AD8B4CCD7A7
:10E5BE00050AD8B4CDD70F0AD8B4CED7030AD8B42B
:10E5CE00C7D7010AD8B4C4D7060AD8B4C5D7020A29
:10E5DE00D8B4BED73D0AD8B4BFD7050AD8B4BCD775
:10E5EE000C0AD8B4B9D7BCD705C001F006C002F0EA
:10E5FE0012003AD0000E066E010E2FD0000E066EDF
:10E60E00020E2BD0000E066E030E27D0000E066EE5
:10E61E00070E23D0000E066E080E1FD0000E066EDB
:10E62E00090E1BD0000E066E0A0E17D0000E066ED7
:10E63E000B0E13D0000E066E0C0E0FD0000E066ED3
:10E64E000D0E0BD0000E066E0E0E07D0000E066ECF
:10E65E000F0E03D0000E066E100E056E36D001C0E2
:10E66E0005F002C006F031D001C003F002C004F084
:10E67E000450000AD8A4F3D70350010AD8B4BED769
:10E68E00030AD8B4BFD70A0AD8B4C0D7010AD8B47F
:10E69E00C1D7030AD8B4C2D71E0AD8B4ABD7010A61
:10E6AE00D8B4C8D7030AD8B4C9D70E0AD8B4CAD7B3
:10E6BE00010AD8B4CBD7030AD8B4CCD73B0AD8B406
:10E6CE00B1D7090AD8B4B2D7CAD705C001F006C06F
:10E6DE0002F012000F0E126E000E136E7DD0250E7C
:10E6EE001818D8B404D01850C1EC71F075D0000EC3
:10E6FE00146E0DC0F6FF0EC0F7FF0D4A0E2A08006D
:10E70E00F5CF18F01850000AD8B41200640AD8B425
:10E71E0003D00D0AD8A460D012C0D9FF13C0DAFFFF
:10E72E00DECF16F0DDCF17F0020E1226000E1322EA
:10E73E0017AE06D0030E1412166C171ED8B0172A79
:10E74E00010E186E050E1818D8B412D01850020DFE
:10E75E00D50EF324F66EFD0EF420F76E0900F5507B
:10E76E00165C0900F5501758D8A002D0182AEAD71F
:10E77E0014C011F0030E1116D8B403D02D0EC1EC37
:10E78E0071F018C015F024D01550020DD50EF324DB
:10E79E00F66EFD0EF420F76E0900F5CF03F00A00B9
:10E7AE00F5CF04F016C001F017C002F039EC72F08C
:10E7BE0001C008F002C009F0000E0B6E0A0E0A6EC0
:10E7CE00F2EC71F00850300F186E1850C1EC71F069
:10E7DE0015061528D8A4D8D70DC0F6FF0EC0F7FF22
:10E7EE000D4A0E2A0800F5CF18F01850D8B41200B2
:10E7FE0076D7010EB7EC71F0C30E1D6ECD0EE82E5E
:10E80E00FED71D2EFCD700F06B0E0D6EFE0E0E6E9B
:10E81E001BC00FF01CC010F071EC73F0C00EB7EC03
:10E82E0071F0000E206E000E1F6E000E246E000E94
:10E83E00236E20EE5EF010EE25F0070EDBCFE3FF29
:10E84E00E806FCE2000E226E000E216E19C001F0E9
:10E85E001AC002F0A1EC72F001C01FF002C020F04D
:10E86E0081A2FED781380F0B0F0B2D6E81B2FED712
:10E87E000E0E2D18D8B464D02D50D8B407D02D0458
:10E88E00D8B404D0020E2D18D8A429D01F50235C62
:10E89E0020502458D8B0E4D72D50010DC40EF324C7
:10E8AE00F66EFD0EF420F76E0800F550C1EC71F017
:10E8BE002D501D6E1E6A010E1D26000E1E22D890B2
:10E8CE002334D96E2434DA6E250ED926000EDA22C0
:10E8DE001DC0DEFF1EC0DDFF234A242AC1D70C0E49
:10E8EE002D18D8A4BDD7010EB7EC71F0C30E1D6E56
:10E8FE00CD0EE82EFED71D2EFCD700F06B0E0D6E42
:10E90E00FE0E0E6E1BC00FF01CC010F071EC73F0FB
:10E91E00C00EB7EC71F0000E246E000E236E000ECA
:10E92E00266E000E256E000E286E000E276E000E4F
:10E93E002A6E000E296E000E2C6E000E2B6E90D7D6
:10E94E0019C001F01AC002F0250E036E000E046EFF
:10E95E00C2EC75F001C021F002C022F0215022104D
:10E96E00D8A41200010EB7EC71F0C30E1D6ECD0EC1
:10E97E00E82EFED71D2EFCD700F0280E0D6EFF0ED2
:10E98E000E6E71EC73F0C00EB7EC71F0A70E0D6E3B
:10E99E00FF0E0E6E71EC73F0330E1E6EBB0E1D6EFF
:10E9AE00E00EE82EFED71D2EFCD71E2EFAD721D74D
:10E9BE000C0EB7EC71F0010EB7EC71F0C30E1B6EBE
:10E9CE00CD0EE82EFED71B2EFCD700F00A0E0D6ED4
:10E9DE00FF0E0E6E71EC73F0C00EB7EC71F0000E00
:10E9EE00216E000E206E000E1F6E000E1E6E81A296
:10E9FE00FED781380F0B0F0B226E81B2FED70E0E93
:10EA0E002218D8B4A9D02250D8B423D02204D8B416
:10EA1E0020D0020E2218D8B41CD0040E2218D8B45E
:10EA2E0018D0050E2218D8B414D0060E2218D8B459
:10EA3E0010D0080E2218D8B40CD0090E2218D8B453
:10EA4E0008D00A0E2218D8B404D00D0E2218D8A45D
:10EA5E006AD020502110D8A446D02204D8B41CD09D
:10EA6E00020E2218D8B418D0040E2218D8B414D01E
:10EA7E00050E2218D8B410D0060E2218D8B40CD019
:10EA8E00080E2218D8B408D0090E2218D8B404D013
:10EA9E000A0E2218D8A411D0020E2026000E212212
:10EAAE002250010DC40EF324F66EFD0EF420F76E07
:10EABE000800F550C1EC71F034D02250D8A497D78D
:10EACE002250010DC40EF324F66EFD0EF420F76EE7
:10EADE000800F550C1EC71F0204A212A20D01E26E4
:10EAEE00000E1F2284D720042110D8A480D7070E31
:10EAFE00226404D00D0E2218D8A479D72250010D0D
:10EB0E00C40EF324F66EFD0EF420F76E0800F550D9
:10EB1E00C1EC71F0204A212A2250D8A402D0140E42
:10EB2E00DED72250DCD70C0E2218D8A460D7010EE7
:10EB3E00B7EC71F0C30E1B6ECD0EE82EFED71B2E5A
:10EB4E00FCD700F00A0E0D6EFF0E0E6E71EC73F018
:10EB5E00C00EB7EC71F043D71EC001F01FC002F01B
:10EB6E0000EC73F001C01CF002C01DF01CC019F0C7
:10EB7E001DC01AF01200000E086E000E076E4DD169
:10EB8E0003C0D9FF04C0DAFFA7D003C0D9FF04C069
:10EB9E00DAFFDE04DE10D8B418D103C0D9FF04C0EA
:10EBAE00DAFF020EDE18DE10D8B40FD103C0D9FF83
:10EBBE0004C0DAFF030E91D003C0D9FF04C0DAFF00
:10EBCE00030EDE18DE10D8B467D120EE02F003502B
:10EBDE00D9260450DA22030EDE18DE10D8B45CD12A
:10EBEE0003C0D9FF04C0DAFFDE50DE10D8B454D112
:10EBFE0020EE02F00350D9260450DA22DE50DE1049
:10EC0E00D8B44AD1E2D020EE02F00350D9260450F7
:10EC1E00DA22030EDE18DE10D8A411D003C0D9FFFD
:10EC2E0004C0DAFFDE04CED020EE02F00350D92667
:10EC3E000450DA22030EDE18DE10D8B4EFD703C06C
:10EC4E00D9FF04C0DAFF030EDE18DE10D8B424D1CB
:10EC5E0003C0D9FF04C0DAFFD1D720EE02F0035073
:10EC6E00D9260450DA22DE04DE10D8A415D120EE07
:10EC7E0004F00350D9260450DA22DE04DE10D8A4A4
:10EC8E000BD103C0D9FF04C0DAFFDE04DE10D8B406
:10EC9E009CD076D703C0D9FF04C0DAFFDE04DE10A5
:10ECAE00D8A4FAD020EE02F00350D9260450DA226E
:10ECBE00DE04DE10D8A4F0D020EE04F00350D926E6
:10ECCE000450DA22DE04DE10D8B47FD020EE04F039
:10ECDE000350D9260450DA22020EDE18DE10D8B404
:10ECEE0074D0DAD003C0D9FF04C0DAFFDE04DE1020
:10ECFE00D8A414D020EE02F00350D9260450DA2204
:10ED0E00DE04DE10D8A40AD020EE04F00350D9267B
:10ED1E000450DA22DE04DE10D8B457D003C0D9FF77
:10ED2E0004C0DAFF020EDE18DE10D8A414D020EED6
:10ED3E0002F00350D9260450DA22DE04DE10D8A4E5
:10ED4E000AD020EE04F00350D9260450DA22DE0455
:10ED5E00DE10D8B43AD003C0D9FF04C0DAFFDE0407
:10ED6E00DE10D8A415D020EE02F00350D9260450A0
:10ED7E00DA22020EDE18DE10D8A40AD020EE04F03D
:10ED8E000350D9260450DA22DE04DE10D8B41DD08A
:10ED9E0003C0D9FF04C0DAFFDE04DE10D8A47CD095
:10EDAE0020EE02F00350D9260450DA22DE04DE10E3
:10EDBE00D8A472D020EE04F00350D9260450DA22E3
:10EDCE00020EDE18DE10D8A467D0000E086E010EFB
:10EDDE00076E62D003C0D9FF04C0DAFFDE04DE1076
:10EDEE00D8A45AD020EE02F00350D9260450DA22CD
:10EDFE00DE04DE10D8A450D020EE04F00350D92645
:10EE0E000450DA22DE04DE10D8A446D020EE06F03E
:10EE1E000350D9260450DA2205D701C005F002C0EE
:10EE2E0006F00650000AD8A437D00550030AD8B40D
:10EE3E0028D7040AD8B425D70D0AD8B4BDD6060AE9
:10EE4E00D8B4A3D6010AD8B425D7020AD8B4DBD6D3
:10EE5E001E0AD8B402D7030AD8B41CD7010AD8B4F4
:10EE6E00E3D6050AD8B43ED70F0AD8B4B3D7030AEF
:10EE7E00D8B410D7010AD8B435D7060AD8B4AAD751
:10EE8E00020AD8B42FD73D0AD8B4A4D7050AD8B4ED
:10EE9E00A1D70C0AD8B49ED707C001F008C002F063
:10EEAE001200010EB7EC71F0C30E1B6ECD0EE82EE4
:10EEBE00FED71B2EFCD700F0EB0E0D6EFE0E0E6E67
:10EECE0071EC73F0C00EB7EC71F0910E0D6EFF0E7B
:10EEDE000E6E71EC73F0660E1C6E760E1B6EC10E0E
:10EEEE00E82EFED71B2EFCD71C2EFAD700F0010EF3
:10EEFE00B7EC71F0C30E1B6ECD0EE82EFED71B2E97
:10EF0E00FCD700F0190E0D6EFE0E0E6E71EC73F046
:10EF1E00C00EB7EC71F0C70E0D6EFF0E0E6E71ECDB
:10EF2E0073F081A2FED781380F0B0F0B1E6E81B2CC
:10EF3E00FED71E50D8B40FD01E04D8B40CD0020E7B
:10EF4E001E18D8B408D0040E1E18D8B404D0050E5E
:10EF5E001E18D8A4E6D71E50010DB30EF324F66E7C
:10EF6E00FD0EF420F76E0800F550C1EC71F0330E73
:10EF7E001C6EBB0E1B6EE00EE82EFED71B2EFCD7B2
:10EF8E001C2EFAD7010EB7EC71F0C30E1B6ECD0E10
:10EF9E00E82EFED71B2EFCD700F0E90E0D6EFF0EED
:10EFAE000E6E71EC73F0330E1C6EBB0E1B6EE00E0C
:10EFBE00E82EFED71B2EFCD71C2EFAD7010EB7EC6F
:10EFCE0071F0C30E1B6ECD0EE82EFED71B2EFCD796
:10EFDE0000F02A0E0D6EFE0E0E6E71EC73F0C00E6A
:10EFEE00B7EC71F0D00E0D6EFF0E0E6E71EC73F06D
:10EFFE001A0E1C6E5E0E1B6E6E0EE82EFED71B2EAC
:10F00E00FCD71C2EFAD700D081A2FED7010EB7EC8A
:10F01E0071F0C30E1B6ECD0EE82EFED71B2EFCD745
:10F02E0000F07B0E0D6EFE0E0E6E71EC73F0C00EC8
:10F03E00B7EC71F0F60E0D6EFF0E0E6E71EC73F0F6
:10F04E001A0E1C6E5E0E1B6E6E0EE82EFED71B2E5B
:10F05E00FCD71C2EFAD700D081A2FED7010EB7EC3A
:10F06E0071F0C30E1B6ECD0EE82EFED71B2EFCD7F5
:10F07E0000F08B0E0D6EFE0E0E6E71EC73F0C00E68
:10F08E00B7EC71F0F00E0D6EFF0E0E6E71EC73F0AC
:10F09E001A0E1C6E5E0E1B6E6E0EE82EFED71B2E0B
:10F0AE00FCD71C2EFAD700D081A2FED7010EB7ECEA
:10F0BE0071F0C30E1B6ECD0EE82EFED71B2EFCD7A5
:10F0CE0000F0E50E0D6EFD0E0E6E71EC73F0C00EBF
:10F0DE00B7EC71F05B0E0D6EFE0E0E6E71EC73F0F2
:10F0EE001A0E1C6E5E0E1B6E6E0EE82EFED71B2EBB
:10F0FE00FCD71C2EFAD700D081A2FED7010EB7EC9A
:10F10E0071F0C30E1B6ECD0EE82EFED71B2EFCD754
:10F11E0000F0AB0E0D6EFE0E0E6E71EC73F01A0E4D
:10F12E001C6E5E0E1B6E6E0EE82EFED71B2EFCD7CF
:10F13E001C2EFAD700D081A2FED7010EB7EC71F0CB
:10F14E00C30E1B6ECD0EE82EFED71B2EFCD700F085
:10F15E00FB0E0D6EFE0E0E6E71EC73F0C00EB7EC64
:10F16E0071F05F0E0D6EFF0E0E6E71EC73F0660E8B
:10F17E001C6E760E1B6EC10EE82EFED71B2EFCD714
:10F18E001C2EFAD700F0010EB7EC71F0C30E1B6EF9
:10F19E00CD0EE82EFED71B2EFCD700F0790E0D6E8D
:10F1AE00FF0E0E6E71EC73F0C00EB7EC71F0CB0E5D
:10F1BE000D6EFE0E0E6E71EC73F081A2FED78138CD
:10F1CE000F0B0F0B1D6E81B2FED71DC019F01A6A00
:10F1DE001200010EB7EC71F0C30E1B6ECD0EE82EB1
:10F1EE00FED71B2EFCD700F09B0E0D6EFE0E0E6E84
:10F1FE0019C00FF01AC010F071EC73F0C00EB7EC1E
:10F20E0071F0000E226E000E216E000E1E6E000EAC
:10F21E001D6E000E246E000E236E000E206E000E6C
:10F22E001F6E20EE56F010EE26F0070EDBCFE3FF3A
:10F23E00E806FCE281A2FED781380F0B0F0B256E7C
:10F24E0081B2FED70E0E2518D8B477D00C0E251825
:10F25E00D8A42DD0010EB7EC71F0C30E1B6ECD0EDF
:10F26E00E82EFED71B2EFCD700F09B0E0D6EFE0E69
:10F27E000E6E19C00FF01AC010F071EC73F0C00EC4
:10F28E00B7EC71F0000E226E000E216E000E276E8E
:10F29E00000E266E000E296E000E286E000E2B6ECE
:10F2AE00000E2A6E000E2D6E000E2C6EC3D722504D
:10F2BE00C1E1040E215CD8B0BDD7030E2518D8B419
:10F2CE0004D0070E2518D8A413D02550010DC40E56
:10F2DE00F324F66EFD0EF420F76E0800F550C1EC27
:10F2EE0071F025501B6E1C6A1AD0214A222AA2D711
:10F2FE000B0E2518D8A49ED72550010DC40EF3244D
:10F30E00F66EFD0EF420F76E0800F550C1EC71F0AC
:10F31E0025501B6E1C6A010E1B26000E1C22D89057
:10F32E002134D96E2234DA6E260ED926000EDA2258
:10F33E001BC0DEFF1CC0DDFFD8D70C0E2618271011
:10F34E00D8A410D028502910D8A40CD02A502B1095
:10F35E00D8A408D02C502D10D8A404D0000E246EA2
:10F36E000C0E84D1030E26182710D8A410D02850C6
:10F37E002910D8A40CD02A502B10D8A408D02C5069
:10F38E002D10D8A404D0000E246E030E6FD1070EDC
:10F39E0026182710D8A410D028502910D8A40CD085
:10F3AE002A502B10D8A408D02C502D10D8A404D03D
:10F3BE00000E246E070E5AD1030E26182710D8A45D
:10F3CE0011D0070E28182910D8A40CD02A502B10B3
:10F3DE00D8A408D02C502D10D8A404D0000E246E22
:10F3EE000A0E44D1030E26182710D8A411D00C0EE5
:10F3FE0028182910D8A40CD02A502B10D8A408D025
:10F40E002C502D10D8A404D0000E246E0F0E2ED129
:10F41E00070E26182710D8A411D00C0E2818291064
:10F42E00D8A40CD02A502B10D8A408D02C502D10B4
:10F43E00D8A404D0000E246E130E18D1030E261875
:10F44E002710D8A412D0030E28182910D8A40DD036
:10F45E00070E2A182B10D8A408D02C502D10D8A483
:10F46E0004D0000E246E0D0E01D1030E26182710A7
:10F47E00D8A412D0030E28182910D8A40DD00C0E23
:10F48E002A182B10D8A408D02C502D10D8A404D094
:10F49E00000E246E120EEAD0030E26182710D8A4E2
:10F4AE0012D0070E28182910D8A40DD0070E2A182E
:10F4BE002B10D8A408D02C502D10D8A404D0000E98
:10F4CE00246E110ED3D0030E26182710D8A412D0F6
:10F4DE000C0E28182910D8A40DD00C0E2A182B109B
:10F4EE00D8A408D02C502D10D8A404D0000E246E11
:10F4FE001B0EBCD0030E26182710D8A412D0070E50
:10F50E0028182910D8A40DD00C0E2A182B10D8A408
:10F51E0008D02C502D10D8A404D0000E246E160E38
:10F52E00A5D0070E26182710D8A412D0070E28181B
:10F53E002910D8A40DD00C0E2A182B10D8A408D040
:10F54E002C502D10D8A404D0000E246E1A0E8ED07E
:10F55E00070E26182710D8A412D00C0E2818291022
:10F56E00D8A40DD00C0E2A182B10D8A408D02C50CD
:10F57E002D10D8A404D0000E246E1F0E77D0030ECB
:10F58E0026182710D8A413D0030E28182910D8A493
:10F59E000ED0070E2A182B10D8A409D00C0E2C183A
:10F5AE002D10D8A404D0000E246E190E5FD0030EB9
:10F5BE0026182710D8A413D0070E28182910D8A45F
:10F5CE000ED0070E2A182B10D8A409D00C0E2C180A
:10F5DE002D10D8A404D0000E246E1D0E47D0030E9D
:10F5EE0026182710D8A413D0070E28182910D8A42F
:10F5FE000ED00C0E2A182B10D8A409D00C0E2C18D5
:10F60E002D10D8A404D0000E246E220E2FD0030E7F
:10F61E0026182710D8A413D00C0E28182910D8A4F9
:10F62E000ED00C0E2A182B10D8A409D00C0E2C18A4
:10F63E002D10D8A404D0000E246E270E17D0070E5E
:10F64E0026182710D8A414D00C0E28182910D8A4C8
:10F65E000FD00C0E2A182B10D8A40AD00C0E2C1872
:10F66E002D10D8A405D0000E246E2B0E236E2AD09A
:10F67E00010EB7EC71F0C30E1B6ECD0EE82EFED749
:10F68E001B2EFCD700F0360E0D6EFF0E0E6E71ECBB
:10F69E0073F0C00EB7EC71F0A70E0D6EFF0E0E6E6E
:10F6AE0071EC73F0330E1C6EBB0E1B6EE00EE82E6B
:10F6BE00FED71B2EFCD71C2EFAD7000E246E000E82
:10F6CE00236E87D523C019F024C01AF01200010E44
:10F6DE00B7EC71F0C30E2E6ECD0EE82EFED72E2E89
:10F6EE00FCD700F00C0EB7EC71F0E10E0D6EFF0EB4
:10F6FE000E6E71EC73F0660E2F6E760E2E6EC10EC0
:10F70E00E82EFED72E2EFCD72F2EFAD700F0010EA4
:10F71E00B7EC71F0C30E2E6ECD0EE82EFED72E2E48
:10F72E00FCD700F02A0E0D6EFE0E0E6E71EC73F00D
:10F73E00C00EB7EC71F0080E0D6EFE0E0E6E71EC73
:10F74E0073F081A2FED7010EB7EC71F0C30E2E6ED0
:10F75E00CD0EE82EFED72E2EFCD700F00C0EB7ECF9
:10F76E0071F0DB0E0D6EFE0E0E6E71EC73F0C00EB0
:10F77E00B7EC71F03B0E0D6EFE0E0E6E71EC73F06B
:10F78E00660E2F6E760E2E6EC10EE82EFED72E2E24
:10F79E00FCD72F2EFAD700F0010EB7EC71F0C30E86
:10F7AE002E6ECD0EE82EFED72E2EFCD700F0B20E0A
:10F7BE000D6EFF0E0E6E71EC73F0C00EB7EC71F0A5
:10F7CE00860E0D6EFF0E0E6E71EC73F0660E2F6EC2
:10F7DE00760E2E6EC10EE82EFED72E2EFCD72F2EB5
:10F7EE00FAD700F0010EB7EC71F0C30E2E6ECD0EEF
:10F7FE00E82EFED72E2EFCD700F0440E0D6EFF0E17
:10F80E000E6E71EC73F0C00EB7EC71F0080E0D6E4B
:10F81E00FE0E0E6E71EC73F081A2FED781380F0BC7
:10F82E000F0B386E81B2FED70E0E3818D8A432D216
:10F83E00000E436E000E426E000E456E000E446EBC
:10F84E00000E3D6E000E3C6E000E3A6E000E396ECE
:10F85E00000E356E000E346E34043510D8A43BD134
:10F86E00435004E1080E425CD8A02AD0010EB7EC3A
:10F87E0071F0C30E2E6ECD0EE82EFED72E2EFCD7B7
:10F88E0000F00C0EB7EC71F06C0E0D6EFF0E0E6EDE
:10F89E0071EC73F0C00EB7EC71F0F70E0D6EFD0E3D
:10F8AE000E6E71EC73F0660E2F6E760E2E6EC10E0E
:10F8BE00E82EFED72E2EFCD72F2EFAD700F01200F0
:10F8CE00010EB7EC71F0C30E2E6ECD0EE82EFED7E4
:10F8DE002E2EFCD700F00C0EB7EC71F0BB0E0D6E99
:10F8EE00FE0E0E6E71EC73F0C00EB7EC71F0CB0E17
:10F8FE000D6EFE0E0E6E71EC73F081A2FED7813886
:10F90E000F0B0F0B3B6E81B2FED70E0E3B18D8A419
:10F91E00DBD0DFEC74F019C03EF01AC03FF0000EE1
:10F92E00456E000E446E45502CE1080E445CD8B076
:10F93E0028D0D8904434D96E4534DA6E460ED92686
:10F94E00000EDA223E50DE1819E13F50DE18D8A420
:10F95E0015D0000E3D6E010E3C6ED8904434D96E1B
:10F96E004534DA6E460ED926000EDA22DE50DE104F
:10F97E00D8A404D0000E3A6E010E396E444A452AC0
:10F98E00D2D73C043D10D8A45BD039043A10D8A489
:10F99E0029D0010EB7EC71F0C30E2E6ECD0EE82EEF
:10F9AE00FED72E2EFCD700F00C0EB7EC71F0BD0E6C
:10F9BE000D6EFF0E0E6E71EC73F0C00EB7EC71F0A3
:10F9CE004B0E0D6EFE0E0E6E71EC73F0660E2F6EFC
:10F9DE00760E2E6EC10EE82EFED72E2EFCD72F2EB3
:10F9EE00FAD728D0010EB7EC71F0C30E2E6ECD0EE5
:10F9FE00E82EFED72E2EFCD700F00C0EB7EC71F0D1
:10FA0E00190E0D6EFF0E0E6E71EC73F0C00EB7EC8C
:10FA1E0071F0D90E0D6EFF0E0E6E71EC73F0660E58
:10FA2E002F6E760E2E6EC10EE82EFED72E2EFCD722
:10FA3E002F2EFAD700F0000E3D6E000E3C6E10D742
:10FA4E003EC019F03FC01AF0F0EC78F019C030F05B
:10FA5E001AC031F030C019F031C01AF03EC01BF0A0
:10FA6E003FC01CF000EC74F0D8904234D96E433491
:10FA7E00DA6E460ED926000EDA223EC0DEFF3FC0F9
:10FA8E00DDFF424A432A010EB7EC71F0C30E2E6E13
:10FA9E00CD0EE82EFED72E2EFCD700F0FB0E0D6EEF
:10FAAE00FF0E0E6E42C00FF043C010F071EC73F0FB
:10FABE00330E2F6EBB0E2E6EE00EE82EFED72E2EC0
:10FACE00FCD72F2EFAD704D00F0E3B18D8B4120045
:10FADE00000E3B6EC5D6DFEC74F019C040F01AC0B4
:10FAEE0041F0000E356E010E346E000E456E000EA6
:10FAFE00446E45502CE1080E445CD8B028D0D89006
:10FB0E004434D96E4534DA6E460ED926000EDA220A
:10FB1E004050DE1819E14150DE18D8A415D0000E61
:10FB2E003D6E010E3C6ED8904434D96E4534DA6E7B
:10FB3E00460ED926000EDA22DE50DE10D8A404D0EE
:10FB4E00000E3A6E010E396E444A452AD2D73C0455
:10FB5E003D10D8A45BD039043A10D8A429D0010E98
:10FB6E00B7EC71F0C30E2E6ECD0EE82EFED72E2EF4
:10FB7E00FCD700F00C0EB7EC71F0BD0E0D6EFF0E43
:10FB8E000E6E71EC73F0C00EB7EC71F04B0E0D6E85
:10FB9E00FE0E0E6E71EC73F0660E2F6E760E2E6EDE
:10FBAE00C10EE82EFED72E2EFCD72F2EFAD728D038
:10FBBE00010EB7EC71F0C30E2E6ECD0EE82EFED7F1
:10FBCE002E2EFCD700F00C0EB7EC71F0190E0D6E48
:10FBDE00FF0E0E6E71EC73F0C00EB7EC71F0D90E15
:10FBEE000D6EFF0E0E6E71EC73F0660E2F6E760EAE
:10FBFE002E6EC10EE82EFED72E2EFCD72F2EFAD744
:10FC0E0000F0000E3D6E000E3C6E26D640C019F080
:10FC1E0041C01AF0F0EC78F019C032F01AC033F08F
:10FC2E0032C019F033C01AF040C01BF041C01CF0B6
:10FC3E0000EC74F0D8904234D96E4334DA6E460E2E
:10FC4E00D926000EDA2240C0DEFF41C0DDFF424A57
:10FC5E00432A010EB7EC71F0C30E2E6ECD0EE82EB8
:10FC6E00FED72E2EFCD700F0FB0E0D6EFF0E0E6E85
:10FC7E0042C00FF043C010F071EC73F0330E2F6ED4
:10FC8E00BB0E2E6EE00EE82EFED72E2EFCD72F2E9C
:10FC9E00FAD7E2D50F0E3818D8A45AD058EC77F010
:10FCAE0019C036F01AC037F00E0E36183710D8B409
:10FCBE00F5D70F0E36183710D8A420D0010EB7EC9A
:10FCCE0071F0C30E2E6ECD0EE82EFED72E2EFCD763
:10FCDE0000F00C0EB7EC71F09C0E0D6EFF0E0E6E5A
:10FCEE0071EC73F0660E2F6E760E2E6EC10EE82E30
:10FCFE00FED72E2EFCD72F2EFAD728D0010EB7EC1A
:10FD0E0071F0C30E2E6ECD0EE82EFED72E2EFCD722
:10FD1E0000F00C0EB7EC71F0520E0D6EFF0E0E6E63
:10FD2E0071EC73F0C00EB7EC71F09C0E0D6EFF0E01
:10FD3E000E6E71EC73F0660E2F6E760E2E6EC10E79
:10FD4E00E82EFED72E2EFCD72F2EFAD700F012005B
:10FD5E00010EB7EC71F0C30E2E6ECD0EE82EFED74F
:10FD6E002E2EFCD700F00C0EB7EC71F0520E0D6E6D
:10FD7E00FF0E0E6E71EC73F0C00EB7EC71F09C0EB0
:10FD8E000D6EFF0E0E6E71EC73F0660E2F6E760E0C
:10FD9E002E6EC10EE82EFED72E2EFCD72F2EFAD7A2
:10FDAE0000F01200003132334134353642373839E3
:10FDBE00432A3023440031323352343536463738F5
:10FDCE00394C2A3023440001000A006400E8031075
:10FDDE002700010210022852656D61696E696E6717
:10FDEE00207069656365733A00647261776572733A
:10FDFE0020726561636865642100626567696E20C3
:10FE0E006F7065726174696F6E2E00506C656173F0
:10FE1E006520696E707574206C6F67005072657323
:10FE2E007320616E79206B657920746F0063616257
:10FE3E00696E657420736F7274657221006E756DD4
:10FE4E0062657220707265737365642E00523A3368
:10FE5E002020463A313220204C3A31300044726133
:10FE6E0077657220256920666F6F643A004F706562
:10FE7E00726174696F6E2074696D653A004D6172BE
:10FE8E006B656420647261776572733A00447261C7
:10FE9E0077657220256920646965743A0044726141
:10FEAE007765722053756D6D6172793A00416E6F90
:10FEBE0074686572206472617765723F0023203D1D
:10FECE00205965732C2044203D204E6F0057656CE1
:10FEDE00636F6D6520746F20796F757200352070B9
:10FEEE00726576696F7573206C6F6773004472610B
:10FEFE0077657220313A2052463132004472617772
:10FF0E006572206E756D6265723A00447261776536
:10FF1E007220616C726561647900496E76616C69FC
:10FF2E006420666F6F642100496E76616C6964208F
:10FF3E006469657421006F7220707265737320237B
:10FF4E0020746F00496E76616C6964206B6579214F
:10FF5E000044726177657220323A204C31004D6157
:10FF6E0078696D756D206F66203800416E6F74680C
:10FF7E006572206C6F673F0076696577206C6F67DE
:10FF8E00732C00617661696C61626C652E0052653E
:10FF9E00626F6F74696E672E0054727920616761AB
:10FFAE00696E2E005072657373204420746F004E7C
:10FFBE006F20647261776572006E756D6265723A5C
:10FFCE0020006D6F7665206F6E2E00696E20757342
:10FFDE006521005374616E646279004772656174C5
:10FFEE002100312C20313300323A3339002569009B
:01FFFE000002
:020000040020DA
:08000000FFFFFFFFFFFFFFFF00
:020000040030CA
:0E000000FF061F1EFF8381FF0F400FE00F4021
:00000001FF
