:0400000020EF63F09A
:10C35200600134333231B9EC61F0C5801200B9ECBE
:10C3620061F0C5841200B9EC61F002C0C9FF12008D
:10C37200C7B4FED7C5CF01F01F0E0116D8B4120004
:10C38200F7D7036E8C94035055EC63F0C80E00D0BF
:10C39200E82EFDD71200036E8C84035055EC63F037
:10C3A200C80E00D0E82EFDD71200016EA6B2FED74D
:10C3B20001C0A9FFA69EA69CA680A8501200800ECE
:10C3C2000F6E250E106E000E116E000E126E14EC22
:10C3D20064F01200036E000E026E3A0E036005D086
:10C3E2002F0E036402D0010E026E02C001F0013072
:10C3F2001200026EB9EC61F0C586B9EC61F0C9CFEA
:10C4020003F0B9EC61F002B002D0C59A01D0C58A3E
:10C41200C58803501200FCFFEEFFD6FFF1FFF9FFC3
:10C42200D5FFF0FFF8FFECFFF4FFD9FFD4FFDEFFEA
:10C43200D8FFD3FFDDFFE7FFE2FF01500302F3CF96
:10C4420005F0F4CF06F001500402F3500626025024
:10C452000302F350062605C001F006C002F01200E6
:10C46200000E046E000E036E000E046E000E036ECC
:10C472000404D8B01200000E016E035044EC62F0C6
:10C48200034A042AF5D7026EA6B2FED7A68402C0DA
:10C49200A9FF01C0A8FFA69EA69CF29E550EA76EFC
:10C4A200AA0EA76EA682F28EA6B2FED7A69412009C
:10C4B2000A500B10D8B418D0010E0C6E04D0D890CC
:10C4C2000A360B360C2A0BAEFAD70A50085C0B5010
:10C4D2000958D8A004D00A50085E0B50095AD890C7
:10C4E2000B320A320C2EF1D708C008F009C009F04D
:10C4F2001200C30E046ECD0EE82EFED7042EFCD71A
:10C5020000F0330EC2EC61F0320EC2EC61F0280E84
:10C51200C2EC61F00F0EC2EC61F0060EC2EC61F0EB
:10C52200010EC2EC61F0C30E046ECD0EE82EFED7F2
:10C53200042EFCD700F00F0EC2EC61F01200000EC8
:10C54200066E000E056E03500410D8B41CD0010E06
:10C55200076E04D0D89003360436072A04AEFAD701
:10C56200D890053606360350015C04500258D8A014
:10C5720005D00350015E0450025A0580D89004325F
:10C582000332072EEDD705C001F006C002F01200FB
:10C59200056E000E096E000E086E000E076E000E8C
:10C5A200066E000E096E000E086E0DD008500118BE
:10C5B20008E109500218D8A404D0000E076E010E3B
:10C5C200066E084A092A0550036E046A0350085C85
:10C5D20004500958D8A0EAD706C001F007C002F0FB
:10C5E2001200C69A94869488800EC76E280EC66E74
:10C5F200000EC56E000E016E5A0E026E620E036EC2
:10C60200020E046E0EC012F00FC013F010C014F030
:10C6120011C015F0020ED8901236133614361536A4
:10C62200E82EF9D712C005F013C006F014C007F0C7
:10C6320015C008F0D3EC63F00104C86E1200180EA6
:10C64200F66EC40EF76E000EF86E01EE6CF010EE90
:10C6520024F00900F5CFEEFFE550E150FAE1520E69
:10C66200F66EC30EF76E000EF86E00EE74F010EE6A
:10C6720006F00900F5CFEEFFE550E150FAE101EED8
:10C6820000F06C0EEE6AE806FDE100EEF8F0080E2E
:10C69200EE6AE806FDE100EE69F00B0EEE6AE806CE
:10C6A200FDE1000194EF63F0026E0250F00B016EA7
:10C6B2008C500F0B8C6E01508C108C6E000EF2BEE3
:10C6C200010E716EF29E8C86530EE82EFED700F09C
:10C6D2008C96C80E00D0E82EFDD771B002D0F29E23
:10C6E20001D0F28E0238F00B026E0250F00B016E96
:10C6F2008C500F0B8C6E01508C108C6E000EF2BEA3
:10C70200010E716EF29E8C86530EE82EFED700F05B
:10C712008C96C80E00D0E82EFDD771B002D0F29EE2
:10C7220001D0F28E1200000E896E000E8A6E000E8B
:10C732008B6E000E8C6E000E8D6E92689368000EEA
:10C74200946E000E956E000E966E000EC26E0F0E67
:10C75200C16E7AEC62F0010EC2EC61F0C30E666E3D
:10C76200CD0EE82EFED7662EFCD700F00C0EC2ECE2
:10C7720061F0B70E0D6EFF0E0E6E6EEC6BF0000EDA
:10C78200686E000E676E34EC78F062C067F063C0CA
:10C7920068F067046810D8A400EF00F0E0EC61F0E4
:10C7A20000EF00F0000E096E000E0A6E000E0B6E16
:10C7B200000E0C6E0550061007100810D8B42AD0CF
:10C7C200010E0D6E06D0D8900536063607360836AD
:10C7D2000D2A08AEF8D7D89009360A360B360C3631
:10C7E2000550015C0650025807500358085004587F
:10C7F200D8A009D00550015E0650025A0750035ACC
:10C802000850045A0980D89008320732063205329D
:10C812000D2EE1D709C001F00AC002F00BC003F0EF
:10C822000CC004F01200000E016E5A0E026E620E6F
:10C83200036E020E046E0FC013F010C014F011C08C
:10C8420015F012C016F0060ED890133614361536AF
:10C852001636E82EF9D713C005F014C006F015C03D
:10C8620007F016C008F00CEC65F00104AF6EAC9C4A
:10C87200AC98AC8AAB9CAB8820EE08F07450D926F9
:10C882007550DA22010EDF6E20EE09F07450D926BF
:10C892007550DA22010EDF6E500E0101646F010E37
:10C8A200656F949C948EAB8E1200000E076E000E84
:10C8B200066E000E056E000E046E000E076E660E0A
:10C8C200066E075014E1990E065CD8B010D00650DF
:10C8D200D6EC61F0036E0350046E056A04C001F0E9
:10C8E2000650330F44EC62F0064A072AEAD7000EDC
:10C8F200076E330E066E075014E1660E065CD8B062
:10C9020010D00650D6EC61F0036E0350046E056A37
:10C9120004C001F00650330F44EC62F0064A072AC5
:10C92200EAD7000E076E000E066E075014E1330EB2
:10C93200065CD8B012000650D6EC61F0036E0350CC
:10C94200046E056A04C001F00650330F44EC62F035
:10C95200064A072AEAD71200000E066E000E056E7E
:10C9620015D0000E066E010E056E50D0000E066E3A
:10C97200020EFAD7000E066E030EF6D7000E066EF2
:10C98200040EF2D7000E066E000EEED701C003F0C1
:10C9920002C004F00450000AD8A4F4D70350030ADA
:10C9A200D8B4DFD7040AD8B4DCD70D0AD8B4DED79E
:10C9B200060AD8B4D6D7010AD8B4DCD7020AD8B44A
:10C9C200D5D71E0AD8B4D6D7030AD8B4D3D7010A0A
:10C9D200D8B4CCD7050AD8B4CDD70F0AD8B4CED79D
:10C9E200030AD8B4C7D7010AD8B4C4D7060AD8B440
:10C9F200C5D7020AD8B4BED73D0AD8B4BFD7050AF4
:10CA0200D8B4BCD70C0AD8B4B9D7BCD705C001F08A
:10CA120006C002F01200000E0A6E08AE0AD0081E0E
:10CA2200071E061E056C000E062207220822010EB2
:10CA32000A6E04AE0AD0041E031E021E016C000E12
:10CA4200022203220422010E0A1A000E0B6E000EAD
:10CA52000C6E000E0D6E000E0E6E055006100710C5
:10CA62000810D8B42AD0010E096E06D0D890053627
:10CA7200063607360836092A08AEF8D7D8900B369C
:10CA82000C360D360E360550015C06500258075022
:10CA9200035808500458D8A009D00550015E06502A
:10CAA200025A0750035A0850045A0B80D890083291
:10CAB200073206320532092EE1D70A50D8B408D01F
:10CAC2000E1E0D1E0C1E0B6C000E0C220D220E22D1
:10CAD2000BC001F00CC002F00DC003F00EC004F058
:10CAE20012003AD0000E066E010E2FD0000E066E16
:10CAF200020E2BD0000E066E030E27D0000E066E1D
:10CB0200070E23D0000E066E080E1FD0000E066E12
:10CB1200090E1BD0000E066E0A0E17D0000E066E0E
:10CB22000B0E13D0000E066E0C0E0FD0000E066E0A
:10CB32000D0E0BD0000E066E0E0E07D0000E066E06
:10CB42000F0E03D0000E066E100E056E36D001C019
:10CB520005F002C006F031D001C003F002C004F0BB
:10CB62000450000AD8A4F3D70350010AD8B4BED7A0
:10CB7200030AD8B4BFD70A0AD8B4C0D7010AD8B4B6
:10CB8200C1D7030AD8B4C2D71E0AD8B4ABD7010A98
:10CB9200D8B4C8D7030AD8B4C9D70E0AD8B4CAD7EA
:10CBA200010AD8B4CBD7030AD8B4CCD73B0AD8B43D
:10CBB200B1D7090AD8B4B2D7CAD705C001F006C0A6
:10CBC20002F01200000E066E000E056E0DD0000E71
:10CBD200066E010E03D0000E066E020E056E65D0C3
:10CBE200000E066E000EFAD701C003F002C004F078
:10CBF2000450000AD8A4F4D70350030AD8B4E7D7E4
:10CC0200070AD8B4E8D70C0AD8B4E1D7010AD8B4D5
:10CC1200E2D7030AD8B4DBD7010AD8B4DCD71A0AA0
:10CC2200D8B4D5D7030AD8B4D2D7010AD8B4CFD74B
:10CC3200070AD8B4D0D7010AD8B4CDD7030AD8B4DA
:10CC4200C6D7010AD8B4C7D70D0AD8B4C4D7010AC7
:10CC5200D8B4C1D73B0AD8B4BAD7010AD8B4B7D727
:10CC6200030AD8B4B8D7010AD8B4B1D7070AD8B4DE
:10CC7200B2D7010AD8B4AFD7030AD8B4A8D7010AE9
:10CC8200D8B4A5D70F0AD8B4A2D7010AD8B4A3D76B
:10CC9200030AD8B49CD7010AD8B49DD7070AD8B4DE
:10CCA20096D7020AD8B493D79BD705C001F006C025
:10CCB20002F01200000E066E000E056E0DD0000E80
:10CCC200066E020E056E69D0000E066E010EFAD7D0
:10CCD200000E066E000EF6D701C003F002C004F08B
:10CCE2000450000AD8A4F4D70350010AD8B4ECD7F0
:10CCF200030AD8B4E4D70A0AD8B4E6D7010AD8B4EA
:10CD0200E3D7030AD8B4DBD7010AD8B4D8D7070AC5
:10CD1200D8B4DAD7010AD8B4D7D7030AD8B4D4D74B
:10CD2200010AD8B4CCD71F0AD8B4C9D7060AD8B4D6
:10CD3200C6D7010AD8B4C3D70F0AD8B4C0D7010ADC
:10CD4200D8B4BDD7030AD8B4BFD7010AD8B4B7D76D
:10CD5200070AD8B4B9D7010AD8B4B6D7030AD8B4E7
:10CD6200B3D7010AD8B4ABD73F0AD8B4ADD7010ABA
:10CD7200D8B4AAD7030AD8B4A7D7010AD8B49FD780
:10CD8200090AD8B49CD7010AD8B49ED7070AD8B4E6
:10CD92009BD7010AD8B498D79BD705C001F006C02B
:10CDA20002F01200000E066E000E056E11D0000E8B
:10CDB200066E010E07D0000E066E020E03D0000EA4
:10CDC200066E030E056E74D0000E066E000EFAD7C4
:10CDD20001C003F002C004F00450000AD8A4F4D742
:10CDE2000350050AD8B4E3D7030AD8B4E4D7010A3A
:10CDF200D8B4E5D70B0AD8B4DAD7010AD8B4DBD74E
:10CE0200030AD8B4DCD7010AD8B4D1D71F0AD8B4E0
:10CE1200D2D7010AD8B4CBD7030AD8B4CCD7010AE7
:10CE2200D8B4CDD7070AD8B4C2D7010AD8B4C3D769
:10CE32000D0AD8B4BCD7010AD8B4BDD7050AD8B4F4
:10CE4200BAD7010AD8B4BBD7030AD8B4B8D7010AF3
:10CE5200D8B4B1D73F0AD8B4AAD7010AD8B4ABD74D
:10CE6200030AD8B4A4D7010AD8B4A1D7070AD8B400
:10CE72009ED7010AD8B49FD7030AD8B49CD7010A17
:10CE8200D8B49DD70F0AD8B49AD7010AD8B493D789
:10CE9200030AD8B48CD7010AD8B489D7070AD8B400
:10CEA2008AD7010AD8B48BD7030AD8B488D78CD7CB
:10CEB20005C001F006C002F01200000E066E640EFC
:10CEC200056E49D0000E066E020E43D0000E066EAD
:10CED200000E3FD0000E066E010E3BD0000E066E15
:10CEE200030E37D0000E066E040E33D0000E066E0F
:10CEF200050E2FD0000E066E060E2BD0000E066E0B
:10CF0200070E27D0000E066E080E23D0000E066E06
:10CF1200090E1FD0000E066E0A0E1BD0000E066E02
:10CF22000B0E17D0000E066E0C0E13D0000E066EFE
:10CF32000D0E0FD0000E066E0E0E0BD0000E066EFA
:10CF42000F0E07D0000E066E100E03D0000E066EF6
:10CF5200110E056E3FD001C003F002C004F0045070
:10CF6200000AD8A437D00350030AD8B4AFD7040AB2
:10CF7200D8B4B0D70D0AD8B4B1D7060AD8B4A2D75C
:10CF8200010AD8B4B7D7020AD8B4ACD71E0AD8B4AB
:10CF9200B9D7030AD8B4B2D7010AD8B4A7D7050AB9
:10CFA200D8B4B8D70F0AD8B4C1D7030AD8B4B6D701
:10CFB200010AD8B4ABD7060AD8B4BCD7020AD8B48F
:10CFC200B1D73D0AD8B4BAD7050AD8B4BBD70C0A30
:10CFD200D8B4BCD705C001F006C002F01200010EA1
:10CFE200C2EC61F0C30E2D6ECD0EE82EFED72D2EB3
:10CFF200FCD700F0E90E0D6EFD0E0E6E2BC00FF089
:10D002002CC010F06EEC6BF0C00EC2EC61F0000EA2
:10D01200306E000E2F6E000E366E000E356E20EE54
:10D0220069F010EE38F0070EDBCFE3FFE806FCE212
:10D03200000E346E000E336E000E326E000E316E34
:10D0420029C001F02AC002F0ADEC64F001C02FF05B
:10D0520002C030F081A2FED781380F0B0F0B376E62
:10D0620081B2FED70F0E3718D8B470D00E0E371813
:10D07200D8A405D0000E326E010E316E67D0375043
:10D08200D8B407D03704D8B404D0020E3718D8A4C5
:10D092002CD02F50355C30503658D8B0DBD73750B3
:10D0A200010D100EF324F66EFD0EF420F76EF86AF1
:10D0B200000EF8220800F550CCEC61F037502D6ECE
:10D0C2002E6A010E2D26000E2E22D8903534D96EEE
:10D0D2003634DA6E380ED926000EDA222DC0DEFF83
:10D0E2002EC0DDFF354A362AB5D70C0E3718D8A424
:10D0F200B1D7010EC2EC61F0C30E2D6ECD0EE82E3B
:10D10200FED72D2EFCD700F0E90E0D6EFD0E0E6E31
:10D112002BC00FF02CC010F06EEC6BF0C00EC2EC06
:10D1220061F0000E366E000E356E000E396E000E86
:10D13200386E000E3B6E000E3A6E000E3D6E000E13
:10D142003C6E000E3F6E000E3E6E84D731043210EC
:10D15200D8A405D0000E2A6E640E296E120029C0D2
:10D1620001F02AC002F0380E036E000E046ED6ECF7
:10D1720072F001C033F002C034F033503410D8A43E
:10D1820026D0010EC2EC61F0C30E2D6ECD0EE82E3C
:10D19200FED72D2EFCD700F0D10E0D6EFE0E0E6EB8
:10D1A2006EEC6BF0C00EC2EC61F06C0E0D6EFF0EF9
:10D1B2000E6E6EEC6BF0330E2E6EBB0E2D6EE00E0D
:10D1C200E82EFED72D2EFCD72E2EFAD708D733C045
:10D1D20029F034C02AF012000C0EC2EC61F0010EEC
:10D1E200C2EC61F0C30E2B6ECD0EE82EFED72B2EB5
:10D1F200FCD700F0590E0D6EFE0E0E6E6EEC6BF04B
:10D20200C00EC2EC61F0000E336E000E326E000EE4
:10D212002F6E000E2E6E000E316E000E306E81A249
:10D22200FED781380F0B0F0B346E81B2FED70F0E73
:10D232003418D8B4C3D00E0E3418D8A405D0000EBA
:10D24200316E640E306EBAD03450D8B423D0340468
:10D25200D8B420D0020E3418D8B41CD0040E34181E
:10D26200D8B418D0050E3418D8B414D0060E341819
:10D27200D8B410D0080E3418D8B40CD0090E341813
:10D28200D8B408D00A0E3418D8B404D00D0E34180D
:10D29200D8A473D032503310D8A44CD03404D8B4AC
:10D2A2001CD0020E3418D8B418D0040E3418D8B4D6
:10D2B20014D0050E3418D8B410D0060E3418D8B4D1
:10D2C2000CD0080E3418D8B408D0090E3418D8B4CB
:10D2D20004D00A0E3418D8A414D0020E3226000E3E
:10D2E20033223450010D100EF324F66EFD0EF4209D
:10D2F200F76EF86A000EF8220800F550CCEC61F0E7
:10D302003AD03450D8A48BD73450010D100EF324E8
:10D31200F66EFD0EF420F76EF86A000EF822080091
:10D32200F550CCEC61F0324A332A23D02E26000E7F
:10D332002F2275D732043310D8A471D7070E346464
:10D3420004D00D0E3418D8A46AD73450010D100E33
:10D35200F324F66EFD0EF420F76EF86A000EF82242
:10D362000800F550CCEC61F0324A332A3450D8A48C
:10D3720002D0140EDBD73450D9D70C0E3418D8A4EF
:10D382004ED7010EC2EC61F0C30E2B6ECD0EE82E0D
:10D39200FED72B2EFCD700F0590E0D6EFE0E0E6E30
:10D3A2006EEC6BF0C00EC2EC61F0000E336E000E3C
:10D3B200326E000E2F6E000E2E6E31D7640E3018B4
:10D3C2003110D8A405D030C029F031C02AF01200A3
:10D3D2002EC001F02FC002F072EC65F001C02CF0FB
:10D3E20002C02DF02CC029F02DC02AF01200FA0E36
:10D3F200D6EC61F0606E000E5F6E000E5E6E000E87
:10D402005B6E000E5A6E000E5D6E000E5C6E60501A
:10D41200D8A42BD0010EC2EC61F0C30E586ECD0E13
:10D42200E82EFED7582EFCD700F0AF0E0D6EFF0E81
:10D432000E6E6EEC6BF0C00EC2EC61F0560E0D6E0D
:10D44200FF0E0E6E6EEC6BF0660E596E760E586E17
:10D45200C10EE82EFED7582EFCD7592EFAD700F06F
:10D46200000E576E0E0E566E12006004D8A453D0F2
:10D47200000E5F6E010E5E6E010EC2EC61F0C30E15
:10D48200586ECD0EE82EFED7582EFCD700F0770E40
:10D492000D6EFE0E0E6E6EEC6BF0C00EC2EC61F005
:10D4A200560E0D6EFF0E0E6E6EEC6BF0660E596E22
:10D4B200760E586EC10EE82EFED7582EFCD7592E86
:10D4C200FAD700F0010EC2EC61F0C30E586ECD0E19
:10D4D200E82EFED7582EFCD700F0A70E0D6EFD0EDB
:10D4E2000E6E6EEC6BF0C00EC2EC61F0ED0E0D6EC6
:10D4F200FE0E0E6E6EEC6BF01A0E596E5E0E586ECC
:10D502006E0EE82EFED7582EFCD7592EFAD700D031
:10D5120081B2D4D0FDD7010EC2EC61F0C30E586EB9
:10D52200CD0EE82EFED7582EFCD700F0B80E0D6EA9
:10D53200FD0E0E6E60C00FF0106A6EEC6BF0C00E46
:10D54200C2EC61F0560E0D6EFF0E0E6E6EEC6BF0BD
:10D55200660E596E760E586EC10EE82EFED7582E04
:10D56200FCD7592EFAD700F0010EC2EC61F0C30EBF
:10D57200586ECD0EE82EFED7582EFCD700F0850E41
:10D582000D6EFD0E0E6E6EEC6BF0C00EC2EC61F015
:10D59200960E0D6EFF0E0E6E6EEC6BF081A2FED734
:10D5A20081380F0B0F0B616E81B2FED76150D8B478
:10D5B2000BD06104D8B408D0020E6118D8B404D0DC
:10D5C200040E6118D8A4EAD761C001F0026A605063
:10D5D200C9EC62F001C05AF002C05BF05A045B1061
:10D5E200D8A4DCD76150010DFF0EF324F66EFC0EB9
:10D5F200F420F76EF86A000EF8220800F550CCEC21
:10D6020061F0040E6118D8A404D061C05EF05F6AB4
:10D6120006D0010E61245E6E5F6A000E5F22330E39
:10D62200596EBB0E586EE00EE82EFED7582EFCD770
:10D63200592EFAD7010EC2EC61F0C30E586ECD0E10
:10D64200E82EFED7582EFCD700F0C60E0D6EFF0E48
:10D652000E6E6EEC6BF0330E596EBB0E586EE00E12
:10D66200E82EFED7582EFCD7592EFAD7010EC2EC5F
:10D6720061F0C30E586ECD0EE82EFED7582EFCD7A1
:10D6820000F0A70E0D6EFD0E0E6E6EEC6BF0C00E6E
:10D69200C2EC61F0ED0E0D6EFE0E0E6E6EEC6BF0D6
:10D6A2001A0E596E5E0E586E6E0EE82EFED7582E6A
:10D6B200FCD7592EFAD700D081A2FED75EC029F03E
:10D6C2005FC02AF000EC70F029C05CF02AC05DF067
:10D6D2005CC056F05DC057F012000F0E1F6E000EB8
:10D6E200206EE6D1250E2818D8B404D02850CCECF0
:10D6F20061F0DED1000E276E000E266E000E256E42
:10D7020003D025840D4A0E2A0DC0F6FF0EC0F7FF86
:10D71200F86A0800F550300AD8B4F3D70DC0F6FF06
:10D722000EC0F7FFF86A0800F550EBEC61F0D8A0E4
:10D7320092D0000E276E000E266E26C001F027C082
:10D7420002F0000E046E0A0E036E1EEC62F001C0BF
:10D7520026F002C027F0D00E176EFF0E186E0DC015
:10D76200F6FF0EC0F7FFF86A0800F550196E1A6A44
:10D772001750192618501A22195026261A502722F5
:10D782000D4A0E2A0DC0F6FF0EC0F7FFF86A080018
:10D79200F550EBEC61F0D8A05ED0CFD7258E76D0D5
:10D7A2001FC0D9FF20C0DAFFDECF1DF0DDCF1EF093
:10D7B200020E1F26000E20221D501E10D8A404D0D7
:10D7C200BF0E1D6EFF0E1E6E000E226E000E216E2B
:10D7D20002D0214A222A21501D24176E22501E20D7
:10D7E200186E17C0F6FF18C0F7FFF86A0800F55068
:10D7F2000009D8A4EED72650215C27502258D8B071
:10D8020005D02150265E2250275A08D0000E276EDE
:10D81200000E266E03D0200ECCEC61F02606D8A0B6
:10D8220027062628F8E12728D8B40CD0F4D71DC043
:10D83200F6FF1EC0F7FFF86A0800F550CCEC61F065
:10D842001D4A1E2A2106D8A022062128F0E12228FC
:10D85200D8B42ED1ECD70DC0F6FF0EC0F7FF0D4A9B
:10D862000E2AF86A0800F5CF28F02850000AD8B42A
:10D872001200640AD8B40AD00D0AD8B407D01A0A22
:10D88200D8B48ED70B0AD8B489D712D125BE15D0F9
:10D892001FC0D9FF20C0DAFFDECF23F0DDCF24F096
:10D8A200020E1F26000E202224AE4AD0030E25129D
:10D8B200236C241ED8B0242A43D01FC0D9FF20C015
:10D8C200DAFFDECF23F0DDCF24F0020E1F26000E9A
:10D8D200202236D0010E286E050E2818D8B438D072
:10D8E2002850020D210EF324F66EFD0EF420F76E81
:10D8F200F86A000EF8220900F550235C0900F55081
:10D902002458D8A025D0282AE7D7010E286E040E65
:10D912002818D8B41DD02850020D2B0EF324F66E11
:10D92200FD0EF420F76EF86A000EF8220900F55099
:10D93200235C0900F5502458D8A00AD0282AE7D73A
:10D942002550800B000AD8B4C5D7800AD8B4DDD7D9
:10D9520026502710D8B409D025C017F0030E171689
:10D96200D8B403D02606D8A02706800E28BE7F0E84
:10D97200176E2650285C2750800A1758D8B007D057
:10D982002850265E000E28BEFF0E275A04D0000E35
:10D99200276E000E266E25A414D025C017F0030EA4
:10D9A2001716D8B403D02D0ECCEC61F026502710F8
:10D9B200D8B41ED0300ECCEC61F02606D8A02706D3
:10D9C200F5D726502710D8B40AD0200ECCEC61F03F
:10D9D2002606D8A0270626502710D8A4F6D725C099
:10D9E20017F0030E1716D8B403D02D0ECCEC61F04D
:10D9F20028C01CF059D01C50020D210EF324F66EE3
:10DA0200FD0EF420F76EF86A000EF8220900F5CF39
:10DA120003F00A00F5CF04F023C001F024C002F0A5
:10DA2200A0EC62F001C008F002C009F0000E0B6E1B
:10DA32000A0E0A6E59EC62F00850300F286E31D08F
:10DA420023C001F024C002F01C50020D2B0EF3245F
:10DA5200F66EFD0EF420F76EF86A000EF822090049
:10DA6200F5CF03F00A00F5CF04F0A0EC62F001500C
:10DA72000F0B1B6E1B50010D520EF324F66EFD0EA2
:10DA8200F420F76EF86A000EF8220800F5CF28F0AD
:10DA920008D02550800B000AD8B4ADD7800AD8B47C
:10DAA200CFD72850CCEC61F01C061C28D8A4F1D7A3
:10DAB2000DC0F6FF0EC0F7FF0D4A0E2AF86A0800E5
:10DAC200F5CF28F02850D8B412000CD6010EC2ECC3
:10DAD20061F0C30E2B6ECD0EE82EFED72B2EFCD797
:10DAE20000F0190E0D6EFE0E0E6E29C00FF02AC048
:10DAF20010F06EEC6BF0C00EC2EC61F0000E346EF2
:10DB0200000E336E000E2E6E000E2D6E000E366E5F
:10DB1200000E356E000E306E000E2F6E20EEF8F005
:10DB220010EE38F0070EDBCFE3FFE806FCE2000E52
:10DB3200326E000E316E81A2FED781380F0B0F0BB1
:10DB4200376E81B2FED70F0E3718D8B486D00E0EBC
:10DB52003718D8A405D0000E326E010E316E7DD07A
:10DB62000C0E3718D8A42DD0010EC2EC61F0C30EF2
:10DB72002B6ECD0EE82EFED72B2EFCD700F0190E01
:10DB82000D6EFE0E0E6E29C00FF02AC010F06EEC64
:10DB92006BF0C00EC2EC61F0000E346E000E336EFC
:10DBA200000E396E000E386E000E3B6E000E3A6E9D
:10DBB200000E3D6E000E3C6E000E3F6E000E3E6E7D
:10DBC200BAD73450B8E1040E335CD8B0B4D7030EE0
:10DBD2003718D8B404D0070E3718D8A416D0375047
:10DBE200010D100EF324F66EFD0EF420F76EF86AA6
:10DBF200000EF8220800F550CCEC61F037502B6E85
:10DC02002C6A1DD0334A342A96D70B0E3718D8A463
:10DC120092D73750010D100EF324F66EFD0EF4204C
:10DC2200F76EF86A000EF8220800F550CCEC61F0AD
:10DC320037502B6E2C6A010E2B26000E2C22D89008
:10DC42003334D96E3434DA6E380ED926000EDA2225
:10DC52002BC0DEFF2CC0DDFFD5D731043210D8A493
:10DC620004D0000E366E640E99D10C0E381839109D
:10DC7200D8A410D03A503B10D8A40CD03C503D1040
:10DC8200D8A408D03E503F10D8A404D0000E366E5F
:10DC92000C0E84D1030E38183910D8A410D03A5083
:10DCA2003B10D8A40CD03C503D10D8A408D03E5014
:10DCB2003F10D8A404D0000E366E030E6FD1070EAB
:10DCC20038183910D8A410D03A503B10D8A40CD030
:10DCD2003C503D10D8A408D03E503F10D8A404D0E8
:10DCE200000E366E070E5AD1030E38183910D8A41A
:10DCF20011D0070E3A183B10D8A40CD03C503D105E
:10DD0200D8A408D03E503F10D8A404D0000E366EDE
:10DD12000A0E44D1030E38183910D8A411D00C0EB3
:10DD22003A183B10D8A40CD03C503D10D8A408D0CF
:10DD32003E503F10D8A404D0000E366E0F0E2ED1E6
:10DD4200070E38183910D8A411D00C0E3A183B100F
:10DD5200D8A40CD03C503D10D8A408D03E503F105F
:10DD6200D8A404D0000E366E130E18D1030E381844
:10DD72003910D8A412D0030E3A183B10D8A40DD0F3
:10DD8200070E3C183D10D8A408D03E503F10D8A42E
:10DD920004D0000E366E0D0E01D1030E3818391064
:10DDA200D8A412D0030E3A183B10D8A40DD00C0EF2
:10DDB2003C183D10D8A408D03E503F10D8A404D03F
:10DDC200000E366E120EEAD0030E38183910D8A49F
:10DDD20012D0070E3A183B10D8A40DD0070E3C18EB
:10DDE2003D10D8A408D03E503F10D8A404D0000E55
:10DDF200366E110ED3D0030E38183910D8A412D0B3
:10DE02000C0E3A183B10D8A40DD00C0E3C183D1045
:10DE1200D8A408D03E503F10D8A404D0000E366ECD
:10DE22001B0EBCD0030E38183910D8A412D0070E1E
:10DE32003A183B10D8A40DD00C0E3C183D10D8A4B3
:10DE420008D03E503F10D8A404D0000E366E160EF5
:10DE5200A5D0070E38183910D8A412D0070E3A18D8
:10DE62003B10D8A40DD00C0E3C183D10D8A408D0FD
:10DE72003E503F10D8A404D0000E366E1A0E8ED03B
:10DE8200070E38183910D8A412D00C0E3A183B10CD
:10DE9200D8A40DD00C0E3C183D10D8A408D03E508A
:10DEA2003F10D8A404D0000E366E1F0E77D0030E9A
:10DEB20038183910D8A413D0030E3A183B10D8A43E
:10DEC2000ED0070E3C183D10D8A409D00C0E3E18F7
:10DED2003F10D8A404D0000E366E190E5FD0030E88
:10DEE20038183910D8A413D0070E3A183B10D8A40A
:10DEF2000ED0070E3C183D10D8A409D00C0E3E18C7
:10DF02003F10D8A404D0000E366E1D0E47D0030E6B
:10DF120038183910D8A413D0070E3A183B10D8A4D9
:10DF22000ED00C0E3C183D10D8A409D00C0E3E1891
:10DF32003F10D8A404D0000E366E220E2FD0030E4E
:10DF420038183910D8A413D00C0E3A183B10D8A4A4
:10DF52000ED00C0E3C183D10D8A409D00C0E3E1861
:10DF62003F10D8A404D0000E366E270E17D0070E2D
:10DF720038183910D8A414D00C0E3A183B10D8A473
:10DF82000FD00C0E3C183D10D8A40AD00C0E3E182F
:10DF92003F10D8A405D0000E366E2B0E356E2AD057
:10DFA200010EC2EC61F0C30E2B6ECD0EE82EFED731
:10DFB2002B2EFCD700F0DF0E0D6EFE0E0E6E6EECF9
:10DFC2006BF0C00EC2EC61F06C0E0D6EFF0E0E6EA9
:10DFD2006EEC6BF0330E2C6EBB0E2B6EE00EE82E49
:10DFE200FED72B2EFCD72C2EFAD7000E366E000E43
:10DFF200356E6CD535C029F036C02AF01200FF0EFE
:10E002002924016EFF0E2A20026E000E046E330ECA
:10E01200036E1EEC62F001C054F002C055F0545081
:10E02200D6EC61F02B6E2B50336E346A5428D6EC4A
:10E0320061F02B6E2B50356E366A5450020FD6ECBF
:10E0420061F02B6E2B50376E386A5450030FD6ECAA
:10E0520061F02B6E2B50446E456A5450040FD6EC7F
:10E0620061F02B6E2B50396E3A6A5450050FD6EC84
:10E0720061F02B6E2B503B6E3C6A5450060FD6EC6F
:10E0820061F02B6E2B503D6E3E6A5450070FD6EC5A
:10E0920061F02B6E2B504A6E4B6A5450080FD6EC2F
:10E0A20061F02B6E2B504C6E4D6A5450090FD6EC1A
:10E0B20061F02B6E2B504E6E4F6A54500A0FD6EC05
:10E0C20061F02B6E2B50506E516A54500B0FD6ECF0
:10E0D20061F02B6E2B50526E536A54500C0FD6ECDB
:10E0E20061F02B6E2B50466E476A54500D0FD6ECE2
:10E0F20061F02B6E2B502D6E2E6A54500E0FD6EC03
:10E1020061F02B6E2B502F6E306A54500F0FD6ECED
:10E1120061F02B6E2B50316E326A000E496E000E8A
:10E12200486E010EC2EC61F0C30E2B6ECD0EE82ECE
:10E13200FED72B2EFCD700F0CD0E0D6EFF0E0E6E0D
:10E142006EEC6BF0C00EC2EC61F0950E0D6EFE0E21
:10E152000E6E33C00FF034C010F035C011F036C06F
:10E1620012F037C013F038C014F06EEC6BF01A0ED8
:10E172002C6E5E0E2B6E6E0EE82EFED72B2EFCD76B
:10E182002C2EFAD700D081A2FED744C001F045C0A0
:10E1920002F0000E046E3C0E036EA0EC62F001C0B1
:10E1A2003FF002C040F044C008F045C009F0000E44
:10E1B2000B6E3C0E0A6E59EC62F008C041F009C0C9
:10E1C20042F0010EC2EC61F0C30E2B6ECD0EE82EB2
:10E1D200FED72B2EFCD700F0F90E0D6EFD0E0E6E43
:10E1E2006EEC6BF0C00EC2EC61F0A70E0D6EFF0E6E
:10E1F2000E6E3FC00FF040C010F041C011F042C09F
:10E2020012F06EEC6BF01A0E2C6E5E0E2B6E6E0E12
:10E21200E82EFED72B2EFCD72C2EFAD700D081A2C7
:10E22200FED7010EC2EC61F0C30E2B6ECD0EE82EAE
:10E23200FED72B2EFCD700F0090E0D6EFE0E0E6ED1
:10E242006EEC6BF0C00EC2EC61F050505110D8A4CD
:10E252001ED04E504F10D8A41AD04C504D10D8A4F6
:10E2620016D0920E0D6EFE0E0E6E4AC00FF04BC00F
:10E2720010F06EEC6BF01A0E2C6E5E0E2B6E6E0EA4
:10E28200E82EFED72B2EFCD72C2EFAD765D0505075
:10E292005110D8A41ED04E504F10D8A41AD08E0EB2
:10E2A2000D6EFE0E0E6E4AC00FF04BC010F04CC049
:10E2B20011F04DC012F06EEC6BF01A0E2C6E5E0E69
:10E2C2002B6E6E0EE82EFED72B2EFCD72C2EFAD7F5
:10E2D20043D050505110D8A41ED08A0E0D6EFE0E9F
:10E2E2000E6E4AC00FF04BC010F04CC011F04DC082
:10E2F20012F04EC013F04FC014F06EEC6BF01A0E19
:10E302002C6E5E0E2B6E6E0EE82EFED72B2EFCD7D9
:10E312002C2EFAD721D0860E0D6EFE0E0E6E4AC03E
:10E322000FF04BC010F04CC011F04DC012F04EC0B7
:10E3320013F04FC014F050C015F051C016F06EEC3F
:10E342006BF01A0E2C6E5E0E2B6E6E0EE82EFED742
:10E352002B2EFCD72C2EFAD700D081A2FED7010E8D
:10E36200C2EC61F0C30E2B6ECD0EE82EFED72B2E23
:10E37200FCD700F0400E0D6EFD0E0E6E6EEC6BF0D3
:10E38200C00EC2EC61F0960E0D6EFD0E0E6E39C01F
:10E392000FF03AC010F03BC011F03CC012F03DC08B
:10E3A20013F03EC014F06EEC6BF01A0E2C6E5E0E83
:10E3B2002B6E6E0EE82EFED72B2EFCD72C2EFAD704
:10E3C20000D081A2FED7010EC2EC61F0C30E2B6E0B
:10E3D200CD0EE82EFED72B2EFCD700F0680E0D6E68
:10E3E200FE0E0E6E6EEC6BF01A0E2C6E5E0E2B6E27
:10E3F2006E0EE82EFED72B2EFCD72C2EFAD700D08D
:10E4020081A2FED7000E496E000E486E495005E10A
:10E41200040E485CD8B0A3D001D0A1D0FF0E2924AD
:10E42200016EFF0E2A20026E000E046E330E036E82
:10E432001EEC62F001C02BF002C02CF048C001F0CB
:10E4420049C002F0000E046E050E036E1EEC62F06F
:10E4520001502B24546E02502C20556E52505310F2
:10E46200D8B478D0010EC2EC61F0C30E2B6ECD0E83
:10E47200E82EFED72B2EFCD700F0090E0D6EFF0EF4
:10E482000E6E52C00FF053C010F0D8904634D96EC1
:10E492004734DA6E6C0ED926010EDA22DECF11F085
:10E4A200DDCF12F06EEC6BF0050E5426000E5522F5
:10E4B20054500B0FD6EC61F02B6E2B50526E536AF8
:10E4C20054500C0FD6EC61F02B6E2B50466E476AFF
:10E4D20054500D0FD6EC61F02B6E2B502D6E2E6A20
:10E4E20054500E0FD6EC61F02B6E2B502F6E306A0B
:10E4F20054500F0FD6EC61F02B6E2B50316E326AF6
:10E5020052505310D8B426D0C00EC2EC61F0090E9E
:10E512000D6EFF0E0E6E52C00FF053C010F0D89069
:10E522004634D96E4734DA6E6C0ED926010EDA22E1
:10E53200DECF11F0DDCF12F06EEC6BF0660E2C6EBA
:10E54200760E2B6EC10EE82EFED72B2EFCD72C2E6C
:10E55200FAD700F0484A492A495001E159D7010E39
:10E56200C2EC61F0C30E2B6ECD0EE82EFED72B2E21
:10E57200FCD700F0310E0D6EFF0E0E6E6EEC6BF0DE
:10E58200C00EC2EC61F0490E0D6EFE0E0E6E6EEC08
:10E592006BF081A2FED781380F0B0F0B436E81B255
:10E5A200FED743C029F02A6A1200000E086E000E40
:10E5B200076EEBEF77F003C0D9FF04C0DAFFDE0489
:10E5C200DE10D8A405D0000E086E010EE9EF77F038
:10E5D20003C0D9FF04C0DAFF020EDE18DE10D8A491
:10E5E2002FEF78F0000E086E020EE9EF77F003C00D
:10E5F200D9FF04C0DAFFDE04DE10D8A405D0000E75
:10E60200086E030EE9EF77F003C0D9FF04C0DAFF0A
:10E61200020EDE18DE10D8A42FEF78F0000E086E7E
:10E62200040EE9EF77F003C0D9FF04C0DAFFDE047D
:10E63200DE10D8A405D0000E086E050EE9EF77F0C3
:10E6420003C0D9FF04C0DAFF020EDE18DE10D8A420
:10E6520005D0000E086E060EE9EF77F003C0D9FF71
:10E6620004C0DAFF030EDE18DE10D8A42FEF78F014
:10E67200000E086E070EE9EF77F003C0D9FF04C061
:10E68200DAFFDE04DE10D8A40FD020EE02F0035031
:10E69200D9260450DA22DE04DE10D8A405D0000EFA
:10E6A200086E080EE9EF77F003C0D9FF04C0DAFF65
:10E6B200DE04DE10D8A410D020EE02F00350D926DA
:10E6C2000450DA22020EDE18DE10D8A405D0000EA5
:10E6D200086E090EE9EF77F003C0D9FF04C0DAFF34
:10E6E200020EDE18DE10D8A40FD020EE02F0035086
:10E6F200D9260450DA22DE04DE10D8A405D0000E9A
:10E70200086E0A0EE9EF77F003C0D9FF04C0DAFF02
:10E71200020EDE18DE10D8A42FEF78F020EE02F001
:10E722000350D9260450DA22020EDE18DE10D8A4D5
:10E732002FEF78F0000E086E0B0EE9EF77F003C0B2
:10E74200D9FF04C0DAFFDE04DE10D8A40FD020EE19
:10E7520002F00350D9260450DA22DE04DE10D8A4D7
:10E7620005D0000E086E0C0EE9EF77F003C0D9FF5A
:10E7720004C0DAFFDE04DE10D8A410D020EE02F0CE
:10E782000350D9260450DA22020EDE18DE10D8A475
:10E7920005D0000E086E0D0EE9EF77F003C0D9FF29
:10E7A20004C0DAFFDE04DE10D8A410D020EE02F09E
:10E7B2000350D9260450DA22030EDE18DE10D8A444
:10E7C20005D0000E086E0E0EE9EF77F003C0D9FFF8
:10E7D20004C0DAFF020EDE18DE10D8A40ED020EE3E
:10E7E20002F00350D9260450DA22DE04DE10D8A447
:10E7F20004D0000E086E0F0EEBD303C0D9FF04C085
:10E80200DAFF020EDE18DE10D8A42FEF78F020EE29
:10E8120002F00350D9260450DA22020EDE18DE106E
:10E82200D8A42FEF78F0000E086E100ED1D303C0DB
:10E83200D9FF04C0DAFFDE04DE10D8A40ED020EE29
:10E8420002F00350D9260450DA22DE04DE10D8A4E6
:10E8520004D0000E086E110EBBD303C0D9FF04C052
:10E86200DAFFDE04DE10D8A40FD020EE02F003504F
:10E87200D9260450DA22020EDE18DE10D8A404D003
:10E88200000E086E120EA4D303C0D9FF04C0DAFF33
:10E89200DE04DE10D8A40FD020EE02F00350D926F9
:10E8A2000450DA22030EDE18DE10D8A404D0000EC3
:10E8B200086E130E8DD303C0D9FF04C0DAFF020E17
:10E8C200DE18DE10D8A40ED020EE02F00350D926B6
:10E8D2000450DA22DE04DE10D8A404D0000E086E42
:10E8E200140E76D303C0D9FF04C0DAFF020EDE187D
:10E8F200DE10D8A4B3D320EE02F00350D926045080
:10E90200DA22020EDE18DE10D8A4A8D3000E086E9A
:10E91200150E5ED303C0D9FF04C0DAFFDE04DE1099
:10E92200D8A418D020EE02F00350D9260450DA22DF
:10E93200DE04DE10D8A40ED020EE04F00350D92657
:10E942000450DA22DE04DE10D8A404D0000E086ED1
:10E95200160E3ED303C0D9FF04C0DAFFDE04DE1078
:10E96200D8A47CD320EE02F00350D9260450DA2238
:10E97200DE04DE10D8A472D320EE04F00350D926B0
:10E982000450DA22020EDE18DE10D8A467D3000E7D
:10E99200086E170E1DD303C0D9FF04C0DAFFDE04D0
:10E9A200DE10D8A418D020EE02F00350D92604506D
:10E9B200DA22DE04DE10D8A40ED020EE04F00350DA
:10E9C200D9260450DA22DE04DE10D8A404D0000EC8
:10E9D200086E180EFDD203C0D9FF04C0DAFFDE04B0
:10E9E200DE10D8A43BD320EE02F00350D926045007
:10E9F200DA22DE04DE10D8A431D320EE04F0035074
:10EA0200D9260450DA22020EDE18DE10D8A426D34C
:10EA1200000E086E190EDCD203C0D9FF04C0DAFF63
:10EA2200DE04DE10D8A418D020EE02F00350D9265E
:10EA32000450DA22DE04DE10D8A40ED020EE04F058
:10EA42000350D9260450DA22DE04DE10D8A404D002
:10EA5200000E086E1A0EBCD203C0D9FF04C0DAFF42
:10EA6200020EDE18DE10D8A4F9D220EE02F0035016
:10EA7200D9260450DA22DE04DE10D8A4EFD220EE2A
:10EA820004F00350D9260450DA22DE04DE10D8A4A2
:10EA9200E5D2000E086E1B0E9BD203C0D9FF04C044
:10EAA200DAFFDE04DE10D8A418D020EE02F0035004
:10EAB200D9260450DA22DE04DE10D8A40ED020EECD
:10EAC20004F00350D9260450DA22DE04DE10D8A462
:10EAD20004D0000E086E1C0E7BD203C0D9FF04C006
:10EAE200DAFFDE04DE10D8A419D020EE02F00350C3
:10EAF200D9260450DA22DE04DE10D8A40FD020EE8C
:10EB020004F00350D9260450DA22020EDE18DE1079
:10EB1200D8A404D0000E086E1D0E5AD203C0D9FF2D
:10EB220004C0DAFFDE04DE10D8A419D020EE02F011
:10EB32000350D9260450DA22020EDE18DE10D8A4C1
:10EB42000ED020EE04F00350D9260450DA22DE045F
:10EB5200DE10D8A404D0000E086E1E0E39D203C0F7
:10EB6200D9FF04C0DAFF020EDE18DE10D8A476D276
:10EB720020EE02F00350D9260450DA22DE04DE1021
:10EB8200D8A46CD220EE04F00350D9260450DA2225
:10EB9200DE04DE10D8A462D2000E086E1F0E18D258
:10EBA20003C0D9FF04C0DAFFDE04DE10D8A418D0F7
:10EBB20020EE02F00350D9260450DA22DE04DE10E1
:10EBC200D8A40ED020EE04F00350D9260450DA2245
:10EBD200DE04DE10D8A404D0000E086E200EF8D198
:10EBE20003C0D9FF04C0DAFFDE04DE10D8A419D0B6
:10EBF20020EE02F00350D9260450DA22DE04DE10A1
:10EC0200D8A40FD020EE04F00350D9260450DA2203
:10EC1200020EDE18DE10D8A404D0000E086E210EFB
:10EC2200D7D103C0D9FF04C0DAFFDE04DE10D8A4B6
:10EC320019D020EE02F00350D9260450DA22020E37
:10EC4200DE18DE10D8A40ED020EE04F00350D92630
:10EC52000450DA22DE04DE10D8A404D0000E086EBE
:10EC6200220EB6D103C0D9FF04C0DAFF020EDE18AD
:10EC7200DE10D8A4F3D120EE02F00350D9260450BE
:10EC8200DA22DE04DE10D8A4E9D120EE04F003502B
:10EC9200D9260450DA22DE04DE10D8A4DFD1000E19
:10ECA200086E230E95D103C0D9FF04C0DAFFDE043B
:10ECB200DE10D8A418D020EE02F00350D92604505A
:10ECC200DA22DE04DE10D8A40ED020EE04F00350C7
:10ECD200D9260450DA22DE04DE10D8A404D0000EB5
:10ECE200086E240E75D103C0D9FF04C0DAFFDE041A
:10ECF200DE10D8A4B3D120EE02F00350D92604507E
:10ED0200DA22DE04DE10D8A4A9D120EE04F00350EA
:10ED1200D9260450DA22020EDE18DE10D8A49ED1C3
:10ED2200000E086E250E54D103C0D9FF04C0DAFFCD
:10ED3200DE04DE10D8A418D020EE02F00350D9264B
:10ED42000450DA22DE04DE10D8A40ED020EE04F045
:10ED52000350D9260450DA22DE04DE10D8A404D0EF
:10ED6200000E086E260E34D103C0D9FF04C0DAFFAC
:10ED7200DE04DE10D8A419D020EE02F00350D9260A
:10ED82000450DA22DE04DE10D8A40FD020EE04F004
:10ED92000350D9260450DA22020EDE18DE10D8A45F
:10EDA20004D0000E086E270E13D103C0D9FF04C091
:10EDB200DAFFDE04DE10D8A419D020EE02F00350F0
:10EDC200D9260450DA22020EDE18DE10D8A40ED0A4
:10EDD20020EE04F00350D9260450DA22DE04DE10BD
:10EDE200D8A404D0000E086E280EF2D003C0D9FFBA
:10EDF20004C0DAFF020EDE18DE10D8A42FD120EEF6
:10EE020002F00350D9260450DA22DE04DE10D8A420
:10EE120025D120EE04F00350D9260450DA22DE0474
:10EE2200DE10D8A41BD1000E086E290ED1D003C06B
:10EE3200D9FF04C0DAFFDE04DE10D8A40FD120EE21
:10EE420002F00350D9260450DA22DE04DE10D8A4E0
:10EE520005D120EE04F00350D9260450DA22DE0454
:10EE6200DE10D8A4FBD020EE06F00350D9260450C1
:10EE7200DA22DE04DE10D8A4F1D0000E086E2A0ECB
:10EE8200A7D003C0D9FF04C0DAFFDE04DE10D8A485
:10EE9200E5D020EE02F00350D9260450DA22DE0437
:10EEA200DE10D8A4DBD020EE04F00350D9260450A3
:10EEB200DA22DE04DE10D8A4D1D020EE06F0035010
:10EEC200D9260450DA22DE04DE10D8A4C7D0000E00
:10EED200086E2B0E7DD003C0D9FF04C0DAFFDE041A
:10EEE200DE10D8A4BBD020EE02F00350D926045085
:10EEF200DA22DE04DE10D8A4B1D020EE04F00350F2
:10EF0200D9260450DA22DE04DE10D8A4A7D020EEDF
:10EF120006F00350D9260450DA22DE04DE10D8A40B
:10EF22009DD0000E086E2C0E53D003C0D9FF04C032
:10EF3200DAFFDE04DE10D8A491D020EE02F00350F6
:10EF4200D9260450DA22DE04DE10D8A487D020EEBF
:10EF520004F00350D9260450DA22DE04DE10D8A4CD
:10EF62007DD020EE06F00350D9260450DA22DE04CA
:10EF7200DE10D8A473D0000E086E2D0E29D003C067
:10EF8200D9FF04C0DAFFDE04DE10D8A467D020EE79
:10EF920002F00350D9260450DA22DE04DE10D8A48F
:10EFA2005DD020EE04F00350D9260450DA22DE04AC
:10EFB200DE10D8A453D020EE06F00350D926045018
:10EFC200DA22DE04DE10D8A449D0000E086E2E0E1E
:10EFD200076E44D001C005F002C006F00650000AD8
:10EFE200D8A43CD00550030AD8B4DCEF72F0040A6E
:10EFF200D8B4F8EF72F00D0AD8B43EEF73F0060AF7
:10F00200D8B414EF73F0010AD8B484D4020AD8B485
:10F01200A0EF73F01E0AD8B4FFD4030AD8B4BBD44D
:10F02200010AD8B404D4050AD8B4BAD50F0AD8B4A0
:10F03200FED6030AD8B437D6010AD8B42ED5060AAA
:10F04200D8B41FD7020AD8B46FD63D0AD8B443D772
:10F05200050AD8B46AD70C0AD8B491D707C001F010
:10F0620008C002F0120021EE40F010EEC0F00F0EC8
:10F07200DBCFE3FFE806FCE221EE30F010EE80F099
:10F082000F0EDBCFE3FFE806FCE221EE20F010EEEC
:10F0920090F00F0EDBCFE3FFE806FCE221EE10F06A
:10F0A20010EEA0F00F0EDBCFE3FFE806FCE221EE4C
:10F0B20000F010EEB0F00F0EDBCFE3FFE806FCE24B
:10F0C200000E0001F56F000EF46F000EF76F000ED8
:10F0D200F66F000EE66F000EE56F000EE86F000E91
:10F0E200E76F000ED86F000ED76F000EF36F000EA1
:10F0F200F26F000EEF6F000EEE6F000EF16F000E5A
:10F10200F06F000EEB6F000EED6F000EEC6F000E55
:10F11200DD6F000EDC6F000EDF6F000EDE6F000E83
:10F12200E16F000EE06F000EE36F000EE26F000E63
:10F13200EA6F000EE96F31EC62F0010EC2EC61F091
:10F14200C30E646ECD0EE82EFED7642EFCD700F0FF
:10F152000C0EC2EC61F0B70E0D6EFF0E0E6E6EEC71
:10F162006BF0330E656EBB0E646EE00EE82EFED7BA
:10F17200642EFCD7652EFAD7010EC2EC61F0C30EE5
:10F18200646ECD0EE82EFED7642EFCD700F0A70EDB
:10F192000D6EFD0E0E6E6EEC6BF0C00EC2EC61F0E9
:10F1A200740E0D6EFD0E0E6E6EEC6BF081A2FED72C
:10F1B200010EC2EC61F0C30E646ECD0EE82EFED7D6
:10F1C200642EFCD700F00C0EC2EC61F0390E0D6E0D
:10F1D200FE0E0E6E6EEC6BF0C00EC2EC61F0C90E4C
:10F1E2000D6EFD0E0E6E6EEC6BF0330E656EBB0E89
:10F1F200646EE00EE82EFED7642EFCD7652EFAD799
:10F20200030E016EFA0E44EC62F0120E016E000E55
:10F2120044EC62F0020E016E010E44EC62F01C0E30
:10F22200016E020E44EC62F05B0E016E030E44ECC2
:10F2320062F0030E016E040E44EC62F00F0E016EDA
:10F24200050E44EC62F0080E016E060E44EC62F00C
:10F252000C0E016E070E44EC62F0010E016E080EF8
:10F2620044EC62F00D0E016E090E44EC62F0000EE9
:10F27200016E0A0E44EC62F056EC64F0A00E0E6EC3
:10F28200860E0F6E010E106E000E116EF2EC62F021
:10F29200ACEC61F0000E036ED10E026EB4EC61F0C4
:10F2A200000E0001EA6F000EE96FEA5112E1060E4C
:10F2B200E95DD8B00ED0D00EE925D96E000EEA2154
:10F2C200DA6E000EFAEC61F0DF6E0001E94BEA2B18
:10F2D200ECD7010EFAEC61F00001D66FB0EC61F0F0
:10F2E200010EC2EC61F0C30E646ECD0EE82EFED7A5
:10F2F200642EFCD700F03E0E0D6EFF0E0E6E6EEC0D
:10F302006BF0C00EC2EC61F0820E0D6EFF0E0E6E3F
:10F312006EEC6BF0660E656E760E646EC10EE82EB4
:10F32200FED7642EFCD7652EFAD700F0010EC2EC90
:10F3320061F0C30E646ECD0EE82EFED7642EFCD7AC
:10F3420000F0A40E0D6EFE0E0E6ED6C00FF0106A07
:10F35200D5C011F0126AD4C013F0146A6EEC6BF0CF
:10F36200C00EC2EC61F0B30E0D6EFE0E0E6ED2C078
:10F372000FF0106AD1C011F0126AD0C013F0146AF3
:10F382006EEC6BF0660E656E760E646EC10EE82E44
:10F39200FED7642EFCD7652EFAD700F0010EC2EC20
:10F3A20061F0C30E646ECD0EE82EFED7642EFCD73C
:10F3B20000F0770E0D6EFF0E0E6E6EEC6BF0C00E4F
:10F3C200C2EC61F04B0E0D6EFF0E0E6E6EEC6BF02A
:10F3D200660E656E760E646EC10EE82EFED7642E42
:10F3E200FCD7652EFAD700F0010EC2EC61F0C30E15
:10F3F200646ECD0EE82EFED7642EFCD700F0FB0E15
:10F402000D6EFE0E0E6E6EEC6BF0C00EC2EC61F075
:10F41200740E0D6EFD0E0E6E6EEC6BF081A2FED7B9
:10F4220081380F0B0F0B0001DB6F81B2FED70F0E7D
:10F432000001DB19D8A4D1D3D705D811D8A4C1D1E2
:10F44200F55104E1080EF45DD8A02AD0010EC2ECF9
:10F4520061F0C30E646ECD0EE82EFED7642EFCD78B
:10F4620000F00C0EC2EC61F0240E0D6EFF0E0E6E5B
:10F472006EEC6BF0C00EC2EC61F0630E0D6EFD0E11
:10F482000E6E6EEC6BF0660E656E760E646EC10EDD
:10F49200E82EFED7642EFCD7652EFAD700F0F8D2FC
:10F4A200010EC2EC61F0C30E646ECD0EE82EFED7E3
:10F4B200642EFCD700F00C0EC2EC61F0290E0D6E2A
:10F4C200FE0E0E6E6EEC6BF0C00EC2EC61F0490ED9
:10F4D2000D6EFE0E0E6E6EEC6BF081A2FED78138C1
:10F4E2000F0B0F0B0001E46F81B2FED70F0E00016C
:10F4F200E419D8A45FD1010EC2EC61F0C30E646EB0
:10F50200CD0EE82EFED7642EFCD700F0EDEC68F0AD
:10F5120029C0F2F02AC0F3F0640E0001F219F311CF
:10F52200D8A405D0000EF36F000EF26FB9D7000E0B
:10F53200F76F000EF66FF7512CE1080EF65DD8B0AA
:10F5420028D0D890F635D96EF735DA6EC00ED926A6
:10F55200000EDA22F251DE1819E1F351DE18D8A4B6
:10F5620015D0000EE66F010EE56FD890F635D96E14
:10F57200F735DA6EC00ED926000EDA22DE50DE1022
:10F58200D8A404D0000EE86F010EE76FF64BF72BFC
:10F59200D2D7E505E611D8A462D0E705E811D8A4D0
:10F5A2002FD0010EC2EC61F0C30E646ECD0EE82EB8
:10F5B200FED7642EFCD700F00C0EC2EC61F08C0E6C
:10F5C2000D6EFF0E0E6E6EEC6BF0C00EC2EC61F0B3
:10F5D200D90E0D6EFD0E0E6E6EEC6BF0660E656E44
:10F5E200760E646EC10EE82EFED7642EFCD7652E11
:10F5F200FAD700F0000E0001E86F000EE76F29D085
:10F60200010EC2EC61F0C30E646ECD0EE82EFED781
:10F61200642EFCD700F00C0EC2EC61F0C20E0D6E2F
:10F62200FE0E0E6E6EEC6BF0C00EC2EC61F09F0E21
:10F632000D6EFF0E0E6E6EEC6BF0660E656E760E44
:10F64200646EC10EE82EFED7642EFCD7652EFAD763
:10F6520000F0000E0001E66F000EE56FF1D6010E1C
:10F66200C2EC61F0C30E646ECD0EE82EFED7642E9E
:10F67200FCD700F0F2C029F0F3C02AF067EC6DF07D
:10F6820029C0EEF02AC0EFF0640E0001EE19EF116E
:10F69200D8A405D0000EEF6F000EEE6F2CD7EEC08F
:10F6A20029F0EFC02AF0F2C02BF0F3C02CF0F0ECFE
:10F6B20067F029C0F0F02AC0F1F0640E0001F019E1
:10F6C200F111D8A409D0000EEF6F000EEE6F000EFC
:10F6D200F16F000EF06FC3D7D890F435D96EF535BF
:10F6E200DA6EC00ED926000EDA22F2C0DEFFF3C0B7
:10F6F200DDFFEEC001F0EFC002F05EEC67F001C08A
:10F70200E2F002C0E3F0D8900001F435D96EF5358D
:10F71200DA6EB00ED926000EDA22E2C0DEFFE3C0B6
:10F72200DDFFF0C001F0F1C002F05BEC66F001C059
:10F73200DCF002C0DDF0F0C001F0F1C002F0E3EC59
:10F7420065F001C0DEF002C0DFF0F0C001F0F1C0F0
:10F7520002F0D3EC66F001C0E0F002C0E1F0D89014
:10F762000001F435D96EF535DA6E800ED926000E19
:10F77200DA22DCC0DEFFDDC0DDFFD890F435D96EC1
:10F78200F535DA6E900ED926000EDA22DEC0DEFFE3
:10F79200DFC0DDFFD890F435D96EF535DA6EA00EF4
:10F7A200D926000EDA22E0C0DEFFE1C0DDFFF44B15
:10F7B200F52B04D00E0EE419D8B46AD1000EE46F12
:10F7C2003FD6010EC2EC61F0C30E646ECD0EE82E80
:10F7D200FED7642EFCD700F0EDEC68F029C0F2F001
:10F7E2002AC0F3F0640E0001F219F311D8A409D073
:10F7F200000EF36F000EF26F000ED86F010ED76F7E
:10F802004FD6000ED86F010ED76F000EF76F000EA5
:10F81200F66FF7512CE1080EF65DD8B028D0D890DB
:10F82200F635D96EF735DA6EC00ED926000EDA2219
:10F83200F251DE1819E1F351DE18D8A415D0000EEA
:10F84200E66F010EE56FD890F635D96EF735DA6EB0
:10F85200C00ED926000EDA22DE50DE10D8A404D063
:10F86200000EE86F010EE76FF64BF72BD2D7E505D6
:10F87200E611D8A462D0E705E811D8A42FD0010E72
:10F88200C2EC61F0C30E646ECD0EE82EFED7642E7C
:10F89200FCD700F00C0EC2EC61F08C0E0D6EFF0E68
:10F8A2000E6E6EEC6BF0C00EC2EC61F0D90E0D6EF6
:10F8B200FD0E0E6E6EEC6BF0660E656E760E646E6D
:10F8C200C10EE82EFED7642EFCD7652EFAD700F0C3
:10F8D200000E0001E86F000EE76F29D0010EC2ECA6
:10F8E20061F0C30E646ECD0EE82EFED7642EFCD7F7
:10F8F20000F00C0EC2EC61F0C20E0D6EFE0E0E6E2A
:10F902006EEC6BF0C00EC2EC61F09F0E0D6EFF0E3E
:10F912000E6E6EEC6BF0660E656E760E646EC10E48
:10F92200E82EFED7642EFCD7652EFAD700F0000E23
:10F932000001E66F000EE56F7FD5010EC2EC61F0AB
:10F94200C30E646ECD0EE82EFED7642EFCD700F0F7
:10F95200F2C029F0F3C02AF067EC6DF029C0EEF096
:10F962002AC0EFF0640E0001EE19EF11D8A405D001
:10F97200000EEF6F000EEE6F24D7EEC029F0EFC03D
:10F982002AF0F2C02BF0F3C02CF0F0EC67F029C0A3
:10F99200F0F02AC0F1F0640E0001F019F111D8A4C0
:10F9A20009D0000EEF6F000EEE6F000EF16F000E29
:10F9B200F06FC3D7D890F435D96EF535DA6EC00E34
:10F9C200D926000EDA22F2C0DEFFF3C0DDFFEEC060
:10F9D20001F0EFC002F05EEC67F001C0E2F002C09D
:10F9E200E3F0D8900001F435D96EF535DA6EB00E39
:10F9F200D926000EDA22E2C0DEFFE3C0DDFFF0C04E
:10FA020001F0F1C002F05BEC66F001C0DCF002C074
:10FA1200DDF0F0C001F0F1C002F0E3EC65F001C0EE
:10FA2200DEF002C0DFF0F0C001F0F1C002F0D3EC72
:10FA320066F001C0E0F002C0E1F0D8900001F435B8
:10FA4200D96EF535DA6E800ED926000EDA22DCC0C8
:10FA5200DEFFDDC0DDFFD890F435D96EF535DA6E04
:10FA6200900ED926000EDA22DEC0DEFFDFC0DDFFF7
:10FA7200D890F435D96EF535DA6EA00ED926000E7F
:10FA8200DA22E0C0DEFFE1C0DDFFF44BF52BD4D477
:10FA92000001F451F511D8A405D0000E636E000EDA
:10FAA200626E1200FA0ED6EC61F00001EB6F040EEA
:10FAB200EB19D8B456EC64F0000E0001F76F000E9B
:10FAC200F66FF75105E1080EF65DD8B081D001D08E
:10FAD2007FD0EB51D8B404D0040EEB19D8A40FD0C8
:10FAE200F6C001F0F7C002F0000E046E050E036EC0
:10FAF2001EEC62F001C0ECF002C0EDF013D0F6C0D3
:10FB020001F0F7C002F0000E046E050E036E1EEC4B
:10FB120062F00001EB51330D0150F324EC6F0250FF
:10FB2200F420ED6FD8900001F635D96EF735DA6E14
:10FB3200C00ED926000EDA22DF50016EEC510B0FF7
:10FB420044EC62F0D8900001F635D96EF735DA6EE2
:10FB5200B00ED926000EDA22DF50016EEC510C0FE6
:10FB620044EC62F0D8900001F635D96EF735DA6EC2
:10FB7200800ED926000EDA22DF50016EEC510D0FF5
:10FB820044EC62F0D8900001F635D96EF735DA6EA2
:10FB9200900ED926000EDA22DF50016EEC510E0FC4
:10FBA20044EC62F0D8900001F635D96EF735DA6E82
:10FBB200A00ED926000EDA22DF50016EEC510F0F93
:10FBC20044EC62F00001F64BF72BF75101E17BD7D1
:10FBD200000E636E010E626E12000E0EDB19D8A4C7
:10FBE2005FD0F8EC69F056C0D9F057C0DAF00F0ECA
:10FBF2000001D919DA11D8B4F4D70E0ED919DA11D5
:10FC0200D8A420D0010EC2EC61F0C30E646ECD0EFA
:10FC1200E82EFED7642EFCD700F00C0EC2EC61F089
:10FC2200610E0D6EFF0E0E6E6EEC6BF0660E656E63
:10FC3200760E646EC10EE82EFED7642EFCD7652EBA
:10FC4200FAD728D0010EC2EC61F0C30E646ECD0E5D
:10FC5200E82EFED7642EFCD700F00C0EC2EC61F049
:10FC6200170E0D6EFF0E0E6E6EEC6BF0C00EC2EC38
:10FC720061F0610E0D6EFF0E0E6E6EEC6BF0660E95
:10FC8200656E760E646EC10EE82EFED7642EFCD72A
:10FC9200652EFAD700F0000E636E000E626E12003F
:10FCA200010EC2EC61F0C30E646ECD0EE82EFED7DB
:10FCB200642EFCD700F00C0EC2EC61F0170E0D6E34
:10FCC200FF0E0E6E6EEC6BF0C00EC2EC61F0610EB8
:10FCD2000D6EFF0E0E6E6EEC6BF0660E656E760E9E
:10FCE200646EC10EE82EFED7642EFCD7652EFAD7BD
:10FCF20000F0000E636E000E626E120000313233AD
:10FD02004134353642373839432A302344003132C0
:10FD12003352343536463738394C2A3023440001C1
:10FD2200000A006400E8031027010010000001002F
:10FD32001000280006240218000102100228526551
:10FD42006D61696E696E67207069656365733A00FB
:10FD5200303132333435363738396162636465663F
:10FD620000647261776572732072656163686564AD
:10FD72002100626567696E206F7065726174696FD8
:10FD82006E2E00506C6561736520696E707574200B
:10FD92006C6F6700523A25692020463A2569202077
:10FDA2004C3A256900507265737320616E79206B3D
:10FDB200657920746F0025692070726576696F75A8
:10FDC20073206C6F677300636162696E6574207380
:10FDD2006F7274657221006E756D62657220707249
:10FDE20065737365642E00447261776572202569BC
:10FDF20020666F6F643A004F7065726174696F6E4E
:10FE02002074696D653A004D61726B65642064729D
:10FE120061776572733A0044726177657220256971
:10FE220020646965743A00416E6F7468657220647B
:10FE320072617765723F0057656C636F6D65207400
:10FE42006F20796F75720023203D204E6F2C204465
:10FE5200203D2059657300447261776572206E758A
:10FE62006D6265723A00496E7075742053756D6DDE
:10FE72006172793A00312070726576696F7573200C
:10FE82006C6F670025692C2025692C2025692C20A0
:10FE9200256900253032692F253032692F2530320D
:10FEA2006900253032782F253032782F253032788C
:10FEB20000253032783A253032783A2530327800CF
:10FEC20044726177657220616C7265616479004980
:10FED2006E76616C696420666F6F642100496E768C
:10FEE200616C6964206469657421006D6F766520B8
:10FEF200666F72776172642E006F72207072657322
:10FF020073204420746F0044726177657220256902
:10FF12003A20257300496E76616C6964206B6579BD
:10FF220021004D6178696D756D206F662038004142
:10FF32006E6F74686572206C6F673F0043757272F2
:10FF4200656E7420646174650076696577206C6FF4
:10FF520067732C00617661696C61626C652E005278
:10FF620065626F6F74696E672E00547279206167E3
:10FF720061696E2E005072657373202320746F00C6
:10FF8200616E642074696D653A004E6F206472611F
:10FF9200776572006E756D6265723A2000696E2037
:10FFA200757365210025693A25303269004E6F204C
:10FFB2006C6F6773005374616E64627900286E75AA
:10FFC2006C6C290047726561742100446174653A62
:10FFD200005246464C005252464C0052464C4C008F
:10FFE200464C4C4C00524C4C4C005246460052522D
:0DFFF2004600524C4C0052524C0052000090
:020000040020DA
:08000000FFFFFFFFFFFFFFFF00
:020000040030CA
:0E000000FF061F1EFF8381FF0F400FE00F4021
:00000001FF
