:0400000020EF6EF08F
:10DC0400036E8C940350CCEC6EF0C80E00D0E82E5A
:10DC1400FDD71200036E8C840350CCEC6EF0C80E5A
:10DC240000D0E82EFDD71200016EA6B2FED701C0C7
:10DC3400A9FFA69EA69CA680A850120000EE47F05D
:10DC4400220EEE6AE806FDE1000EF86E000140EFD8
:10DC54006EF0026EA6B2FED7A68402C0A9FF01C070
:10DC6400A8FFA69EA69CF29E550EA76EAA0EA76EAE
:10DC7400A682F28EA6B2FED7A6941200000E896E7A
:10DC8400000E8A6E000E8B6E000E8C6E000E8D6E72
:10DC940092689368000E946E000E956E000E966E58
:10DCA400000EC26E0F0EC16E7DEC6EF0AAEC7AF01F
:10DCB40000EF00F00A500B10D8B418D0010E0C6E0F
:10DCC40004D0D8900A360B360C2A0BAEFAD70A5079
:10DCD400085C0B500958D8A004D00A50085E0B50B9
:10DCE400095AD8900B320A320C2EF1D708C008F02A
:10DCF40009C009F01200C30E046ECD0EE82EFED743
:10DD0400042EFCD700F0330E02EC6EF0320E02EC5F
:10DD14006EF0280E02EC6EF00F0E02EC6EF0060EA2
:10DD240002EC6EF0010E02EC6EF0C30E046ECD0E2A
:10DD3400E82EFED7042EFCD700F00F0E02EC6EF096
:10DD44001200000E066E000E056E03500410D8B4C7
:10DD54001CD0010E076E04D0D89003360436072A6F
:10DD640004AEFAD7D890053606360350015C045049
:10DD74000258D8A005D00350015E0450025A058011
:10DD8400D89004320332072EEDD705C001F006C047
:10DD940002F01200026E0250F00B016E8C500F0B59
:10DDA4008C6E01508C108C6E000EF2BE010E676EEC
:10DDB400F29E8C86530EE82EFED700F08C96C80E89
:10DDC40000D0E82EFDD767B002D0F29E01D0F28ECB
:10DDD4000238F00B026E0250F00B016E8C500F0BE8
:10DDE4008C6E01508C108C6E000EF2BE010E676EAC
:10DDF400F29E8C86530EE82EFED700F08C96C80E49
:10DE040000D0E82EFDD767B002D0F29E01D0F28E8A
:10DE14001200000E066E000E056E15D0000E066E82
:10DE2400010E056E50D0000E066E020EFAD7000EDB
:10DE3400066E030EF6D7000E066E040EF2D7000E21
:10DE4400066E000EEED701C003F002C004F00450C9
:10DE5400000AD8A4F4D70350030AD8B4DFD7040ABD
:10DE6400D8B4DCD70D0AD8B4DED7060AD8B4D6D7CE
:10DE7400010AD8B4DCD7020AD8B4D5D71E0AD8B45C
:10DE8400D6D7030AD8B4D3D7010AD8B4CCD7050A55
:10DE9400D8B4CDD70F0AD8B4CED7030AD8B4C7D7CD
:10DEA400010AD8B4C4D7060AD8B4C5D7020AD8B46C
:10DEB400BED73D0AD8B4BFD7050AD8B4BCD70C0A1C
:10DEC400D8B4B9D7BCD705C001F006C002F012001F
:10DED4003AD0000E066E010E2FD0000E066E020E12
:10DEE4002BD0000E066E030E27D0000E066E070E12
:10DEF40023D0000E066E080E1FD0000E066E090E0B
:10DF04001BD0000E066E0A0E17D0000E066E0B0E06
:10DF140013D0000E066E0C0E0FD0000E066E0D0E02
:10DF24000BD0000E066E0E0E07D0000E066E0F0EFE
:10DF340003D0000E066E100E056E36D001C005F03B
:10DF440002C006F031D001C003F002C004F0045056
:10DF5400000AD8A4F3D70350010AD8B4BED7030AE1
:10DF6400D8B4BFD70A0AD8B4C0D7010AD8B4C1D725
:10DF7400030AD8B4C2D71E0AD8B4ABD7010AD8B49E
:10DF8400C8D7030AD8B4C9D70E0AD8B4CAD7010A65
:10DF9400D8B4CBD7030AD8B4CCD73B0AD8B4B1D7BA
:10DFA400090AD8B4B2D7CAD705C001F006C002F036
:10DFB40012000F0E126E000E136E7DD0250E18186F
:10DFC400D8B404D018500CEC6EF075D0000E146E5A
:10DFD4000DC0F6FF0EC0F7FF0D4A0E2A0800F5CF5C
:10DFE40018F01850000AD8B41200640AD8B403D048
:10DFF4000D0AD8A460D012C0D9FF13C0DAFFDECF57
:10E0040016F0DDCF17F0020E1226000E132217AE03
:10E0140006D0030E1412166C171ED8B0172A010E60
:10E02400186E050E1818D8B412D01850020DB90E77
:10E03400F324F66EFD0EF420F76E0900F550165C1D
:10E044000900F5501758D8A002D0182AEAD714C0EE
:10E0540011F0030E1116D8B403D02D0E0CEC6EF093
:10E0640018C015F024D01550020DB90EF324F66E25
:10E07400FD0EF420F76E0900F5CF03F00A00F5CF8A
:10E0840004F016C001F017C002F0A3EC6EF001C05A
:10E0940008F002C009F0000E0B6E0A0E0A6E5CEC6A
:10E0A4006EF00850300F186E18500CEC6EF0150618
:10E0B4001528D8A4D8D70DC0F6FF0EC0F7FF0D4A17
:10E0C4000E2A0800F5CF18F01850D8B4120076D7ED
:10E0D400010E02EC6EF0C30E1D6ECD0EE82EFED7BF
:10E0E4001D2EFCD700F04F0E0D6EFE0E0E6E1BC0E3
:10E0F4000FF01CC010F0DBEC6FF0C00E02EC6EF001
:10E10400000E206E000E1F6E000E266E000E256E91
:10E1140020EE5FF010EE27F0070EDBCFE3FFE806FA
:10E12400FCE2000E246E000E236E000E226E000E22
:10E13400216E19C001F01AC002F00BEC6FF001C09F
:10E144001FF002C020F081A2FED781380F0B0F0B05
:10E154002F6E81B2FED70F0E2F18D8B46DD00E0ECD
:10E164002F18D8A405D0000E226E010E216E64D0A3
:10E174002F50D8B407D02F04D8B404D0020E2F18CF
:10E18400D8A429D01F50255C20502658D8B0DBD7FE
:10E194002F50010DA80EF324F66EFD0EF420F76E39
:10E1A4000800F5500CEC6EF02F501D6E1E6A010E27
:10E1B4001D26000E1E22D8902534D96E2634DA6E20
:10E1C400270ED926000EDA221DC0DEFF1EC0DDFF99
:10E1D400254A262AB8D70C0E2F18D8A4B4D7010E76
:10E1E40002EC6EF0C30E1D6ECD0EE82EFED71D2E72
:10E1F400FCD700F04F0E0D6EFE0E0E6E1BC00FF01E
:10E204001CC010F0DBEC6FF0C00E02EC6EF0000EE0
:10E21400266E000E256E000E286E000E276E000E70
:10E224002A6E000E296E000E2C6E000E2B6E000E50
:10E234002E6E000E2D6E87D721042210D8A405D08F
:10E24400000E1A6E640E196E120019C001F01AC085
:10E2540002F0270E036E000E046E91EC76F001C0FE
:10E2640023F002C024F023502410D8A426D0010E99
:10E2740002EC6EF0C30E1D6ECD0EE82EFED71D2EE1
:10E28400FCD700F02B0E0D6EFF0E0E6EDBEC6FF064
:10E29400C00E02EC6EF0AA0E0D6EFF0E0E6EDBECDD
:10E2A4006FF0330E1E6EBB0E1D6EE00EE82EFED711
:10E2B4001D2EFCD71E2EFAD70BD723C019F024C06D
:10E2C4001AF012000C0E02EC6EF0010E02EC6EF06D
:10E2D400C30E1B6ECD0EE82EFED71B2EFCD700F00E
:10E2E4000D0E0D6EFF0E0E6EDBEC6FF0C00E02EC29
:10E2F4006EF0000E236E000E226E000E1F6E000ED6
:10E304001E6E000E216E000E206E81A2FED7813893
:10E314000F0B0F0B246E81B2FED70F0E2418D8B446
:10E32400BAD00E0E2418D8A405D0000E216E640EA7
:10E33400206EB1D02450D8B423D02404D8B420D033
:10E34400020E2418D8B41CD0040E2418D8B418D043
:10E35400050E2418D8B414D0060E2418D8B410D03E
:10E36400080E2418D8B40CD0090E2418D8B408D038
:10E374000A0E2418D8B404D00D0E2418D8A46AD0D8
:10E3840022502310D8A446D02404D8B41CD0020EA2
:10E394002418D8B418D0040E2418D8B414D0050EF8
:10E3A4002418D8B410D0060E2418D8B40CD0080EF3
:10E3B4002418D8B408D0090E2418D8B404D00A0EEE
:10E3C4002418D8A411D0020E2226000E2322245091
:10E3D400010DA80EF324F66EFD0EF420F76E08006E
:10E3E400F5500CEC6EF034D02450D8A48ED72450C1
:10E3F400010DA80EF324F66EFD0EF420F76E08004E
:10E40400F5500CEC6EF0224A232A20D01E26000E72
:10E414001F227BD722042310D8A477D7070E2464A5
:10E4240004D00D0E2418D8A470D72450010DA80EC2
:10E43400F324F66EFD0EF420F76E0800F5500CEC94
:10E444006EF0224A232A2450D8A402D0140EDED718
:10E454002450DCD70C0E2418D8A457D7010E02EC94
:10E464006EF0C30E1B6ECD0EE82EFED71B2EFCD70E
:10E4740000F00D0E0D6EFF0E0E6EDBEC6FF0C00E95
:10E4840002EC6EF0000E236E000E226E000E1F6E64
:10E49400000E1E6E3AD7640E20182110D8A405D0A1
:10E4A40020C019F021C01AF012001EC001F01FC0D4
:10E4B40002F06AEC6FF001C01CF002C01DF01CC039
:10E4C40019F01DC01AF01200010E02EC6EF0C30E1A
:10E4D4001B6ECD0EE82EFED71B2EFCD700F0DF0EF0
:10E4E4000D6EFE0E0E6EDBEC6FF0C00E02EC6EF0E5
:10E4F400940E0D6EFF0E0E6EDBEC6FF0660E1C6E4E
:10E50400760E1B6EC10EE82EFED71B2EFCD71C2EDA
:10E51400FAD700F0010E02EC6EF0C30E1B6ECD0EA6
:10E52400E82EFED71B2EFCD700F0FD0E0D6EFD0E5F
:10E534000E6EDBEC6FF0C00E02EC6EF0CA0E0D6EC8
:10E54400FF0E0E6EDBEC6FF081A2FED781380F0B4D
:10E554000F0B1E6E81B2FED71E50D8B40FD01E040E
:10E56400D8B40CD0020E1E18D8B408D0040E1E184D
:10E57400D8B404D0050E1E18D8A4E6D71E50010D39
:10E58400970EF324F66EFD0EF420F76E0800F55096
:10E594000CEC6EF0330E1C6EBB0E1B6EE00EE82E00
:10E5A400FED71B2EFCD71C2EFAD7010E02EC6EF000
:10E5B400C30E1B6ECD0EE82EFED71B2EFCD700F02B
:10E5C400EC0E0D6EFF0E0E6EDBEC6FF0330E1C6E58
:10E5D400BB0E1B6EE00EE82EFED71B2EFCD71C2EA6
:10E5E400FAD7010E02EC6EF0C30E1B6ECD0EE82EB0
:10E5F400FED71B2EFCD700F00E0E0D6EFE0E0E6E17
:10E60400DBEC6FF0C00E02EC6EF0D30E0D6EFF0E5D
:10E614000E6EDBEC6FF01A0E1C6E5E0E1B6E6E0E31
:10E62400E82EFED71B2EFCD71C2EFAD700D081A2D1
:10E63400FED7010E02EC6EF0C30E1B6ECD0EE82E5B
:10E64400FED71B2EFCD700F05F0E0D6EFE0E0E6E75
:10E65400DBEC6FF0C00E02EC6EF0F90E0D6EFF0EE7
:10E664000E6EDBEC6FF01A0E1C6E5E0E1B6E6E0EE1
:10E67400E82EFED71B2EFCD71C2EFAD700D081A281
:10E68400FED7010E02EC6EF0C30E1B6ECD0EE82E0B
:10E69400FED71B2EFCD700F06F0E0D6EFE0E0E6E15
:10E6A400DBEC6FF0C00E02EC6EF0F30E0D6EFF0E9D
:10E6B4000E6EDBEC6FF01A0E1C6E5E0E1B6E6E0E91
:10E6C400E82EFED71B2EFCD71C2EFAD700D081A231
:10E6D400FED7010E02EC6EF0C30E1B6ECD0EE82EBB
:10E6E400FED71B2EFCD700F0C90E0D6EFD0E0E6E6C
:10E6F400DBEC6FF0C00E02EC6EF03F0E0D6EFE0E02
:10E704000E6EDBEC6FF01A0E1C6E5E0E1B6E6E0E40
:10E71400E82EFED71B2EFCD71C2EFAD700D081A2E0
:10E72400FED7010E02EC6EF0C30E1B6ECD0EE82E6A
:10E73400FED71B2EFCD700F08F0E0D6EFE0E0E6E54
:10E74400DBEC6FF01A0E1C6E5E0E1B6E6E0EE82E66
:10E75400FED71B2EFCD71C2EFAD700D081A2FED7E1
:10E76400010E02EC6EF0C30E1B6ECD0EE82EFED72A
:10E774001B2EFCD700F0FE0E0D6EFE0E0E6EDBECB3
:10E784006FF0C00E02EC6EF0620E0D6EFF0E0E6E98
:10E79400DBEC6FF0660E1C6E760E1B6EC10EE82E5F
:10E7A400FED71B2EFCD71C2EFAD700F0010E02EC6C
:10E7B4006EF0C30E1B6ECD0EE82EFED71B2EFCD7BB
:10E7C40000F07C0E0D6EFF0E0E6EDBEC6FF0C00ED3
:10E7D40002EC6EF0AF0E0D6EFE0E0E6EDBEC6FF003
:10E7E40081A2FED781380F0B0F0B1D6E81B2FED7AD
:10E7F4001DC019F01A6A1200010E02EC6EF0C30E6D
:10E804001B6ECD0EE82EFED71B2EFCD700F07F0E1C
:10E814000D6EFE0E0E6E19C00FF01AC010F0DBEC78
:10E824006FF0C00E02EC6EF0000E246E000E236E2C
:10E83400000E1E6E000E1D6E000E266E000E256E5E
:10E84400000E206E000E1F6E20EE57F010EE28F022
:10E85400070EDBCFE3FFE806FCE2000E226E000E9B
:10E86400216E81A2FED781380F0B0F0B276E81B268
:10E87400FED70F0E2718D8B480D00E0E2718D8A4B0
:10E8840005D0000E226E010E216E77D00C0E2718D3
:10E89400D8A42DD0010E02EC6EF0C30E1B6ECD0E6B
:10E8A400E82EFED71B2EFCD700F07F0E0D6EFE0E59
:10E8B4000E6E19C00FF01AC010F0DBEC6FF0C00E32
:10E8C40002EC6EF0000E246E000E236E000E296E14
:10E8D400000E286E000E2B6E000E2A6E000E2D6E9A
:10E8E400000E2C6E000E2F6E000E2E6EBAD7245022
:10E8F400B8E1040E235CD8B0B4D7030E2718D8B4FB
:10E9040004D0070E2718D8A413D02750010DA80E41
:10E91400F324F66EFD0EF420F76E0800F5500CECAF
:10E924006EF027501B6E1C6A1AD0234A242A99D7EA
:10E934000B0E2718D8A495D72750010DA80EF32441
:10E94400F66EFD0EF420F76E0800F5500CEC6EF038
:10E9540027501B6E1C6A010E1B26000E1C22D89029
:10E964002334D96E2434DA6E280ED926000EDA2226
:10E974001BC0DEFF1CC0DDFFD8D721042210D8A4A1
:10E9840004D0000E266E640E99D10C0E281829109E
:10E99400D8A410D02A502B10D8A40CD02C502D1051
:10E9A400D8A408D02E502F10D8A404D0000E266E60
:10E9B4000C0E84D1030E28182910D8A410D02A5084
:10E9C4002B10D8A40CD02C502D10D8A408D02E5025
:10E9D4002F10D8A404D0000E266E030E6FD1070E9C
:10E9E40028182910D8A410D02A502B10D8A40CD041
:10E9F4002C502D10D8A408D02E502F10D8A404D0F9
:10EA0400000E266E070E5AD1030E28182910D8A41A
:10EA140011D0070E2A182B10D8A40CD02C502D106E
:10EA2400D8A408D02E502F10D8A404D0000E266EDF
:10EA34000A0E44D1030E28182910D8A411D00C0EA4
:10EA44002A182B10D8A40CD02C502D10D8A408D0E0
:10EA54002E502F10D8A404D0000E266E0F0E2ED1E7
:10EA6400070E28182910D8A411D00C0E2A182B1020
:10EA7400D8A40CD02C502D10D8A408D02E502F1070
:10EA8400D8A404D0000E266E130E18D1030E281835
:10EA94002910D8A412D0030E2A182B10D8A40DD0F4
:10EAA400070E2C182D10D8A408D02E502F10D8A43F
:10EAB40004D0000E266E0D0E01D1030E2818291065
:10EAC400D8A412D0030E2A182B10D8A40DD00C0EE3
:10EAD4002C182D10D8A408D02E502F10D8A404D050
:10EAE400000E266E120EEAD0030E28182910D8A4A0
:10EAF40012D0070E2A182B10D8A40DD0070E2C18EC
:10EB04002D10D8A408D02E502F10D8A404D0000E55
:10EB1400266E110ED3D0030E28182910D8A412D0B3
:10EB24000C0E2A182B10D8A40DD00C0E2C182D1056
:10EB3400D8A408D02E502F10D8A404D0000E266ECE
:10EB44001B0EBCD0030E28182910D8A412D0070E0F
:10EB54002A182B10D8A40DD00C0E2C182D10D8A4C4
:10EB640008D02E502F10D8A404D0000E266E160EF6
:10EB7400A5D0070E28182910D8A412D0070E2A18D9
:10EB84002B10D8A40DD00C0E2C182D10D8A408D0FE
:10EB94002E502F10D8A404D0000E266E1A0E8ED03C
:10EBA400070E28182910D8A412D00C0E2A182B10DE
:10EBB400D8A40DD00C0E2C182D10D8A408D02E508B
:10EBC4002F10D8A404D0000E266E1F0E77D0030E8B
:10EBD40028182910D8A413D0030E2A182B10D8A44F
:10EBE4000ED0070E2C182D10D8A409D00C0E2E18F8
:10EBF4002F10D8A404D0000E266E190E5FD0030E79
:10EC040028182910D8A413D0070E2A182B10D8A41A
:10EC14000ED0070E2C182D10D8A409D00C0E2E18C7
:10EC24002F10D8A404D0000E266E1D0E47D0030E5C
:10EC340028182910D8A413D0070E2A182B10D8A4EA
:10EC44000ED00C0E2C182D10D8A409D00C0E2E1892
:10EC54002F10D8A404D0000E266E220E2FD0030E3F
:10EC640028182910D8A413D00C0E2A182B10D8A4B5
:10EC74000ED00C0E2C182D10D8A409D00C0E2E1862
:10EC84002F10D8A404D0000E266E270E17D0070E1E
:10EC940028182910D8A414D00C0E2A182B10D8A484
:10ECA4000FD00C0E2C182D10D8A40AD00C0E2E1830
:10ECB4002F10D8A405D0000E266E2B0E256E2AD058
:10ECC400010E02EC6EF0C30E1B6ECD0EE82EFED7C5
:10ECD4001B2EFCD700F0390E0D6EFF0E0E6EDBEC12
:10ECE4006FF0C00E02EC6EF0AA0E0D6EFF0E0E6EEB
:10ECF400DBEC6FF0330E1C6EBB0E1B6EE00EE82EC9
:10ED0400FED71B2EFCD71C2EFAD7000E266E000E43
:10ED1400256E72D525C019F026C01AF01200000E17
:10ED2400086E000E076ED0D303C0D9FF04C0DAFF0B
:10ED3400DE04DE10D8B409D003C0D9FF04C0DAFF62
:10ED4400020EDE18DE10D8A4FED3000E086E010EEB
:10ED5400B9D303C0D9FF04C0DAFFDE04DE10D8B48F
:10ED640009D003C0D9FF04C0DAFF020EDE18DE109A
:10ED7400D8A4E9D3000E086E020EA4D303C0D9FFB1
:10ED840004C0DAFFDE04DE10D8B412D003C0D9FF09
:10ED940004C0DAFF020EDE18DE10D8B409D003C0B6
:10EDA400D9FF04C0DAFF030EDE18DE10D8A4CBD3DB
:10EDB400000E086E030E86D303C0D9FF04C0DAFF29
:10EDC400030EDE18DE10D8B4BED320EE02F00350DA
:10EDD400D9260450DA22030EDE18DE10D8B4B3D3D9
:10EDE40003C0D9FF04C0DAFFDE50DE10D8B4ABD3C1
:10EDF40020EE02F00350D9260450DA22DE50DE1051
:10EE0400D8B4A1D3000E086E040E5CD320EE02F039
:10EE14000350D9260450DA22030EDE18DE10D8A4DB
:10EE24000CD003C0D9FF04C0DAFFDE04DE10D8A47E
:10EE34008AD3000E086E050E45D303C0D9FF04C063
:10EE4400DAFF030EDE18DE10D8B47DD303C0D9FF79
:10EE540004C0DAFFDE50DE10D8B475D3000E086E9D
:10EE6400060E30D320EE02F00350D9260450DA22E5
:10EE7400030EDE18DE10D8A40CD003C0D9FF04C0E2
:10EE8400DAFFDE04DE10D8A45ED3000E086E070E8F
:10EE940019D303C0D9FF04C0DAFF030EDE18DE1055
:10EEA400D8B451D303C0D9FF04C0DAFFDE50DE105A
:10EEB400D8B449D3000E086E080E04D303C0D9FF9A
:10EEC40004C0DAFFDE04DE10D8A43DD320EE02F045
:10EED4000350D9260450DA22DE04DE10D8A433D33A
:10EEE40020EE04F00350D9260450DA22DE04DE10AA
:10EEF400D8B40BD020EE04F00350D9260450DA2203
:10EF0400020EDE18DE10D8A41ED3000E086E090E01
:10EF1400D9D203C0D9FF04C0DAFFDE04DE10D8A4BE
:10EF240012D320EE02F00350D9260450DA22DE0474
:10EF3400DE10D8A408D320EE04F00350D9260450E0
:10EF4400DA22DE04DE10D8B40BD020EE04F0035035
:10EF5400D9260450DA22020EDE18DE10D8A4F3D229
:10EF6400000E086E0A0EAED220EE02F00350D9262F
:10EF74000450DA22DE04DE10D8A4E5D220EE04F038
:10EF84000350D9260450DA22DE04DE10D8A4DBD2E2
:10EF940003C0D9FF04C0DAFFDE04DE10D8B409D000
:10EFA40003C0D9FF04C0DAFF020EDE18DE10D8A4B5
:10EFB400CAD2000E086E0B0E85D203C0D9FF04C05E
:10EFC400DAFFDE04DE10D8A418D020EE02F00350DD
:10EFD400D9260450DA22DE04DE10D8A40ED020EEA6
:10EFE40004F00350D9260450DA22DE04DE10D8A43B
:10EFF40004D0000E086E0C0E65D203C0D9FF04C005
:10F00400DAFF020EDE18DE10D8A418D020EE02F0CB
:10F014000350D9260450DA22DE04DE10D8A40ED020
:10F0240020EE04F00350D9260450DA22DE04DE1068
:10F03400D8A404D0000E086E0D0E44D203C0D9FF2C
:10F0440004C0DAFFDE04DE10D8A419D020EE02F0EA
:10F054000350D9260450DA22020EDE18DE10D8A49A
:10F064000ED020EE04F00350D9260450DA22DE0438
:10F07400DE10D8A404D0000E086E0E0E23D203C0F6
:10F08400D9FF04C0DAFFDE04DE10D8A45CD220EE7F
:10F0940002F00350D9260450DA22DE04DE10D8A48C
:10F0A40052D220EE04F00350D9260450DA22020E84
:10F0B400DE18DE10D8A447D2000E086E0F0E02D25E
:10F0C40003C0D9FF04C0DAFFDE04DE10D8A418D0D0
:10F0D40020EE02F00350D9260450DA22DE04DE10BA
:10F0E400D8A40ED020EE04F00350D9260450DA221E
:10F0F400DE04DE10D8A404D0000E086E100EE2D197
:10F1040003C0D9FF04C0DAFF020EDE18DE10D8A453
:10F1140018D020EE02F00350D9260450DA22DE047F
:10F12400DE10D8A40ED020EE04F00350D9260450EB
:10F13400DA22DE04DE10D8A404D0000E086E110E0C
:10F14400C1D103C0D9FF04C0DAFFDE04DE10D8A4A5
:10F1540019D020EE02F00350D9260450DA22020E10
:10F16400DE18DE10D8A40ED020EE04F00350D92609
:10F174000450DA22DE04DE10D8A404D0000E086E97
:10F18400120EA0D103C0D9FF04C0DAFFDE04DE10E2
:10F19400D8A4D9D120EE02F00350D9260450DA22A3
:10F1A400DE04DE10D8A4CFD120EE04F00350D9261B
:10F1B4000450DA22020EDE18DE10D8A4C4D1000EE8
:10F1C400086E130E7FD103C0D9FF04C0DAFFDE043A
:10F1D400DE10D8A4B8D120EE02F00350D926045092
:10F1E400DA22DE04DE10D8A4AED120EE04F00350FF
:10F1F400D9260450DA22DE04DE10D8B40BD020EE77
:10F2040004F00350D9260450DA22020EDE18DE1070
:10F21400D8A499D1000E086E140E54D103C0D9FF9E
:10F2240004C0DAFFDE04DE10D8A418D020EE02F009
:10F234000350D9260450DA22DE04DE10D8A40ED0FE
:10F2440020EE04F00350D9260450DA22DE04DE1046
:10F25400D8A404D0000E086E150E34D103C0D9FF13
:10F2640004C0DAFF020EDE18DE10D8A418D020EE97
:10F2740002F00350D9260450DA22DE04DE10D8A4AA
:10F284000ED020EE04F00350D9260450DA22DE0416
:10F29400DE10D8A404D0000E086E160E13D103C0DD
:10F2A400D9FF04C0DAFFDE04DE10D8A419D020EEA2
:10F2B40002F00350D9260450DA22020EDE18DE10C2
:10F2C400D8A40ED020EE04F00350D9260450DA223C
:10F2D400DE04DE10D8A404D0000E086E170EF2D09F
:10F2E40003C0D9FF04C0DAFFDE04DE10D8A42BD19A
:10F2F40020EE02F00350D9260450DA22DE04DE1098
:10F30400D8A421D120EE04F00350D9260450DA22E7
:10F31400020EDE18DE10D8A416D1000E086E180EE8
:10F32400D1D003C0D9FF04C0DAFFDE04DE10D8A4B4
:10F334000AD120EE02F00350D9260450DA22DE046A
:10F34400DE10D8A400D120EE04F00350D9260450D6
:10F35400DA22DE04DE10D8A4F6D020EE06F0035044
:10F36400D9260450DA22DE04DE10D8A4ECD0000E34
:10F37400086E190EA7D003C0D9FF04C0DAFFDE045B
:10F38400DE10D8A4E0D020EE02F00350D9260450B9
:10F39400DA22DE04DE10D8A4D6D020EE04F0035026
:10F3A400D9260450DA22DE04DE10D8A4CCD020EE14
:10F3B40006F00350D9260450DA22DE04DE10D8A465
:10F3C400C2D0000E086E1A0E7DD003C0D9FF04C04F
:10F3D400DAFFDE04DE10D8A4B6D020EE02F003502B
:10F3E400D9260450DA22DE04DE10D8A4ACD020EEF4
:10F3F40004F00350D9260450DA22DE04DE10D8A427
:10F40400A2D020EE06F00350D9260450DA22DE04FE
:10F41400DE10D8A498D0000E086E1B0E53D003C083
:10F42400D9FF04C0DAFFDE04DE10D8A48CD020EEAD
:10F4340002F00350D9260450DA22DE04DE10D8A4E8
:10F4440082D020EE04F00350D9260450DA22DE04E0
:10F45400DE10D8A478D020EE06F00350D92604504C
:10F46400DA22DE04DE10D8A46ED0000E086E1C0E64
:10F4740029D003C0D9FF04C0DAFFDE04DE10D8A40B
:10F4840062D020EE02F00350D9260450DA22DE04C2
:10F49400DE10D8A458D020EE04F00350D92604502E
:10F4A400DA22DE04DE10D8A44ED020EE06F003509B
:10F4B400D9260450DA22DE04DE10D8A444D0000E8B
:10F4C400086E1D0E076E3FD001C005F002C006F0A5
:10F4D4000650000AD8A437D00550030AD8B424D45F
:10F4E400040AD8B436D40D0AD8B466D4060AD8B4FB
:10F4F40045D4010AD8B4E2D4020AD8B487D41E0A87
:10F50400D8B432D5030AD8B404D5010AD8B4AAD4DD
:10F51400050AD8B4D5D50F0AD8B403D7030AD8B48A
:10F5240052D6010AD8B449D5060AD8B424D7020A57
:10F53400D8B474D63D0AD8B448D7050AD8B46FD71E
:10F544000C0AD8B496D707C001F008C002F0120024
:10F55400010E02EC6EF0C30E306ECD0EE82EFED717
:10F56400302EFCD700F00C0E02EC6EF0E40E0D6EA3
:10F57400FF0E0E6EDBEC6FF0660E316E760E306EA3
:10F58400C10EE82EFED7302EFCD7312EFAD700F06C
:10F59400010E02EC6EF0C30E306ECD0EE82EFED7D7
:10F5A400302EFCD700F00E0E0D6EFE0E0E6EDBEC50
:10F5B4006FF0C00E02EC6EF0EC0E0D6EFD0E0E6ED2
:10F5C400DBEC6FF081A2FED7010E016E000E2BEC76
:10F5D4006EF0000E16EC6EF0376E010E02EC6EF05B
:10F5E400C30E306ECD0EE82EFED7302EFCD700F0C1
:10F5F400EF0E0D6EFE0E0E6EDBEC6FF03750010D4C
:10F60400A80EF324F66EFD0EF420F76E0800F550F4
:10F614000CEC6EF0660E316E760E306EC10EE82E76
:10F62400FED7302EFCD7312EFAD700F0030E016E30
:10F63400000E2BEC6EF0000E16EC6EF0376E010E21
:10F6440002EC6EF0C30E306ECD0EE82EFED7302ED7
:10F65400FCD700F0EF0E0D6EFE0E0E6EDBEC6FF0BD
:10F664003750010DA80EF324F66EFD0EF420F76E4C
:10F674000800F5500CEC6EF0660E316E760E306EAE
:10F68400C10EE82EFED7302EFCD7312EFAD700F06B
:10F69400010E02EC6EF0C30E306ECD0EE82EFED7D6
:10F6A400302EFCD700F00C0E02EC6EF0BF0E0D6E87
:10F6B400FE0E0E6EDBEC6FF0C00E02EC6EF01F0E51
:10F6C4000D6EFE0E0E6EDBEC6FF0660E316E760E76
:10F6D400306EC10EE82EFED7302EFCD7312EFAD76D
:10F6E40000F0010E02EC6EF0C30E306ECD0EE82E6B
:10F6F400FED7302EFCD700F0B50E0D6EFF0E0E6E49
:10F70400DBEC6FF0C00E02EC6EF0890E0D6EFF0E96
:10F714000E6EDBEC6FF0660E316E760E306EC10E3F
:10F72400E82EFED7302EFCD7312EFAD700F0010E8A
:10F7340002EC6EF0C30E306ECD0EE82EFED7302EE6
:10F74400FCD700F0470E0D6EFF0E0E6EDBEC6FF073
:10F75400C00E02EC6EF0EC0E0D6EFD0E0E6EDBECC8
:10F764006FF081A2FED781380F0B0F0B366E81B27A
:10F77400FED70F0E3618D8A484D2000E406E000EA9
:10F784003F6E000E446E000E436E000E3A6E000E85
:10F79400396E000E3C6E000E3B6E000E336E000E92
:10F7A400326E000E466E000E456E000E426E000E66
:10F7B400416E000E3E6E000E3D6E32043310D8A42E
:10F7C4005CD1405004E1080E3F5CD8A02AD0010E61
:10F7D40002EC6EF0C30E306ECD0EE82EFED7302E46
:10F7E400FCD700F00C0E02EC6EF06F0E0D6EFF0EE7
:10F7F4000E6EDBEC6FF0C00E02EC6EF0DB0E0D6EE5
:10F80400FD0E0E6EDBEC6FF0660E316E760E306E12
:10F81400C10EE82EFED7302EFCD7312EFAD700F0D9
:10F824001200010E02EC6EF0C30E306ECD0EE82E07
:10F83400FED7302EFCD700F00C0E02EC6EF09F0EBB
:10F844000D6EFE0E0E6EDBEC6FF0C00E02EC6EF071
:10F85400CF0E0D6EFE0E0E6EDBEC6FF081A2FED7A6
:10F8640081380F0B0F0B386E81B2FED70F0E38188C
:10F87400D8A4FCD0010E02EC6EF0C30E306ECD0E97
:10F88400E82EFED7302EFCD700F064EC71F019C0DE
:10F8940045F01AC046F0640E45184610D8A405D0A9
:10F8A400000E466E000E456EBCD7000E446E000E70
:10F8B400436E44502CE1080E435CD8B028D0D89055
:10F8C4004334D96E4434DA6E470ED926000EDA2258
:10F8D4004550DE1819E14650DE18D8A415D0000EA4
:10F8E4003A6E010E396ED8904334D96E4434DA6ED0
:10F8F400470ED926000EDA22DE50DE10D8A404D03A
:10F90400000E3C6E010E3B6E434A442AD2D73904A2
:10F914003A10D8A460D03B043C10D8A42ED0010ED9
:10F9240002EC6EF0C30E306ECD0EE82EFED7302EF4
:10F93400FCD700F00C0E02EC6EF0C00E0D6EFF0E44
:10F944000E6EDBEC6FF0C00E02EC6EF02F0E0D6E3F
:10F95400FE0E0E6EDBEC6FF0660E316E760E306EC0
:10F96400C10EE82EFED7302EFCD7312EFAD700F088
:10F97400000E3C6E000E3B6E29D0010E02EC6EF0C0
:10F98400C30E306ECD0EE82EFED7302EFCD700F01D
:10F994000C0E02EC6EF01C0E0D6EFF0E0E6EDBEC08
:10F9A4006FF0C00E02EC6EF0DC0E0D6EFF0E0E6EEC
:10F9B400DBEC6FF0660E316E760E306EC10EE82E03
:10F9C400FED7302EFCD7312EFAD700F0000E3A6E57
:10F9D400000E396EF6D6010E02EC6EF0C30E306ED8
:10F9E400CD0EE82EFED7302EFCD700F045C019F01E
:10F9F40046C01AF0FEEC73F019C041F01AC042F090
:10FA0400640E41184210D8A405D0000E426E000EB8
:10FA1400416E30D741C019F042C01AF045C01BF006
:10FA240046C01CF06AEC70F019C03DF01AC03EF0FC
:10FA3400640E3D183E10D8A409D0000E426E000E8C
:10FA4400416E000E3E6E000E3D6EC5D7D8903F3419
:10FA5400D96E4034DA6E470ED926000EDA2245C03C
:10FA6400DEFF46C0DDFF3F4A402A04D00E0E3818A0
:10FA7400D8B41200000E386EA4D6010E02EC6EF05B
:10FA8400C30E306ECD0EE82EFED7302EFCD700F01C
:10FA940064EC71F019C045F01AC046F0640E4518C4
:10FAA4004610D8A409D0000E466E000E456E000E16
:10FAB400336E010E326EB5D6000E336E010E326E09
:10FAC400000E446E000E436E44502CE1080E435C5D
:10FAD400D8B028D0D8904334D96E4434DA6E470E67
:10FAE400D926000EDA224550DE1819E14650DE18F8
:10FAF400D8A415D0000E3A6E010E396ED890433456
:10FB0400D96E4434DA6E470ED926000EDA22DE505E
:10FB1400DE10D8A404D0000E3C6E010E3B6E434AA6
:10FB2400442AD2D739043A10D8A460D03B043C10FC
:10FB3400D8A42ED0010E02EC6EF0C30E306ECD0EA2
:10FB4400E82EFED7302EFCD700F00C0E02EC6EF03F
:10FB5400C00E0D6EFF0E0E6EDBEC6FF0C00E02ECED
:10FB64006EF02F0E0D6EFE0E0E6EDBEC6FF0660E59
:10FB7400316E760E306EC10EE82EFED7302EFCD7D5
:10FB8400312EFAD700F0000E3C6E000E3B6E29D0E9
:10FB9400010E02EC6EF0C30E306ECD0EE82EFED7D1
:10FBA400302EFCD700F00C0E02EC6EF01C0E0D6E25
:10FBB400FF0E0E6EDBEC6FF0C00E02EC6EF0DC0E8E
:10FBC4000D6EFF0E0E6EDBEC6FF0660E316E760E70
:10FBD400306EC10EE82EFED7302EFCD7312EFAD768
:10FBE40000F0000E3A6E000E396EE7D5010E02ECFD
:10FBF4006EF0C30E306ECD0EE82EFED7302EFCD73D
:10FC040000F045C019F046C01AF0FEEC73F019C0BC
:10FC140041F01AC042F0640E41184210D8A405D035
:10FC2400000E426E000E416E28D741C019F042C04A
:10FC34001AF045C01BF046C01CF06AEC70F019C005
:10FC44003DF01AC03EF0640E3D183E10D8A409D011
:10FC5400000E426E000E416E000E3E6E000E3D6EB2
:10FC6400C5D7D8903F34D96E4034DA6E470ED926C2
:10FC7400000EDA2245C0DEFF46C0DDFF3F4A402ABF
:10FC84009CD50E0E3618D8A45AD066EC72F019C062
:10FC940034F01AC035F00E0E34183510D8B4F5D738
:10FCA4000F0E34183510D8A420D0010E02EC6EF0DB
:10FCB400C30E306ECD0EE82EFED7302EFCD700F0EA
:10FCC4000C0E02EC6EF09F0E0D6EFF0E0E6EDBEC52
:10FCD4006FF0660E316E760E306EC10EE82EFED7D2
:10FCE400302EFCD7312EFAD728D0010E02EC6EF05C
:10FCF400C30E306ECD0EE82EFED7302EFCD700F0AA
:10FD04000C0E02EC6EF0550E0D6EFF0E0E6EDBEC5B
:10FD14006FF0C00E02EC6EF09F0E0D6EFF0E0E6EB5
:10FD2400DBEC6FF0660E316E760E306EC10EE82E8F
:10FD3400FED7302EFCD7312EFAD700F01200010E78
:10FD440002EC6EF0C30E306ECD0EE82EFED7302ED0
:10FD5400FCD700F00C0E02EC6EF0550E0D6EFF0E8B
:10FD64000E6EDBEC6FF0C00E02EC6EF09F0E0D6EAB
:10FD7400FF0E0E6EDBEC6FF0660E316E760E306E9B
:10FD8400C10EE82EFED7302EFCD7312EFAD700F064
:10FD94001200003132334134353642373839432A80
:10FDA4003023440031323352343536463738394CF7
:10FDB4002A3023440001000A006400E803102700ED
:10FDC400010210022852656D61696E696E672070C8
:10FDD40069656365733A0064726177657273207252
:10FDE4006561636865642100626567696E206F7090
:10FDF40065726174696F6E2E00506C656173652065
:10FE0400696E707574206C6F67005072657373202F
:10FE1400616E79206B657920746F00636162696E2D
:10FE2400657420736F7274657221006E756D6265FE
:10FE34007220707265737365642E00523A33202009
:10FE4400463A313220204C3A3130004472617765B1
:10FE54007220256920666F6F643A004F7065726185
:10FE640074696F6E2074696D653A004D61726B65DB
:10FE74006420647261776572733A004472617765D5
:10FE84007220256920646965743A0044726177655B
:10FE9400722053756D6D6172793A00416E6F7468AA
:10FEA4006572206472617765723F0023203D20599A
:10FEB40065732C2044203D204E6F0057656C636FA2
:10FEC4006D6520746F20796F75720023203D204E7C
:10FED4006F2C2044203D20596573003520707265D5
:10FEE40076696F7573206C6F67730053746F7265F6
:10FEF400642076616C75653A20004472617765729E
:10FF040020313A20524631320044726177657220C2
:10FF14006E756D6265723A00447261776572206134
:10FF24006C726561647900496E76616C69642066FF
:10FF34006F6F642100496E76616C69642064696541
:10FF44007421006F72207072657373204420746F83
:10FF540000496E76616C6964206B65792100447296
:10FF64006177657220323A204C31004D6178696DB9
:10FF7400756D206F66203800416E6F74686572205D
:10FF84006C6F673F0076696577206C6F67732C0030
:10FF9400617661696C61626C652E005265626F6F97
:10FFA40074696E672E0054727920616761696E2EE0
:10FFB400005072657373202320746F004E6F2064A9
:10FFC4007261776572006E756D6265723A20006DBC
:10FFD4006F7665206F6E2E00696E20757365210043
:10FFE4005374616E646279004772656174210031F3
:0BFFF4002C20313300323A333900007A
:020000040020DA
:08000000FFFFFFFFFFFFFFFF00
:020000040030CA
:0E000000FF061F1EFF8381FF0F400FE00F4021
:00000001FF
