:04000000C5EF70F0E8
:10E16200036E8C9403505CEC71F0C80E00D0E82E64
:10E17200FDD71200036E8C8403505CEC71F0C80E64
:10E1820000D0E82EFDD7120000EE46F0220EEE6A15
:10E19200E806FDE1000EF86E0001D0EF70F0000E0F
:10E1A200896E000E8A6E000E8B6E000E8C6E000E53
:10E1B2008D6E92689368000E946E000E956E000E3E
:10E1C200966E000EC26E0F0EC16E0DEC71F068EC11
:10E1D2007AF000EF00F00A500B10D8B418D0010EFC
:10E1E2000C6E04D0D8900A360B360C2A0BAEFAD736
:10E1F2000A50085C0B500958D8A004D00A50085E97
:10E202000B50095AD8900B320A320C2EF1D708C0A3
:10E2120008F009C009F01200C30E046ECD0EE82EFC
:10E22200FED7042EFCD700F0330EB1EC70F0320EA4
:10E23200B1EC70F0280EB1EC70F00F0EB1EC70F092
:10E24200060EB1EC70F0010EB1EC70F0C30E046E6C
:10E25200CD0EE82EFED7042EFCD700F00F0EB1EC47
:10E2620070F01200000E066E000E056E03500410D0
:10E27200D8B41CD0010E076E04D0D89003360436F1
:10E28200072A04AEFAD7D890053606360350015C49
:10E2920004500258D8A005D00350015E0450025A1F
:10E2A2000580D89004320332072EEDD705C001F065
:10E2B20006C002F01200026E0250F00B016E8C508A
:10E2C2000F0B8C6E01508C108C6E000EF2BE010E84
:10E2D200666EF29E8C86530EE82EFED700F08C9668
:10E2E200C80E00D0E82EFDD766B002D0F29E01D053
:10E2F200F28E0238F00B026E0250F00B016E8C505F
:10E302000F0B8C6E01508C108C6E000EF2BE010E43
:10E31200666EF29E8C86530EE82EFED700F08C9627
:10E32200C80E00D0E82EFDD766B002D0F29E01D012
:10E33200F28E1200000E066E000E056E15D0000E53
:10E34200066E010E056E50D0000E066E020EFAD752
:10E35200000E066E030EF6D7000E066E040EF2D7FE
:10E36200000E066E000EEED701C003F002C004F0EC
:10E372000450000AD8A4F4D70350030AD8B4DFD754
:10E38200040AD8B4DCD70D0AD8B4DED7060AD8B44A
:10E39200D6D7010AD8B4DCD7020AD8B4D5D71E0A18
:10E3A200D8B4D6D7030AD8B4D3D7010AD8B4CCD7B5
:10E3B200050AD8B4CDD70F0AD8B4CED7030AD8B439
:10E3C200C7D7010AD8B4C4D7060AD8B4C5D7020A37
:10E3D200D8B4BED73D0AD8B4BFD7050AD8B4BCD783
:10E3E2000C0AD8B4B9D7BCD705C001F006C002F0F8
:10E3F20012003AD0000E066E010E2FD0000E066EED
:10E40200020E2BD0000E066E030E27D0000E066EF3
:10E41200070E23D0000E066E080E1FD0000E066EE9
:10E42200090E1BD0000E066E0A0E17D0000E066EE5
:10E432000B0E13D0000E066E0C0E0FD0000E066EE1
:10E442000D0E0BD0000E066E0E0E07D0000E066EDD
:10E452000F0E03D0000E066E100E056E36D001C0F0
:10E4620005F002C006F031D001C003F002C004F092
:10E472000450000AD8A4F3D70350010AD8B4BED777
:10E48200030AD8B4BFD70A0AD8B4C0D7010AD8B48D
:10E49200C1D7030AD8B4C2D71E0AD8B4ABD7010A6F
:10E4A200D8B4C8D7030AD8B4C9D70E0AD8B4CAD7C1
:10E4B200010AD8B4CBD7030AD8B4CCD73B0AD8B414
:10E4C200B1D7090AD8B4B2D7CAD705C001F006C07D
:10E4D20002F012000F0E126E000E136E7DD0250E8A
:10E4E2001818D8B404D01850BBEC70F075D0000ED8
:10E4F200146E0DC0F6FF0EC0F7FF0D4A0E2A08007B
:10E50200F5CF18F01850000AD8B41200640AD8B433
:10E5120003D00D0AD8A460D012C0D9FF13C0DAFF0D
:10E52200DECF16F0DDCF17F0020E1226000E1322F8
:10E5320017AE06D0030E1412166C171ED8B0172A87
:10E54200010E186E050E1818D8B412D01850020D0C
:10E55200370EF324F66EFD0EF420F76E0900F55027
:10E56200165C0900F5501758D8A002D0182AEAD72D
:10E5720014C011F0030E1116D8B403D02D0EBBEC4B
:10E5820070F018C015F024D01550020D370EF32488
:10E59200F66EFD0EF420F76E0900F5CF03F00A00C7
:10E5A200F5CF04F016C001F017C002F033EC71F0A1
:10E5B20001C008F002C009F0000E0B6E0A0E0A6ECE
:10E5C200ECEC70F00850300F186E1850BBEC70F085
:10E5D20015061528D8A4D8D70DC0F6FF0EC0F7FF30
:10E5E2000D4A0E2A0800F5CF18F01850D8B41200C0
:10E5F20076D7010EB1EC70F0C30E1D6ECD0EE82E73
:10E60200FED71D2EFCD700F0100E0D6EFE0E0E6E04
:10E612001BC00FF01CC010F06BEC72F0C00EB1EC1E
:10E6220070F0000E206E000E1F6E000E246E000EA3
:10E63200236E20EE5EF010EE25F0070EDBCFE3FF37
:10E64200E806FCE2000E226E000E216E19C001F0F7
:10E652001AC002F09BEC71F001C01FF002C020F062
:10E6620081A2FED781380F0B0F0B2D6E81B2FED720
:10E672000E0E2D18D8B464D02D50D8B407D02D0466
:10E68200D8B404D0020E2D18D8A429D01F50235C70
:10E6920020502458D8B0E4D72D50010D260EF32473
:10E6A200F66EFD0EF420F76E0800F550BBEC70F02C
:10E6B2002D501D6E1E6A010E1D26000E1E22D890C0
:10E6C2002334D96E2434DA6E250ED926000EDA22CE
:10E6D2001DC0DEFF1EC0DDFF234A242AC1D70C0E57
:10E6E2002D18D8A4BDD7010EB1EC70F0C30E1D6E6B
:10E6F200CD0EE82EFED71D2EFCD700F0100E0D6EAB
:10E70200FE0E0E6E1BC00FF01CC010F06BEC72F010
:10E71200C00EB1EC70F0000E246E000E236E000EDF
:10E72200266E000E256E000E286E000E276E000E5D
:10E732002A6E000E296E000E2C6E000E2B6E90D7E4
:10E7420019C001F01AC002F0250E036E000E046E0D
:10E75200BCEC74F001C021F002C022F02150221062
:10E76200D8A41200010EB1EC70F0C30E1D6ECD0ED6
:10E77200E82EFED71D2EFCD700F0EC0E0D6EFE0E1D
:10E782000E6E6BEC72F0C00EB1EC70F09F0E0D6E5F
:10E79200FF0E0E6E6BEC72F0330E1E6EBB0E1D6E14
:10E7A200E00EE82EFED71D2EFCD71E2EFAD721D75B
:10E7B2000C0EB1EC70F0010EB1EC70F0C30E1B6EDA
:10E7C200CD0EE82EFED71B2EFCD700F0BF0E0D6E2D
:10E7D200FE0E0E6E6BEC72F0C00EB1EC70F0000E1D
:10E7E200216E000E206E000E1F6E000E1E6E81A2A4
:10E7F200FED781380F0B0F0B226E81B2FED70E0EA1
:10E802002218D8B4A9D02250D8B423D02204D8B424
:10E8120020D0020E2218D8B41CD0040E2218D8B46C
:10E8220018D0050E2218D8B414D0060E2218D8B467
:10E8320010D0080E2218D8B40CD0090E2218D8B461
:10E8420008D00A0E2218D8B404D00D0E2218D8A46B
:10E852006AD020502110D8A446D02204D8B41CD0AB
:10E86200020E2218D8B418D0040E2218D8B414D02C
:10E87200050E2218D8B410D0060E2218D8B40CD027
:10E88200080E2218D8B408D0090E2218D8B404D021
:10E892000A0E2218D8A411D0020E2026000E212220
:10E8A2002250010D260EF324F66EFD0EF420F76EB3
:10E8B2000800F550BBEC70F034D02250D8A497D7A2
:10E8C2002250010D260EF324F66EFD0EF420F76E93
:10E8D2000800F550BBEC70F0204A212A20D01E26F9
:10E8E200000E1F2284D720042110D8A480D7070E3F
:10E8F200226404D00D0E2218D8A479D72250010D1B
:10E90200260EF324F66EFD0EF420F76E0800F55085
:10E91200BBEC70F0204A212A2250D8A402D0140E57
:10E92200DED72250DCD70C0E2218D8A460D7010EF5
:10E93200B1EC70F0C30E1B6ECD0EE82EFED71B2E6F
:10E94200FCD700F0BF0E0D6EFE0E0E6E6BEC72F079
:10E95200C00EB1EC70F043D71EC001F01FC002F030
:10E96200FAEC71F001C01CF002C01DF01CC019F0DD
:10E972001DC01AF01200000E086E000E076E4DD177
:10E9820003C0D9FF04C0DAFFA7D003C0D9FF04C077
:10E99200DAFFDE04DE10D8B418D103C0D9FF04C0F8
:10E9A200DAFF020EDE18DE10D8B40FD103C0D9FF91
:10E9B20004C0DAFF030E91D003C0D9FF04C0DAFF0E
:10E9C200030EDE18DE10D8B467D120EE02F0035039
:10E9D200D9260450DA22030EDE18DE10D8B45CD138
:10E9E20003C0D9FF04C0DAFFDE50DE10D8B454D120
:10E9F20020EE02F00350D9260450DA22DE50DE1057
:10EA0200D8B44AD1E2D020EE02F00350D926045005
:10EA1200DA22030EDE18DE10D8A411D003C0D9FF0B
:10EA220004C0DAFFDE04CED020EE02F00350D92675
:10EA32000450DA22030EDE18DE10D8B4EFD703C07A
:10EA4200D9FF04C0DAFF030EDE18DE10D8B424D1D9
:10EA520003C0D9FF04C0DAFFD1D720EE02F0035081
:10EA6200D9260450DA22DE04DE10D8A415D120EE15
:10EA720004F00350D9260450DA22DE04DE10D8A4B2
:10EA82000BD103C0D9FF04C0DAFFDE04DE10D8B414
:10EA92009CD076D703C0D9FF04C0DAFFDE04DE10B3
:10EAA200D8A4FAD020EE02F00350D9260450DA227C
:10EAB200DE04DE10D8A4F0D020EE04F00350D926F4
:10EAC2000450DA22DE04DE10D8B47FD020EE04F047
:10EAD2000350D9260450DA22020EDE18DE10D8B412
:10EAE20074D0DAD003C0D9FF04C0DAFFDE04DE102E
:10EAF200D8A414D020EE02F00350D9260450DA2212
:10EB0200DE04DE10D8A40AD020EE04F00350D92689
:10EB12000450DA22DE04DE10D8B457D003C0D9FF85
:10EB220004C0DAFF020EDE18DE10D8A414D020EEE4
:10EB320002F00350D9260450DA22DE04DE10D8A4F3
:10EB42000AD020EE04F00350D9260450DA22DE0463
:10EB5200DE10D8B43AD003C0D9FF04C0DAFFDE0415
:10EB6200DE10D8A415D020EE02F00350D9260450AE
:10EB7200DA22020EDE18DE10D8A40AD020EE04F04B
:10EB82000350D9260450DA22DE04DE10D8B41DD098
:10EB920003C0D9FF04C0DAFFDE04DE10D8A47CD0A3
:10EBA20020EE02F00350D9260450DA22DE04DE10F1
:10EBB200D8A472D020EE04F00350D9260450DA22F1
:10EBC200020EDE18DE10D8A467D0000E086E010E09
:10EBD200076E62D003C0D9FF04C0DAFFDE04DE1084
:10EBE200D8A45AD020EE02F00350D9260450DA22DB
:10EBF200DE04DE10D8A450D020EE04F00350D92653
:10EC02000450DA22DE04DE10D8A446D020EE06F04C
:10EC12000350D9260450DA2205D701C005F002C0FC
:10EC220006F00650000AD8A437D00550030AD8B41B
:10EC320028D7040AD8B425D70D0AD8B4BDD6060AF7
:10EC4200D8B4A3D6010AD8B425D7020AD8B4DBD6E1
:10EC52001E0AD8B402D7030AD8B41CD7010AD8B402
:10EC6200E3D6050AD8B43ED70F0AD8B4B3D7030AFD
:10EC7200D8B410D7010AD8B435D7060AD8B4AAD75F
:10EC8200020AD8B42FD73D0AD8B4A4D7050AD8B4FB
:10EC9200A1D70C0AD8B49ED707C001F008C002F071
:10ECA2001200010EB1EC70F0C30E1B6ECD0EE82EF9
:10ECB200FED71B2EFCD700F0A00E0D6EFE0E0E6EC0
:10ECC2006BEC72F0C00EB1EC70F0890E0D6EFF0E9F
:10ECD2000E6E6BEC72F0660E1C6E760E1B6EC10E23
:10ECE200E82EFED71B2EFCD71C2EFAD700F0010E01
:10ECF200B1EC70F0C30E1B6ECD0EE82EFED71B2EAC
:10ED0200FCD700F08C0E0D6EFD0E0E6E6BEC72F0E9
:10ED1200C00EB1EC70F0CA0E0D6EFF0E0E6E6BECF3
:10ED220072F081A2FED781380F0B0F0B1E6E81B2DB
:10ED3200FED71E50D8B40FD01E04D8B40CD0020E89
:10ED42001E18D8B408D0040E1E18D8B404D0050E6C
:10ED52001E18D8A4E6D71E50010D150EF324F66E28
:10ED6200FD0EF420F76E0800F550BBEC70F0330E88
:10ED72001C6EBB0E1B6EE00EE82EFED71B2EFCD7C0
:10ED82001C2EFAD7010EB1EC70F0C30E1B6ECD0E25
:10ED9200E82EFED71B2EFCD700F0EC0E0D6EFF0EF8
:10EDA2000E6E6BEC72F0330E1C6EBB0E1B6EE00E21
:10EDB200E82EFED71B2EFCD71C2EFAD7010EB1EC83
:10EDC20070F0C30E1B6ECD0EE82EFED71B2EFCD7A5
:10EDD20000F09D0E0D6EFD0E0E6E6BEC72F0C00E0D
:10EDE200B1EC70F0D30E0D6EFF0E0E6E6BEC72F086
:10EDF2001A0E1C6E5E0E1B6E6E0EE82EFED71B2EBA
:10EE0200FCD71C2EFAD700D081A2FED7010EB1EC9E
:10EE120070F0C30E1B6ECD0EE82EFED71B2EFCD754
:10EE220000F0200E0D6EFE0E0E6E6BEC72F0C00E38
:10EE3200B1EC70F0F90E0D6EFF0E0E6E6BEC72F00F
:10EE42001A0E1C6E5E0E1B6E6E0EE82EFED71B2E69
:10EE5200FCD71C2EFAD700D081A2FED7010EB1EC4E
:10EE620070F0C30E1B6ECD0EE82EFED71B2EFCD704
:10EE720000F0300E0D6EFE0E0E6E6BEC72F0C00ED8
:10EE8200B1EC70F0F30E0D6EFF0E0E6E6BEC72F0C5
:10EE92001A0E1C6E5E0E1B6E6E0EE82EFED71B2E19
:10EEA200FCD71C2EFAD700D081A2FED7010EB1ECFE
:10EEB20070F0C30E1B6ECD0EE82EFED71B2EFCD7B4
:10EEC20000F0470E0D6EFD0E0E6E6BEC72F0C00E72
:10EED200B1EC70F0000E0D6EFE0E0E6E6BEC72F069
:10EEE2001A0E1C6E5E0E1B6E6E0EE82EFED71B2EC9
:10EEF200FCD71C2EFAD700D081A2FED7010EB1ECAE
:10EF020070F0C30E1B6ECD0EE82EFED71B2EFCD763
:10EF120000F0500E0D6EFE0E0E6E6BEC72F01A0EBD
:10EF22001C6E5E0E1B6E6E0EE82EFED71B2EFCD7DD
:10EF32001C2EFAD700D081A2FED7010EB1EC70F0E0
:10EF4200C30E1B6ECD0EE82EFED71B2EFCD700F093
:10EF5200B00E0D6EFE0E0E6E6BEC72F0C00EB1ECCA
:10EF620070F03E0E0D6EFF0E0E6E6BEC72F0660EC2
:10EF72001C6E760E1B6EC10EE82EFED71B2EFCD722
:10EF82001C2EFAD700F0010EB1EC70F0C30E1B6E0E
:10EF9200CD0EE82EFED71B2EFCD700F0580E0D6EBC
:10EFA200FF0E0E6E6BEC72F0C00EB1EC70F0800EC4
:10EFB2000D6EFE0E0E6E6BEC72F081A2FED78138E2
:10EFC2000F0B0F0B1D6E81B2FED71DC019F01A6A0E
:10EFD2001200010EB1EC70F0C30E1B6ECD0EE82EC6
:10EFE200FED71B2EFCD700F0400E0D6EFE0E0E6EED
:10EFF20019C00FF01AC010F06BEC72F0C00EB1EC39
:10F0020070F0000E226E000E216E000E1E6E000EBB
:10F012001D6E000E246E000E236E000E206E000E7A
:10F022001F6E20EE56F010EE26F0070EDBCFE3FF48
:10F03200E806FCE281A2FED781380F0B0F0B256E8A
:10F0420081B2FED70E0E2518D8B477D00C0E251833
:10F05200D8A42DD0010EB1EC70F0C30E1B6ECD0EF4
:10F06200E82EFED71B2EFCD700F0400E0D6EFE0ED2
:10F072000E6E19C00FF01AC010F06BEC72F0C00ED9
:10F08200B1EC70F0000E226E000E216E000E276EA3
:10F09200000E266E000E296E000E286E000E2B6EDC
:10F0A200000E2A6E000E2D6E000E2C6EC3D722505B
:10F0B200C1E1040E215CD8B0BDD7030E2518D8B427
:10F0C20004D0070E2518D8A413D02550010D260E02
:10F0D200F324F66EFD0EF420F76E0800F550BBEC3B
:10F0E20070F025501B6E1C6A1AD0214A222AA2D720
:10F0F2000B0E2518D8A49ED72550010D260EF324F9
:10F10200F66EFD0EF420F76E0800F550BBEC70F0C1
:10F1120025501B6E1C6A010E1B26000E1C22D89065
:10F122002134D96E2234DA6E260ED926000EDA2266
:10F132001BC0DEFF1CC0DDFFD8D70C0E261827101F
:10F14200D8A410D028502910D8A40CD02A502B10A3
:10F15200D8A408D02C502D10D8A404D0000E246EB0
:10F162000C0E84D1030E26182710D8A410D02850D4
:10F172002910D8A40CD02A502B10D8A408D02C5077
:10F182002D10D8A404D0000E246E030E6FD1070EEA
:10F1920026182710D8A410D028502910D8A40CD093
:10F1A2002A502B10D8A408D02C502D10D8A404D04B
:10F1B200000E246E070E5AD1030E26182710D8A46B
:10F1C20011D0070E28182910D8A40CD02A502B10C1
:10F1D200D8A408D02C502D10D8A404D0000E246E30
:10F1E2000A0E44D1030E26182710D8A411D00C0EF3
:10F1F20028182910D8A40CD02A502B10D8A408D033
:10F202002C502D10D8A404D0000E246E0F0E2ED137
:10F21200070E26182710D8A411D00C0E2818291072
:10F22200D8A40CD02A502B10D8A408D02C502D10C2
:10F23200D8A404D0000E246E130E18D1030E261883
:10F242002710D8A412D0030E28182910D8A40DD044
:10F25200070E2A182B10D8A408D02C502D10D8A491
:10F2620004D0000E246E0D0E01D1030E26182710B5
:10F27200D8A412D0030E28182910D8A40DD00C0E31
:10F282002A182B10D8A408D02C502D10D8A404D0A2
:10F29200000E246E120EEAD0030E26182710D8A4F0
:10F2A20012D0070E28182910D8A40DD0070E2A183C
:10F2B2002B10D8A408D02C502D10D8A404D0000EA6
:10F2C200246E110ED3D0030E26182710D8A412D004
:10F2D2000C0E28182910D8A40DD00C0E2A182B10A9
:10F2E200D8A408D02C502D10D8A404D0000E246E1F
:10F2F2001B0EBCD0030E26182710D8A412D0070E5E
:10F3020028182910D8A40DD00C0E2A182B10D8A416
:10F3120008D02C502D10D8A404D0000E246E160E46
:10F32200A5D0070E26182710D8A412D0070E281829
:10F332002910D8A40DD00C0E2A182B10D8A408D04E
:10F342002C502D10D8A404D0000E246E1A0E8ED08C
:10F35200070E26182710D8A412D00C0E2818291030
:10F36200D8A40DD00C0E2A182B10D8A408D02C50DB
:10F372002D10D8A404D0000E246E1F0E77D0030ED9
:10F3820026182710D8A413D0030E28182910D8A4A1
:10F392000ED0070E2A182B10D8A409D00C0E2C1848
:10F3A2002D10D8A404D0000E246E190E5FD0030EC7
:10F3B20026182710D8A413D0070E28182910D8A46D
:10F3C2000ED0070E2A182B10D8A409D00C0E2C1818
:10F3D2002D10D8A404D0000E246E1D0E47D0030EAB
:10F3E20026182710D8A413D0070E28182910D8A43D
:10F3F2000ED00C0E2A182B10D8A409D00C0E2C18E3
:10F402002D10D8A404D0000E246E220E2FD0030E8D
:10F4120026182710D8A413D00C0E28182910D8A407
:10F422000ED00C0E2A182B10D8A409D00C0E2C18B2
:10F432002D10D8A404D0000E246E270E17D0070E6C
:10F4420026182710D8A414D00C0E28182910D8A4D6
:10F452000FD00C0E2A182B10D8A40AD00C0E2C1880
:10F462002D10D8A405D0000E246E2B0E236E2AD0A8
:10F47200010EB1EC70F0C30E1B6ECD0EE82EFED75E
:10F482001B2EFCD700F0FA0E0D6EFE0E0E6E6BEC0C
:10F4920072F0C00EB1EC70F09F0E0D6EFF0E0E6E8C
:10F4A2006BEC72F0330E1C6EBB0E1B6EE00EE82E80
:10F4B200FED71B2EFCD71C2EFAD7000E246E000E90
:10F4C200236E87D523C019F024C01AF01200010E52
:10F4D200B1EC70F0C30E2E6ECD0EE82EFED72E2E9E
:10F4E200FCD700F00C0EB1EC70F0E40E0D6EFF0EC6
:10F4F2000E6E6BEC72F0660E2F6E760E2E6EC10ED5
:10F50200E82EFED72E2EFCD72F2EFAD700F0010EB2
:10F51200B1EC70F0C30E2E6ECD0EE82EFED72E2E5D
:10F52200FCD700F09D0E0D6EFD0E0E6E6BEC72F0B0
:10F53200C00EB1EC70F07B0E0D6EFD0E0E6E6BEC1C
:10F5420072F081A2FED7010EB1EC70F0C30E2E6EE6
:10F55200CD0EE82EFED72E2EFCD700F00C0EB1EC0D
:10F5620070F0900E0D6EFE0E0E6E6BEC72F0C00E11
:10F57200B1EC70F0D00E0D6EFD0E0E6E6BEC72F0F3
:10F58200660E2F6E760E2E6EC10EE82EFED72E2E32
:10F59200FCD72F2EFAD700F0010EB1EC70F0C30E9B
:10F5A2002E6ECD0EE82EFED72E2EFCD700F0B50E15
:10F5B2000D6EFF0E0E6E6BEC72F0C00EB1EC70F0C1
:10F5C2007E0E0D6EFF0E0E6E6BEC72F0660E2F6EDF
:10F5D200760E2E6EC10EE82EFED72E2EFCD72F2EC3
:10F5E200FAD700F0010EB1EC70F0C30E2E6ECD0E04
:10F5F200E82EFED72E2EFCD700F0160E0D6EFF0E53
:10F602000E6E6BEC72F0C00EB1EC70F07B0E0D6EF4
:10F61200FD0E0E6E6BEC72F081A2FED781380F0BDD
:10F622000F0B386E81B2FED70E0E3818D8A4E9D26D
:10F63200010EB1EC70F0C30E2E6ECD0EE82EFED789
:10F642002E2EFCD700F0EC0E0D6EFF0E0E6E6BEC44
:10F6520072F0330E2F6EBB0E2E6EE00EE82EFED72A
:10F662002E2EFCD72F2EFAD7010EB1EC70F0C30E5E
:10F672002E6ECD0EE82EFED72E2EFCD700F0650E94
:10F682000D6EFF0E0E6E6BEC72F0C00EB1EC70F0F0
:10F69200AE0E0D6EFD0E0E6E6BEC72F0660E2F6EE0
:10F6A200760E2E6EC10EE82EFED72E2EFCD72F2EF2
:10F6B200FAD700F0010EB1EC70F0C30E2E6ECD0E33
:10F6C200E82EFED72E2EFCD700F06A0E0D6EFD0E30
:10F6D2000E6E6BEC72F0660E2F6E760E2E6EC10EF3
:10F6E200E82EFED72E2EFCD72F2EFAD700F0010ED1
:10F6F200B1EC70F0C30E2E6ECD0EE82EFED72E2E7C
:10F70200FCD700F0CE0E0D6EFE0E0E6E6BEC72F09C
:10F71200C00EB1EC70F0080E0D6EFF0E0E6E6BECAB
:10F7220072F0990E2F6E310E2E6EA20EE82EFED7BB
:10F732002E2EFCD72F2EFAD700D0010EB1EC70F08E
:10F74200C30E2E6ECD0EE82EFED72E2EFCD700F065
:10F75200720E0D6EFF0E0E6E6BEC72F0C00EB1ECFF
:10F7620070F0E00E0D6EFD0E0E6E6BEC72F0990EE7
:10F772002F6E310E2E6EA20EE82EFED72E2EFCD745
:10F782002F2EFAD700D0010EB1EC70F0C30E2E6E00
:10F79200CD0EE82EFED72E2EFCD700F0AA0E0D6E4F
:10F7A200FF0E0E6E6BEC72F0C00EB1EC70F0BF0E7D
:10F7B2000D6EFD0E0E6E6BEC72F0990E2F6E310E09
:10F7C2002E6EA20EE82EFED72E2EFCD72F2EFAD7A3
:10F7D20000D0010EB1EC70F0C30E2E6ECD0EE82EED
:10F7E200FED72E2EFCD700F0700E0D6EFE0E0E6EA2
:10F7F2006BEC72F0C00EB1EC70F0310E0D6EFF0EBC
:10F802000E6E6BEC72F0990E2F6E310E2E6EA20EF2
:10F81200E82EFED72E2EFCD72F2EFAD700D0000EC0
:10F822003F6E000E3E6E000E456E000E446E000EE0
:10F832003D6E000E3C6E000E3A6E000E396E000EEA
:10F84200356E000E346E3F5004E1080E3E5CD8A0C7
:10F852002AD0010EB1EC70F0C30E2E6ECD0EE82E42
:10F86200FED72E2EFCD700F00C0EB1EC70F04B0E32
:10F872000D6EFF0E0E6E6BEC72F0C00EB1EC70F0FE
:10F88200590E0D6EFD0E0E6E6BEC72F0660E2F6E43
:10F89200760E2E6EC10EE82EFED72E2EFCD72F2E00
:10F8A200FAD700F0120034043510D8A4EBD0010EC0
:10F8B200B1EC70F0C30E2E6ECD0EE82EFED72E2EBA
:10F8C200FCD700F00C0EB1EC70F0600E0D6EFE0E67
:10F8D2000E6E6BEC72F0C00EB1EC70F0800E0D6E1D
:10F8E200FE0E0E6E6BEC72F081A2FED781380F0B0A
:10F8F2000F0B3B6E81B2FED70E0E3B18D8A4BBD0C5
:10F90200D9EC73F019C040F01AC041F0000E456EF8
:10F91200000E446E45502CE1080E445CD8B028D04D
:10F92200D8904434D96E4534DA6E460ED926000E8C
:10F93200DA224050DE1819E14150DE18D8A415D061
:10F94200000E3D6E010E3C6ED8904434D96E4534A3
:10F95200DA6E460ED926000EDA22DE50DE10D8A468
:10F9620004D0000E3A6E010E396E444A452AD2D7AF
:10F972003C043D10D8A45BD039043A10D8A429D055
:10F98200010EB1EC70F0C30E2E6ECD0EE82EFED736
:10F992002E2EFCD700F00C0EB1EC70F0C00E0D6EE6
:10F9A200FF0E0E6E6BEC72F0C00EB1EC70F0F00E4A
:10F9B2000D6EFD0E0E6E6BEC72F0660E2F6E760EF5
:10F9C2002E6EC10EE82EFED72E2EFCD72F2EFAD782
:10F9D20028D0010EB1EC70F0C30E2E6ECD0EE82EC3
:10F9E200FED72E2EFCD700F00C0EB1EC70F0DD0E1F
:10F9F2000D6EFE0E0E6E6BEC72F0C00EB1EC70F07E
:10FA0200DC0E0D6EFF0E0E6E6BEC72F0660E2F6E3C
:10FA1200760E2E6EC10EE82EFED72E2EFCD72F2E7E
:10FA2200FAD700F0000E3D6E000E3C6E40D740C08B
:10FA320019F041C01AF0EAEC77F019C030F01AC0A0
:10FA420031F030C019F031C01AF040C01BF041C093
:10FA52001CF0FAEC72F0D8903E34D96E3F34DA6E74
:10FA6200460ED926000EDA2240C0DEFF41C0DDFF7D
:10FA72003E4A3F2A04D00F0E3B18D8B41200000EA3
:10FA82003B6E15D7D9EC73F019C042F01AC043F09F
:10FA9200000E356E010E346E000E456E000E446E81
:10FAA20045502CE1080E445CD8B028D0D89044349C
:10FAB200D96E4534DA6E460ED926000EDA2242504D
:10FAC200DE1819E14350DE18D8A415D0000E3D6EA1
:10FAD200010E3C6ED8904434D96E4534DA6E460E2F
:10FAE200D926000EDA22DE50DE10D8A404D0000E91
:10FAF2003A6E010E396E444A452AD2D73C043D1073
:10FB0200D8A45BD039043A10D8A429D0010EB1ECA4
:10FB120070F0C30E2E6ECD0EE82EFED72E2EFCD721
:10FB220000F00C0EB1EC70F0C00E0D6EFF0E0E6EFA
:10FB32006BEC72F0C00EB1EC70F0F00E0D6EFD0EBB
:10FB42000E6E6BEC72F0660E2F6E760E2E6EC10E7E
:10FB5200E82EFED72E2EFCD72F2EFAD728D0010E54
:10FB6200B1EC70F0C30E2E6ECD0EE82EFED72E2E07
:10FB7200FCD700F00C0EB1EC70F0DD0E0D6EFE0E37
:10FB82000E6E6BEC72F0C00EB1EC70F0DC0E0D6E0E
:10FB9200FF0E0E6E6BEC72F0660E2F6E760E2E6EF0
:10FBA200C10EE82EFED72E2EFCD72F2EFAD700F04C
:10FBB200000E3D6E000E3C6E46D642C019F043C0A8
:10FBC2001AF0EAEC77F019C032F01AC033F032C002
:10FBD20019F033C01AF042C01BF043C01CF0FAEC1B
:10FBE20072F0D8903E34D96E3F34DA6E460ED92682
:10FBF200000EDA2242C0DEFF43C0DDFF3E4A3F2A4A
:10FC020022D60F0E3818D8A45AD052EC76F019C06A
:10FC120036F01AC037F00E0E36183710D8B4F5D7B2
:10FC22000F0E36183710D8A420D0010EB1EC70F0A8
:10FC3200C30E2E6ECD0EE82EFED72E2EFCD700F070
:10FC42000C0EB1EC70F0940E0D6EFF0E0E6E6BEC9E
:10FC520072F0660E2F6E760E2E6EC10EE82EFED755
:10FC62002E2EFCD72F2EFAD728D0010EB1EC70F031
:10FC7200C30E2E6ECD0EE82EFED72E2EFCD700F030
:10FC82000C0EB1EC70F0240E0D6EFF0E0E6E6BECCE
:10FC920072F0C00EB1EC70F0940E0D6EFF0E0E6E8F
:10FCA2006BEC72F0660E2F6E760E2E6EC10EE82E83
:10FCB200FED72E2EFCD72F2EFAD700F01200010EFF
:10FCC200B1EC70F0C30E2E6ECD0EE82EFED72E2EA6
:10FCD200FCD700F00C0EB1EC70F0240E0D6EFF0E8E
:10FCE2000E6E6BEC72F0C00EB1EC70F0940E0D6EF5
:10FCF200FF0E0E6E6BEC72F0660E2F6E760E2E6E8F
:10FD0200C10EE82EFED72E2EFCD72F2EFAD700F0EA
:10FD12001200003132334134353642373839432A02
:10FD22003023440031323352343536463738394C79
:10FD32002A3023440001000A006400E8031027006F
:10FD4200010210022852656D61696E696E6720704A
:10FD520069656365733A00647261776572732072D4
:10FD62006561636865642100647261776572206908
:10FD72006E707574732E2E2E00626567696E206F29
:10FD82007065726174696F6E2E00506C6561736587
:10FD920020696E707574206C6F67005072657373A2
:10FDA20020616E79206B657920746F00696E7374BF
:10FDB20072756374696F6E7320666F720073756219
:10FDC2006D69742074686520696E70757400636172
:10FDD20062696E657420736F727465722100616E60
:10FDE20064204320697320666F72204C2E006E756A
:10FDF2006D62657220707265737365642E00523A8B
:10FE0200332020463A313220204C3A3130004472BD
:10FE12006177657220256920666F6F643A004F70C2
:10FE220065726174696F6E2074696D653A004D6127
:10FE3200726B656420647261776572733A00447212
:10FE42006177657220256920646965743A0044729D
:10FE5200617765722053756D6D6172793A00416EFA
:10FE62006F74686572206472617765723F00616EBB
:10FE72006420616476616E63652074686500232086
:10FE82003D205965732C2044203D204E6F0057655C
:10FE92006C636F6D6520746F20796F757200352009
:10FEA20070726576696F7573206C6F677300447248
:10FEB2006177657220313A205246313200447261D4
:10FEC200776572206E756D6265723A005072657365
:10FED200732041206F6E20746865004472617765FB
:10FEE2007220616C726561647900496E76616C6939
:10FEF2006420666F6F642100496E76616C696420CC
:10FF02006469657421006B657970616420666F7243
:10FF120020522C006F72207072657373202320743C
:10FF22006F00496E76616C6964206B657921006EA1
:10FF32006578742073637265656E2E004472617712
:10FF4200657220323A204C31004D6178696D756DD1
:10FF5200206F66203800416E6F74686572206C6F86
:10FF6200673F0048657265206172652074686500AC
:10FF72004220697320666F7220462C00766965778D
:10FF8200206C6F67732C00617661696C61626C65CD
:10FF92002E005265626F6F74696E672E005472791B
:10FFA20020616761696E2E00507265737320232091
:10FFB200746F005072657373204420746F004E6F2B
:10FFC20020647261776572006E756D6265723A20A7
:10FFD200006D6F7665206F6E2E00696E20757365F9
:10FFE20021005374616E6462790047726561742105
:0DFFF20000312C20313300323A3339000049
:020000040020DA
:08000000FFFFFFFFFFFFFFFF00
:020000040030CA
:0E000000FF061F1EFF8381FF0F400FE00F4021
:00000001FF
