:0400000099EF69F01B
:10D2AC0063EC69F0C580120063EC69F0C584120070
:10D2BC0063EC69F002C0C9FF1200C7B4FED7C5CF3A
:10D2CC0001F01F0E0116D8B41200F7D7036E8C9420
:10D2DC000350C7EC6AF0C80E00D0E82EFDD7120040
:10D2EC00036E8C840350C7EC6AF0C80E00D0E82E95
:10D2FC00FDD71200016EA6B2FED701C0A9FFA69EF3
:10D30C00A69CA680A8501200036E000E026E3A0E68
:10D31C00036005D02F0E036402D0010E026E02C012
:10D32C0001F00130120000EE80F0100EEE6AE806FB
:10D33C00FDE100EE6CF0120EEE6AE806FDE1000E67
:10D34C00F86E0001E4EF69F0026E63EC69F0C586DB
:10D35C0063EC69F0C9CF03F063EC69F002B002D062
:10D36C00C59A01D0C58AC58803501200015003022A
:10D37C00F3CF05F0F4CF06F001500402F35006266B
:10D38C0002500302F350062605C001F006C002F05D
:10D39C001200026EA6B2FED7A68402C0A9FF01C07D
:10D3AC00A8FFA69EA69CF29E550EA76EAA0EA76E6F
:10D3BC00A682F28EA6B2FED7A6941200000E896E3B
:10D3CC00000E8A6E000E8B6E000E8C6E000E8D6E33
:10D3DC0092689368000E946E000E956E000E966E19
:10D3EC00000EC26E0F0EC16E21EC6AF0A3EC79F048
:10D3FC0000EF00F00A500B10D8B418D0010E0C6ED0
:10D40C0004D0D8900A360B360C2A0BAEFAD70A5039
:10D41C00085C0B500958D8A004D00A50085E0B5079
:10D42C00095AD8900B320A320C2EF1D708C008F0EA
:10D43C0009C009F01200C30E046ECD0EE82EFED703
:10D44C00042EFCD700F0330E6CEC69F0320E6CEC51
:10D45C0069F0280E6CEC69F00F0E6CEC69F0060E9E
:10D46C006CEC69F0010E6CEC69F0C30E046ECD0E21
:10D47C00E82EFED7042EFCD700F00F0E6CEC69F0F2
:10D48C001200000E066E000E056E03500410D8B488
:10D49C001CD0010E076E04D0D89003360436072A30
:10D4AC0004AEFAD7D890053606360350015C04500A
:10D4BC000258D8A005D00350015E0450025A0580D2
:10D4CC00D89004320332072EEDD705C001F006C008
:10D4DC0002F01200056E000E096E000E086E000EB2
:10D4EC00076E000E066E000E096E000E086E0DD053
:10D4FC000850011808E109500218D8A404D0000EF5
:10D50C00076E010E066E084A092A0550036E046A5E
:10D51C000350085C04500958D8A0EAD706C001F0A3
:10D52C0007C002F01200C69A94869488800EC76ECB
:10D53C00280EC66E000EC56E000E016E5A0E026EDF
:10D54C00620E036E020E046E0EC012F00FC013F0CA
:10D55C0010C014F011C015F0020ED890123613360C
:10D56C0014361536E82EF9D712C005F013C006F0A4
:10D57C0014C007F015C008F006EC6BF00104C86E7F
:10D58C001200026E0250F00B016E8C500F0B8C6E61
:10D59C0001508C108C6E000EF2BE010E7C6EF29E51
:10D5AC008C86530EE82EFED700F08C96C80E00D059
:10D5BC00E82EFDD77CB002D0F29E01D0F28E02385C
:10D5CC00F00B026E0250F00B016E8C500F0B8C6E38
:10D5DC0001508C108C6E000EF2BE010E7C6EF29E11
:10D5EC008C86530EE82EFED700F08C96C80E00D019
:10D5FC00E82EFDD77CB002D0F29E01D0F28E120044
:10D60C00000E096E000E0A6E000E0B6E000E0C6EF4
:10D61C000550061007100810D8B42AD0010E0D6E54
:10D62C0006D0D89005360636073608360D2A08AED1
:10D63C00F8D7D89009360A360B360C360550015CF3
:10D64C00065002580750035808500458D8A009D067
:10D65C000550015E0650025A0750035A0850045AEE
:10D66C000980D89008320732063205320D2EE1D7E8
:10D67C0009C001F00AC002F00BC003F00CC004F0AA
:10D68C001200000E066E000E056E15D0000E066E12
:10D69C00010E056E50D0000E066E020EFAD7000E6B
:10D6AC00066E030EF6D7000E066E040EF2D7000EB1
:10D6BC00066E000EEED701C003F002C004F0045059
:10D6CC00000AD8A4F4D70350030AD8B4DFD7040A4D
:10D6DC00D8B4DCD70D0AD8B4DED7060AD8B4D6D75E
:10D6EC00010AD8B4DCD7020AD8B4D5D71E0AD8B4EC
:10D6FC00D6D7030AD8B4D3D7010AD8B4CCD7050AE5
:10D70C00D8B4CDD70F0AD8B4CED7030AD8B4C7D75C
:10D71C00010AD8B4C4D7060AD8B4C5D7020AD8B4FB
:10D72C00BED73D0AD8B4BFD7050AD8B4BCD70C0AAB
:10D73C00D8B4B9D7BCD705C001F006C002F01200AE
:10D74C003AD0000E066E010E2FD0000E066E020EA1
:10D75C002BD0000E066E030E27D0000E066E070EA1
:10D76C0023D0000E066E080E1FD0000E066E090E9A
:10D77C001BD0000E066E0A0E17D0000E066E0B0E96
:10D78C0013D0000E066E0C0E0FD0000E066E0D0E92
:10D79C000BD0000E066E0E0E07D0000E066E0F0E8E
:10D7AC0003D0000E066E100E056E36D001C005F0CB
:10D7BC0002C006F031D001C003F002C004F00450E6
:10D7CC00000AD8A4F3D70350010AD8B4BED7030A71
:10D7DC00D8B4BFD70A0AD8B4C0D7010AD8B4C1D7B5
:10D7EC00030AD8B4C2D71E0AD8B4ABD7010AD8B42E
:10D7FC00C8D7030AD8B4C9D70E0AD8B4CAD7010AF5
:10D80C00D8B4CBD7030AD8B4CCD73B0AD8B4B1D749
:10D81C00090AD8B4B2D7CAD705C001F006C002F0C5
:10D82C001200010E6CEC69F0C30E296ECD0EE82EC1
:10D83C00FED7292EFCD700F00F0E0D6EFE0E0E6ECD
:10D84C0027C00FF028C010F07AEC6FF0C00E6CEC13
:10D85C0069F0000E2C6E000E2B6E000E326E000E58
:10D86C00316E20EE88F010EE33F0070EDBCFE3FFC5
:10D87C00E806FCE2000E306E000E2F6E000E2E6ECF
:10D88C00000E2D6E25C001F026C002F047EC6BF0A7
:10D89C0001C02BF002C02CF081A2FED781380F0BF7
:10D8AC000F0B3B6E81B2FED70F0E3B18D8B46DD068
:10D8BC000E0E3B18D8A405D0000E2E6E010E2D6E48
:10D8CC0064D03B50D8B407D03B04D8B404D0020E7B
:10D8DC003B18D8A429D02B50315C2C503258D8B0DE
:10D8EC00DBD73B50010D360EF324F66EFD0EF42003
:10D8FC00F76E0800F55076EC69F03B50296E2A6AF9
:10D90C00010E2926000E2A22D8903134D96E3234D9
:10D91C00DA6E330ED926000EDA2229C0DEFF2AC0B9
:10D92C00DDFF314A322AB8D70C0E3B18D8A4B4D735
:10D93C00010E6CEC69F0C30E296ECD0EE82EFED7ED
:10D94C00292EFCD700F00F0E0D6EFE0E0E6E27C0AA
:10D95C000FF028C010F07AEC6FF0C00E6CEC69F090
:10D96C00000E326E000E316E000E346E000E336EF1
:10D97C00000E366E000E356E000E386E000E376ED1
:10D98C00000E3A6E000E396E87D72D042E10D8A4D7
:10D99C0005D0000E266E640E256E120025C001F017
:10D9AC0026C002F0330E036E000E046E8AEC75F086
:10D9BC0001C02FF002C030F02F503010D8A426D068
:10D9CC00010E6CEC69F0C30E296ECD0EE82EFED75D
:10D9DC00292EFCD700F0060E0D6EFF0E0E6E7AECA3
:10D9EC006FF0C00E6CEC69F0A00E0D6EFF0E0E6E9B
:10D9FC007AEC6FF0330E2A6EBB0E296EE00EE82E19
:10DA0C00FED7292EFCD72A2EFAD70BD72FC025F0FC
:10DA1C0030C026F012000C0E6CEC69F0010E6CECB0
:10DA2C0069F0C30E276ECD0EE82EFED7272EFCD73D
:10DA3C0000F09D0E0D6EFE0E0E6E7AEC6FF0C00EA9
:10DA4C006CEC69F0000E2F6E000E2E6E000E2B6E1D
:10DA5C00000E2A6E000E2D6E000E2C6E81A2FED7CB
:10DA6C0081380F0B0F0B306E81B2FED70F0E3018B2
:10DA7C00D8B4BAD00E0E3018D8A405D0000E2D6E26
:10DA8C00640E2C6EB1D03050D8B423D03004D8B43E
:10DA9C0020D0020E3018D8B41CD0040E3018D8B4D4
:10DAAC0018D0050E3018D8B414D0060E3018D8B4CF
:10DABC0010D0080E3018D8B40CD0090E3018D8B4C9
:10DACC0008D00A0E3018D8B404D00D0E3018D8A4D3
:10DADC006AD02E502F10D8A446D03004D8B41CD005
:10DAEC00020E3018D8B418D0040E3018D8B414D094
:10DAFC00050E3018D8B410D0060E3018D8B40CD08F
:10DB0C00080E3018D8B408D0090E3018D8B404D088
:10DB1C000A0E3018D8A411D0020E2E26000E2F2279
:10DB2C003050010D360EF324F66EFD0EF420F76E18
:10DB3C000800F55076EC69F034D03050D8A48ED76C
:10DB4C003050010D360EF324F66EFD0EF420F76EF8
:10DB5C000800F55076EC69F02E4A2F2A20D02A26A0
:10DB6C00000E2B227BD72E042F10D8A477D7070EAC
:10DB7C00306404D00D0E3018D8A470D73050010D7D
:10DB8C00360EF324F66EFD0EF420F76E0800F550F9
:10DB9C0076EC69F02E4A2F2A3050D8A402D0140EFD
:10DBAC00DED73050DCD70C0E3018D8A457D7010E66
:10DBBC006CEC69F0C30E276ECD0EE82EFED7272E27
:10DBCC00FCD700F09D0E0D6EFE0E0E6E7AEC6FF013
:10DBDC00C00E6CEC69F0000E2F6E000E2E6E000E57
:10DBEC002B6E000E2A6E3AD7640E2C182D10D8A46A
:10DBFC0005D02CC025F02DC026F012002AC001F053
:10DC0C002BC002F0A6EC6BF001C028F002C029F08A
:10DC1C0028C025F029C026F01200FA0E80EC69F01D
:10DC2C004A6E000E456E000E446E000E476E000EDE
:10DC3C00466E000E496E000E486E4A50D8A42BD08A
:10DC4C00010E6CEC69F0C30E426ECD0EE82EFED7C1
:10DC5C00422EFCD700F0DB0E0D6EFF0E0E6E7AEC32
:10DC6C006FF0C00E6CEC69F08A0E0D6EFF0E0E6E2E
:10DC7C007AEC6FF0660E436E760E426EC10EE82E95
:10DC8C00FED7422EFCD7432EFAD700F0000E416E81
:10DC9C000E0E406E12004A04D8A453D0000E456EEE
:10DCAC00010E446E010E6CEC69F0C30E426ECD0E8B
:10DCBC00E82EFED7422EFCD700F0BB0E0D6EFE0EEA
:10DCCC000E6E7AEC6FF0C00E6CEC69F08A0E0D6E75
:10DCDC00FF0E0E6E7AEC6FF0660E436E760E426E91
:10DCEC00C10EE82EFED7422EFCD7432EFAD700F0F9
:10DCFC00010E6CEC69F0C30E426ECD0EE82EFED711
:10DD0C00422EFCD700F0CD0E0D6EFD0E0E6E7AEC91
:10DD1C006FF0C00E6CEC69F0220E0D6EFF0E0E6EE5
:10DD2C007AEC6FF01A0E436E5E0E426E6E0EE82E9B
:10DD3C00FED7422EFCD7432EFAD700D081B2C6D0E4
:10DD4C00FDD7010E6CEC69F0C30E426ECD0EE82EC1
:10DD5C00FED7422EFCD700F0DE0E0D6EFD0E0E6EC1
:10DD6C004AC00FF0106A7AEC6FF0C00E6CEC69F0E0
:10DD7C008A0E0D6EFF0E0E6E7AEC6FF0660E436E11
:10DD8C00760E426EC10EE82EFED7422EFCD7432EE5
:10DD9C00FAD700F0010E6CEC69F0C30E426ECD0E9A
:10DDAC00E82EFED7422EFCD700F0AB0E0D6EFD0E0A
:10DDBC000E6E7AEC6FF0C00E6CEC69F0CA0E0D6E44
:10DDCC00FF0E0E6E7AEC6FF081A2FED781380F0B2E
:10DDDC000F0B4B6E81B2FED74B50D8B40BD04B040B
:10DDEC00D8B408D0020E4B18D8B404D0040E4B187B
:10DDFC00D8A4EAD74BC001F0026A4A5070EC6AF022
:10DE0C0001C046F002C047F046044710D8A4DCD746
:10DE1C004B50010D250EF324F66EFD0EF420F76E1B
:10DE2C000800F55076EC69F04BC044F0456A330EAF
:10DE3C00436EBB0E426EE00EE82EFED7422EFCD790
:10DE4C00432EFAD7010E6CEC69F0C30E426ECD0E68
:10DE5C00E82EFED7422EFCD700F0EB0E0D6EFF0E17
:10DE6C000E6E7AEC6FF0330E436EBB0E426EE00E0C
:10DE7C00E82EFED7422EFCD7432EFAD7010E6CECBF
:10DE8C0069F0C30E426ECD0EE82EFED7422EFCD7A3
:10DE9C0000F0CD0E0D6EFD0E0E6E7AEC6FF0C00E16
:10DEAC006CEC69F0220E0D6EFF0E0E6E7AEC6FF0BC
:10DEBC001A0E436E5E0E426E6E0EE82EFED7422E8A
:10DECC00FCD7432EFAD700D081A2FED74AC025F04A
:10DEDC00266A00EC71F025C048F026C049F048C015
:10DEEC0040F049C041F012000F0E1C6E000E1D6E6A
:10DEFC0074D1250E2418D8B404D0245076EC69F0D3
:10DF0C006CD1000E236E000E226E000E216E03D01B
:10DF1C0021840D4A0E2A0DC0F6FF0EC0F7FF080033
:10DF2C00F550300AD8B4F4D70DC0F6FF0EC0F7FF89
:10DF3C000800F5508AEC69F0D8A035D0000E236E9D
:10DF4C00000E226E22C001F023C002F0000E046EFF
:10DF5C000A0E036EBCEC69F001C022F002C023F083
:10DF6C00D00E176EFF0E186E0DC0F6FF0EC0F7FF29
:10DF7C000800F550196E1A6A1750192618501A22F3
:10DF8C00195022261A5023220D4A0E2A0DC0F6FFD4
:10DF9C000EC0F7FF0800F5508AEC69F0D8A003D04A
:10DFAC00D1D7218E17D00DC0F6FF0EC0F7FF0D4A4A
:10DFBC000E2A0800F5CF24F02450000AD8B4120021
:10DFCC00640AD8B407D00D0AD8B404D0110AD8B456
:10DFDC00E8D703D121BE15D01CC0D9FF1DC0DAFF74
:10DFEC00DECF1FF0DDCF20F0020E1C26000E1D220E
:10DFFC0020AE44D0030E21121F6C201ED8B0202A54
:10E00C003DD01CC0D9FF1DC0DAFFDECF1FF0DDCF25
:10E01C0020F0020E1C26000E1D2230D0010E246EA4
:10E02C00050E2418D8B432D02450020D470EF32418
:10E03C00F66EFD0EF420F76E0900F5501F5C09001A
:10E04C00F5502058D8A022D0242AEAD7010E246EED
:10E05C00040E2418D8B41AD02450020D510EF324F7
:10E06C00F66EFD0EF420F76E0900F5501F5C0900EA
:10E07C00F5502058D8A00AD0242AEAD72150800B7A
:10E08C00000AD8B4CBD7800AD8B4E0D722502310DA
:10E09C00D8B409D021C017F0030E1716D8B403D08A
:10E0AC002206D8A02306800E24BE7F0E176E2250A7
:10E0BC00245C2350800A1758D8B007D02450225E15
:10E0CC00000E24BEFF0E235A04D0000E236E000E49
:10E0DC00226E21A414D021C017F0030E1716D8B449
:10E0EC0003D02D0E76EC69F022502310D8B41ED03C
:10E0FC00300E76EC69F02206D8A02306F5D7225014
:10E10C002310D8B40AD0200E76EC69F02206D8A0E1
:10E11C00230622502310D8A4F6D721C017F0030EE3
:10E12C001716D8B403D02D0E76EC69F024C01EF06F
:10E13C0050D01E50020D470EF324F66EFD0EF42047
:10E14C00F76E0900F5CF03F00A00F5CF04F01FC0FD
:10E15C0001F020C002F047EC6AF001C008F002C0E8
:10E16C0009F0000E0B6E0A0E0A6E00EC6AF00850F5
:10E17C00300F246E2BD01FC001F020C002F01E50B7
:10E18C00020D510EF324F66EFD0EF420F76E09000D
:10E19C00F5CF03F00A00F5CF04F047EC6AF001501C
:10E1AC000F0B1B6E1B50010D780EF324F66EFD0E3B
:10E1BC00F420F76E0800F5CF24F008D02150800B26
:10E1CC00000AD8B4B6D7800AD8B4D5D7245076EC88
:10E1DC0069F01E061E28D8A4F1D70DC0F6FF0EC09C
:10E1EC00F7FF0D4A0E2A0800F5CF24F02450D8B4BE
:10E1FC0012007FD6FF0E2524016EFF0E2620026E24
:10E20C00000E046E360E036EBCEC69F001C03EF0DD
:10E21C0002C03FF03E50030F80EC69F0276E275090
:10E22C00306E316A3E50040F80EC69F0276E275037
:10E23C00296E2A6A3E50050F80EC69F0276E275034
:10E24C002B6E2C6A3E50060F80EC69F0276E27501F
:10E25C002D6E2E6A3E50070F80EC69F0276E27500A
:10E26C00366E376A3E50080F80EC69F0276E2750E7
:10E27C00386E396A3E50090F80EC69F0276E2750D2
:10E28C003A6E3B6A3E500A0F80EC69F0276E2750BD
:10E29C003C6E3D6A30C001F031C002F0000E046EDD
:10E2AC003C0E036E47EC6AF001C032F002C033F052
:10E2BC0030C008F031C009F0000E0B6E3C0E0A6E37
:10E2CC0000EC6AF008C034F009C035F0010E6CECBB
:10E2DC0069F0C30E276ECD0EE82EFED7272EFCD785
:10E2EC0000F01F0E0D6EFE0E0E6E7AEC6FF0C00E6F
:10E2FC006CEC69F034503510D8A41AD0F20E0D6EB7
:10E30C00FF0E0E6E32C00FF033C010F034C011F09F
:10E31C0035C012F07AEC6FF01A0E286E5E0E276E76
:10E32C006E0EE82EFED7272EFCD7282EFAD719D042
:10E33C00F90E0D6EFF0E0E6E32C00FF033C010F0E2
:10E34C0034C011F035C012F07AEC6FF01A0E286E52
:10E35C005E0E276E6E0EE82EFED7272EFCD7282ECB
:10E36C00FAD700D081A2FED7010E6CEC69F0C30E77
:10E37C00276ECD0EE82EFED7272EFCD700F02F0EE1
:10E38C000D6EFE0E0E6E7AEC6FF0C00E6CEC69F03A
:10E39C003C503D10D8A41ED03A503B10D8A41AD0F3
:10E3AC0038503910D8A416D0D60E0D6EFE0E0E6E47
:10E3BC0036C00FF037C010F07AEC6FF01A0E286EE2
:10E3CC005E0E276E6E0EE82EFED7272EFCD7282E5B
:10E3DC00FAD765D03C503D10D8A41ED03A503B1013
:10E3EC00D8A41AD0D20E0D6EFE0E0E6E36C00FF0E3
:10E3FC0037C010F038C011F039C012F07AEC6FF061
:10E40C001A0E286E5E0E276E6E0EE82EFED7272E85
:10E41C00FCD7282EFAD743D03C503D10D8A41ED0A0
:10E42C00CE0E0D6EFE0E0E6E36C00FF037C010F015
:10E43C0038C011F039C012F03AC013F03BC014F0E0
:10E44C007AEC6FF01A0E286E5E0E276E6E0EE82EAA
:10E45C00FED7272EFCD7282EFAD721D0CA0E0D6E48
:10E46C00FE0E0E6E36C00FF037C010F038C011F033
:10E47C0039C012F03AC013F03BC014F03CC015F098
:10E48C003DC016F07AEC6FF01A0E286E5E0E276EF9
:10E49C006E0EE82EFED7272EFCD7282EFAD700D0EA
:10E4AC0081A2FED7010E6CEC69F0C30E276ECD0E67
:10E4BC00E82EFED7272EFCD700F0660E0D6EFD0E53
:10E4CC000E6E7AEC6FF0C00E6CEC69F0BC0E0D6E3B
:10E4DC00FD0E0E6E29C00FF02AC010F02BC011F0EB
:10E4EC002CC012F02DC013F02EC014F07AEC6FF08B
:10E4FC001A0E286E5E0E276E6E0EE82EFED7272E95
:10E50C00FCD7282EFAD700D081A2FED7010E6CECD6
:10E51C0069F0C30E276ECD0EE82EFED7272EFCD742
:10E52C0000F0AC0E0D6EFE0E0E6E7AEC6FF01A0E45
:10E53C00286E5E0E276E6E0EE82EFED7272EFCD7A9
:10E54C00282EFAD700D081A2FED7010E6CEC69F010
:10E55C00C30E276ECD0EE82EFED7272EFCD700F06B
:10E56C008E0E0D6EFE0E0E6E7AEC6FF0C00E6CEC15
:10E57C0069F04B0E0D6EFF0E0E6E7AEC6FF0660EA0
:10E58C00286E760E276EC10EE82EFED7272EFCD7EE
:10E59C00282EFAD700F0010E6CEC69F0C30E276E32
:10E5AC00CD0EE82EFED7272EFCD700F0650E0D6E93
:10E5BC00FF0E0E6E7AEC6FF0C00E6CEC69F06F0E05
:10E5CC000D6EFE0E0E6E7AEC6FF081A2FED78138C6
:10E5DC000F0B0F0B2F6E81B2FED72FC025F0266AC2
:10E5EC001200010E6CEC69F0C30E276ECD0EE82EF6
:10E5FC00FED7272EFCD700F03F0E0D6EFE0E0E6ED2
:10E60C0025C00FF026C010F07AEC6FF0C00E6CEC49
:10E61C0069F0000E306E000E2F6E000E2A6E000E8A
:10E62C00296E000E326E000E316E000E2C6E000E36
:10E63C002B6E20EE80F010EE34F0070EDBCFE3FFF4
:10E64C00E806FCE2000E2E6E000E2D6E81A2FED7A7
:10E65C0081380F0B0F0B336E81B2FED70F0E3318B0
:10E66C00D8B480D00E0E3318D8A405D0000E2E6E60
:10E67C00010E2D6E77D00C0E3318D8A42DD0010EB0
:10E68C006CEC69F0C30E276ECD0EE82EFED7272E4C
:10E69C00FCD700F03F0E0D6EFE0E0E6E25C00FF077
:10E6AC0026C010F07AEC6FF0C00E6CEC69F0000E26
:10E6BC00306E000E2F6E000E356E000E346E000E96
:10E6CC00376E000E366E000E396E000E386E000E70
:10E6DC003B6E000E3A6EBAD73050B8E1040E2F5C88
:10E6EC00D8B0B4D7030E3318D8B404D0070E3318EF
:10E6FC00D8A413D03350010D360EF324F66EFD0E54
:10E70C00F420F76E0800F55076EC69F03350276E64
:10E71C00286A1AD02F4A302A99D70B0E3318D8A44E
:10E72C0095D73350010D360EF324F66EFD0EF42002
:10E73C00F76E0800F55076EC69F03350276E286AB6
:10E74C00010E2726000E2822D8902F34D96E303493
:10E75C00DA6E340ED926000EDA2227C0DEFF28C06E
:10E76C00DDFFD8D72D042E10D8A404D0000E326EA5
:10E77C00640E99D10C0E34183510D8A410D0365024
:10E78C003710D8A40CD038503910D8A408D03A502F
:10E79C003B10D8A404D0000E326E0C0E84D1030EA4
:10E7AC0034183510D8A410D036503710D8A40CD04B
:10E7BC0038503910D8A408D03A503B10D8A404D003
:10E7CC00000E326E030E6FD1070E34183510D8A41C
:10E7DC0010D036503710D8A40CD038503910D8A4DB
:10E7EC0008D03A503B10D8A404D0000E326E070E5D
:10E7FC005AD1030E34183510D8A411D0070E361880
:10E80C003710D8A40CD038503910D8A408D03A50AE
:10E81C003B10D8A404D0000E326E0A0E44D1030E65
:10E82C0034183510D8A411D00C0E36183710D8A4C3
:10E83C000CD038503910D8A408D03A503B10D8A47A
:10E84C0004D0000E326E0F0E2ED1070E3418351078
:10E85C00D8A411D00C0E36183710D8A40CD03850C0
:10E86C003910D8A408D03A503B10D8A404D0000ECC
:10E87C00326E130E18D1030E34183510D8A412D0E2
:10E88C00030E36183710D8A40DD0070E38183910CF
:10E89C00D8A408D03A503B10D8A404D0000E326E45
:10E8AC000D0E01D1030E34183510D8A412D0030E5E
:10E8BC0036183710D8A40DD00C0E38183910D8A42F
:10E8CC0008D03A503B10D8A404D0000E326E120E71
:10E8DC00EAD0030E34183510D8A412D0070E36180F
:10E8EC003710D8A40DD0070E38183910D8A408D07A
:10E8FC003A503B10D8A404D0000E326E110ED3D077
:10E90C00030E34183510D8A412D00C0E361837104C
:10E91C00D8A40DD00C0E38183910D8A408D03A5001
:10E92C003B10D8A404D0000E326E1B0EBCD0030ECC
:10E93C0034183510D8A412D0070E36183710D8A4B6
:10E94C000DD00C0E38183910D8A408D03A503B1002
:10E95C00D8A404D0000E326E160EA5D0070E3418B3
:10E96C003510D8A412D0070E36183710D8A40DD0F5
:10E97C000C0E38183910D8A408D03A503B10D8A433
:10E98C0004D0000E326E1A0E8ED0070E34183510CD
:10E99C00D8A412D00C0E36183710D8A40DD00C0EEB
:10E9AC0038183910D8A408D03A503B10D8A404D049
:10E9BC00000E326E1F0E77D0030E34183510D8A40B
:10E9CC0013D0030E36183710D8A40ED0070E3818F3
:10E9DC003910D8A409D00C0E3A183B10D8A404D086
:10E9EC00000E326E190E5FD0030E34183510D8A4F9
:10E9FC0013D0070E36183710D8A40ED0070E3818BF
:10EA0C003910D8A409D00C0E3A183B10D8A404D055
:10EA1C00000E326E1D0E47D0030E34183510D8A4DC
:10EA2C0013D0070E36183710D8A40ED00C0E381889
:10EA3C003910D8A409D00C0E3A183B10D8A404D025
:10EA4C00000E326E220E2FD0030E34183510D8A4BF
:10EA5C0013D00C0E36183710D8A40ED00C0E381854
:10EA6C003910D8A409D00C0E3A183B10D8A404D0F5
:10EA7C00000E326E270E17D0070E34183510D8A49E
:10EA8C0014D00C0E36183710D8A40FD00C0E381822
:10EA9C003910D8A40AD00C0E3A183B10D8A405D0C3
:10EAAC00000E326E2B0E316E2AD0010E6CEC69F01A
:10EABC00C30E276ECD0EE82EFED7272EFCD700F006
:10EACC00140E0D6EFF0E0E6E7AEC6FF0C00E6CEC29
:10EADC0069F0A00E0D6EFF0E0E6E7AEC6FF0330E19
:10EAEC00286EBB0E276EE00EE82EFED7272EFCD725
:10EAFC00282EFAD7000E326E000E316E72D531C050
:10EB0C0025F032C026F01200000E086E000E076EC3
:10EB1C00D0D303C0D9FF04C0DAFFDE04DE10D8B4B2
:10EB2C0009D003C0D9FF04C0DAFF020EDE18DE10D4
:10EB3C00D8A4FED3000E086E010EB9D303C0D9FFC2
:10EB4C0004C0DAFFDE04DE10D8B409D003C0D9FF4C
:10EB5C0004C0DAFF020EDE18DE10D8A4E9D3000ED2
:10EB6C00086E020EA4D303C0D9FF04C0DAFFDE0482
:10EB7C00DE10D8B412D003C0D9FF04C0DAFF020EE5
:10EB8C00DE18DE10D8B409D003C0D9FF04C0DAFFF8
:10EB9C00030EDE18DE10D8A4CBD3000E086E030EC5
:10EBAC0086D303C0D9FF04C0DAFF030EDE18DE10D3
:10EBBC00D8B4BED320EE02F00350D9260450DA228A
:10EBCC00030EDE18DE10D8B4B3D303C0D9FF04C0D3
:10EBDC00DAFFDE50DE10D8B4ABD320EE02F00350D7
:10EBEC00D9260450DA22DE50DE10D8B4A1D3000EA0
:10EBFC00086E040E5CD320EE02F00350D9260450AC
:10EC0C00DA22030EDE18DE10D8A40CD003C0D9FF14
:10EC1C0004C0DAFFDE04DE10D8A48AD3000E086E1E
:10EC2C00050E45D303C0D9FF04C0DAFF030EDE186E
:10EC3C00DE10D8B47DD303C0D9FF04C0DAFFDE5098
:10EC4C00DE10D8B475D3000E086E060E30D320EE4D
:10EC5C0002F00350D9260450DA22030EDE18DE101F
:10EC6C00D8A40CD003C0D9FF04C0DAFFDE04DE1038
:10EC7C00D8A45ED3000E086E070E19D303C0D9FFBB
:10EC8C0004C0DAFF030EDE18DE10D8B451D303C073
:10EC9C00D9FF04C0DAFFDE50DE10D8B449D3000E21
:10ECAC00086E080E04D303C0D9FF04C0DAFFDE04DB
:10ECBC00DE10D8A43DD320EE02F00350D926045028
:10ECCC00DA22DE04DE10D8A433D320EE04F0035095
:10ECDC00D9260450DA22DE04DE10D8B40BD020EE94
:10ECEC0004F00350D9260450DA22020EDE18DE108E
:10ECFC00D8A41ED3000E086E090ED9D203C0D9FFBA
:10ED0C0004C0DAFFDE04DE10D8A412D320EE02F029
:10ED1C000350D9260450DA22DE04DE10D8A408D31E
:10ED2C0020EE04F00350D9260450DA22DE04DE1063
:10ED3C00D8B40BD020EE04F00350D9260450DA22BC
:10ED4C00020EDE18DE10D8A4F3D2000E086E0A0EE6
:10ED5C00AED220EE02F00350D9260450DA22DE04A3
:10ED6C00DE10D8A4E5D220EE04F00350D9260450CE
:10ED7C00DA22DE04DE10D8A4DBD203C0D9FF04C033
:10ED8C00DAFFDE04DE10D8B409D003C0D9FF04C00A
:10ED9C00DAFF020EDE18DE10D8A4CAD2000E086EFE
:10EDAC000B0E85D203C0D9FF04C0DAFFDE04DE10DF
:10EDBC00D8A418D020EE02F00350D9260450DA2241
:10EDCC00DE04DE10D8A40ED020EE04F00350D926B9
:10EDDC000450DA22DE04DE10D8A404D0000E086E33
:10EDEC000C0E65D203C0D9FF04C0DAFF020EDE1888
:10EDFC00DE10D8A418D020EE02F00350D92604500F
:10EE0C00DA22DE04DE10D8A40ED020EE04F003507B
:10EE1C00D9260450DA22DE04DE10D8A404D0000E69
:10EE2C00086E0D0E44D203C0D9FF04C0DAFFDE0415
:10EE3C00DE10D8A419D020EE02F00350D9260450CD
:10EE4C00DA22020EDE18DE10D8A40ED020EE04F06A
:10EE5C000350D9260450DA22DE04DE10D8A404D0E4
:10EE6C00000E086E0E0E23D203C0D9FF04C0DAFFC9
:10EE7C00DE04DE10D8A45CD220EE02F00350D926BA
:10EE8C000450DA22DE04DE10D8A452D220EE04F0B4
:10EE9C000350D9260450DA22020EDE18DE10D8A454
:10EEAC0047D2000E086E0F0E02D203C0D9FF04C069
:10EEBC00DAFFDE04DE10D8A418D020EE02F00350E6
:10EECC00D9260450DA22DE04DE10D8A40ED020EEAF
:10EEDC0004F00350D9260450DA22DE04DE10D8A444
:10EEEC0004D0000E086E100EE2D103C0D9FF04C08E
:10EEFC00DAFF020EDE18DE10D8A418D020EE02F0D5
:10EF0C000350D9260450DA22DE04DE10D8A40ED029
:10EF1C0020EE04F00350D9260450DA22DE04DE1071
:10EF2C00D8A404D0000E086E110EC1D103C0D9FFB5
:10EF3C0004C0DAFFDE04DE10D8A419D020EE02F0F3
:10EF4C000350D9260450DA22020EDE18DE10D8A4A3
:10EF5C000ED020EE04F00350D9260450DA22DE0441
:10EF6C00DE10D8A404D0000E086E120EA0D103C07F
:10EF7C00D9FF04C0DAFFDE04DE10D8A4D9D120EE0C
:10EF8C0002F00350D9260450DA22DE04DE10D8A495
:10EF9C00CFD120EE04F00350D9260450DA22020E11
:10EFAC00DE18DE10D8A4C4D1000E086E130E7FD16B
:10EFBC0003C0D9FF04C0DAFFDE04DE10D8A4B8D138
:10EFCC0020EE02F00350D9260450DA22DE04DE10C3
:10EFDC00D8A4AED120EE04F00350D9260450DA2286
:10EFEC00DE04DE10D8B40BD020EE04F00350D9268A
:10EFFC000450DA22020EDE18DE10D8A499D1000ECD
:10F00C00086E140E54D103C0D9FF04C0DAFFDE041D
:10F01C00DE10D8A418D020EE02F00350D9260450EC
:10F02C00DA22DE04DE10D8A40ED020EE04F0035059
:10F03C00D9260450DA22DE04DE10D8A404D0000E47
:10F04C00086E150E34D103C0D9FF04C0DAFF020ECE
:10F05C00DE18DE10D8A418D020EE02F00350D9260A
:10F06C000450DA22DE04DE10D8A40ED020EE04F018
:10F07C000350D9260450DA22DE04DE10D8A404D0C2
:10F08C00000E086E160E13D103C0D9FF04C0DAFFB0
:10F09C00DE04DE10D8A419D020EE02F00350D926DD
:10F0AC000450DA22020EDE18DE10D8A40ED020EEA8
:10F0BC0004F00350D9260450DA22DE04DE10D8A462
:10F0CC0004D0000E086E170EF2D003C0D9FF04C096
:10F0DC00DAFFDE04DE10D8A42BD120EE02F00350B0
:10F0EC00D9260450DA22DE04DE10D8A421D120EE79
:10F0FC0004F00350D9260450DA22020EDE18DE107A
:10F10C00D8A416D1000E086E180ED1D003C0D9FFAA
:10F11C0004C0DAFFDE04DE10D8A40AD120EE02F01F
:10F12C000350D9260450DA22DE04DE10D8A400D114
:10F13C0020EE04F00350D9260450DA22DE04DE104F
:10F14C00D8A4F6D020EE06F00350D9260450DA22CB
:10F15C00DE04DE10D8A4ECD0000E086E190EA7D079
:10F16C0003C0D9FF04C0DAFFDE04DE10D8A4E0D05F
:10F17C0020EE02F00350D9260450DA22DE04DE1011
:10F18C00D8A4D6D020EE04F00350D9260450DA22AD
:10F19C00DE04DE10D8A4CCD020EE06F00350D92625
:10F1AC000450DA22DE04DE10D8A4C2D0000E086EA1
:10F1BC001A0E7DD003C0D9FF04C0DAFFDE04DE10C6
:10F1CC00D8A4B6D020EE02F00350D9260450DA228F
:10F1DC00DE04DE10D8A4ACD020EE04F00350D92607
:10F1EC000450DA22DE04DE10D8A4A2D020EE06F001
:10F1FC000350D9260450DA22DE04DE10D8A498D0AD
:10F20C00000E086E1B0E53D003C0D9FF04C0DAFFEA
:10F21C00DE04DE10D8A48CD020EE02F00350D926E8
:10F22C000450DA22DE04DE10D8A482D020EE04F0E2
:10F23C000350D9260450DA22DE04DE10D8A478D08C
:10F24C0020EE06F00350D9260450DA22DE04DE103C
:10F25C00D8A46ED0000E086E1C0E29D003C0D9FFA6
:10F26C0004C0DAFFDE04DE10D8A462D020EE02F077
:10F27C000350D9260450DA22DE04DE10D8A458D06C
:10F28C0020EE04F00350D9260450DA22DE04DE10FE
:10F29C00D8A44ED020EE06F00350D9260450DA2222
:10F2AC00DE04DE10D8A444D0000E086E1D0E076ECE
:10F2BC003FD001C005F002C006F00650000AD8A4E9
:10F2CC0037D00550030AD8B424D4040AD8B436D4A1
:10F2DC000D0AD8B466D4060AD8B445D4010AD8B4F9
:10F2EC00E2D4020AD8B487D41E0AD8B432D5030AA1
:10F2FC00D8B404D5010AD8B4AAD4050AD8B4D5D543
:10F30C000F0AD8B403D7030AD8B452D6010AD8B41A
:10F31C0049D5060AD8B424D7020AD8B474D63D0A03
:10F32C00D8B448D7050AD8B46FD70C0AD8B496D736
:10F33C0007C001F008C002F01200A00E0E6E860E7F
:10F34C000F6E010E106E000E116E99EC6AF0000E2D
:10F35C00636E000E626E010E6CEC69F0C30E4C6EA7
:10F36C00CD0EE82EFED74C2EFCD700F00C0E6CEC1C
:10F37C0069F0E30E0D6EFF0E0E6E7AEC6FF0660EFA
:10F38C004D6E760E4C6EC10EE82EFED74C2EFCD771
:10F39C004D2EFAD700F0010E6CEC69F0C30E4C6EDA
:10F3AC00CD0EE82EFED74C2EFCD700F0CD0E0D6EF8
:10F3BC00FD0E0E6E7AEC6FF0C00E6CEC69F09A0ECE
:10F3CC000D6EFD0E0E6E7AEC6FF081A2FED7010E63
:10F3DC00016EFA0ECFEC69F05B0E016E030ECFECF2
:10F3EC0069F0030E016E040ECFEC69F00F0E016E86
:10F3FC00050ECFEC69F0080E016E060ECFEC69F02D
:10F40C000C0E016E070ECFEC69F0010E016E080EAA
:10F41C00CFEC69F00D0E016E090ECFEC69F0000E09
:10F42C00016E0A0ECFEC69F0010E016E000ECFECEE
:10F43C0069F0000E80EC69F05A6E010E6CEC69F00C
:10F44C00C30E4C6ECD0EE82EFED74C2EFCD700F022
:10F45C007F0E0D6EFE0E0E6E7AEC6FF05A50010D93
:10F46C00360EF324F66EFD0EF420F76E0800F55000
:10F47C0076EC69F0660E4D6E760E4C6EC10EE82E73
:10F48C00FED74C2EFCD74D2EFAD700F0030E016E92
:10F49C00000ECFEC69F0000E80EC69F05A6E010E94
:10F4AC006CEC69F0C30E4C6ECD0EE82EFED74C2ED4
:10F4BC00FCD700F07F0E0D6EFE0E0E6E7AEC6FF028
:10F4CC005A50010D360EF324F66EFD0EF420F76E35
:10F4DC000800F55076EC69F0660E4D6E760E4C6EAB
:10F4EC00C10EE82EFED74C2EFCD74D2EFAD700F0CD
:10F4FC00010E6CEC69F0C30E4C6ECD0EE82EFED7EF
:10F50C004C2EFCD700F00C0E6CEC69F05F0E0D6EFF
:10F51C00FE0E0E6E7AEC6FF0C00E6CEC69F0EF0E16
:10F52C000D6EFD0E0E6E7AEC6FF0660E4D6E760E55
:10F53C004C6EC10EE82EFED74C2EFCD74D2EFAD7B2
:10F54C0000F056EC69F0000E036ED00E026E5EEC0D
:10F55C0069F0000E036E000E026E5EEC69F05AEC60
:10F56C0069F056EC69F0000E036ED10E026E5EEC83
:10F57C0069F0000E636E000E626E635011E1060EB0
:10F58C00625CD8B00DD04E0E6224D96E000E632092
:10F59C00DA6E000EAAEC69F0DF6E624A632AEDD7D0
:10F5AC00010EAAEC69F0546E5AEC69F0010E6CEC89
:10F5BC0069F0C30E4C6ECD0EE82EFED74C2EFCD748
:10F5CC0000F0720E0D6EFF0E0E6E7AEC6FF0C00E28
:10F5DC006CEC69F0B60E0D6EFF0E0E6E7AEC6FF0E1
:10F5EC00660E4D6E760E4C6EC10EE82EFED74C2E6E
:10F5FC00FCD74D2EFAD700F0010E6CEC69F0C30E5F
:10F60C004C6ECD0EE82EFED74C2EFCD700F0D90E4A
:10F61C000D6EFE0E0E6E54C00FF0106A53C011F03A
:10F62C00126A52C013F0146A7AEC6FF0C00E6CECD4
:10F63C0069F0E80E0D6EFE0E0E6E50C00FF0106AE3
:10F64C004FC011F0126A4EC013F0146A7AEC6FF0CE
:10F65C00660E4D6E760E4C6EC10EE82EFED74C2EFD
:10F66C00FCD74D2EFAD700F0010E6CEC69F0C30EEE
:10F67C004C6ECD0EE82EFED74C2EFCD700F0AB0E08
:10F68C000D6EFF0E0E6E7AEC6FF0C00E6CEC69F026
:10F69C007F0E0D6EFF0E0E6E7AEC6FF0660E4D6ED9
:10F6AC00760E4C6EC10EE82EFED74C2EFCD74D2E8E
:10F6BC00FAD700F0010E6CEC69F0C30E4C6ECD0E57
:10F6CC00E82EFED74C2EFCD700F0300E0D6EFF0E40
:10F6DC000E6E7AEC6FF0C00E6CEC69F09A0E0D6E3B
:10F6EC00FD0E0E6E7AEC6FF081A2FED781380F0BF7
:10F6FC000F0B596E81B2FED70F0E5918D8A484D2B5
:10F70C00000E656E000E646E000E696E000E686E63
:10F71C00000E5D6E000E5C6E000E5F6E000E5E6E77
:10F72C00000E566E000E556E000E6B6E000E6A6E5D
:10F73C00000E676E000E666E000E616E000E606E3F
:10F74C0055045610D8A45CD1655004E1080E645CD5
:10F75C00D8A02AD0010E6CEC69F0C30E4C6ECD0E05
:10F76C00E82EFED74C2EFCD700F00C0E6CEC69F09A
:10F77C00580E0D6EFF0E0E6E7AEC6FF0C00E6CEC28
:10F78C0069F0890E0D6EFD0E0E6E7AEC6FF0660E42
:10F79C004D6E760E4C6EC10EE82EFED74C2EFCD75D
:10F7AC004D2EFAD700F01200010E6CEC69F0C30E6E
:10F7BC004C6ECD0EE82EFED74C2EFCD700F00C0E66
:10F7CC006CEC69F04F0E0D6EFE0E0E6E7AEC6FF057
:10F7DC00C00E6CEC69F06F0E0D6EFE0E0E6E7AECB8
:10F7EC006FF081A2FED781380F0B0F0B5B6E81B2CD
:10F7FC00FED70F0E5B18D8A4FCD0010E6CEC69F090
:10F80C00C30E4C6ECD0EE82EFED74C2EFCD700F05E
:10F81C0011EC6DF025C06AF026C06BF0640E6A180E
:10F82C006B10D8A405D0000E6B6E000E6A6EBCD7A0
:10F83C00000E696E000E686E69502CE1080E685C53
:10F84C00D8B028D0D8906834D96E6934DA6E6C0E82
:10F85C00D926000EDA226A50DE1819E16B50DE1838
:10F86C00D8A415D0000E5D6E010E5C6ED890683475
:10F87C00D96E6934DA6E6C0ED926000EDA22DE509F
:10F88C00DE10D8A404D0000E5F6E010E5E6E684AC6
:10F89C00692AD2D75C045D10D8A460D05E045F10D6
:10F8AC00D8A42ED0010E6CEC69F0C30E4C6ECD0EAC
:10F8BC00E82EFED74C2EFCD700F00C0E6CEC69F049
:10F8CC00C00E0D6EFF0E0E6E7AEC6FF0C00E6CEC6F
:10F8DC0069F0FF0E0D6EFD0E0E6E7AEC6FF0660E7B
:10F8EC004D6E760E4C6EC10EE82EFED74C2EFCD70C
:10F8FC004D2EFAD700F0000E5F6E000E5E6E29D012
:10F90C00010E6CEC69F0C30E4C6ECD0EE82EFED7DA
:10F91C004C2EFCD700F00C0E6CEC69F0F70E0D6E53
:10F92C00FE0E0E6E7AEC6FF0C00E6CEC69F0D30E1E
:10F93C000D6EFF0E0E6E7AEC6FF0660E4D6E760E3F
:10F94C004C6EC10EE82EFED74C2EFCD74D2EFAD79E
:10F95C0000F0000E5D6E000E5C6EF6D6010E6CECC7
:10F96C0069F0C30E4C6ECD0EE82EFED74C2EFCD794
:10F97C0000F06AC025F06BC026F0F7EC72F025C0E1
:10F98C0066F026C067F0640E66186710D8A405D020
:10F99C00000E676E000E666E30D766C025F067C02D
:10F9AC0026F06AC027F06BC028F017EC6CF025C06D
:10F9BC0060F026C061F0640E60186110D8A409D004
:10F9CC00000E676E000E666E000E616E000E606EAD
:10F9DC00C5D7D8906434D96E6534DA6E6C0ED926DE
:10F9EC00000EDA226AC0DEFF6BC0DDFF644A652AB6
:10F9FC0004D00E0E5B18D8B41200000E5B6EA4D6A9
:10FA0C00010E6CEC69F0C30E4C6ECD0EE82EFED7D9
:10FA1C004C2EFCD700F011EC6DF025C06AF026C01E
:10FA2C006BF0640E6A186B10D8A409D0000E6B6EC4
:10FA3C00000E6A6E000E566E010E556EB5D6000E97
:10FA4C00566E010E556E000E696E000E686E695092
:10FA5C002CE1080E685CD8B028D0D8906834D96EE8
:10FA6C006934DA6E6C0ED926000EDA226A50DE1872
:10FA7C0019E16B50DE18D8A415D0000E5D6E010E86
:10FA8C005C6ED8906834D96E6934DA6E6C0ED926F7
:10FA9C00000EDA22DE50DE10D8A404D0000E5F6E09
:10FAAC00010E5E6E684A692AD2D75C045D10D8A438
:10FABC0060D05E045F10D8A42ED0010E6CEC69F0FF
:10FACC00C30E4C6ECD0EE82EFED74C2EFCD700F09C
:10FADC000C0E6CEC69F0C00E0D6EFF0E0E6E7AEC17
:10FAEC006FF0C00E6CEC69F0FF0E0D6EFD0E0E6E1D
:10FAFC007AEC6FF0660E4D6E760E4C6EC10EE82EE3
:10FB0C00FED74C2EFCD74D2EFAD700F0000E5F6EB0
:10FB1C00000E5E6E29D0010E6CEC69F0C30E4C6EBB
:10FB2C00CD0EE82EFED74C2EFCD700F00C0E6CEC54
:10FB3C0069F0F70E0D6EFE0E0E6E7AEC6FF0C00EC5
:10FB4C006CEC69F0D30E0D6EFF0E0E6E7AEC6FF04E
:10FB5C00660E4D6E760E4C6EC10EE82EFED74C2EF8
:10FB6C00FCD74D2EFAD700F0000E5D6E000E5C6EC9
:10FB7C00E7D5010E6CEC69F0C30E4C6ECD0EE82E81
:10FB8C00FED74C2EFCD700F06AC025F06BC026F0D7
:10FB9C00F7EC72F025C066F026C067F0640E6618AC
:10FBAC006710D8A405D0000E676E000E666E28D7BD
:10FBBC0066C025F067C026F06AC027F06BC028F03D
:10FBCC0017EC6CF025C060F026C061F0640E601874
:10FBDC006110D8A409D0000E676E000E666E000E80
:10FBEC00616E000E606EC5D7D8906434D96E6534E2
:10FBFC00DA6E6C0ED926000EDA226AC0DEFF6BC0FC
:10FC0C00DDFF644A652A9CD50E0E5918D8A45AD02B
:10FC1C0013EC6EF040C057F041C058F00F0E57185F
:10FC2C005810D8B4F5D70E0E57185810D8A420D0A9
:10FC3C00010E6CEC69F0C30E4C6ECD0EE82EFED7A7
:10FC4C004C2EFCD700F00C0E6CEC69F0950E0D6E82
:10FC5C00FF0E0E6E7AEC6FF0660E4D6E760E4C6EDD
:10FC6C00C10EE82EFED74C2EFCD74D2EFAD728D03D
:10FC7C00010E6CEC69F0C30E4C6ECD0EE82EFED767
:10FC8C004C2EFCD700F00C0E6CEC69F03E0E0D6E99
:10FC9C00FF0E0E6E7AEC6FF0C00E6CEC69F0950EE8
:10FCAC000D6EFF0E0E6E7AEC6FF0660E4D6E760ECC
:10FCBC004C6EC10EE82EFED74C2EFCD74D2EFAD72B
:10FCCC0000F01200010E6CEC69F0C30E4C6ECD0E00
:10FCDC00E82EFED74C2EFCD700F00C0E6CEC69F025
:10FCEC003E0E0D6EFF0E0E6E7AEC6FF0C00E6CECCD
:10FCFC0069F0950E0D6EFF0E0E6E7AEC6FF0660EBF
:10FD0C004D6E760E4C6EC10EE82EFED74C2EFCD7E7
:10FD1C004D2EFAD700F01200003132334134353613
:10FD2C0042373839432A3023440031323352343588
:10FD3C0036463738394C2A3023440001000A006417
:10FD4C0000E803102701001000000100100028003B
:10FD5C000624021800010210022852656D61696EBA
:10FD6C00696E67207069656365733A0030313233B0
:10FD7C0034353637383961626364656600647261A4
:10FD8C0077657273207265616368656421006265D2
:10FD9C0067696E206F7065726174696F6E2E0050AA
:10FDAC006C6561736520696E707574206C6F67008B
:10FDBC00523A25692020463A256920204C3A25697B
:10FDCC0000507265737320616E79206B65792074B5
:10FDDC006F0025692070726576696F7573206C6F82
:10FDEC00677300636162696E657420736F7274650A
:10FDFC007221006E756D6265722070726573736529
:10FE0C00642E0044726177657220256920666F6FDD
:10FE1C00643A004F7065726174696F6E2074696D1D
:10FE2C00653A004D61726B6564206472617765722E
:10FE3C00733A0044726177657220256920646965A4
:10FE4C00743A00416E6F74686572206472617765F4
:10FE5C00723F0057656C636F6D6520746F20796F0E
:10FE6C0075720023203D204E6F2C2044203D2059DC
:10FE7C0065730053746F7265642076616C75653AB6
:10FE8C00200044726177657220313A20524631323B
:10FE9C0000447261776572206E756D6265723A000E
:10FEAC00496E7075742053756D6D6172793A0031BD
:10FEBC002070726576696F7573206C6F67002569A9
:10FECC002C2025692C2025692C2025690025303211
:10FEDC00782F253032782F25303278002530327843
:10FEEC003A253032783A25303278004472617765A1
:10FEFC007220616C726561647900496E76616C691F
:10FF0C006420666F6F642100496E76616C696420B1
:10FF1C006469657421006D6F766520666F72776118
:10FF2C0072642E006F72207072657373204420749B
:10FF3C006F00496E76616C6964206B6579210044B1
:10FF4C00726177657220323A204C31004D617869CC
:10FF5C006D756D206F66203800416E6F7468657228
:10FF6C00206C6F673F0043757272656E742064611C
:10FF7C0074650076696577206C6F67732C00617609
:10FF8C0061696C61626C652E005265626F6F746999
:10FF9C006E672E0054727920616761696E2E005075
:10FFAC0072657373202320746F00616E6420746912
:10FFBC006D653A004E6F20647261776572006E75E4
:10FFCC006D6265723A2000696E2075736521004E72
:10FFDC006F206C6F6773005374616E6462790047B5
:10FFEC0072656174210025693A2569300025693AEA
:04FFFC002569000073
:020000040020DA
:08000000FFFFFFFFFFFFFFFF00
:020000040030CA
:0E000000FF061F1EFF8381FF0F400FE00F4021
:00000001FF
