:0400000087EF64F032
:10C790006C0034333231D8EC63F0C5801200D8EC31
:10C7A00063F0C5841200D8EC63F002C0C9FF120028
:10C7B000C7B4FED7C5CF01F01F0E0116D8B41200C2
:10C7C000F7D7036E8C9403504EEC65F0C80E00D082
:10C7D000E82EFDD71200036E8C8403504EEC65F0FA
:10C7E000C80E00D0E82EFDD71200016EA6B2FED70B
:10C7F00001C0A9FFA69EA69CA680A8501200800E8C
:10C800000F6E250E106E000E116E000E126ECCEC27
:10C8100065F01200036E000E026E3A0E036005D042
:10C820002F0E036402D0010E026E02C001F001302F
:10C830001200026ED8EC63F0C586D8EC63F0C9CF65
:10C8400003F0D8EC63F002B002D0C59A01D0C58ADB
:10C85000C5880350120001500302F3CF05F0F4CF56
:10C8600006F001500402F350062602500302F35072
:10C87000062605C001F006C002F01200000E046E8C
:10C88000000E036E000E046E000E036E0404D8B09A
:10C890001200000E016E035051EC64F0034A042AAA
:10C8A000F5D7026EA6B2FED7A68402C0A9FF01C0CA
:10C8B000A8FFA69EA69CF29E550EA76EAA0EA76E76
:10C8C000A682F28EA6B2FED7A69412000A500B10D2
:10C8D000D8B418D0010E0C6E04D0D8900A360B369E
:10C8E0000C2A0BAEFAD70A50085C0B500958D8A096
:10C8F00004D00A50085E0B50095AD8900B320A3205
:10C900000C2EF1D708C008F009C009F01200900EF3
:10C91000F66EC70EF76E000EF86E00EE78F010EEB1
:10C9200006F00900F5CFEEFFE550E150FAE101EE27
:10C9300000F0600EEE6AE806FDE100EE59F01F0E11
:10C94000EE6AE806FDE1000EF86E00018DEF65F07D
:10C95000C30E046ECD0EE82EFED7042EFCD700F0D9
:10C96000330EE1EC63F0320EE1EC63F0280EE1EC03
:10C9700063F00F0EE1EC63F0060EE1EC63F0010EE4
:10C98000E1EC63F0C30E046ECD0EE82EFED7042E4C
:10C99000FCD700F00F0EE1EC63F01200000E066E03
:10C9A000000E056E03500410D8B41CD0010E076EA3
:10C9B00004D0D89003360436072A04AEFAD7D890AC
:10C9C000053606360350015C04500258D8A005D045
:10C9D0000350015E0450025A0580D890043203329D
:10C9E000072EEDD705C001F006C002F01200056E5B
:10C9F000000E096E000E086E000E076E000E066E29
:10CA0000000E096E000E086E0DD00850011808E1E6
:10CA100009500218D8A404D0000E076E010E066E4D
:10CA2000084A092A0550036E046A0350085C045042
:10CA30000958D8A0EAD706C001F007C002F01200DA
:10CA4000C69A94869488800EC76E280EC66E000E15
:10CA5000C56E000E016E5A0E026E620E036E020E5D
:10CA6000046E0EC012F00FC013F010C014F011C00D
:10CA700015F0020ED8901236133614361536E82EFD
:10CA8000F9D712C005F013C006F014C007F015C0A6
:10CA900008F00DEC66F00104C86E1200026E025040
:10CAA000F00B016E8C500F0B8C6E01508C108C6E45
:10CAB000000EF2BE010E696EF29E8C86530EE82EB9
:10CAC000FED700F08C96C80E00D0E82EFDD769B0D6
:10CAD00002D0F29E01D0F28E0238F00B026E0250AC
:10CAE000F00B016E8C500F0B8C6E01508C108C6E05
:10CAF000000EF2BE010E696EF29E8C86530EE82E79
:10CB0000FED700F08C96C80E00D0E82EFDD769B095
:10CB100002D0F29E01D0F28E1200000E896E000E3D
:10CB20008A6E000E8B6E000E8C6E000E8D6E9268FB
:10CB30009368000E946E000E956E000E966E000EB9
:10CB4000C26E0F0EC16EA8EC64F0010EE1EC63F052
:10CB5000C30E566ECD0EE82EFED7562EFCD700F033
:10CB60000C0EE1EC63F0E90E0D6EFF0E0E6EC5ECDF
:10CB70006CF0000E586E000E576E5FEC78F052C0ED
:10CB800057F053C058F057045810D8A400EF00F0E5
:10CB9000FFEC63F000EF00F0000E016E5A0E026E23
:10CBA000620E036E020E046E0FC013F010C014F07C
:10CBB00011C015F012C016F0060ED89013361436B8
:10CBC00015361636E82EF9D713C005F014C006F056
:10CBD00015C007F016C008F004EC67F00104AF6E52
:10CBE000AC9CAC98AC8AAB9CAB8820EE08F078503B
:10CBF000D9267950DA22010EDF6E20EE09F0785046
:10CC0000D9267950DA22010EDF6E500E706E010EB9
:10CC1000716E949C948EAB8E1200000E096E000E05
:10CC20000A6E000E0B6E000E0C6E055006100710FB
:10CC30000810D8B42AD0010E0D6E06D0D890053653
:10CC40000636073608360D2A08AEF8D7D8900936CA
:10CC50000A360B360C360550015C06500258075058
:10CC6000035808500458D8A009D00550015E06505A
:10CC7000025A0750035A0850045A0980D8900832C3
:10CC80000732063205320D2EE1D709C001F00AC085
:10CC900002F00BC003F00CC004F01200000E076E8F
:10CCA000000E066E000E056E000E046E000E076E7E
:10CCB000660E066E075014E1990E065CD8B010D0CF
:10CCC0000650F5EC63F0036E0350046E056A04C071
:10CCD00001F00650330F51EC64F0064A072AEAD7F8
:10CCE000000E076E330E066E075014E1660E065CEA
:10CCF000D8B010D00650F5EC63F0036E0350046E0C
:10CD0000056A04C001F00650330F51EC64F0064A86
:10CD1000072AEAD7000E076E000E066E075014E1D0
:10CD2000330E065CD8B012000650F5EC63F0036ECB
:10CD30000350046E056A04C001F00650330F51EC35
:10CD400064F0064A072AEAD71200000E066E000EAB
:10CD5000056E15D0000E066E010E056E50D0000E49
:10CD6000066E020EFAD7000E066E030EF6D7000E00
:10CD7000066E040EF2D7000E066E000EEED701C04E
:10CD800003F002C004F00450000AD8A4F4D7035002
:10CD9000030AD8B4DFD7040AD8B4DCD70D0AD8B454
:10CDA000DED7060AD8B4D6D7010AD8B4DCD7020A2F
:10CDB000D8B4D5D71E0AD8B4D6D7030AD8B4D3D797
:10CDC000010AD8B4CCD7050AD8B4CDD70F0AD8B445
:10CDD000CED7030AD8B4C7D7010AD8B4C4D7060A35
:10CDE000D8B4C5D7020AD8B4BED73D0AD8B4BFD785
:10CDF000050AD8B4BCD70C0AD8B4B9D7BCD705C07B
:10CE000001F006C002F01200000E0A6E08AE0AD051
:10CE1000081E071E061E056C000E062207220822A9
:10CE2000010E0A6E04AE0AD0041E031E021E016C1F
:10CE3000000E022203220422010E0A1A000E0B6EBB
:10CE4000000E0C6E000E0D6E000E0E6E05500610DC
:10CE500007100810D8B42AD0010E096E06D0D89059
:10CE60000536063607360836092A08AEF8D7D890B0
:10CE70000B360C360D360E360550015C0650025846
:10CE80000750035808500458D8A009D00550015E37
:10CE90000650025A0750035A0850045A0B80D89083
:10CEA0000832073206320532092EE1D70A50D8B4CB
:10CEB00008D00E1E0D1E0C1E0B6C000E0C220D2237
:10CEC0000E220BC001F00CC002F00DC003F00EC02A
:10CED00004F012003AD0000E066E010E2FD0000EA4
:10CEE000066E020E2BD0000E066E030E27D0000E2B
:10CEF000066E070E23D0000E066E080E1FD0000E21
:10CF0000066E090E1BD0000E066E0A0E17D0000E1C
:10CF1000066E0B0E13D0000E066E0C0E0FD0000E18
:10CF2000066E0D0E0BD0000E066E0E0E07D0000E14
:10CF3000066E0F0E03D0000E066E100E056E36D074
:10CF400001C005F002C006F031D001C003F002C0FC
:10CF500004F00450000AD8A4F3D70350010AD8B44F
:10CF6000BED7030AD8B4BFD70A0AD8B4C0D7010ABB
:10CF7000D8B4C1D7030AD8B4C2D71E0AD8B4ABD725
:10CF8000010AD8B4C8D7030AD8B4C9D70E0AD8B48E
:10CF9000CAD7010AD8B4CBD7030AD8B4CCD73B0A36
:10CFA000D8B4B1D7090AD8B4B2D7CAD705C001F0EE
:10CFB00006C002F01200000E066E000E056E0DD0C7
:10CFC000000E066E010E03D0000E066E020E056EF8
:10CFD00065D0000E066E000EFAD701C003F002C045
:10CFE00004F00450000AD8A4F4D70350030AD8B4BC
:10CFF000E7D7070AD8B4E8D70C0AD8B4E1D7010AB2
:10D00000D8B4E2D7030AD8B4DBD7010AD8B4DCD746
:10D010001A0AD8B4D5D7030AD8B4D2D7010AD8B4DB
:10D02000CFD7070AD8B4D0D7010AD8B4CDD7030ACE
:10D03000D8B4C6D7010AD8B4C7D70D0AD8B4C4D754
:10D04000010AD8B4C1D73B0AD8B4BAD7010AD8B4B8
:10D05000B7D7030AD8B4B8D7010AD8B4B1D7070AEA
:10D06000D8B4B2D7010AD8B4AFD7030AD8B4A8D776
:10D07000010AD8B4A5D70F0AD8B4A2D7010AD8B4E8
:10D08000A3D7030AD8B49CD7010AD8B49DD7070AFE
:10D09000D8B496D7020AD8B493D79BD705C001F06D
:10D0A00006C002F01200000E066E000E056E0DD0D6
:10D0B000000E066E020E056E69D0000E066E010EA1
:10D0C000FAD7000E066E000EF6D701C003F002C0BC
:10D0D00004F00450000AD8A4F4D70350010AD8B4CD
:10D0E000ECD7030AD8B4E4D70A0AD8B4E6D7010AC1
:10D0F000D8B4E3D7030AD8B4DBD7010AD8B4D8D759
:10D10000070AD8B4DAD7010AD8B4D7D7030AD8B4F3
:10D11000D4D7010AD8B4CCD71F0AD8B4C9D7060AC5
:10D12000D8B4C6D7010AD8B4C3D70F0AD8B4C0D769
:10D13000010AD8B4BDD7030AD8B4BFD7010AD8B4FE
:10D14000B7D7070AD8B4B9D7010AD8B4B6D7030AF3
:10D15000D8B4B3D7010AD8B4ABD73F0AD8B4ADD747
:10D16000010AD8B4AAD7030AD8B4A7D7010AD8B4F9
:10D170009FD7090AD8B49CD7010AD8B49ED7070A0A
:10D18000D8B49BD7010AD8B498D79BD705C001F073
:10D1900006C002F01200000E066E000E056E11D0E1
:10D1A000000E066E010E07D0000E066E020E03D0B2
:10D1B000000E066E030E056E74D0000E066E000E95
:10D1C000FAD701C003F002C004F00450000AD8A44A
:10D1D000F4D70350050AD8B4E3D7030AD8B4E4D788
:10D1E000010AD8B4E5D70B0AD8B4DAD7010AD8B403
:10D1F000DBD7030AD8B4DCD7010AD8B4D1D71F0AC9
:10D20000D8B4D2D7010AD8B4CBD7030AD8B4CCD774
:10D21000010AD8B4CDD7070AD8B4C2D7010AD8B406
:10D22000C3D70D0AD8B4BCD7010AD8B4BDD7050AF4
:10D23000D8B4BAD7010AD8B4BBD7030AD8B4B8D780
:10D24000010AD8B4B1D73F0AD8B4AAD7010AD8B4D2
:10D25000ABD7030AD8B4A4D7010AD8B4A1D7070A18
:10D26000D8B49ED7010AD8B49FD7030AD8B49CD7A4
:10D27000010AD8B49DD70F0AD8B49AD7010AD8B4F6
:10D2800093D7030AD8B48CD7010AD8B489D7070A30
:10D29000D8B48AD7010AD8B48BD7030AD8B488D7B0
:10D2A0008CD705C001F006C002F01200010EE1ECBF
:10D2B00063F0C30E296ECD0EE82EFED7292EFCD7C3
:10D2C00000F00D0E0D6EFE0E0E6E27C00FF028C082
:10D2D00010F0C5EC6CF0C00EE1EC63F0000E2C6EAB
:10D2E000000E2B6E000E326E000E316E20EE61F0DD
:10D2F00010EE34F0070EDBCFE3FFE806FCE2000E91
:10D30000306E000E2F6E000E2E6E000E2D6E25C09C
:10D3100001F026C002F0A5EC66F001C02BF002C0BF
:10D320002CF081A2FED781380F0B0F0B336E81B228
:10D33000FED70F0E3318D8B46DD00E0E3318D8A404
:10D3400005D0000E2E6E010E2D6E64D03350D8B471
:10D3500007D03304D8B404D0020E3318D8A429D08F
:10D360002B50315C2C503258D8B0DBD73350010DE4
:10D37000340EF324F66EFD0EF420F76E0800F5501F
:10D38000EBEC63F03350296E2A6A010E2926000E59
:10D390002A22D8903134D96E3234DA6E340ED9263E
:10D3A000000EDA2229C0DEFF2AC0DDFF314A322A10
:10D3B000B8D70C0E3318D8A4B4D7010EE1EC63F043
:10D3C000C30E296ECD0EE82EFED7292EFCD700F015
:10D3D0000D0E0D6EFE0E0E6E27C00FF028C010F061
:10D3E000C5EC6CF0C00EE1EC63F0000E326E000E86
:10D3F000316E000E356E000E346E000E376E000E6C
:10D40000366E000E396E000E386E000E3B6E000E4A
:10D410003A6E87D72D042E10D8A405D0000E266EA4
:10D42000640E256E120025C001F026C002F0340EF5
:10D43000036E000E046E01EC73F001C02FF002C009
:10D4400030F02F503010D8A426D0010EE1EC63F05C
:10D45000C30E296ECD0EE82EFED7292EFCD700F084
:10D46000040E0D6EFF0E0E6EC5EC6CF0C00EE1ECFE
:10D4700063F09E0E0D6EFF0E0E6EC5EC6CF0330E5B
:10D480002A6EBB0E296EE00EE82EFED7292EFCD7A1
:10D490002A2EFAD70BD72FC025F030C026F0120065
:10D4A0000C0EE1EC63F0010EE1EC63F0C30E276EAD
:10D4B000CD0EE82EFED7272EFCD700F08C0E0D6E79
:10D4C000FE0E0E6EC5EC6CF0C00EE1EC63F0000ECB
:10D4D0002F6E000E2E6E000E2B6E000E2A6E000EAA
:10D4E0002D6E000E2C6E81A2FED781380F0B0F0B14
:10D4F000306E81B2FED70F0E3018D8B4BAD00E0EEF
:10D500003018D8A405D0000E2D6E640E2C6EB1D04C
:10D510003050D8B423D03004D8B420D0020E301804
:10D52000D8B41CD0040E3018D8B418D0050E30185A
:10D53000D8B414D0060E3018D8B410D0080E301855
:10D54000D8B40CD0090E3018D8B408D00A0E301850
:10D55000D8B404D00D0E3018D8A46AD02E502F1095
:10D56000D8A446D03004D8B41CD0020E3018D8B499
:10D5700018D0040E3018D8B414D0050E3018D8B412
:10D5800010D0060E3018D8B40CD0080E3018D8B40D
:10D5900008D0090E3018D8B404D00A0E3018D8A418
:10D5A00011D0020E2E26000E2F223050010D340E07
:10D5B000F324F66EFD0EF420F76E0800F550EBEC48
:10D5C00063F034D03050D8A48ED73050010D340ED3
:10D5D000F324F66EFD0EF420F76E0800F550EBEC28
:10D5E00063F02E4A2F2A20D02A26000E2B227BD72A
:10D5F0002E042F10D8A477D7070E306404D00D0E58
:10D600003018D8A470D73050010D340EF324F66EC4
:10D61000FD0EF420F76E0800F550EBEC63F02E4A97
:10D620002F2A3050D8A402D0140EDED73050DCD7C9
:10D630000C0E3018D8A457D7010EE1EC63F0C30EDE
:10D64000276ECD0EE82EFED7272EFCD700F08C0ECD
:10D650000D6EFE0E0E6EC5EC6CF0C00EE1EC63F0CC
:10D66000000E2F6E000E2E6E000E2B6E000E2A6E18
:10D670003AD7640E2C182D10D8A405D02CC025F054
:10D680002DC026F012002AC001F02BC002F06AEC77
:10D6900067F001C028F002C029F028C025F029C099
:10D6A00026F01200FA0EF5EC63F0506E000E4F6E8D
:10D6B000000E4E6E000E4B6E000E4A6E000E4D6E4A
:10D6C000000E4C6E5050D8A42BD0010EE1EC63F04C
:10D6D000C30E486ECD0EE82EFED7482EFCD700F0C4
:10D6E000E10E0D6EFF0E0E6EC5EC6CF0C00EE1EC9F
:10D6F00063F0880E0D6EFF0E0E6EC5EC6CF0660EBC
:10D70000496E760E486EC10EE82EFED7482EFCD725
:10D71000492EFAD700F0000E476E0E0E466E12002C
:10D720005004D8A453D0000E4F6E010E4E6E010E61
:10D73000E1EC63F0C30E486ECD0EE82EFED7482E06
:10D74000FCD700F0AA0E0D6EFE0E0E6EC5EC6CF04E
:10D75000C00EE1EC63F0880E0D6EFF0E0E6EC5EC90
:10D760006CF0660E496E760E486EC10EE82EFED73E
:10D77000482EFCD7492EFAD700F0010EE1EC63F0F9
:10D78000C30E486ECD0EE82EFED7482EFCD700F013
:10D79000CB0E0D6EFD0E0E6EC5EC6CF0C00EE1EC06
:10D7A00063F0200E0D6EFF0E0E6EC5EC6CF01A0EBF
:10D7B000496E5E0E486E6E0EE82EFED7482EFCD7E0
:10D7C000492EFAD700D081B2D1D0FDD7010EE1ECBD
:10D7D00063F0C30E486ECD0EE82EFED7482EFCD760
:10D7E00000F0DC0E0D6EFD0E0E6E50C00FF0106AD4
:10D7F000C5EC6CF0C00EE1EC63F0880E0D6EFF0E10
:10D800000E6EC5EC6CF0660E496E760E486EC10E5B
:10D81000E82EFED7482EFCD7492EFAD700F0010E8D
:10D82000E1EC63F0C30E486ECD0EE82EFED7482E15
:10D83000FCD700F0A90E0D6EFD0E0E6EC5EC6CF05F
:10D84000C00EE1EC63F0C80E0D6EFF0E0E6EC5EC5F
:10D850006CF081A2FED781380F0B0F0B516E81B295
:10D86000FED75150D8B40BD05104D8B408D0020E12
:10D870005118D8B404D0040E5118D8A4EAD751C016
:10D8800001F0026A5050F7EC64F001C04AF002C0A7
:10D890004BF04A044B10D8A4DCD75150010D230E95
:10D8A000F324F66EFD0EF420F76E0800F550EBEC55
:10D8B00063F0040E5118D8A404D051C04EF04F6A42
:10D8C00006D0010E51244E6E4F6A000E4F22330EC9
:10D8D000496EBB0E486EE00EE82EFED7482EFCD7F0
:10D8E000492EFAD7010EE1EC63F0C30E486ECD0E5F
:10D8F000E82EFED7482EFCD700F0F10E0D6EFF0E7D
:10D900000E6EC5EC6CF0330E496EBB0E486EE00E29
:10D91000E82EFED7482EFCD7492EFAD7010EE1ECAF
:10D9200063F0C30E486ECD0EE82EFED7482EFCD70E
:10D9300000F0CB0E0D6EFD0E0E6EC5EC6CF0C00E41
:10D94000E1EC63F0200E0D6EFF0E0E6EC5EC6CF078
:10D950001A0E496E5E0E486E6E0EE82EFED7482EE9
:10D96000FCD7492EFAD700D081A2FED74EC025F0B1
:10D970004FC026F04BEC6EF025C04CF026C04DF0A9
:10D980004CC046F04DC047F012000F0E1C6E000E4A
:10D990001D6E74D1250E2418D8B404D02450EBEC9D
:10D9A00063F06CD1000E236E000E226E000E216E0D
:10D9B00003D021840D4A0E2A0DC0F6FF0EC0F7FFDA
:10D9C0000800F550300AD8B4F4D70DC0F6FF0EC0E9
:10D9D000F7FF0800F5500AEC64F0D8A035D0000E2F
:10D9E000236E000E226E22C001F023C002F0000E52
:10D9F000046E0A0E036E2BEC64F001C022F002C02C
:10DA000023F0D00E176EFF0E186E0DC0F6FF0EC07D
:10DA1000F7FF0800F550196E1A6A175019261850AA
:10DA20001A22195022261A5023220D4A0E2A0DC0FE
:10DA3000F6FF0EC0F7FF0800F5500AEC64F0D8A01E
:10DA400003D0D1D7218E17D00DC0F6FF0EC0F7FF3F
:10DA50000D4A0E2A0800F5CF24F02450000AD8B44D
:10DA60001200640AD8B407D00D0AD8B404D0110A41
:10DA7000D8B4E8D703D121BE15D01CC0D9FF1DC032
:10DA8000DAFFDECF1FF0DDCF20F0020E1C26000EE5
:10DA90001D2220AE44D0030E21121F6C201ED8B0D0
:10DAA000202A3DD01CC0D9FF1DC0DAFFDECF1FF0F9
:10DAB000DDCF20F0020E1C26000E1D2230D0010EFC
:10DAC000246E050E2418D8B432D02450020D450E11
:10DAD000F324F66EFD0EF420F76E0900F5501F5C7E
:10DAE0000900F5502058D8A022D0242AEAD7010EE8
:10DAF000246E040E2418D8B41AD02450020D4F0EF0
:10DB0000F324F66EFD0EF420F76E0900F5501F5C4D
:10DB10000900F5502058D8A00AD0242AEAD721506D
:10DB2000800B000AD8B4CBD7800AD8B4E0D72250F3
:10DB30002310D8B409D021C017F0030E1716D8B49B
:10DB400003D02206D8A02306800E24BE7F0E176EB7
:10DB50002250245C2350800A1758D8B007D0245094
:10DB6000225E000E24BEFF0E235A04D0000E236E48
:10DB7000000E226E21A414D021C017F0030E171638
:10DB8000D8B403D02D0EEBEC63F022502310D8B4A0
:10DB90001ED0300EEBEC63F02206D8A02306F5D79A
:10DBA00022502310D8B40AD0200EEBEC63F02206EA
:10DBB000D8A0230622502310D8A4F6D721C017F0EE
:10DBC000030E1716D8B403D02D0EEBEC63F024C06F
:10DBD0001EF050D01E50020D450EF324F66EFD0EC1
:10DBE000F420F76E0900F5CF03F00A00F5CF04F03A
:10DBF0001FC001F020C002F0CEEC64F001C008F0BC
:10DC000002C009F0000E0B6E0A0E0A6E66EC64F09C
:10DC10000850300F246E2BD01FC001F020C002F03E
:10DC20001E50020D4F0EF324F66EFD0EF420F76E1B
:10DC30000900F5CF03F00A00F5CF04F0CEEC64F054
:10DC400001500F0B1B6E1B50010D760EF324F66E68
:10DC5000FD0EF420F76E0800F5CF24F008D0215017
:10DC6000800B000AD8B4B6D7800AD8B4D5D72450D0
:10DC7000EBEC63F01E061E28D8A4F1D70DC0F6FF0A
:10DC80000EC0F7FF0D4A0E2A0800F5CF24F02450ED
:10DC9000D8B412007FD6FF0E2524016EFF0E262079
:10DCA000026E000E046E330E036E2BEC64F001C0A6
:10DCB00044F002C045F04450F5EC63F0276E275065
:10DCC000296E2A6A4428F5EC63F0276E27502B6EE4
:10DCD0002C6A4450020FF5EC63F0276E27502D6E2E
:10DCE0002E6A4450030FF5EC63F0276E27503A6E0E
:10DCF0003B6A4450040FF5EC63F0276E27502F6EFB
:10DD0000306A4450050FF5EC63F0276E2750316EF2
:10DD1000326A4450060FF5EC63F0276E2750336EDD
:10DD2000346A4450070FF5EC63F0276E27503C6EC1
:10DD30003D6A4450080FF5EC63F0276E27503E6EA5
:10DD40003F6A4450090FF5EC63F0276E2750406E90
:10DD5000416A44500A0FF5EC63F0276E2750426E7B
:10DD6000436A010EE1EC63F0C30E276ECD0EE82E80
:10DD7000FED7272EFCD700F0F80E0D6EFF0E0E6EAC
:10DD8000C5EC6CF0C00EE1EC63F0C80E0D6EFE0E3B
:10DD90000E6E29C00FF02AC010F02BC011F02CC05D
:10DDA00012F02DC013F02EC014F0C5EC6CF01A0E5A
:10DDB000286E5E0E276E6E0EE82EFED7272EFCD73D
:10DDC000282EFAD700D081A2FED73AC001F03BC07E
:10DDD00002F0000E046E3C0E036ECEEC64F001C047
:10DDE00035F002C036F03AC008F03BC009F0000E32
:10DDF0000B6E3C0E0A6E66EC64F008C037F009C08A
:10DE000038F0010EE1EC63F0C30E276ECD0EE82E64
:10DE1000FED7272EFCD700F01D0E0D6EFE0E0E6EE7
:10DE2000C5EC6CF0C00EE1EC63F0D90E0D6EFF0E88
:10DE30000E6E35C00FF036C010F037C011F038C08C
:10DE400012F0C5EC6CF01A0E286E5E0E276E6E0E88
:10DE5000E82EFED7272EFCD7282EFAD700D081A295
:10DE6000FED7010EE1EC63F0C30E276ECD0EE82E57
:10DE7000FED7272EFCD700F02D0E0D6EFE0E0E6E77
:10DE8000C5EC6CF0C00EE1EC63F042504310D8A436
:10DE90001ED040504110D8A41AD03E503F10D8A4F4
:10DEA00016D0C50E0D6EFE0E0E6E3CC00FF03DC0BE
:10DEB00010F0C5EC6CF01A0E286E5E0E276E6E0E1A
:10DEC000E82EFED7272EFCD7282EFAD765D0425051
:10DED0004310D8A41ED040504110D8A41AD0C10E6F
:10DEE0000D6EFE0E0E6E3CC00FF03DC010F03EC039
:10DEF00011F03FC012F0C5EC6CF01A0E286E5E0EE9
:10DF0000276E6E0EE82EFED7272EFCD7282EFAD7C6
:10DF100043D042504310D8A41ED0BD0E0D6EFE0E4D
:10DF20000E6E3CC00FF03DC010F03EC011F03FC07F
:10DF300012F040C013F041C014F0C5EC6CF01A0EA2
:10DF4000286E5E0E276E6E0EE82EFED7272EFCD7AB
:10DF5000282EFAD721D0B90E0D6EFE0E0E6E3CC0E3
:10DF60000FF03DC010F03EC011F03FC012F040C0B5
:10DF700013F041C014F042C015F043C016F0C5ECD8
:10DF80006CF01A0E286E5E0E276E6E0EE82EFED70F
:10DF9000272EFCD7282EFAD700D081A2FED7010E5B
:10DFA000E1EC63F0C30E276ECD0EE82EFED7272ED0
:10DFB000FCD700F0640E0D6EFD0E0E6EC5EC6CF01D
:10DFC000C00EE1EC63F0BA0E0D6EFD0E0E6E2FC0AA
:10DFD0000FF030C010F031C011F032C012F033C079
:10DFE00013F034C014F0C5EC6CF01A0E286E5E0EFF
:10DFF000276E6E0EE82EFED7272EFCD7282EFAD7D6
:10E0000000D081A2FED7010EE1EC63F0C30E276EB3
:10E01000CD0EE82EFED7272EFCD700F09B0E0D6EFE
:10E02000FE0E0E6EC5EC6CF01A0E286E5E0E276E9C
:10E030006E0EE82EFED7272EFCD7282EFAD700D05A
:10E0400081A2FED7010EE1EC63F0C30E276ECD0E68
:10E05000E82EFED7272EFCD700F07D0E0D6EFE0EAB
:10E060000E6EC5EC6CF0C00EE1EC63F0490E0D6E67
:10E07000FF0E0E6EC5EC6CF0660E286E760E276EE7
:10E08000C10EE82EFED7272EFCD7282EFAD700F097
:10E09000010EE1EC63F0C30E276ECD0EE82EFED725
:10E0A000272EFCD700F0630E0D6EFF0E0E6EC5EC32
:10E0B0006CF0C00EE1EC63F06D0E0D6EFE0E0E6E98
:10E0C000C5EC6CF081A2FED781380F0B0F0B396EB7
:10E0D00081B2FED739C025F0266A1200010EE1ECAC
:10E0E00063F0C30E276ECD0EE82EFED7272EFCD789
:10E0F00000F03D0E0D6EFE0E0E6E25C00FF026C018
:10E1000010F0C5EC6CF0C00EE1EC63F0000E306E68
:10E11000000E2F6E000E2A6E000E296E000E326E5B
:10E12000000E316E000E2C6E000E2B6E20EE59F09C
:10E1300010EE34F0070EDBCFE3FFE806FCE2000E42
:10E140002E6E000E2D6E81A2FED781380F0B0F0BA5
:10E15000336E81B2FED70F0E3318D8B480D00E0EB6
:10E160003318D8A405D0000E2E6E010E2D6E77D078
:10E170000C0E3318D8A42DD0010EE1EC63F0C30EC1
:10E18000276ECD0EE82EFED7272EFCD700F03D0ED1
:10E190000D6EFE0E0E6E25C00FF026C010F0C5EC01
:10E1A0006CF0C00EE1EC63F0000E306E000E2F6ECE
:10E1B000000E356E000E346E000E376E000E366E99
:10E1C000000E396E000E386E000E3B6E000E3A6E79
:10E1D000BAD73050B8E1040E2F5CD8B0B4D7030ED4
:10E1E0003318D8B404D0070E3318D8A413D0335042
:10E1F000010D340EF324F66EFD0EF420F76E0800C8
:10E20000F550EBEC63F03350276E286A1AD02F4A92
:10E21000302A99D70B0E3318D8A495D73350010D57
:10E22000340EF324F66EFD0EF420F76E0800F55060
:10E23000EBEC63F03350276E286A010E2726000EA0
:10E240002822D8902F34D96E3034DA6E340ED92685
:10E25000000EDA2227C0DEFF28C0DDFFD8D72D044C
:10E260002E10D8A404D0000E326E640E99D10C0E7C
:10E2700034183510D8A410D036503710D8A40CD08C
:10E2800038503910D8A408D03A503B10D8A404D044
:10E29000000E326E0C0E84D1030E34183510D8A443
:10E2A00010D036503710D8A40CD038503910D8A41C
:10E2B00008D03A503B10D8A404D0000E326E030EA2
:10E2C0006FD1070E34183510D8A410D0365037103F
:10E2D000D8A40CD038503910D8A408D03A503B10EC
:10E2E000D8A404D0000E326E070E5AD1030E341893
:10E2F0003510D8A411D0070E36183710D8A40CD07A
:10E3000038503910D8A408D03A503B10D8A404D0C3
:10E31000000E326E0A0E44D1030E34183510D8A404
:10E3200011D00C0E36183710D8A40CD03850391034
:10E33000D8A408D03A503B10D8A404D0000E326EB6
:10E340000F0E2ED1070E34183510D8A411D00C0E94
:10E3500036183710D8A40CD038503910D8A408D0AB
:10E360003A503B10D8A404D0000E326E130E18D1D0
:10E37000030E34183510D8A412D0030E36183710F7
:10E38000D8A40DD0070E38183910D8A408D03A50A8
:10E390003B10D8A404D0000E326E0D0E01D1030E36
:10E3A00034183510D8A412D0030E36183710D8A45C
:10E3B0000DD00C0E38183910D8A408D03A503B10A4
:10E3C000D8A404D0000E326E120EEAD0030E341818
:10E3D0003510D8A412D0070E36183710D8A40DD097
:10E3E000070E38183910D8A408D03A503B10D8A4DA
:10E3F00004D0000E326E110ED3D0030E3418351037
:10E40000D8A412D00C0E36183710D8A40DD00C0E8C
:10E4100038183910D8A408D03A503B10D8A404D0EA
:10E42000000E326E1B0EBCD0030E34183510D8A46B
:10E4300012D0070E36183710D8A40DD00C0E38188D
:10E440003910D8A408D03A503B10D8A404D0000EFC
:10E45000326E160EA5D0070E34183510D8A412D07F
:10E46000070E36183710D8A40DD00C0E38183910F6
:10E47000D8A408D03A503B10D8A404D0000E326E75
:10E480001A0E8ED0070E34183510D8A412D00C0EE8
:10E4900036183710D8A40DD00C0E38183910D8A45F
:10E4A00008D03A503B10D8A404D0000E326E1F0E94
:10E4B00077D0030E34183510D8A413D0030E3618B5
:10E4C0003710D8A40ED0070E38183910D8A409D0A8
:10E4D0000C0E3A183B10D8A404D0000E326E190E60
:10E4E0005FD0030E34183510D8A413D0070E361899
:10E4F0003710D8A40ED0070E38183910D8A409D078
:10E500000C0E3A183B10D8A404D0000E326E1D0E2B
:10E5100047D0030E34183510D8A413D0070E361880
:10E520003710D8A40ED00C0E38183910D8A409D042
:10E530000C0E3A183B10D8A404D0000E326E220EF6
:10E540002FD0030E34183510D8A413D00C0E361863
:10E550003710D8A40ED00C0E38183910D8A409D012
:10E560000C0E3A183B10D8A404D0000E326E270EC1
:10E5700017D0070E34183510D8A414D00C0E361846
:10E580003710D8A40FD00C0E38183910D8A40AD0E0
:10E590000C0E3A183B10D8A405D0000E326E2B0E8C
:10E5A000316E2AD0010EE1EC63F0C30E276ECD0E62
:10E5B000E82EFED7272EFCD700F0120E0D6EFF0EB0
:10E5C0000E6EC5EC6CF0C00EE1EC63F09E0E0D6EAD
:10E5D000FF0E0E6EC5EC6CF0330E286EBB0E276E70
:10E5E000E00EE82EFED7272EFCD7282EFAD7000EF5
:10E5F000326E000E316E72D531C025F032C026F079
:10E600001200000E086E000E076E16EF78F003C0C1
:10E61000D9FF04C0DAFFDE04DE10D8A405D0000E56
:10E62000086E010E14EF78F003C0D9FF04C0DAFFC2
:10E63000020EDE18DE10D8A45AEF78F0000E086E35
:10E64000020E14EF78F003C0D9FF04C0DAFFDE0435
:10E65000DE10D8A405D0000E086E030E14EF78F07B
:10E6600003C0D9FF04C0DAFF020EDE18DE10D8A402
:10E670005AEF78F0000E086E040E14EF78F003C025
:10E68000D9FF04C0DAFFDE04DE10D8A405D0000EE6
:10E69000086E050E14EF78F003C0D9FF04C0DAFF4E
:10E6A000020EDE18DE10D8A405D0000E086E060E8D
:10E6B00014EF78F003C0D9FF04C0DAFF030EDE18B0
:10E6C000DE10D8A45AEF78F0000E086E070E14EF93
:10E6D00078F003C0D9FF04C0DAFFDE04DE10D8A44E
:10E6E0000FD020EE02F00350D9260450DA22DE04C7
:10E6F000DE10D8A405D0000E086E080E14EF78F0D6
:10E7000003C0D9FF04C0DAFFDE04DE10D8A410D0A5
:10E7100020EE02F00350D9260450DA22020EDE1851
:10E72000DE10D8A405D0000E086E090E14EF78F0A4
:10E7300003C0D9FF04C0DAFF020EDE18DE10D8A431
:10E740000FD020EE02F00350D9260450DA22DE0466
:10E75000DE10D8A405D0000E086E0A0E14EF78F073
:10E7600003C0D9FF04C0DAFF020EDE18DE10D8A401
:10E770005AEF78F020EE02F00350D9260450DA2246
:10E78000020EDE18DE10D8A45AEF78F0000E086EE4
:10E790000B0E14EF78F003C0D9FF04C0DAFFDE04DB
:10E7A000DE10D8A40FD020EE02F00350D92604507A
:10E7B000DA22DE04DE10D8A405D0000E086E0C0E9E
:10E7C00014EF78F003C0D9FF04C0DAFFDE04DE10D6
:10E7D000D8A410D020EE02F00350D9260450DA223B
:10E7E000020EDE18DE10D8A405D0000E086E0D0E45
:10E7F00014EF78F003C0D9FF04C0DAFFDE04DE10A6
:10E80000D8A410D020EE02F00350D9260450DA220A
:10E81000030EDE18DE10D8A405D0000E086E0E0E12
:10E8200014EF78F003C0D9FF04C0DAFF020EDE183F
:10E83000DE10D8A40ED020EE02F00350D9260450EA
:10E84000DA22DE04DE10D8A404D0000E086E0F0E0B
:10E85000EBD303C0D9FF04C0DAFF020EDE18DE10CE
:10E86000D8A45AEF78F020EE02F00350D9260450D5
:10E87000DA22020EDE18DE10D8A45AEF78F0000E6D
:10E88000086E100ED1D303C0D9FF04C0DAFFDE0436
:10E89000DE10D8A40ED020EE02F00350D92604508A
:10E8A000DA22DE04DE10D8A404D0000E086E110EA9
:10E8B000BBD303C0D9FF04C0DAFFDE04DE10D8A446
:10E8C0000FD020EE02F00350D9260450DA22020EB7
:10E8D000DE18DE10D8A404D0000E086E120EA4D3E9
:10E8E00003C0D9FF04C0DAFFDE04DE10D8A40FD0C5
:10E8F00020EE02F00350D9260450DA22030EDE186F
:10E90000DE10D8A404D0000E086E130E8DD303C001
:10E91000D9FF04C0DAFF020EDE18DE10D8A40ED034
:10E9200020EE02F00350D9260450DA22DE04DE1075
:10E93000D8A404D0000E086E140E76D303C0D9FFFD
:10E9400004C0DAFF020EDE18DE10D8A4B3D320EE26
:10E9500002F00350D9260450DA22020EDE18DE102F
:10E96000D8A4A8D3000E086E150E5ED303C0D9FF3D
:10E9700004C0DAFFDE04DE10D8A418D020EE02F0C6
:10E980000350D9260450DA22DE04DE10D8A40ED0BB
:10E9900020EE04F00350D9260450DA22DE04DE1003
:10E9A000D8A404D0000E086E160E3ED303C0D9FFC3
:10E9B00004C0DAFFDE04DE10D8A47CD320EE02F01F
:10E9C0000350D9260450DA22DE04DE10D8A472D314
:10E9D00020EE04F00350D9260450DA22020EDE188D
:10E9E000DE10D8A467D3000E086E170E1DD303C027
:10E9F000D9FF04C0DAFFDE04DE10D8A418D020EE60
:10EA000002F00350D9260450DA22DE04DE10D8A426
:10EA10000ED020EE04F00350D9260450DA22DE0492
:10EA2000DE10D8A404D0000E086E180EFDD203C06C
:10EA3000D9FF04C0DAFFDE04DE10D8A43BD320EEF9
:10EA400002F00350D9260450DA22DE04DE10D8A4E6
:10EA500031D320EE04F00350D9260450DA22020EFE
:10EA6000DE18DE10D8A426D3000E086E190EDCD2F4
:10EA700003C0D9FF04C0DAFFDE04DE10D8A418D02A
:10EA800020EE02F00350D9260450DA22DE04DE1014
:10EA9000D8A40ED020EE04F00350D9260450DA2278
:10EAA000DE04DE10D8A404D0000E086E1A0EBCD20C
:10EAB00003C0D9FF04C0DAFF020EDE18DE10D8A4AE
:10EAC000F9D220EE02F00350D9260450DA22DE04F7
:10EAD000DE10D8A4EFD220EE04F00350D926045063
:10EAE000DA22DE04DE10D8A4E5D2000E086E1B0E7A
:10EAF0009BD203C0D9FF04C0DAFFDE04DE10D8A425
:10EB000018D020EE02F00350D9260450DA22DE0499
:10EB1000DE10D8A40ED020EE04F00350D926045005
:10EB2000DA22DE04DE10D8A404D0000E086E1C0E1B
:10EB30007BD203C0D9FF04C0DAFFDE04DE10D8A404
:10EB400019D020EE02F00350D9260450DA22DE0458
:10EB5000DE10D8A40FD020EE04F00350D9260450C4
:10EB6000DA22020EDE18DE10D8A404D0000E086EE1
:10EB70001D0E5AD203C0D9FF04C0DAFFDE04DE1036
:10EB8000D8A419D020EE02F00350D9260450DA227E
:10EB9000020EDE18DE10D8A40ED020EE04F00350D2
:10EBA000D9260450DA22DE04DE10D8A404D0000EE8
:10EBB000086E1E0E39D203C0D9FF04C0DAFF020E60
:10EBC000DE18DE10D8A476D220EE02F00350D9264B
:10EBD0000450DA22DE04DE10D8A46CD220EE04F059
:10EBE0000350D9260450DA22DE04DE10D8A462D203
:10EBF000000E086E1F0E18D203C0D9FF04C0DAFF42
:10EC0000DE04DE10D8A418D020EE02F00350D9267E
:10EC10000450DA22DE04DE10D8A40ED020EE04F078
:10EC20000350D9260450DA22DE04DE10D8A404D022
:10EC3000000E086E200EF8D103C0D9FF04C0DAFF21
:10EC4000DE04DE10D8A419D020EE02F00350D9263D
:10EC50000450DA22DE04DE10D8A40FD020EE04F037
:10EC60000350D9260450DA22020EDE18DE10D8A492
:10EC700004D0000E086E210ED7D103C0D9FF04C006
:10EC8000DAFFDE04DE10D8A419D020EE02F0035023
:10EC9000D9260450DA22020EDE18DE10D8A40ED0D7
:10ECA00020EE04F00350D9260450DA22DE04DE10F0
:10ECB000D8A404D0000E086E220EB6D103C0D9FF2E
:10ECC00004C0DAFF020EDE18DE10D8A4F3D120EE65
:10ECD00002F00350D9260450DA22DE04DE10D8A454
:10ECE000E9D120EE04F00350D9260450DA22DE04E4
:10ECF000DE10D8A4DFD1000E086E230E95D103C01C
:10ED0000D9FF04C0DAFFDE04DE10D8A418D020EE4C
:10ED100002F00350D9260450DA22DE04DE10D8A413
:10ED20000ED020EE04F00350D9260450DA22DE047F
:10ED3000DE10D8A404D0000E086E240E75D103C0D6
:10ED4000D9FF04C0DAFFDE04DE10D8A4B3D120EE70
:10ED500002F00350D9260450DA22DE04DE10D8A4D3
:10ED6000A9D120EE04F00350D9260450DA22020E75
:10ED7000DE18DE10D8A49ED1000E086E250E54D1E8
:10ED800003C0D9FF04C0DAFFDE04DE10D8A418D017
:10ED900020EE02F00350D9260450DA22DE04DE1001
:10EDA000D8A40ED020EE04F00350D9260450DA2265
:10EDB000DE04DE10D8A404D0000E086E260E34D176
:10EDC00003C0D9FF04C0DAFFDE04DE10D8A419D0D6
:10EDD00020EE02F00350D9260450DA22DE04DE10C1
:10EDE000D8A40FD020EE04F00350D9260450DA2224
:10EDF000020EDE18DE10D8A404D0000E086E270E16
:10EE000013D103C0D9FF04C0DAFFDE04DE10D8A49A
:10EE100019D020EE02F00350D9260450DA22020E57
:10EE2000DE18DE10D8A40ED020EE04F00350D92650
:10EE30000450DA22DE04DE10D8A404D0000E086EDE
:10EE4000280EF2D003C0D9FF04C0DAFF020EDE188C
:10EE5000DE10D8A42FD120EE02F00350D9260450A2
:10EE6000DA22DE04DE10D8A425D120EE04F003500F
:10EE7000D9260450DA22DE04DE10D8A41BD1000EFD
:10EE8000086E290ED1D003C0D9FF04C0DAFFDE041A
:10EE9000DE10D8A40FD120EE02F00350D926045082
:10EEA000DA22DE04DE10D8A405D120EE04F00350EF
:10EEB000D9260450DA22DE04DE10D8A4FBD020EEDE
:10EEC00006F00350D9260450DA22DE04DE10D8A45E
:10EED000F1D0000E086E2A0EA7D003C0D9FF04C0DF
:10EEE000DAFFDE04DE10D8A4E5D020EE02F00350F5
:10EEF000D9260450DA22DE04DE10D8A4DBD020EEBE
:10EF000004F00350D9260450DA22DE04DE10D8A41F
:10EF1000D1D020EE06F00350D9260450DA22DE04C8
:10EF2000DE10D8A4C7D0000E086E2B0E7DD003C013
:10EF3000D9FF04C0DAFFDE04DE10D8A4BBD020EE77
:10EF400002F00350D9260450DA22DE04DE10D8A4E1
:10EF5000B1D020EE04F00350D9260450DA22DE04AA
:10EF6000DE10D8A4A7D020EE06F00350D926045016
:10EF7000DA22DE04DE10D8A49DD0000E086E2C0E1E
:10EF800053D003C0D9FF04C0DAFFDE04DE10D8A4DA
:10EF900091D020EE02F00350D9260450DA22DE048C
:10EFA000DE10D8A487D020EE04F00350D9260450F8
:10EFB000DA22DE04DE10D8A47DD020EE06F0035065
:10EFC000D9260450DA22DE04DE10D8A473D0000E55
:10EFD000086E2D0E29D003C0D9FF04C0DAFFDE046D
:10EFE000DE10D8A467D020EE02F00350D9260450DA
:10EFF000DA22DE04DE10D8A45DD020EE04F0035047
:10F00000D9260450DA22DE04DE10D8A453D020EE34
:10F0100006F00350D9260450DA22DE04DE10D8A40C
:10F0200049D0000E086E2E0E076E44D001C005F0C8
:10F0300002C006F00650000AD8A43CD00550030ACE
:10F04000D8B407EF73F0040AD8B423EF73F00D0AB5
:10F05000D8B469EF73F0060AD8B43FEF73F0010A31
:10F06000D8B484D4020AD8B4CBEF73F01E0AD8B453
:10F07000FFD4030AD8B4BBD4010AD8B404D4050A17
:10F08000D8B4BAD50F0AD8B4FED6030AD8B437D646
:10F09000010AD8B42ED5060AD8B41FD7020AD8B4AC
:10F0A0006FD63D0AD8B443D7050AD8B46AD70C0A3C
:10F0B000D8B491D707C001F008C002F0120021EEC9
:10F0C00040F010EEC0F00F0EDBCFE3FFE806FCE2ED
:10F0D00021EE30F010EE80F00F0EDBCFE3FFE806FC
:10F0E000FCE221EE20F010EE90F00F0EDBCFE3FFFC
:10F0F000E806FCE221EE10F010EEA0F00F0EDBCFE0
:10F10000E3FFE806FCE221EE00F010EEB0F00F0E97
:10F11000DBCFE3FFE806FCE2000E0001F36F000E18
:10F12000F26F000EF56F000EF46F000EE46F000E2C
:10F13000E36F000EE66F000EE56F000ED86F000E55
:10F14000D76F000EF16F000EF06F000EED6F000E26
:10F15000EC6F000EEF6F000EEE6F000EE96F000E09
:10F16000EB6F000EEA6F000EDD6F000EDC6F000E1D
:10F17000DF6F000EDE6F000EE16F000EE06F000E1D
:10F18000E86F000EE76F3EEC64F0010EE1EC63F017
:10F19000C30E546ECD0EE82EFED7542EFCD700F0D1
:10F1A0000C0EE1EC63F0E90E0D6EFF0E0E6EC5EC79
:10F1B0006CF0660E556E760E546EC10EE82EFED7BC
:10F1C000542EFCD7552EFAD700F0010EE1EC63F077
:10F1D000C30E546ECD0EE82EFED7542EFCD700F091
:10F1E000CB0E0D6EFD0E0E6EC5EC6CF0C00EE1EC9C
:10F1F00063F0980E0D6EFD0E0E6EC5EC6CF081A2E4
:10F20000FED7010EE1EC63F0C30E546ECD0EE82E76
:10F21000FED7542EFCD700F00C0EE1EC63F05D0E2F
:10F220000D6EFE0E0E6EC5EC6CF0C00EE1EC63F0E0
:10F23000ED0E0D6EFD0E0E6EC5EC6CF0330E556EC0
:10F24000BB0E546EE00EE82EFED7542EFCD7552E82
:10F25000FAD7020E016EFA0E51EC64F0120E016E36
:10F26000000E51EC64F0020E016E010E51EC64F0E0
:10F270001C0E016E020E51EC64F05B0E016E030E6B
:10F2800051EC64F0030E016E040E51EC64F00F0EAD
:10F29000016E050E51EC64F0080E016E060E51EC85
:10F2A00064F00C0E016E070E51EC64F0010E016E5D
:10F2B000080E51EC64F00D0E016E090E51EC64F075
:10F2C000000E016E0A0E51EC64F04EEC66F0A00EDA
:10F2D0000E6E860E0F6E010E106E000E116E20EC7B
:10F2E00065F0CBEC63F0000E036ED10E026ED3EC32
:10F2F00063F0000E0001E86F000EE76FE85112E1C5
:10F30000060EE75DD8B00ED0D00EE725D96E000E00
:10F31000E821DA6E000E19EC64F0DF6E0001E74BB5
:10F32000E82BECD7010E19EC64F00001D66FCFEC9E
:10F3300063F0010EE1EC63F0C30E546ECD0EE82EC7
:10F34000FED7542EFCD700F0700E0D6EFF0E0E6E21
:10F35000C5EC6CF0C00EE1EC63F0B40E0D6EFF0E68
:10F360000E6EC5EC6CF0660E556E760E546EC10EC8
:10F37000E82EFED7542EFCD7552EFAD700F0010EFA
:10F38000E1EC63F0C30E546ECD0EE82EFED7542E82
:10F39000FCD700F0D70E0D6EFE0E0E6ED6C00FF02D
:10F3A000106AD5C011F0126AD4C013F0146AC5EC0B
:10F3B0006CF0C00EE1EC63F0E60E0D6EFE0E0E6E0C
:10F3C000D2C00FF0106AD1C011F0126AD0C013F091
:10F3D000146AC5EC6CF0660E556E760E546EC10E56
:10F3E000E82EFED7542EFCD7552EFAD700F0010E8A
:10F3F000E1EC63F0C30E546ECD0EE82EFED7542E12
:10F40000FCD700F0A90E0D6EFF0E0E6EC5EC6CF071
:10F41000C00EE1EC63F07D0E0D6EFF0E0E6EC5ECBE
:10F420006CF0660E556E760E546EC10EE82EFED749
:10F43000542EFCD7552EFAD700F0010EE1EC63F004
:10F44000C30E546ECD0EE82EFED7542EFCD700F01E
:10F450002E0E0D6EFF0E0E6EC5EC6CF0C00EE1ECC4
:10F4600063F0980E0D6EFD0E0E6EC5EC6CF081A271
:10F47000FED781380F0B0F0B0001DB6F81B2FED777
:10F480000F0E0001DB19D8A4BBD3D705D811D8A41F
:10F49000B6D1F35104E1080EF25DD8A02AD0010ED6
:10F4A000E1EC63F0C30E546ECD0EE82EFED7542E61
:10F4B000FCD700F00C0EE1EC63F0560E0D6EFF0E63
:10F4C0000E6EC5EC6CF0C00EE1EC63F0870E0D6EB5
:10F4D000FD0E0E6EC5EC6CF0660E556E760E546E1B
:10F4E000C10EE82EFED7542EFCD7552EFAD700F0C9
:10F4F000E2D2010EE1EC63F0C30E546ECD0EE82EA5
:10F50000FED7542EFCD700F00C0EE1EC63F04D0E4C
:10F510000D6EFE0E0E6EC5EC6CF0C00EE1EC63F0ED
:10F520006D0E0D6EFE0E0E6EC5EC6CF081A2FED758
:10F5300081380F0B0F0B0001E26F81B2FED70F0E67
:10F540000001E219D8A454D1010EE1EC63F0C30E1E
:10F55000546ECD0EE82EFED7542EFCD700F050ECA2
:10F560006AF025C0F0F026C0F1F0640E0001F01939
:10F57000F111D8A405D0000EF16F000EF06FB9D7CD
:10F58000000EF56F000EF46FF5512CE1080EF45DDE
:10F59000D8B028D0D890F435D96EF535DA6EC00ED3
:10F5A000D926000EDA22F051DE1819E1F151DE18E9
:10F5B000D8A415D0000EE46F010EE36FD890F43597
:10F5C000D96EF535DA6EC00ED926000EDA22DE507D
:10F5D000DE10D8A404D0000EE66F010EE56FF44BE8
:10F5E000F52BD2D7E305E411D8A462D0E505E611E6
:10F5F000D8A42FD0010EE1EC63F0C30E546ECD0EF3
:10F60000E82EFED7542EFCD700F00C0EE1EC63F090
:10F61000BE0E0D6EFF0E0E6EC5EC6CF0C00EE1EC72
:10F6200063F0FD0E0D6EFD0E0E6EC5EC6CF0660EF9
:10F63000556E760E546EC10EE82EFED7542EFCD7B2
:10F64000552EFAD700F0000E0001E66F000EE56FB0
:10F6500029D0010EE1EC63F0C30E546ECD0EE82EFE
:10F66000FED7542EFCD700F00C0EE1EC63F0F50E43
:10F670000D6EFE0E0E6EC5EC6CF0C00EE1EC63F08C
:10F68000D10E0D6EFF0E0E6EC5EC6CF0660E556E53
:10F69000760E546EC10EE82EFED7542EFCD7552E92
:10F6A000FAD700F0000E0001E46F000EE36FF1D610
:10F6B000010EE1EC63F0C30E546ECD0EE82EFED7C2
:10F6C000542EFCD700F0F0C025F0F1C026F06EEC0F
:10F6D00070F025C0ECF026C0EDF0640E0001EC19CE
:10F6E000ED11D8A405D0000EED6F000EEC6F2CD7F5
:10F6F000ECC025F0EDC026F0F0C027F0F1C028F0F6
:10F7000056EC69F025C0EEF026C0EFF0640E000163
:10F71000EE19EF11D8A409D0000EED6F000EEC6FBA
:10F72000000EEF6F000EEE6FC3D7D890F235D96E92
:10F73000F335DA6EC00ED926000EDA22F0C0DEFFF5
:10F74000F1C0DDFFD890F235D96EF335DA6EB00E28
:10F75000D926000EDA22ECC0DEFFEDC0DDFFEEC0E0
:10F7600001F0EFC002F053EC68F001C0DCF002C021
:10F77000DDF0EEC001F0EFC002F0DBEC67F001C09D
:10F78000DEF002C0DFF0EEC001F0EFC002F0CBEC23
:10F7900068F001C0E0F002C0E1F0D8900001F2355D
:10F7A000D96EF335DA6E800ED926000EDA22DCC06F
:10F7B000DEFFDDC0DDFFD890F235D96EF335DA6EAD
:10F7C000900ED926000EDA22DEC0DEFFDFC0DDFF9C
:10F7D000D890F235D96EF335DA6EA00ED926000E28
:10F7E000DA22E0C0DEFFE1C0DDFFF24BF32B04D0F4
:10F7F0000E0EE219D8B45FD1000EE26F4AD6010EA8
:10F80000E1EC63F0C30E546ECD0EE82EFED7542EFD
:10F81000FCD700F050EC6AF025C0F0F026C0F1F003
:10F82000640E0001F019F111D8A409D0000EF16F97
:10F83000000EF06F000ED86F010ED76F5AD6000E73
:10F84000D86F010ED76F000EF56F000EF46FF551F3
:10F850002CE1080EF45DD8B028D0D890F435D96EDC
:10F86000F535DA6EC00ED926000EDA22F051DE1818
:10F8700019E1F151DE18D8A415D0000EE46F010E85
:10F88000E36FD890F435D96EF535DA6EC00ED9260F
:10F89000000EDA22DE50DE10D8A404D0000EE66F8F
:10F8A000010EE56FF44BF52BD2D7E305E411D8A494
:10F8B00062D0E505E611D8A42FD0010EE1EC63F08B
:10F8C000C30E546ECD0EE82EFED7542EFCD700F09A
:10F8D0000C0EE1EC63F0BE0E0D6EFF0E0E6EC5EC6D
:10F8E0006CF0C00EE1EC63F0FD0E0D6EFD0E0E6EC1
:10F8F000C5EC6CF0660E556E760E546EC10EE82E99
:10F90000FED7542EFCD7552EFAD700F0000E00017A
:10F91000E66F000EE56F29D0010EE1EC63F0C30E37
:10F92000546ECD0EE82EFED7542EFCD700F00C0EF0
:10F93000E1EC63F0F50E0D6EFE0E0E6EC5EC6CF094
:10F94000C00EE1EC63F0D10E0D6EFF0E0E6EC5EC35
:10F950006CF0660E556E760E546EC10EE82EFED714
:10F96000542EFCD7552EFAD700F0000E0001E46F9C
:10F97000000EE36F8AD5010EE1EC63F0C30E546E06
:10F98000CD0EE82EFED7542EFCD700F0F0C025F0A7
:10F99000F1C026F06EEC70F025C0ECF026C0EDF062
:10F9A000640E0001EC19ED11D8A405D0000EED6F26
:10F9B000000EEC6F24D7ECC025F0EDC026F0F0C0AF
:10F9C00027F0F1C028F056EC69F025C0EEF026C013
:10F9D000EFF0640E0001EE19EF11D8A409D0000E6B
:10F9E000ED6F000EEC6F000EEF6F000EEE6FC3D7E1
:10F9F000D890F235D96EF335DA6EC00ED926000EE6
:10FA0000DA22F0C0DEFFF1C0DDFFD890F235D96E0A
:10FA1000F335DA6EB00ED926000EDA22ECC0DEFF26
:10FA2000EDC0DDFFEEC001F0EFC002F053EC68F076
:10FA300001C0DCF002C0DDF0EEC001F0EFC002F06A
:10FA4000DBEC67F001C0DEF002C0DFF0EEC001F0D9
:10FA5000EFC002F0CBEC68F001C0E0F002C0E1F0D2
:10FA6000D8900001F235D96EF335DA6E800ED926C2
:10FA7000000EDA22DCC0DEFFDDC0DDFFD890F235FB
:10FA8000D96EF335DA6E900ED926000EDA22DEC07A
:10FA9000DEFFDFC0DDFFD890F235D96EF335DA6EC8
:10FAA000A00ED926000EDA22E0C0DEFFE1C0DDFFA5
:10FAB000F24BF32BEAD40001F251F311D8A405D094
:10FAC000000E536E000E526E1200FA0EF5EC63F04B
:10FAD0000001E96F040EE919D8B44EEC66F0000E8F
:10FAE0000001F56F000EF46FF55105E1080EF45DAD
:10FAF000D8B081D001D07FD0E951D8B404D0040E61
:10FB0000E919D8A40FD0F4C001F0F5C002F0000E3E
:10FB1000046E050E036E2BEC64F001C0EAF002C027
:10FB2000EBF013D0F4C001F0F5C002F0000E046E4B
:10FB3000050E036E2BEC64F00001E951330D01500A
:10FB4000F324EA6F0250F420EB6FD8900001F435F3
:10FB5000D96EF535DA6EC00ED926000EDA22DF50E6
:10FB6000016EEA510B0F51EC64F0D8900001F435AE
:10FB7000D96EF535DA6EB00ED926000EDA22DF50D6
:10FB8000016EEA510C0F51EC64F0D8900001F4358D
:10FB9000D96EF535DA6E800ED926000EDA22DF50E6
:10FBA000016EEA510D0F51EC64F0D8900001F4356C
:10FBB000D96EF535DA6E900ED926000EDA22DF50B6
:10FBC000016EEA510E0F51EC64F0D8900001F4354B
:10FBD000D96EF535DA6EA00ED926000EDA22DF5086
:10FBE000016EEA510F0F51EC64F00001F44BF52B5C
:10FBF000F55101E17BD7000E536E010E526E1200DB
:10FC00000E0EDB19D8A45FD052EC6BF046C0D9F0D1
:10FC100047C0DAF00F0E0001D919DA11D8B4F4D7C1
:10FC20000E0ED919DA11D8A420D0010EE1EC63F040
:10FC3000C30E546ECD0EE82EFED7542EFCD700F026
:10FC40000C0EE1EC63F0930E0D6EFF0E0E6EC5EC24
:10FC50006CF0660E556E760E546EC10EE82EFED711
:10FC6000542EFCD7552EFAD728D0010EE1EC63F0C4
:10FC7000C30E546ECD0EE82EFED7542EFCD700F0E6
:10FC80000C0EE1EC63F03C0E0D6EFF0E0E6EC5EC3B
:10FC90006CF0C00EE1EC63F0930E0D6EFF0E0E6E75
:10FCA000C5EC6CF0660E556E760E546EC10EE82EE5
:10FCB000FED7542EFCD7552EFAD700F0000E536E07
:10FCC000000E526E1200010EE1EC63F0C30E546E92
:10FCD000CD0EE82EFED7542EFCD700F00C0EE1EC32
:10FCE00063F03C0E0D6EFF0E0E6EC5EC6CF0C00E98
:10FCF000E1EC63F0930E0D6EFF0E0E6EC5EC6CF032
:10FD0000660E556E760E546EC10EE82EFED7542E3A
:10FD1000FCD7552EFAD700F0000E536E000E526E2F
:10FD20001200003132334134353642373839432AF4
:10FD30003023440031323352343536463738394C6B
:10FD40002A3023440001000A006400E80310270160
:10FD50000010000001001000280006240218000115
:10FD60000210022852656D61696E696E67207069C4
:10FD7000656365733A00303132333435363738399C
:10FD80006162636465660064726177657273207294
:10FD90006561636865642100626567696E206F70E4
:10FDA00065726174696F6E2E00506C6561736520B9
:10FDB000696E707574206C6F6700523A2569202057
:10FDC000463A256920204C3A2569005072657373C4
:10FDD00020616E79206B657920746F002569207031
:10FDE000726576696F7573206C6F6773006361620B
:10FDF000696E657420736F7274657221006E756D23
:10FE000062657220707265737365642E004472615E
:10FE100077657220256920666F6F643A004F7065C0
:10FE2000726174696F6E2074696D653A004D61721C
:10FE30006B656420647261776572733A0044726125
:10FE400077657220256920646965743A00416E6F98
:10FE500074686572206472617765723F0057656CE3
:10FE6000636F6D6520746F20796F75720023203D7C
:10FE7000204E6F2C2044203D205965730044726150
:10FE800077657220313A20524631320044726177F0
:10FE90006572206E756D6265723A00496E70757498
:10FEA0002053756D6D6172793A00312070726576FC
:10FEB000696F7573206C6F670025692C2025692C8C
:10FEC0002025692C20256900253032692F25303204
:10FED000692F2530326900253032782F253032786D
:10FEE0002F2530327800253032783A253032783A72
:10FEF000253032780044726177657220616C7265DA
:10FF000061647900496E76616C696420666F6F6424
:10FF10002100496E76616C69642064696574210012
:10FF20006D6F766520666F72776172642E006F72F6
:10FF3000207072657373204420746F00496E76617F
:10FF40006C6964206B657921004472617765722069
:10FF5000323A204C31004D6178696D756D206F66C5
:10FF6000203800416E6F74686572206C6F673F00C7
:10FF700043757272656E742064617465007669659C
:10FF800077206C6F67732C00617661696C61626CBD
:10FF9000652E005265626F6F74696E672E00547231
:10FFA0007920616761696E2E00507265737320233A
:10FFB00020746F00616E642074696D653A004E6F45
:10FFC00020647261776572006E756D6265723A20A9
:10FFD00000696E20757365210025693A2530326904
:10FFE000004E6F206C6F6773005374616E646279AA
:0FFFF0000047726561742100446174653A000036
:020000040020DA
:08000000FFFFFFFFFFFFFFFF00
:020000040030CA
:0E000000FF061F1EFF8381FF0F400FE00F4021
:00000001FF
