:04000000E2EF6BF0D0
:10D78800036E8C940350CAEC6CF0C80E00D0E82EDF
:10D79800FDD71200036E8C840350CAEC6CF0C80EDF
:10D7A80000D0E82EFDD71200016EA6B2FED701C048
:10D7B800A9FFA69EA69CA680A850120000EE5DF0C8
:10D7C800220EEE6AE806FDE1000EF86E000115EF84
:10D7D8006CF001500302F3CF05F0F4CF06F00150CE
:10D7E8000402F350062602500302F350062605C031
:10D7F80001F006C002F01200026EA6B2FED7A6849F
:10D8080002C0A9FF01C0A8FFA69EA69CF29E550EC5
:10D81800A76EAA0EA76EA682F28EA6B2FED7A6940F
:10D828001200000E896E000E8A6E000E8B6E000EBE
:10D838008C6E000E8D6E92689368000E946E000ECA
:10D84800956E000E966E000EC26E0F0EC16E52ECF3
:10D858006CF06EEC7AF000EF00F00A500B10D8B4C0
:10D8680018D0010E0C6E04D0D8900A360B360C2A4C
:10D878000BAEFAD70A50085C0B500958D8A004D050
:10D888000A50085E0B50095AD8900B320A320C2EF7
:10D89800F1D708C008F009C009F01200C30E046EE1
:10D8A800CD0EE82EFED7042EFCD700F0330EC4ECC4
:10D8B8006BF0320EC4EC6BF0280EC4EC6BF00F0E5C
:10D8C800C4EC6BF0060EC4EC6BF0010EC4EC6BF00C
:10D8D800C30E046ECD0EE82EFED7042EFCD700F042
:10D8E8000F0EC4EC6BF01200000E066E000E056EF3
:10D8F80003500410D8B41CD0010E076E04D0D89081
:10D9080003360436072A04AEFAD7D8900536063609
:10D918000350015C04500258D8A005D00350015EA2
:10D928000450025A0580D89004320332072EEDD7EE
:10D9380005C001F006C002F01200056E000E096E67
:10D94800000E086E000E076E000E066E000E096EC1
:10D95800000E086E0DD00850011808E10950021891
:10D96800D8A404D0000E076E010E066E084A092AD4
:10D978000550036E046A0350085C04500958D8A087
:10D98800EAD706C001F007C002F01200026E02508A
:10D99800F00B016E8C500F0B8C6E01508C108C6E3E
:10D9A800000EF2BE010E7D6EF29E8C86530EE82E9E
:10D9B800FED700F08C96C80E00D0E82EFDD77DB0BB
:10D9C80002D0F29E01D0F28E0238F00B026E0250A5
:10D9D800F00B016E8C500F0B8C6E01508C108C6EFE
:10D9E800000EF2BE010E7D6EF29E8C86530EE82E5E
:10D9F800FED700F08C96C80E00D0E82EFDD77DB07B
:10DA080002D0F29E01D0F28E1200000E066E000EB9
:10DA1800056E15D0000E066E010E056E50D0000E74
:10DA2800066E020EFAD7000E066E030EF6D7000E2B
:10DA3800066E040EF2D7000E066E000EEED701C079
:10DA480003F002C004F00450000AD8A4F4D703502D
:10DA5800030AD8B4DFD7040AD8B4DCD70D0AD8B47F
:10DA6800DED7060AD8B4D6D7010AD8B4DCD7020A5A
:10DA7800D8B4D5D71E0AD8B4D6D7030AD8B4D3D7C2
:10DA8800010AD8B4CCD7050AD8B4CDD70F0AD8B470
:10DA9800CED7030AD8B4C7D7010AD8B4C4D7060A60
:10DAA800D8B4C5D7020AD8B4BED73D0AD8B4BFD7B0
:10DAB800050AD8B4BCD70C0AD8B4B9D7BCD705C0A6
:10DAC80001F006C002F012003AD0000E066E010EF8
:10DAD8002FD0000E066E020E2BD0000E066E030E1F
:10DAE80027D0000E066E070E23D0000E066E080E15
:10DAF8001FD0000E066E090E1BD0000E066E0A0E11
:10DB080017D0000E066E0B0E13D0000E066E0C0E0C
:10DB18000FD0000E066E0D0E0BD0000E066E0E0E08
:10DB280007D0000E066E0F0E03D0000E066E100E04
:10DB3800056E36D001C005F002C006F031D001C034
:10DB480003F002C004F00450000AD8A4F3D703502D
:10DB5800010AD8B4BED7030AD8B4BFD70A0AD8B4C2
:10DB6800C0D7010AD8B4C1D7030AD8B4C2D71E0A8D
:10DB7800D8B4ABD7010AD8B4C8D7030AD8B4C9D720
:10DB88000E0AD8B4CAD7010AD8B4CBD7030AD8B476
:10DB9800CCD73B0AD8B4B1D7090AD8B4B2D7CAD7B8
:10DBA80005C001F006C002F012000F0E186E000E3C
:10DBB800196E7DD0250E1E18D8B404D01E50CEEC98
:10DBC8006BF075D0000E1A6E0DC0F6FF0EC0F7FF91
:10DBD8000D4A0E2A0800F5CF1EF01E50000AD8B4D0
:10DBE8001200640AD8B403D00D0AD8A460D018C0B3
:10DBF800D9FF19C0DAFFDECF1CF0DDCF1DF0020E11
:10DC08001826000E19221DAE06D0030E1A121C6C1F
:10DC18001D1ED8B01D2A010E1E6E050E1E18D8B482
:10DC280012D01E50020D9B0EF324F66EFD0EF4204A
:10DC3800F76E0900F5501C5C0900F5501D58D8A076
:10DC480002D01E2AEAD71AC017F0030E1716D8B446
:10DC580003D02D0ECEEC6BF01EC01BF024D01B5051
:10DC6800020D9B0EF324F66EFD0EF420F76E0900EC
:10DC7800F5CF03F00A00F5CF04F01CC001F01DC079
:10DC880002F078EC6CF001C008F002C009F0000E58
:10DC98000B6E0A0E0A6E31EC6CF00850300F1E6ED7
:10DCA8001E50CEEC6BF01B061B28D8A4D8D70DC08D
:10DCB800F6FF0EC0F7FF0D4A0E2A0800F5CF1EF03A
:10DCC8001E50D8B4120076D7010EC4EC6BF0C30E08
:10DCD800236ECD0EE82EFED7232EFCD700F0430E80
:10DCE8000D6EFE0E0E6E21C00FF022C010F0D9ECA2
:10DCF8006DF0C00EC4EC6BF0000E266E000E256EA3
:10DD0800000E2C6E000E2B6E20EE75F010EE2DF02E
:10DD1800070EDBCFE3FFE806FCE2000E2A6E000EDA
:10DD2800296E000E286E000E276E1FC001F020C05D
:10DD380002F009EC6DF001C025F002C026F081A2C6
:10DD4800FED781380F0B0F0B356E81B2FED70F0E41
:10DD58003518D8B46DD00E0E3518D8A405D0000EDD
:10DD6800286E010E276E64D03550D8B407D035041C
:10DD7800D8B404D0020E3518D8A429D025502B5C6D
:10DD880026502C58D8B0DBD73550010D8A0EF32415
:10DD9800F66EFD0EF420F76E0800F550CEEC6BF031
:10DDA8003550236E246A010E2326000E2422D890B3
:10DDB8002B34D96E2C34DA6E2D0ED926000EDA22C9
:10DDC80023C0DEFF24C0DDFF2B4A2C2AB8D70C0E57
:10DDD8003518D8A4B4D7010EC4EC6BF0C30E236E6B
:10DDE800CD0EE82EFED7232EFCD700F0430E0D6E85
:10DDF800FE0E0E6E21C00FF022C010F0D9EC6DF0AF
:10DE0800C00EC4EC6BF0000E2C6E000E2B6E000ED4
:10DE18002E6E000E2D6E000E306E000E2F6E000E50
:10DE2800326E000E316E000E346E000E336E87D7E0
:10DE380027042810D8A405D0000E206E640E1F6E8B
:10DE480012001FC001F020C002F02D0E036E000E5C
:10DE5800046E55EC76F001C029F002C02AF0295072
:10DE68002A10D8A426D0010EC4EC6BF0C30E236E82
:10DE7800CD0EE82EFED7232EFCD700F01D0E0D6E1A
:10DE8800FF0E0E6ED9EC6DF0C00EC4EC6BF0AA0E4E
:10DE98000D6EFF0E0E6ED9EC6DF0330E246EBB0EB8
:10DEA800236EE00EE82EFED7232EFCD7242EFAD7B9
:10DEB8000BD729C01FF02AC020F012000C0EC4ECAA
:10DEC8006BF0010EC4EC6BF0C30E216ECD0EE82E84
:10DED800FED7212EFCD700F0E10E0D6EFE0E0E6E61
:10DEE800D9EC6DF0C00EC4EC6BF0000E296E000E7C
:10DEF800286E000E256E000E246E000E276E000E92
:10DF0800266E81A2FED781380F0B0F0B2A6E81B2C5
:10DF1800FED70F0E2A18D8B4BAD00E0E2A18D8A4D5
:10DF280005D0000E276E640E266EB1D02A50D8B4E4
:10DF380023D02A04D8B420D0020E2A18D8B41CD072
:10DF4800040E2A18D8B418D0050E2A18D8B414D03C
:10DF5800060E2A18D8B410D0080E2A18D8B40CD037
:10DF6800090E2A18D8B408D00A0E2A18D8B404D032
:10DF78000D0E2A18D8A46AD028502910D8A446D043
:10DF88002A04D8B41CD0020E2A18D8B418D0040E0B
:10DF98002A18D8B414D0050E2A18D8B410D0060EF2
:10DFA8002A18D8B40CD0080E2A18D8B408D0090EEC
:10DFB8002A18D8B404D00A0E2A18D8A411D0020EF0
:10DFC8002826000E29222A50010D8A0EF324F66E07
:10DFD800FD0EF420F76E0800F550CEEC6BF034D04F
:10DFE8002A50D8A48ED72A50010D8A0EF324F66E33
:10DFF800FD0EF420F76E0800F550CEEC6BF0284AC1
:10E00800292A20D02426000E25227BD7280429106F
:10E01800D8A477D7070E2A6404D00D0E2A18D8A4DE
:10E0280070D72A50010D8A0EF324F66EFD0EF420E7
:10E03800F76E0800F550CEEC6BF0284A292A2A50D2
:10E04800D8A402D0140EDED72A50DCD70C0E2A181A
:10E05800D8A457D7010EC4EC6BF0C30E216ECD0EB9
:10E06800E82EFED7212EFCD700F0E10E0D6EFE0E35
:10E078000E6ED9EC6DF0C00EC4EC6BF0000E296E7C
:10E08800000E286E000E256E000E246E3AD7640E20
:10E0980026182710D8A405D026C01FF027C020F0C6
:10E0A800120024C001F025C002F068EC6DF001C038
:10E0B80022F002C023F022C01FF023C020F012007B
:10E0C800FA0ED8EC6BF0446E000E3F6E000E3E6EFA
:10E0D800000E416E000E406E000E436E000E426E42
:10E0E8004450D8A42BD0010EC4EC6BF0C30E3C6E88
:10E0F800CD0EE82EFED73C2EFCD700F0DB0E0D6EC1
:10E10800FF0E0E6ED9EC6DF0C00EC4EC6BF0940EE1
:10E118000D6EFF0E0E6ED9EC6DF0660E3D6E760E2E
:10E128003C6EC10EE82EFED73C2EFCD73D2EFAD70A
:10E1380000F0000E3B6E0E0E3A6E12004404D8A496
:10E1480053D0000E3F6E010E3E6E010EC4EC6BF014
:10E15800C30E3C6ECD0EE82EFED73C2EFCD700F049
:10E16800F00E0D6EFE0E0E6ED9EC6DF0C00EC4EC06
:10E178006BF0940E0D6EFF0E0E6ED9EC6DF0660E00
:10E188003D6E760E3C6EC10EE82EFED73C2EFCD7B7
:10E198003D2EFAD700F0010EC4EC6BF0C30E3C6EB6
:10E1A800CD0EE82EFED73C2EFCD700F0010E0D6EEA
:10E1B800FE0E0E6ED9EC6DF0C00EC4EC6BF0390E8D
:10E1C8000D6EFF0E0E6ED9EC6DF01A0E3D6E5E0EE2
:10E1D8003C6E6E0EE82EFED73C2EFCD73D2EFAD7AD
:10E1E80000D081B2C6D0FDD7010EC4EC6BF0C30ECF
:10E1F8003C6ECD0EE82EFED73C2EFCD700F0120E5A
:10E208000D6EFE0E0E6E44C00FF0106AD9EC6DF064
:10E21800C00EC4EC6BF0940E0D6EFF0E0E6ED9ECB2
:10E228006DF0660E3D6E760E3C6EC10EE82EFED782
:10E238003C2EFCD73D2EFAD700F0010EC4EC6BF053
:10E24800C30E3C6ECD0EE82EFED73C2EFCD700F058
:10E25800DF0E0D6EFD0E0E6ED9EC6DF0C00EC4EC27
:10E268006BF0CA0E0D6EFF0E0E6ED9EC6DF081A22A
:10E27800FED781380F0B0F0B456E81B2FED7455084
:10E28800D8B40BD04504D8B408D0020E4518D8B479
:10E2980004D0040E4518D8A4EAD745C001F0026A94
:10E2A8004450A1EC6CF001C040F002C041F04004C1
:10E2B8004110D8A4DCD74550010D790EF324F66E31
:10E2C800FD0EF420F76E0800F550CEEC6BF045C05B
:10E2D8003EF03F6A330E3D6EBB0E3C6EE00EE82EFC
:10E2E800FED73C2EFCD73D2EFAD7010EC4EC6BF0BE
:10E2F800C30E3C6ECD0EE82EFED73C2EFCD700F0A8
:10E30800EB0E0D6EFF0E0E6ED9EC6DF0330E3D6EFA
:10E31800BB0E3C6EE00EE82EFED73C2EFCD73D2E01
:10E32800FAD7010EC4EC6BF0C30E3C6ECD0EE82E8E
:10E33800FED73C2EFCD700F0010E0D6EFE0E0E6EC1
:10E34800D9EC6DF0C00EC4EC6BF0390E0D6EFF0EFB
:10E358000E6ED9EC6DF01A0E3D6E5E0E3C6E6E0EB2
:10E36800E82EFED73C2EFCD73D2EFAD700D081A24E
:10E37800FED744C01FF0206ACBEC71F01FC042F0FA
:10E3880020C043F042C03AF043C03BF01200FF0EF9
:10E398001F24016EFF0E2020026E000E046E360E42
:10E3A800036EEDEC6BF001C038F002C039F0385064
:10E3B800030FD8EC6BF0216E21502A6E2B6A38506F
:10E3C800040FD8EC6BF0216E2150236E246A38506C
:10E3D800050FD8EC6BF0216E2150256E266A385057
:10E3E800060FD8EC6BF0216E2150276E286A385042
:10E3F800070FD8EC6BF0216E2150306E316A38501F
:10E40800080FD8EC6BF0216E2150326E336A385009
:10E41800090FD8EC6BF0216E2150346E356A3850F4
:10E428000A0FD8EC6BF0216E2150366E376A2AC07D
:10E4380001F02BC002F0000E046E3C0E036E78EC67
:10E448006CF001C02CF002C02DF02AC008F02BC0DF
:10E4580009F0000E0B6E3C0E0A6E31EC6CF008C031
:10E468002EF009C02FF0010EC4EC6BF0C30E216E24
:10E47800CD0EE82EFED7212EFCD700F0530E0D6EE0
:10E48800FE0E0E6ED9EC6DF0C00EC4EC6BF02E5083
:10E498002F10D8A41AD0F20E0D6EFF0E0E6E2CC0DF
:10E4A8000FF02DC010F02EC011F02FC012F0D9ECD3
:10E4B8006DF01A0E226E5E0E216E6E0EE82EFED7DD
:10E4C800212EFCD7222EFAD719D0F90E0D6EFF0E89
:10E4D8000E6E2CC00FF02DC010F02EC011F02FC002
:10E4E80012F0D9EC6DF01A0E226E5E0E216E6E0ED1
:10E4F800E82EFED7212EFCD7222EFAD700D081A2F3
:10E50800FED7010EC4EC6BF0C30E216ECD0EE82EC3
:10E51800FED7212EFCD700F0630E0D6EFE0E0E6E98
:10E52800D9EC6DF0C00EC4EC6BF036503710D8A49F
:10E538001ED034503510D8A41AD032503310D8A475
:10E5480016D00B0E0D6EFF0E0E6E30C00FF031C0E0
:10E5580010F0D9EC6DF01A0E226E5E0E216E6E0E62
:10E56800E82EFED7212EFCD7222EFAD765D03650BA
:10E578003710D8A41ED034503510D8A41AD0070E9E
:10E588000D6EFF0E0E6E30C00FF031C010F032C0AD
:10E5980011F033C012F0D9EC6DF01A0E226E5E0E37
:10E5A800216E6E0EE82EFED7212EFCD7222EFAD72A
:10E5B80043D036503710D8A41ED0030E0D6EFF0E70
:10E5C8000E6E30C00FF031C010F032C011F033C001
:10E5D80012F034C013F035C014F0D9EC6DF01A0EF7
:10E5E800226E5E0E216E6E0EE82EFED7212EFCD70F
:10E5F800222EFAD721D0FF0E0D6EFE0E0E6E30C001
:10E608000FF031C010F032C011F033C012F034C036
:10E6180013F035C014F036C015F037C016F0D9EC39
:10E628006DF01A0E226E5E0E216E6E0EE82EFED76B
:10E63800212EFCD7222EFAD700D081A2FED7010EB8
:10E64800C4EC6BF0C30E216ECD0EE82EFED7212E42
:10E65800FCD700F0AB0E0D6EFD0E0E6ED9EC6DF012
:10E66800C00EC4EC6BF0F00E0D6EFD0E0E6E23C0E6
:10E678000FF024C010F025C011F026C012F027C0FA
:10E6880013F028C014F0D9EC6DF01A0E226E5E0E4D
:10E69800216E6E0EE82EFED7212EFCD7222EFAD739
:10E6A80000D081A2FED7010EC4EC6BF0C30E216E20
:10E6B800CD0EE82EFED7212EFCD700F0830E0D6E6E
:10E6C800FE0E0E6ED9EC6DF01A0E226E5E0E216EE5
:10E6D8006E0EE82EFED7212EFCD7222EFAD700D0B8
:10E6E80081A2FED7010EC4EC6BF0C30E216ECD0ED5
:10E6F800E82EFED7212EFCD700F0D20E0D6EFE0EAE
:10E708000E6ED9EC6DF0C00EC4EC6BF0620E0D6E9F
:10E71800FF0E0E6ED9EC6DF0660E226E760E216E2F
:10E72800C10EE82EFED7212EFCD7222EFAD700F0F4
:10E73800010EC4EC6BF0C30E216ECD0EE82EFED791
:10E74800212EFCD700F07C0E0D6EFF0E0E6ED9EC5C
:10E758006DF0C00EC4EC6BF0B30E0D6EFE0E0E6EB7
:10E76800D9EC6DF081A2FED781380F0B0F0B296E03
:10E7780081B2FED729C01FF0206A1200010EC4EC36
:10E788006BF0C30E216ECD0EE82EFED7212EFCD7DE
:10E7980000F0730E0D6EFE0E0E6E1FC00FF020C03F
:10E7A80010F0D9EC6DF0C00EC4EC6BF0000E2A6EC0
:10E7B800000E296E000E246E000E236E000E2C6EC5
:10E7C800000E2B6E000E266E000E256E20EE6DF0EC
:10E7D80010EE2EF0070EDBCFE3FFE806FCE2000E9A
:10E7E800286E000E276E81A2FED781380F0B0F0B03
:10E7F8002D6E81B2FED70F0E2D18D8B480D00E0E14
:10E808002D18D8A405D0000E286E010E276E77D0DB
:10E818000C0E2D18D8A42DD0010EC4EC6BF0C30E2D
:10E82800216ECD0EE82EFED7212EFCD700F0730EF8
:10E838000D6EFE0E0E6E1FC00FF020C010F0D9EC4A
:10E848006DF0C00EC4EC6BF0000E2A6E000E296E3F
:10E85800000E2F6E000E2E6E000E316E000E306E02
:10E86800000E336E000E326E000E356E000E346EE2
:10E87800BAD72A50B8E1040E295CD8B0B4D7030E31
:10E888002D18D8B404D0070E2D18D8A413D02D50A5
:10E89800010D8A0EF324F66EFD0EF420F76E0800C3
:10E8A800F550CEEC6BF02D50216E226A1AD0294A11
:10E8B8002A2A99D70B0E2D18D8A495D72D50010DBB
:10E8C8008A0EF324F66EFD0EF420F76E0800F5505C
:10E8D800CEEC6BF02D50216E226A010E2126000E1F
:10E8E8002222D8902934D96E2A34DA6E2E0ED926EF
:10E8F800000EDA2221C0DEFF22C0DDFFD8D72704B0
:10E908002810D8A404D0000E2C6E640E99D10C0ED9
:10E918002E182F10D8A410D030503110D8A40CD0F5
:10E9280032503310D8A408D034503510D8A404D0AD
:10E93800000E2C6E0C0E84D1030E2E182F10D8A4A6
:10E9480010D030503110D8A40CD032503310D8A485
:10E9580008D034503510D8A404D0000E2C6E030E05
:10E968006FD1070E2E182F10D8A410D030503110A8
:10E97800D8A40CD032503310D8A408D03450351055
:10E98800D8A404D0000E2C6E070E5AD1030E2E18F0
:10E998002F10D8A411D0070E30183110D8A40CD0DD
:10E9A80032503310D8A408D034503510D8A404D02D
:10E9B800000E2C6E0A0E44D1030E2E182F10D8A468
:10E9C80011D00C0E30183110D8A40CD0325033109E
:10E9D800D8A408D034503510D8A404D0000E2C6E1A
:10E9E8000F0E2ED1070E2E182F10D8A411D00C0EF2
:10E9F80030183110D8A40CD032503310D8A408D015
:10EA080034503510D8A404D0000E2C6E130E18D133
:10EA1800030E2E182F10D8A412D0030E3018311060
:10EA2800D8A40DD0070E32183310D8A408D034500B
:10EA38003510D8A404D0000E2C6E0D0E01D1030E93
:10EA48002E182F10D8A412D0030E30183110D8A4C5
:10EA58000DD00C0E32183310D8A408D0345035100D
:10EA6800D8A404D0000E2C6E120EEAD0030E2E1875
:10EA78002F10D8A412D0070E30183110D8A40DD0FA
:10EA8800070E32183310D8A408D034503510D8A443
:10EA980004D0000E2C6E110ED3D0030E2E182F109A
:10EAA800D8A412D00C0E30183110D8A40DD00C0EEA
:10EAB80032183310D8A408D034503510D8A404D054
:10EAC800000E2C6E1B0EBCD0030E2E182F10D8A4CF
:10EAD80012D0070E30183110D8A40DD00C0E3218F1
:10EAE8003310D8A408D034503510D8A404D0000E60
:10EAF8002C6E160EA5D0070E2E182F10D8A412D0E3
:10EB0800070E30183110D8A40DD00C0E321833105F
:10EB1800D8A408D034503510D8A404D0000E2C6ED8
:10EB28001A0E8ED0070E2E182F10D8A412D00C0E45
:10EB380030183110D8A40DD00C0E32183310D8A4C8
:10EB480008D034503510D8A404D0000E2C6E1F0EF7
:10EB580077D0030E2E182F10D8A413D0030E301818
:10EB68003110D8A40ED0070E32183310D8A409D00B
:10EB78000C0E34183510D8A404D0000E2C6E190EC3
:10EB88005FD0030E2E182F10D8A413D0070E3018FC
:10EB98003110D8A40ED0070E32183310D8A409D0DB
:10EBA8000C0E34183510D8A404D0000E2C6E1D0E8F
:10EBB80047D0030E2E182F10D8A413D0070E3018E4
:10EBC8003110D8A40ED00C0E32183310D8A409D0A6
:10EBD8000C0E34183510D8A404D0000E2C6E220E5A
:10EBE8002FD0030E2E182F10D8A413D00C0E3018C7
:10EBF8003110D8A40ED00C0E32183310D8A409D076
:10EC08000C0E34183510D8A404D0000E2C6E270E24
:10EC180017D0070E2E182F10D8A414D00C0E3018A9
:10EC28003110D8A40FD00C0E32183310D8A40AD043
:10EC38000C0E34183510D8A405D0000E2C6E2B0EEF
:10EC48002B6E2AD0010EC4EC6BF0C30E216ECD0ED4
:10EC5800E82EFED7212EFCD700F02B0E0D6EFF0EEE
:10EC68000E6ED9EC6DF0C00EC4EC6BF0AA0E0D6EF2
:10EC7800FF0E0E6ED9EC6DF0330E226EBB0E216EB8
:10EC8800E00EE82EFED7212EFCD7222EFAD7000E52
:10EC98002C6E000E2B6E72D52BC01FF02CC020F0EE
:10ECA8001200000E086E000E076ED0D303C0D9FF05
:10ECB80004C0DAFFDE04DE10D8B409D003C0D9FFDF
:10ECC80004C0DAFF020EDE18DE10D8A4FED3000E50
:10ECD800086E010EB9D303C0D9FF04C0DAFFDE0401
:10ECE800DE10D8B409D003C0D9FF04C0DAFF020E81
:10ECF800DE18DE10D8A4E9D3000E086E020EA4D3E5
:10ED080003C0D9FF04C0DAFFDE04DE10D8B412D085
:10ED180003C0D9FF04C0DAFF020EDE18DE10D8B433
:10ED280009D003C0D9FF04C0DAFF030EDE18DE10D5
:10ED3800D8A4CBD3000E086E030E86D303C0D9FF28
:10ED480004C0DAFF030EDE18DE10D8B4BED320EEFE
:10ED580002F00350D9260450DA22030EDE18DE1022
:10ED6800D8B4B3D303C0D9FF04C0DAFFDE50DE1035
:10ED7800D8B4ABD320EE02F00350D9260450DA22DF
:10ED8800DE50DE10D8B4A1D3000E086E040E5CD39A
:10ED980020EE02F00350D9260450DA22030EDE18C2
:10EDA800DE10D8A40CD003C0D9FF04C0DAFFDE04FB
:10EDB800DE10D8A48AD3000E086E050E45D303C012
:10EDC800D9FF04C0DAFF030EDE18DE10D8B47DD3F5
:10EDD80003C0D9FF04C0DAFFDE50DE10D8B475D303
:10EDE800000E086E060E30D320EE02F00350D9262E
:10EDF8000450DA22030EDE18DE10D8A40CD003C0AB
:10EE0800D9FF04C0DAFFDE04DE10D8A45ED3000EFA
:10EE1800086E070E19D303C0D9FF04C0DAFF030E2A
:10EE2800DE18DE10D8B451D303C0D9FF04C0DAFF0E
:10EE3800DE50DE10D8B449D3000E086E080E04D395
:10EE480003C0D9FF04C0DAFFDE04DE10D8A43DD326
:10EE580020EE02F00350D9260450DA22DE04DE1038
:10EE6800D8A433D320EE04F00350D9260450DA2274
:10EE7800DE04DE10D8B40BD020EE04F00350D926FF
:10EE88000450DA22020EDE18DE10D8A41ED3000EBB
:10EE9800086E090ED9D203C0D9FF04C0DAFFDE0418
:10EEA800DE10D8A412D320EE02F00350D926045065
:10EEB800DA22DE04DE10D8A408D320EE04F00350D2
:10EEC800D9260450DA22DE04DE10D8B40BD020EEA6
:10EED80004F00350D9260450DA22020EDE18DE10A0
:10EEE800D8A4F3D2000E086E0A0EAED220EE02F0BD
:10EEF8000350D9260450DA22DE04DE10D8A4E5D265
:10EF080020EE04F00350D9260450DA22DE04DE1085
:10EF1800D8A4DBD203C0D9FF04C0DAFFDE04DE10B8
:10EF2800D8B409D003C0D9FF04C0DAFF020EDE1836
:10EF3800DE10D8A4CAD2000E086E0B0E85D203C00C
:10EF4800D9FF04C0DAFFDE04DE10D8A418D020EE02
:10EF580002F00350D9260450DA22DE04DE10D8A4C9
:10EF68000ED020EE04F00350D9260450DA22DE0435
:10EF7800DE10D8A404D0000E086E0C0E65D203C0B3
:10EF8800D9FF04C0DAFF020EDE18DE10D8A418D0AC
:10EF980020EE02F00350D9260450DA22DE04DE10F7
:10EFA800D8A40ED020EE04F00350D9260450DA225B
:10EFB800DE04DE10D8A404D0000E086E0D0E44D274
:10EFC80003C0D9FF04C0DAFFDE04DE10D8A419D0CC
:10EFD80020EE02F00350D9260450DA22020EDE1881
:10EFE800DE10D8A40ED020EE04F00350D926045029
:10EFF800DA22DE04DE10D8A404D0000E086E0E0E4D
:10F0080023D203C0D9FF04C0DAFFDE04DE10D8A47F
:10F018005CD220EE02F00350D9260450DA22DE0436
:10F02800DE10D8A452D220EE04F00350D9260450A2
:10F03800DA22020EDE18DE10D8A447D2000E086EBF
:10F048000F0E02D203C0D9FF04C0DAFFDE04DE10BF
:10F05800D8A418D020EE02F00350D9260450DA22A2
:10F06800DE04DE10D8A40ED020EE04F00350D9261A
:10F078000450DA22DE04DE10D8A404D0000E086E94
:10F08800100EE2D103C0D9FF04C0DAFF020EDE1869
:10F09800DE10D8A418D020EE02F00350D926045070
:10F0A800DA22DE04DE10D8A40ED020EE04F00350DD
:10F0B800D9260450DA22DE04DE10D8A404D0000ECB
:10F0C800086E110EC1D103C0D9FF04C0DAFFDE04F7
:10F0D800DE10D8A419D020EE02F00350D92604502F
:10F0E800DA22020EDE18DE10D8A40ED020EE04F0CC
:10F0F8000350D9260450DA22DE04DE10D8A404D046
:10F10800000E086E120EA0D103C0D9FF04C0DAFFAA
:10F11800DE04DE10D8A4D9D120EE02F00350D9269F
:10F128000450DA22DE04DE10D8A4CFD120EE04F099
:10F138000350D9260450DA22020EDE18DE10D8A4B5
:10F14800C4D1000E086E130E7FD103C0D9FF04C0CE
:10F15800DAFFDE04DE10D8A4B8D120EE02F00350A6
:10F16800D9260450DA22DE04DE10D8A4AED120EE6F
:10F1780004F00350D9260450DA22DE04DE10D8B495
:10F188000BD020EE04F00350D9260450DA22020EE8
:10F19800DE18DE10D8A499D1000E086E140E54D1D2
:10F1A80003C0D9FF04C0DAFFDE04DE10D8A418D0EB
:10F1B80020EE02F00350D9260450DA22DE04DE10D5
:10F1C800D8A40ED020EE04F00350D9260450DA2239
:10F1D800DE04DE10D8A404D0000E086E150E34D15B
:10F1E80003C0D9FF04C0DAFF020EDE18DE10D8A46F
:10F1F80018D020EE02F00350D9260450DA22DE049B
:10F20800DE10D8A40ED020EE04F00350D926045006
:10F21800DA22DE04DE10D8A404D0000E086E160E22
:10F2280013D103C0D9FF04C0DAFFDE04DE10D8A46E
:10F2380019D020EE02F00350D9260450DA22020E2B
:10F24800DE18DE10D8A40ED020EE04F00350D92624
:10F258000450DA22DE04DE10D8A404D0000E086EB2
:10F26800170EF2D003C0D9FF04C0DAFFDE04DE10A7
:10F27800D8A42BD120EE02F00350D9260450DA226C
:10F28800DE04DE10D8A421D120EE04F00350D926E4
:10F298000450DA22020EDE18DE10D8A416D1000EB1
:10F2A800086E180ED1D003C0D9FF04C0DAFFDE04FF
:10F2B800DE10D8A40AD120EE02F00350D92604505B
:10F2C800DA22DE04DE10D8A400D120EE04F00350C8
:10F2D800D9260450DA22DE04DE10D8A4F6D020EEB7
:10F2E80006F00350D9260450DA22DE04DE10D8A432
:10F2F800ECD0000E086E190EA7D003C0D9FF04C0C9
:10F30800DAFFDE04DE10D8A4E0D020EE02F00350CD
:10F31800D9260450DA22DE04DE10D8A4D6D020EE96
:10F3280004F00350D9260450DA22DE04DE10D8A4F3
:10F33800CCD020EE06F00350D9260450DA22DE04A1
:10F34800DE10D8A4C2D0000E086E1A0E7DD003C0FD
:10F35800D9FF04C0DAFFDE04DE10D8A4B6D020EE50
:10F3680002F00350D9260450DA22DE04DE10D8A4B5
:10F37800ACD020EE04F00350D9260450DA22DE0483
:10F38800DE10D8A4A2D020EE06F00350D9260450EF
:10F39800DA22DE04DE10D8A498D0000E086E1B0E08
:10F3A80053D003C0D9FF04C0DAFFDE04DE10D8A4AE
:10F3B8008CD020EE02F00350D9260450DA22DE0465
:10F3C800DE10D8A482D020EE04F00350D9260450D1
:10F3D800DA22DE04DE10D8A478D020EE06F003503E
:10F3E800D9260450DA22DE04DE10D8A46ED0000E2E
:10F3F800086E1C0E29D003C0D9FF04C0DAFFDE0452
:10F40800DE10D8A462D020EE02F00350D9260450B2
:10F41800DA22DE04DE10D8A458D020EE04F003501F
:10F42800D9260450DA22DE04DE10D8A44ED020EE0D
:10F4380006F00350D9260450DA22DE04DE10D8A4E0
:10F4480044D0000E086E1D0E076E3FD001C005F0B7
:10F4580002C006F00650000AD8A437D00550030AA7
:10F46800D8B424D4040AD8B436D40D0AD8B466D48F
:10F47800060AD8B445D4010AD8B4E2D4020AD8B4EA
:10F4880087D41E0AD8B432D5030AD8B404D5010AE1
:10F49800D8B4AAD4050AD8B4D5D50F0AD8B403D796
:10F4A800030AD8B452D6010AD8B449D5060AD8B442
:10F4B80024D7020AD8B474D63D0AD8B448D7050A66
:10F4C800D8B46FD70C0AD8B496D707C001F008C0D3
:10F4D80002F01200010EC4EC6BF0C30E466ECD0EA6
:10F4E800E82EFED7462EFCD700F00C0EC4EC6BF0CD
:10F4F800E30E0D6EFF0E0E6ED9EC6DF0660E476EC4
:10F50800760E466EC10EE82EFED7462EFCD7472E45
:10F51800FAD700F0010EC4EC6BF0C30E466ECD0EA8
:10F52800E82EFED7462EFCD700F0010E0D6EFE0E1B
:10F538000E6ED9EC6DF0C00EC4EC6BF0CE0E0D6EF5
:10F54800FD0E0E6ED9EC6DF081A2FED7010E016E94
:10F55800FA0E00EC6CF05B0E016E030E00EC6CF022
:10F56800030E016E040E00EC6CF00F0E016E050E1A
:10F5780000EC6CF0080E016E060E00EC6CF00C0E40
:10F58800016E070E00EC6CF0010E016E080E00EC27
:10F598006CF00D0E016E090E00EC6CF0000E016EA1
:10F5A8000A0E00EC6CF0010E016E000E00EC6CF01F
:10F5B800000ED8EC6BF04D6E010EC4EC6BF0C30E70
:10F5C800466ECD0EE82EFED7462EFCD700F0C30EB1
:10F5D8000D6EFE0E0E6ED9EC6DF04D50010D8A0EBB
:10F5E800F324F66EFD0EF420F76E0800F550CEEC0D
:10F5F8006BF0660E476E760E466EC10EE82EFED78D
:10F60800462EFCD7472EFAD700F0030E016E000EE7
:10F6180000EC6CF0000ED8EC6BF04D6E010EC4ECF3
:10F628006BF0C30E466ECD0EE82EFED7462EFCD7E5
:10F6380000F0C30E0D6EFE0E0E6ED9EC6DF04D503F
:10F64800010D8A0EF324F66EFD0EF420F76E080005
:10F65800F550CEEC6BF0660E476E760E466EC10E18
:10F66800E82EFED7462EFCD7472EFAD700F0010E1B
:10F67800C4EC6BF0C30E466ECD0EE82EFED7462EB8
:10F68800FCD700F00C0EC4EC6BF0A30E0D6EFE0E52
:10F698000E6ED9EC6DF0C00EC4EC6BF0230E0D6E3F
:10F6A800FE0E0E6ED9EC6DF0660E476E760E466E47
:10F6B800C10EE82EFED7462EFCD7472EFAD700F00B
:10F6C800010EC4EC6BF0C30E466ECD0EE82EFED7CD
:10F6D800462EFCD700F0B50E0D6EFF0E0E6ED9EC5F
:10F6E8006DF0C00EC4EC6BF0890E0D6EFF0E0E6E41
:10F6F800D9EC6DF0660E476E760E466EC10EE82E9A
:10F70800FED7462EFCD7472EFAD700F0010EC4ECE0
:10F718006BF0C30E466ECD0EE82EFED7462EFCD7F4
:10F7280000F0470E0D6EFF0E0E6ED9EC6DF0C00E98
:10F73800C4EC6BF0CE0E0D6EFD0E0E6ED9EC6DF0B6
:10F7480081A2FED781380F0B0F0B4C6E81B2FED70A
:10F758000F0E4C18D8A484D2000E566E000E556EAB
:10F76800000E5A6E000E596E000E506E000E4F6E4F
:10F77800000E526E000E516E000E496E000E486E5D
:10F78800000E5C6E000E5B6E000E586E000E576E1B
:10F79800000E546E000E536E48044910D8A45CD174
:10F7A800565004E1080E555CD8A02AD0010EC4ECCE
:10F7B8006BF0C30E466ECD0EE82EFED7462EFCD754
:10F7C80000F00C0EC4EC6BF06F0E0D6EFF0E0E6E9B
:10F7D800D9EC6DF0C00EC4EC6BF0BD0E0D6EFD0ED5
:10F7E8000E6ED9EC6DF0660E476E760E466EC10E43
:10F7F800E82EFED7462EFCD7472EFAD700F0120087
:10F80800010EC4EC6BF0C30E466ECD0EE82EFED78B
:10F81800462EFCD700F00C0EC4EC6BF0930E0D6E68
:10F82800FE0E0E6ED9EC6DF0C00EC4EC6BF0B30E8C
:10F838000D6EFE0E0E6ED9EC6DF081A2FED78138EA
:10F848000F0B0F0B4E6E81B2FED70F0E4E18D8A4B9
:10F85800FCD0010EC4EC6BF0C30E466ECD0EE82E44
:10F86800FED7462EFCD700F062EC6FF01FC05BF0AD
:10F8780020C05CF0640E5B185C10D8A405D0000EA4
:10F888005C6E000E5B6EBCD7000E5A6E000E596E91
:10F898005A502CE1080E595CD8B028D0D890593469
:10F8A800D96E5A34DA6E5D0ED926000EDA225B5014
:10F8B800DE1819E15C50DE18D8A415D0000E506E81
:10F8C800010E4F6ED8905934D96E5A34DA6E5D0EE7
:10F8D800D926000EDA22DE50DE10D8A404D0000E9D
:10F8E800526E010E516E594A5A2AD2D74F045010FF
:10F8F800D8A460D051045210D8A42ED0010EC4EC64
:10F908006BF0C30E466ECD0EE82EFED7462EFCD702
:10F9180000F00C0EC4EC6BF0C00E0D6EFF0E0E6EF8
:10F92800D9EC6DF0C00EC4EC6BF0330E0D6EFE0E0C
:10F938000E6ED9EC6DF0660E476E760E466EC10EF1
:10F94800E82EFED7462EFCD7472EFAD700F0000E39
:10F95800526E000E516E29D0010EC4EC6BF0C30E2E
:10F96800466ECD0EE82EFED7462EFCD700F00C0EC4
:10F97800C4EC6BF00E0E0D6EFF0E0E6ED9EC6DF032
:10F98800C00EC4EC6BF0D30E0D6EFF0E0E6ED9ECEC
:10F998006DF0660E476E760E466EC10EE82EFED7E7
:10F9A800462EFCD7472EFAD700F0000E506E000EF8
:10F9B8004F6EF6D6010EC4EC6BF0C30E466ECD0E3C
:10F9C800E82EFED7462EFCD700F05BC01FF05CC0C7
:10F9D80020F0C2EC73F01FC057F020C058F0640E3E
:10F9E80057185810D8A405D0000E586E000E576E40
:10F9F80030D757C01FF058C020F05BC021F05CC062
:10FA080022F068EC6EF01FC053F020C054F0640E72
:10FA180053185410D8A409D0000E586E000E576E13
:10FA2800000E546E000E536EC5D7D8905534D96E5B
:10FA38005634DA6E5D0ED926000EDA225BC0DEFF80
:10FA48005CC0DDFF554A562A04D00E0E4E18D8B4B5
:10FA58001200000E4E6EA4D6010EC4EC6BF0C30E5D
:10FA6800466ECD0EE82EFED7462EFCD700F062EC8F
:10FA78006FF01FC05BF020C05CF0640E5B185C1078
:10FA8800D8A409D0000E5C6E000E5B6E000E496EA5
:10FA9800010E486EB5D6000E496E010E486E000E76
:10FAA8005A6E000E596E5A502CE1080E595CD8B0A7
:10FAB80028D0D8905934D96E5A34DA6E5D0ED926CA
:10FAC800000EDA225B50DE1819E15C50DE18D8A46B
:10FAD80015D0000E506E010E4F6ED8905934D96E65
:10FAE8005A34DA6E5D0ED926000EDA22DE50DE10A8
:10FAF800D8A404D0000E526E010E516E594A5A2AEB
:10FB0800D2D74F045010D8A460D051045210D8A4B2
:10FB18002ED0010EC4EC6BF0C30E466ECD0EE82E4F
:10FB2800FED7462EFCD700F00C0EC4EC6BF0C00ECE
:10FB38000D6EFF0E0E6ED9EC6DF0C00EC4EC6BF0BE
:10FB4800330E0D6EFE0E0E6ED9EC6DF0660E476E1E
:10FB5800760E466EC10EE82EFED7462EFCD7472EEF
:10FB6800FAD700F0000E526E000E516E29D0010E29
:10FB7800C4EC6BF0C30E466ECD0EE82EFED7462EB3
:10FB8800FCD700F00C0EC4EC6BF00E0E0D6EFF0EE1
:10FB98000E6ED9EC6DF0C00EC4EC6BF0D30E0D6E8A
:10FBA800FF0E0E6ED9EC6DF0660E476E760E466E41
:10FBB800C10EE82EFED7462EFCD7472EFAD700F006
:10FBC800000E506E000E4F6EE7D5010EC4EC6BF0C0
:10FBD800C30E466ECD0EE82EFED7462EFCD700F09B
:10FBE8005BC01FF05CC020F0C2EC73F01FC057F080
:10FBF80020C058F0640E57185810D8A405D0000E2D
:10FC0800586E000E576E28D757C01FF058C020F006
:10FC18005BC021F05CC022F068EC6EF01FC053F0AE
:10FC280020C054F0640E53185410D8A409D0000E04
:10FC3800586E000E576E000E546E000E536EC5D7E8
:10FC4800D8905534D96E5634DA6E5D0ED926000E2A
:10FC5800DA225BC0DEFF5CC0DDFF554A562A9CD520
:10FC68000E0E4C18D8A45AD064EC70F03AC04AF082
:10FC78003BC04BF00F0E4A184B10D8B4F5D70E0EF8
:10FC88004A184B10D8A420D0010EC4EC6BF0C30E58
:10FC9800466ECD0EE82EFED7462EFCD700F00C0E91
:10FCA800C4EC6BF09F0E0D6EFF0E0E6ED9EC6DF06E
:10FCB800660E476E760E466EC10EE82EFED7462EAD
:10FCC800FCD7472EFAD728D0010EC4EC6BF0C30E30
:10FCD800466ECD0EE82EFED7462EFCD700F00C0E51
:10FCE800C4EC6BF0550E0D6EFF0E0E6ED9EC6DF078
:10FCF800C00EC4EC6BF09F0E0D6EFF0E0E6ED9ECAD
:10FD08006DF0660E476E760E466EC10EE82EFED773
:10FD1800462EFCD7472EFAD700F01200010EC4EC8D
:10FD28006BF0C30E466ECD0EE82EFED7462EFCD7DE
:10FD380000F00C0EC4EC6BF0550E0D6EFF0E0E6E3F
:10FD4800D9EC6DF0C00EC4EC6BF09F0E0D6EFF0E7B
:10FD58000E6ED9EC6DF0660E476E760E466EC10ECD
:10FD6800E82EFED7462EFCD7472EFAD700F0120011
:10FD7800003132334134353642373839432A30235B
:10FD8800440031323352343536463738394C2A300C
:10FD980023440001000A006400E803102700010260
:10FDA80010022852656D61696E696E672070696519
:10FDB8006365733A00647261776572732072656176
:10FDC800636865642100626567696E206F7065729B
:10FDD8006174696F6E2E00506C6561736520696E81
:10FDE800707574206C6F6700523A25692020463A76
:10FDF800256920204C3A256900507265737320618B
:10FE08006E79206B657920746F00256920707265A2
:10FE180076696F7573206C6F677300636162696ED2
:10FE2800657420736F7274657221006E756D6265FA
:10FE38007220707265737365642E00447261776511
:10FE48007220256920666F6F643A004F7065726191
:10FE580074696F6E2074696D653A004D61726B65E7
:10FE68006420647261776572733A004472617765E1
:10FE78007220256920646965743A00447261776567
:10FE8800722053756D6D6172793A00416E6F7468B6
:10FE98006572206472617765723F0057656C636FA5
:10FEA8006D6520746F20796F75720023203D204E98
:10FEB8006F2C2044203D205965730053746F726580
:10FEC800642076616C75653A2000447261776572CA
:10FED80020313A20524631320044726177657220EF
:10FEE8006E756D6265723A00312070726576696F61
:10FEF8007573206C6F670025692C2025692C2025D7
:10FF0800692C2025690044726177657220616C72E2
:10FF18006561647900496E76616C696420666F6F0B
:10FF2800642100496E76616C696420646965742196
:10FF3800006D6F766520666F72776172642E006F50
:10FF480072207072657373204420746F00496E7656
:10FF5800616C6964206B6579210044726177657210
:10FF680020323A204C31004D6178696D756D206FF3
:10FF780066203800416E6F74686572206C6F673F49
:10FF88000076696577206C6F67732C00617661690C
:10FF98006C61626C652E005265626F6F74696E6782
:10FFA8002E0054727920616761696E2E0050726567
:10FFB8007373202320746F004E6F2064726177651D
:10FFC80072006E756D6265723A2000696E207573F5
:10FFD8006521004E6F206C6F6773005374616E6407
:10FFE8006279004772656174210025693A25693094
:08FFF8000025693A25690000AB
:020000040020DA
:08000000FFFFFFFFFFFFFFFF00
:020000040030CA
:0E000000FF061F1EFF8381FF0F400FE00F4021
:00000001FF
