:04000000AAEF61F012
:10C04C00D6003433323136EC60F0C580120036EC59
:10C05C0060F0C584120036EC60F002C0C9FF12001B
:10C06C00C7B4FED7C5CF01F01F0E0116D8B412000D
:10C07C00F7D7036E8C940350DFEC61F0C80E00D040
:10C08C00E82EFDD71200036E8C840350DFEC61F0B8
:10C09C00C80E00D0E82EFDD71200016EA6B2FED756
:10C0AC0001C0A9FFA69EA69CA680A8501200800ED7
:10C0BC000F6E250E106E000E116E000E126E5FECE0
:10C0CC0062F01200036E000E026E3A0E036005D091
:10C0DC002F0E036402D0010E026E02C001F001307B
:10C0EC001200026E36EC60F0C58636EC60F0C9CFFB
:10C0FC0003F036EC60F002B002D0C59A01D0C58ACC
:10C10C00C58803501200000E046E000E036E000E64
:10C11C00046E000E036E0404D8B01200000E016E03
:10C12C000350AFEC60F0034A042AF5D70150030228
:10C13C00F3CF05F0F4CF06F001500402F3500626BD
:10C14C0002500302F350062605C001F006C002F0AF
:10C15C001200026EA6B2FED7A68402C0A9FF01C0CF
:10C16C00A8FFA69EA69CF29E550EA76EAA0EA76EC1
:10C17C00A682F28EA6B2FED7A6941200FDFFE9FFAE
:10C18C00C0FFECFFF4FFBFFFEBFFF3FFE7FFEFFF98
:10C19C00C3FFBEFFC8FFC2FFBDFFC7FFD1FFCCFF6F
:10C1AC00BBFFE5FFFBFFBAFFE4FFFAFFE0FFF7FF81
:10C1BC00B9FFE3FFDFFFDBFFB8FF0A500B10D8B469
:10C1CC0018D0010E0C6E04D0D8900A360B360C2AFF
:10C1DC000BAEFAD70A50085C0B500958D8A004D003
:10C1EC000A50085E0B50095AD8900B320A320C2EAA
:10C1FC00F1D708C008F009C009F01200C30E046E94
:10C20C00CD0EE82EFED7042EFCD700F0330E3FECFB
:10C21C0060F0320E3FEC60F0280E3FEC60F00F0E39
:10C22C003FEC60F0060E3FEC60F0010E3FEC60F06E
:10C23C00C30E046ECD0EE82EFED7042EFCD700F0F4
:10C24C000F0E3FEC60F01200000E066E000E056E35
:10C25C0003500410D8B41CD0010E076E04D0D89033
:10C26C0003360436072A04AEFAD7D89005360636BC
:10C27C000350015C04500258D8A005D00350015E55
:10C28C000450025A0580D89004320332072EEDD7A1
:10C29C0005C001F006C002F01200056E000E096E1A
:10C2AC00000E086E000E076E000E066E000E096E74
:10C2BC00000E086E0DD00850011808E10950021844
:10C2CC00D8A404D0000E076E010E066E084A092A87
:10C2DC000550036E046A0350085C04500958D8A03A
:10C2EC00EAD706C001F007C002F01200C69A948685
:10C2FC009488800EC76E280EC66E000EC56E000E9A
:10C30C00016E5A0E026E620E036E020E046E0EC0A9
:10C31C0012F00FC013F010C014F011C015F0020E83
:10C32C00D8901236133614361536E82EF9D712C0BB
:10C33C0005F013C006F014C007F015C008F01EEC91
:10C34C0062F00104C86E1200880EF66EC10EF76E14
:10C35C00000EF86E00EE80F010EE3EF00900F5CF06
:10C36C00EEFFE550E150FAE14C0EF66EC00EF76EA2
:10C37C00000EF86E00EE75F010EE06F00900F5CF29
:10C38C00EEFFE550E150FAE101EE8AF0600EEE6A44
:10C39C00E806FDE100EEBEF0240EEE6AE806FDE1D3
:10C3AC0000EE68F00D0EEE6AE806FDE10001BDEF4F
:10C3BC0063F0026E0250F00B016E8C500F0B8C6E02
:10C3CC0001508C108C6E000EF2BE010E726EF29E3D
:10C3DC008C86530EE82EFED700F08C96C80E00D03B
:10C3EC00E82EFDD772B002D0F29E01D0F28E023848
:10C3FC00F00B026E0250F00B016E8C500F0B8C6E1A
:10C40C0001508C108C6E000EF2BE010E726EF29EFC
:10C41C008C86530EE82EFED700F08C96C80E00D0FA
:10C42C00E82EFDD772B002D0F29E01D0F28E12002F
:10C43C00000E096E000E0A6E000E0B6E000E0C6ED6
:10C44C000550061007100810D8B42AD0010E0D6E36
:10C45C0006D0D89005360636073608360D2A08AEB3
:10C46C00F8D7D89009360A360B360C360550015CD5
:10C47C00065002580750035808500458D8A009D049
:10C48C000550015E0650025A0750035A0850045AD0
:10C49C000980D89008320732063205320D2EE1D7CA
:10C4AC0009C001F00AC002F00BC003F00CC004F08C
:10C4BC001200000E016E5A0E026E620E036E020E18
:10C4CC00046E0FC013F010C014F011C015F012C0A0
:10C4DC0016F0060ED8901336143615361636E82E8E
:10C4EC00F9D713C005F014C006F015C007F016C03C
:10C4FC0008F057EC63F00104AF6EAC9CAC98AC8ABE
:10C50C00AB9CAB8820EE08F07550D9267650DA2219
:10C51C00010EDF6E20EE09F07550D9267650DA2226
:10C52C00010EDF6EC60E0001DA6F000EDB6F949CFD
:10C53C00948EAB8E1200000E076E000E066E000E6F
:10C54C00056E000E046E000E076E460E066E07504A
:10C55C0014E1690E065CD8B010D0065053EC60F0B4
:10C56C00036E0350046E056A04C001F00650230FDD
:10C57C00AFEC60F0064A072AEAD7000E076E230ECE
:10C58C00066E075014E1460E065CD8B010D006506B
:10C59C0053EC60F0036E0350046E056A04C001F0A6
:10C5AC000650230FAFEC60F0064A072AEAD7000EBC
:10C5BC00076E000E066E075014E1230E065CD8B011
:10C5CC001200065053EC60F0036E0350046E056AC3
:10C5DC0004C001F00650230FAFEC60F0064A072AA6
:10C5EC00EAD71200000E066E000E056E15D0000E76
:10C5FC00066E010E056E50D0000E066E020EFAD7B6
:10C60C00000E066E030EF6D7000E066E040EF2D761
:10C61C00000E066E000EEED701C003F002C004F04F
:10C62C000450000AD8A4F4D70350030AD8B4DFD7B7
:10C63C00040AD8B4DCD70D0AD8B4DED7060AD8B4AD
:10C64C00D6D7010AD8B4DCD7020AD8B4D5D71E0A7B
:10C65C00D8B4D6D7030AD8B4D3D7010AD8B4CCD718
:10C66C00050AD8B4CDD70F0AD8B4CED7030AD8B49C
:10C67C00C7D7010AD8B4C4D7060AD8B4C5D7020A9A
:10C68C00D8B4BED73D0AD8B4BFD7050AD8B4BCD7E6
:10C69C000C0AD8B4B9D7BCD705C001F006C002F05B
:10C6AC001200000E0A6E08AE0AD0081E071E061EE7
:10C6BC00056C000E062207220822010E0A6E04AE3B
:10C6CC000AD0041E031E021E016C000E022203225D
:10C6DC000422010E0A1A000E0B6E000E0C6E000ED8
:10C6EC000D6E000E0E6E0550061007100810D8B413
:10C6FC002AD0010E096E06D0D890053606360736BC
:10C70C000836092A08AEF8D7D8900B360C360D36F9
:10C71C000E360550015C065002580750035808505D
:10C72C000458D8A009D00550015E0650025A075093
:10C73C00035A0850045A0B80D8900832073206323C
:10C74C000532092EE1D70A50D8B408D00E1E0D1EA2
:10C75C000C1E0B6C000E0C220D220E220BC001F0D5
:10C76C000CC002F00DC003F00EC004F01200000E5D
:10C77C00896E000E8A6E000E8B6E000E8C6E000E93
:10C78C008D6E92689368000E946E000E956E000E7E
:10C79C00966E000EC26E0F0EC16E04EC61F0010EAF
:10C7AC003FEC60F0C30E626ECD0EE82EFED7622E0B
:10C7BC00FCD700F00C0E3FEC60F09C0E0D6EFF0EE3
:10C7CC000E6E51EC6BF0000E656E000E646E000E7A
:10C7DC00676E000E666EFB0E53EC60F0626E62507C
:10C7EC00666E676A66286710D8A41FD089EC60F063
:10C7FC00010E3FEC60F0C30E626ECD0EE82EFED73C
:10C80C00622EFCD700F0310E0D6EFE0E0E6E51EC4A
:10C81C006BF0660E636E760E626EC10EE82EFED75E
:10C82C00622EFCD7632EFAD700F0F9EC77F05EC0DD
:10C83C0064F05FC065F064046510D8B45DEC60F022
:10C84C00704A712A00EF00F03AD0000E066E010E0D
:10C85C002FD0000E066E020E2BD0000E066E030EAD
:10C86C0027D0000E066E070E23D0000E066E080EA3
:10C87C001FD0000E066E090E1BD0000E066E0A0E9F
:10C88C0017D0000E066E0B0E13D0000E066E0C0E9B
:10C89C000FD0000E066E0D0E0BD0000E066E0E0E97
:10C8AC0007D0000E066E0F0E03D0000E066E100E93
:10C8BC00056E36D001C005F002C006F031D001C0C3
:10C8CC0003F002C004F00450000AD8A4F3D70350BC
:10C8DC00010AD8B4BED7030AD8B4BFD70A0AD8B451
:10C8EC00C0D7010AD8B4C1D7030AD8B4C2D71E0A1C
:10C8FC00D8B4ABD7010AD8B4C8D7030AD8B4C9D7AF
:10C90C000E0AD8B4CAD7010AD8B4CBD7030AD8B404
:10C91C00CCD73B0AD8B4B1D7090AD8B4B2D7CAD746
:10C92C0005C001F006C002F01200000E066E000EEB
:10C93C00056E0DD0000E066E010E03D0000E066EB5
:10C94C00020E056E65D0000E066E000EFAD701C001
:10C95C0003F002C004F00450000AD8A4F4D703502A
:10C96C00030AD8B4E7D7070AD8B4E8D70C0AD8B466
:10C97C00E1D7010AD8B4E2D7030AD8B4DBD7010A4D
:10C98C00D8B4DCD71A0AD8B4D5D7030AD8B4D2D7BE
:10C99C00010AD8B4CFD7070AD8B4D0D7010AD8B473
:10C9AC00CDD7030AD8B4C6D7010AD8B4C7D70D0A55
:10C9BC00D8B4C4D7010AD8B4C1D73B0AD8B4BAD7B3
:10C9CC00010AD8B4B7D7030AD8B4B8D7010AD8B477
:10C9DC00B1D7070AD8B4B2D7010AD8B4AFD7030A73
:10C9EC00D8B4A8D7010AD8B4A5D70F0AD8B4A2D7FF
:10C9FC00010AD8B4A3D7030AD8B49CD7010AD8B477
:10CA0C009DD7070AD8B496D7020AD8B493D79BD728
:10CA1C0005C001F006C002F01200000E066E000EFA
:10CA2C00056E0DD0000E066E020E056E69D0000E5E
:10CA3C00066E010EFAD7000E066E000EF6D701C078
:10CA4C0003F002C004F00450000AD8A4F4D7035039
:10CA5C00010AD8B4ECD7030AD8B4E4D70A0AD8B47C
:10CA6C00E6D7010AD8B4E3D7030AD8B4DBD7010A56
:10CA7C00D8B4D8D7070AD8B4DAD7010AD8B4D7D7DC
:10CA8C00030AD8B4D4D7010AD8B4CCD71F0AD8B467
:10CA9C00C9D7060AD8B4C6D7010AD8B4C3D70F0A67
:10CAAC00D8B4C0D7010AD8B4BDD7030AD8B4BFD7FD
:10CABC00010AD8B4B7D7070AD8B4B9D7010AD8B481
:10CACC00B6D7030AD8B4B3D7010AD8B4ABD73F0A48
:10CADC00D8B4ADD7010AD8B4AAD7030AD8B4A7D70B
:10CAEC00010AD8B49FD7090AD8B49CD7010AD8B484
:10CAFC009ED7070AD8B49BD7010AD8B498D79BD72E
:10CB0C0005C001F006C002F01200000E066E000E09
:10CB1C00056E11D0000E066E010E07D0000E066ECB
:10CB2C00020E03D0000E066E030E056E74D0000EBE
:10CB3C00066E000EFAD701C003F002C004F00450D8
:10CB4C00000AD8A4F4D70350050AD8B4E3D7030AD3
:10CB5C00D8B4E4D7010AD8B4E5D70B0AD8B4DAD7DD
:10CB6C00010AD8B4DBD7030AD8B4DCD7010AD8B48D
:10CB7C00D1D71F0AD8B4D2D7010AD8B4CBD7030A5D
:10CB8C00D8B4CCD7010AD8B4CDD7070AD8B4C2D7F9
:10CB9C00010AD8B4C3D70D0AD8B4BCD7010AD8B48B
:10CBAC00BDD7050AD8B4BAD7010AD8B4BBD7030A83
:10CBBC00D8B4B8D7010AD8B4B1D73F0AD8B4AAD7D9
:10CBCC00010AD8B4ABD7030AD8B4A4D7010AD8B495
:10CBDC00A1D7070AD8B49ED7010AD8B49FD7030AA5
:10CBEC00D8B49CD7010AD8B49DD70F0AD8B49AD719
:10CBFC00010AD8B493D7030AD8B48CD7010AD8B495
:10CC0C0089D7070AD8B48AD7010AD8B48BD7030AB4
:10CC1C00D8B488D78CD705C001F006C002F012003A
:10CC2C00000E066E640E056E49D0000E066E020EE6
:10CC3C0043D0000E066E000E3FD0000E066E010EA5
:10CC4C003BD0000E066E030E37D0000E066E040E9F
:10CC5C0033D0000E066E050E2FD0000E066E060E9B
:10CC6C002BD0000E066E070E27D0000E066E080E97
:10CC7C0023D0000E066E090E1FD0000E066E0A0E93
:10CC8C001BD0000E066E0B0E17D0000E066E0C0E8F
:10CC9C0013D0000E066E0D0E0FD0000E066E0E0E8B
:10CCAC000BD0000E066E0F0E07D0000E066E100E87
:10CCBC0003D0000E066E110E056E3FD001C003F0BE
:10CCCC0002C004F00450000AD8A437D00350030A61
:10CCDC00D8B4AFD7040AD8B4B0D70D0AD8B4B1D7EA
:10CCEC00060AD8B4A2D7010AD8B4B7D7020AD8B466
:10CCFC00ACD71E0AD8B4B9D7030AD8B4B2D7010A34
:10CD0C00D8B4A7D7050AD8B4B8D70F0AD8B4C1D7A6
:10CD1C00030AD8B4B6D7010AD8B4ABD7060AD8B42C
:10CD2C00BCD7020AD8B4B1D73D0AD8B4BAD7050AD1
:10CD3C00D8B4BBD70C0AD8B4BCD705C001F006C018
:10CD4C0002F01200010E3FEC60F0C30E2D6ECD0E02
:10CD5C00E82EFED72D2EFCD700F0C10E0D6EFD0E69
:10CD6C000E6E2BC00FF02CC010F051EC6BF0C00EFF
:10CD7C003FEC60F0000E306E000E2F6E000E366E23
:10CD8C00000E356E20EE68F010EE38F0070EDBCF9B
:10CD9C00E3FFE806FCE2000E346E000E336E000E6C
:10CDAC00326E000E316E29C001F02AC002F0F8EC90
:10CDBC0062F001C02FF002C030F081A2FED78138A2
:10CDCC000F0B0F0B376E81B2FED70F0E3718D8B47E
:10CDDC0070D00E0E3718D8A405D0000E326E010E8E
:10CDEC00316E67D03750D8B407D03704D8B404D0DC
:10CDFC00020E3718D8A42CD02F50355C3050365832
:10CE0C00D8B0DBD73750010DE80EF324F66EFC0ECC
:10CE1C00F420F76EF86A000EF8220800F55049EC81
:10CE2C0060F037502D6E2E6A010E2D26000E2E222C
:10CE3C00D8903534D96E3634DA6E380ED926000EC9
:10CE4C00DA222DC0DEFF2EC0DDFF354A362AB5D7DB
:10CE5C000C0E3718D8A4B1D7010E3FEC60F0C30EFE
:10CE6C002D6ECD0EE82EFED72D2EFCD700F0C10E68
:10CE7C000D6EFD0E0E6E2BC00FF02CC010F051EC91
:10CE8C006BF0C00E3FEC60F0000E366E000E356E8F
:10CE9C00000E396E000E386E000E3B6E000E3A6EB0
:10CEAC00000E3D6E000E3C6E000E3F6E000E3E6E90
:10CEBC0084D731043210D8A405D0000E2A6E640E2B
:10CECC00296E120029C001F02AC002F0380E036E40
:10CEDC00000E046E9BEC72F001C033F002C034F013
:10CEEC0033503410D8A426D0010E3FEC60F0C30EA2
:10CEFC002D6ECD0EE82EFED72D2EFCD700F0B90EE0
:10CF0C000D6EFE0E0E6E51EC6BF0C00E3FEC60F031
:10CF1C00460E0D6EFF0E0E6E51EC6BF0330E2E6E38
:10CF2C00BB0E2D6EE00EE82EFED72D2EFCD72E2E2E
:10CF3C00FAD708D733C029F034C02AF012000C0EEF
:10CF4C003FEC60F0010E3FEC60F0C30E2B6ECD0E8B
:10CF5C00E82EFED72B2EFCD700F0410E0D6EFE0EE8
:10CF6C000E6E51EC6BF0C00E3FEC60F0000E336EA9
:10CF7C00000E326E000E2F6E000E2E6E000E316EF5
:10CF8C00000E306E81A2FED781380F0B0F0B346E62
:10CF9C0081B2FED70F0E3418D8B4C3D00E0E34188D
:10CFAC00D8A405D0000E316E640E306EBAD0345059
:10CFBC00D8B423D03404D8B420D0020E3418D8B44A
:10CFCC001CD0040E3418D8B418D0050E3418D8B4AC
:10CFDC0014D0060E3418D8B410D0080E3418D8B4A7
:10CFEC000CD0090E3418D8B408D00A0E3418D8B4A2
:10CFFC0004D00D0E3418D8A473D032503310D8A4EA
:10D00C004CD03404D8B41CD0020E3418D8B418D078
:10D01C00040E3418D8B414D0050E3418D8B410D06B
:10D02C00060E3418D8B40CD0080E3418D8B408D066
:10D03C00090E3418D8B404D00A0E3418D8A414D05D
:10D04C00020E3226000E33223450010DE80EF3246A
:10D05C00F66EFC0EF420F76EF86A000EF82208004B
:10D06C00F55049EC60F03AD03450D8A48BD73450FA
:10D07C00010DE80EF324F66EFC0EF420F76EF86A40
:10D08C00000EF8220800F55049EC60F0324A332AC1
:10D09C0023D02E26000E2F2275D732043310D8A49D
:10D0AC0071D7070E346404D00D0E3418D8A46AD787
:10D0BC003450010DE80EF324F66EFC0EF420F76EDE
:10D0CC00F86A000EF8220800F55049EC60F0324A7C
:10D0DC00332A3450D8A402D0140EDBD73450D9D70D
:10D0EC000C0E3418D8A44ED7010E3FEC60F0C30ED2
:10D0FC002B6ECD0EE82EFED72B2EFCD700F0410E5A
:10D10C000D6EFE0E0E6E51EC6BF0C00E3FEC60F02F
:10D11C00000E336E000E326E000E2F6E000E2E6E51
:10D12C0031D7640E30183110D8A405D030C029F096
:10D13C0031C02AF012002EC001F02FC002F02AECF0
:10D14C0064F001C02CF002C02DF02CC029F02DC0D1
:10D15C002AF0120001040210D8B40AD0030E0118F0
:10D16C000210D8B405D0050E01180210D8A405D0B1
:10D17C00000E026E000E016E1200020E011802105B
:10D18C00D8B40AD0040E01180210D8B405D0060E7B
:10D19C0001180210D8A405D0000E026E010E016E0B
:10D1AC001200070E01180210D8A405D0000E026E52
:10D1BC00020E016E1200080E01180210D8B40AD02B
:10D1CC000C0E01180210D8B405D0110E0118021063
:10D1DC00D8A405D0000E026E030E016E1200090ECB
:10D1EC0001180210D8B40AD00D0E01180210D8B4D0
:10D1FC0005D0120E01180210D8A405D0000E026E34
:10D20C00040E016E12000E0E01180210D8B405D0D7
:10D21C00130E01180210D8A405D0000E026E050ED4
:10D22C00016E12000A0E01180210D8B40AD00F0EAB
:10D23C0001180210D8B405D0140E01180210D8A48D
:10D24C0005D0000E026E060E016E12000B0E0118B8
:10D25C000210D8B40AD0100E01180210D8B405D0A0
:10D26C00150E01180210D8A405D0000E026E070E80
:10D27C00016E1200160E01180210D8B41ED0180E32
:10D28C0001180210D8B419D01A0E01180210D8B413
:10D29C0014D01C0E01180210D8B40FD0200E011897
:10D2AC000210D8B40AD0240E01180210D8B405D03C
:10D2BC00260E01180210D8A405D0000E026E080E1E
:10D2CC00016E1200170E01180210D8B419D0190EE5
:10D2DC0001180210D8B414D01D0E01180210D8B4C5
:10D2EC000FD0210E01180210D8B40AD0250E011847
:10D2FC000210D8B405D0270E01180210D8A405D0FE
:10D30C00000E026E090E016E12001E0E01180210A4
:10D31C00D8B40AD0220E01180210D8B405D0280EA9
:10D32C0001180210D8A405D0000E026E0A0E016E70
:10D33C0012001B0E01180210D8B40FD01F0E0118CA
:10D34C000210D8B40AD0230E01180210D8B405D09C
:10D35C00290E01180210D8A405D0000E026E0B0E77
:10D36C00016E12002A0E01180210D8B414D02B0E24
:10D37C0001180210D8B40FD02C0E01180210D8B41A
:10D38C000AD02D0E01180210D8B405D02E0E01189B
:10D39C000210D8A405D0000E026E0C0E016E120005
:10D3AC00000E026E000E016E1200FA0E53EC60F0CD
:10D3BC005C6E000E5B6E000E5A6E000E576E000E09
:10D3CC00566E000E596E000E586E5C50D8A42BD0C1
:10D3DC00010E3FEC60F0C30E546ECD0EE82EFED75E
:10D3EC00542EFCD700F0940E0D6EFF0E0E6E51EC09
:10D3FC006BF0C00E3FEC60F0300E0D6EFF0E0E6E3B
:10D40C0051EC6BF0660E556E760E546EC10EE82E16
:10D41C00FED7542EFCD7552EFAD700F0000E536EC3
:10D42C000E0E526E12005C04D8A453D0000E5B6E2C
:10D43C00010E5A6E010E3FEC60F0C30E546ECD0E11
:10D44C00E82EFED7542EFCD700F05F0E0D6EFE0EAC
:10D45C000E6E51EC6BF0C00E3FEC60F0300E0D6EAA
:10D46C00FF0E0E6E51EC6BF0660E556E760E546E12
:10D47C00C10EE82EFED7542EFCD7552EFAD700F04D
:10D48C00010E3FEC60F0C30E546ECD0EE82EFED7AD
:10D49C00542EFCD700F07F0E0D6EFD0E0E6E51EC6F
:10D4AC006BF0C00E3FEC60F0D50E0D6EFE0E0E6EE6
:10D4BC0051EC6BF01A0E556E5E0E546E6E0EE82E1D
:10D4CC00FED7542EFCD7552EFAD700D081B2D4D02B
:10D4DC00FDD7010E3FEC60F0C30E546ECD0EE82E5E
:10D4EC00FED7542EFCD700F0900E0D6EFD0E0E6E76
:10D4FC005CC00FF0106A51EC6BF0C00E3FEC60F0AA
:10D50C00300E0D6EFF0E0E6E51EC6BF0660E556EFE
:10D51C00760E546EC10EE82EFED7542EFCD7552E27
:10D52C00FAD700F0010E3FEC60F0C30E546ECD0E36
:10D53C00E82EFED7542EFCD700F05D0E0D6EFD0EBE
:10D54C000E6E51EC6BF0C00E3FEC60F07B0E0D6E6E
:10D55C00FF0E0E6E51EC6BF081A2FED781380F0BD3
:10D56C000F0B5D6E81B2FED75D50D8B40BD05D044D
:10D57C00D8B408D0020E5D18D8B404D0040E5D18CF
:10D58C00D8A4EAD75DC001F0026A5C5053EC61F09C
:10D59C0001C056F002C057F056045710D8A4DCD77F
:10D5AC005D50010DD70EF324F66EFC0EF420F76ED1
:10D5BC00F86A000EF8220800F55049EC60F0040EF1
:10D5CC005D18D8A404D05DC05AF05B6A06D0010E79
:10D5DC005D245A6E5B6A000E5B22330E556EBB0ED9
:10D5EC00546EE00EE82EFED7542EFCD7552EFAD7EB
:10D5FC00010E3FEC60F0C30E546ECD0EE82EFED73C
:10D60C00542EFCD700F0AB0E0D6EFF0E0E6E51ECCF
:10D61C006BF0330E556EBB0E546EE00EE82EFED73B
:10D62C00542EFCD7552EFAD7010E3FEC60F0C30EEA
:10D63C00546ECD0EE82EFED7542EFCD700F07F0E84
:10D64C000D6EFD0E0E6E51EC6BF0C00E3FEC60F0EB
:10D65C00D50E0D6EFE0E0E6E51EC6BF01A0E556E55
:10D66C005E0E546E6E0EE82EFED7542EFCD7552E41
:10D67C00FAD700D081A2FED75AC029F05BC02AF09D
:10D68C00E3EC6FF029C058F02AC059F058C052F0A2
:10D69C0059C053F012000F0E1F6E000E206EE6D113
:10D6AC00250E2818D8B404D0285049EC60F0DED1EF
:10D6BC00000E276E000E266E000E256E03D02584FC
:10D6CC000D4A0E2A0DC0F6FF0EC0F7FFF86A0800CF
:10D6DC00F550300AD8B4F3D70DC0F6FF0EC0F7FFE3
:10D6EC00F86A0800F55068EC60F0D8A092D0000EF3
:10D6FC00276E000E266E26C001F027C002F0000E29
:10D70C00046E0A0E036E9CEC60F001C026F002C0A1
:10D71C0027F0D00E176EFF0E186E0DC0F6FF0EC060
:10D72C00F7FFF86A0800F550196E1A6A1750192697
:10D73C0018501A22195026261A5027220D4A0E2A42
:10D74C000DC0F6FF0EC0F7FFF86A0800F55068EC44
:10D75C0060F0D8A05ED0CFD7258E76D01FC0D9FF71
:10D76C0020C0DAFFDECF1DF0DDCF1EF0020E1F262B
:10D77C00000E20221D501E10D8A404D0A40E1D6E25
:10D78C00FF0E1E6E000E226E000E216E02D0214A7C
:10D79C00222A21501D24176E22501E20186E17C0ED
:10D7AC00F6FF18C0F7FFF86A0800F5500009D8A476
:10D7BC00EED72650215C27502258D8B005D02150E6
:10D7CC00265E2250275A08D0000E276E000E266EB9
:10D7DC0003D0200E49EC60F02606D8A02706262898
:10D7EC00F8E12728D8B40CD0F4D71DC0F6FF1EC022
:10D7FC00F7FFF86A0800F55049EC60F01D4A1E2A44
:10D80C002106D8A022062128F0E12228D8B42ED156
:10D81C00ECD70DC0F6FF0EC0F7FF0D4A0E2AF86AC2
:10D82C000800F5CF28F02850000AD8B41200640A7A
:10D83C00D8B40AD00D0AD8B407D01A0AD8B48ED7E7
:10D84C000B0AD8B489D712D125BE15D01FC0D9FF69
:10D85C0020C0DAFFDECF23F0DDCF24F0020E1F262E
:10D86C00000E202224AE4AD0030E2512236C241E57
:10D87C00D8B0242A43D01FC0D9FF20C0DAFFDECF96
:10D88C0023F0DDCF24F0020E1F26000E202236D00E
:10D89C00010E286E050E2818D8B438D02850020D69
:10D8AC00F90EF324F66EFC0EF420F76EF86A000EF7
:10D8BC00F8220900F550235C0900F5502458D8A033
:10D8CC0025D0282AE7D7010E286E040E2818D8B4C4
:10D8DC001DD02850020D030EF324F66EFD0EF4201D
:10D8EC00F76EF86A000EF8220900F550235C090067
:10D8FC00F5502458D8A00AD0282AE7D72550800BF9
:10D90C00000AD8B4C5D7800AD8B4DDD72650271062
:10D91C00D8B409D025C017F0030E1716D8B403D00D
:10D92C002606D8A02706800E28BE7F0E176E26501E
:10D93C00285C2750800A1758D8B007D02850265E8C
:10D94C00000E28BEFF0E275A04D0000E276E000EC4
:10D95C00266E25A414D025C017F0030E1716D8B4C4
:10D96C0003D02D0E49EC60F026502710D8B41ED0F1
:10D97C00300E49EC60F02606D8A02706F5D72650C5
:10D98C002710D8B40AD0200E49EC60F02606D8A097
:10D99C00270626502710D8A4F6D725C017F0030E5B
:10D9AC001716D8B403D02D0E49EC60F028C01CF02B
:10D9BC0059D01C50020DF90EF324F66EFC0EF42017
:10D9CC00F76EF86A000EF8220900F5CF03F00A0092
:10D9DC00F5CF04F023C001F024C002F02AEC61F072
:10D9EC0001C008F002C009F0000E0B6E0A0E0A6EA0
:10D9FC00E3EC60F00850300F286E31D023C001F0FA
:10DA0C0024C002F01C50020D030EF324F66EFD0E22
:10DA1C00F420F76EF86A000EF8220900F5CF03F037
:10DA2C000A00F5CF04F02AEC61F001500F0B1B6ECD
:10DA3C001B50010D2A0EF324F66EFD0EF420F76E2A
:10DA4C00F86A000EF8220800F5CF28F008D025500F
:10DA5C00800B000AD8B4ADD7800AD8B4CFD72850E1
:10DA6C0049EC60F01C061C28D8A4F1D70DC0F6FFB9
:10DA7C000EC0F7FF0D4A0E2AF86A0800F5CF28F001
:10DA8C002850D8B412000CD6010E3FEC60F0C30E37
:10DA9C002B6ECD0EE82EFED72B2EFCD700F0F10E00
:10DAAC000D6EFD0E0E6E29C00FF02AC010F051EC59
:10DABC006BF0C00E3FEC60F0000E346E000E336E57
:10DACC00000E2E6E000E2D6E000E366E000E356E94
:10DADC00000E306E000E2F6E20EEBEF010EE38F001
:10DAEC00070EDBCFE3FFE806FCE2000E326E000E01
:10DAFC00316E81A2FED781380F0B0F0B376E81B2BE
:10DB0C00FED70F0E3718D8B486D00E0E3718D8A4FF
:10DB1C0005D0000E326E010E316E7DD00C0E371812
:10DB2C00D8A42DD0010E3FEC60F0C30E2B6ECD0EA1
:10DB3C00E82EFED72B2EFCD700F0F10E0D6EFD0E4D
:10DB4C000E6E29C00FF02AC010F051EC6BF0C00E15
:10DB5C003FEC60F0000E346E000E336E000E396E2A
:10DB6C00000E386E000E3B6E000E3A6E000E3D6ECF
:10DB7C00000E3C6E000E3F6E000E3E6EBAD7345057
:10DB8C00B8E1040E335CD8B0B4D7030E3718D8B450
:10DB9C0004D0070E3718D8A416D03750010DE80E54
:10DBAC00F324F66EFC0EF420F76EF86A000EF822E1
:10DBBC000800F55049EC60F037502B6E2C6A1DD0E4
:10DBCC00334A342A96D70B0E3718D8A492D737502D
:10DBDC00010DE80EF324F66EFC0EF420F76EF86AD5
:10DBEC00000EF8220800F55049EC60F037502B6E0F
:10DBFC002C6A010E2B26000E2C22D8903334D96EB1
:10DC0C003434DA6E380ED926000EDA222BC0DEFF41
:10DC1C002CC0DDFFD5D731043210D8A404D0000EAF
:10DC2C00366E640E99D10C0E38183910D8A410D059
:10DC3C003A503B10D8A40CD03C503D10D8A408D07E
:10DC4C003E503F10D8A404D0000E366E0C0E84D17A
:10DC5C00030E38183910D8A410D03A503B10D8A461
:10DC6C000CD03C503D10D8A408D03E503F10D8A446
:10DC7C0004D0000E366E030E6FD1070E3818391013
:10DC8C00D8A410D03A503B10D8A40CD03C503D1026
:10DC9C00D8A408D03E503F10D8A404D0000E366E45
:10DCAC00070E5AD1030E38183910D8A411D0070E0C
:10DCBC003A183B10D8A40CD03C503D10D8A408D036
:10DCCC003E503F10D8A404D0000E366E0A0E44D13C
:10DCDC00030E38183910D8A411D00C0E3A183B107A
:10DCEC00D8A40CD03C503D10D8A408D03E503F10C6
:10DCFC00D8A404D0000E366E0F0E2ED1070E381895
:10DD0C003910D8A411D00C0E3A183B10D8A40CD052
:10DD1C003C503D10D8A408D03E503F10D8A404D09D
:10DD2C00000E366E130E18D1030E38183910D8A405
:10DD3C0012D0030E3A183B10D8A40DD0070E3C1885
:10DD4C003D10D8A408D03E503F10D8A404D0000EEB
:10DD5C00366E0D0E01D1030E38183910D8A412D01E
:10DD6C00030E3A183B10D8A40DD00C0E3C183D10E5
:10DD7C00D8A408D03E503F10D8A404D0000E366E64
:10DD8C00120EEAD0030E38183910D8A412D0070E90
:10DD9C003A183B10D8A40DD0070E3C183D10D8A44F
:10DDAC0008D03E503F10D8A404D0000E366E110E91
:10DDBC00D3D0030E38183910D8A412D00C0E3A1840
:10DDCC003B10D8A40DD00C0E3C183D10D8A408D094
:10DDDC003E503F10D8A404D0000E366E1B0EBCD0A3
:10DDEC00030E38183910D8A412D0070E3A183B106D
:10DDFC00D8A40DD00C0E3C183D10D8A408D03E5021
:10DE0C003F10D8A404D0000E366E160EA5D0070E07
:10DE1C0038183910D8A412D0070E3A183B10D8A4D1
:10DE2C000DD00C0E3C183D10D8A408D03E503F101D
:10DE3C00D8A404D0000E366E1A0E8ED0070E3818E9
:10DE4C003910D8A412D00C0E3A183B10D8A40DD00F
:10DE5C000C0E3C183D10D8A408D03E503F10D8A44E
:10DE6C0004D0000E366E1F0E77D0030E3818391002
:10DE7C00D8A413D0030E3A183B10D8A40ED0070E1A
:10DE8C003C183D10D8A409D00C0E3E183F10D8A455
:10DE9C0004D0000E366E190E5FD0030E38183910F0
:10DEAC00D8A413D0070E3A183B10D8A40ED0070EE6
:10DEBC003C183D10D8A409D00C0E3E183F10D8A425
:10DECC0004D0000E366E1D0E47D0030E38183910D4
:10DEDC00D8A413D0070E3A183B10D8A40ED00C0EB1
:10DEEC003C183D10D8A409D00C0E3E183F10D8A4F5
:10DEFC0004D0000E366E220E2FD0030E38183910B7
:10DF0C00D8A413D00C0E3A183B10D8A40ED00C0E7B
:10DF1C003C183D10D8A409D00C0E3E183F10D8A4C4
:10DF2C0004D0000E366E270E17D0070E3818391095
:10DF3C00D8A414D00C0E3A183B10D8A40FD00C0E49
:10DF4C003C183D10D8A40AD00C0E3E183F10D8A493
:10DF5C0005D0000E366E2B0E356E2AD0010E3FEC1E
:10DF6C0060F0C30E2B6ECD0EE82EFED72B2EFCD7F9
:10DF7C0000F0C70E0D6EFE0E0E6E51EC6BF0C00E67
:10DF8C003FEC60F0460E0D6EFF0E0E6E51EC6BF01A
:10DF9C00330E2C6EBB0E2B6EE00EE82EFED72B2E06
:10DFAC00FCD72C2EFAD7000E366E000E356E6CD5C3
:10DFBC0035C029F036C02AF01200FF0E2924016E5C
:10DFCC00FF0E2A20026E000E046E230E036E9CECD4
:10DFDC0060F001C050F002C051F0505053EC60F0B2
:10DFEC002B6E2B502D6E2E6A502853EC60F02B6E3E
:10DFFC002B502F6E306A5050020F53EC60F02B6E8A
:10E00C002B50316E326A5050030F53EC60F02B6E74
:10E01C002B50426E436A5050040F53EC60F02B6E41
:10E02C002B50336E346A5050050F53EC60F02B6E4E
:10E03C002B50356E366A5050060F53EC60F02B6E39
:10E04C002B50376E386A5050070F53EC60F02B6E24
:10E05C002B50486E496A5050080F53EC60F02B6EF1
:10E06C002B504A6E4B6A5050090F53EC60F02B6EDC
:10E07C002B504C6E4D6A50500A0F53EC60F02B6EC7
:10E08C002B504E6E4F6A50500B0F53EC60F02B6EB2
:10E09C002B50446E456A50500C0F53EC60F02B6EB5
:10E0AC002B503D6E3E6A50500D0F53EC60F02B6EB2
:10E0BC002B503F6E406A000E476E000E466E010EEE
:10E0CC003FEC60F0C30E2B6ECD0EE82EFED72B2E40
:10E0DC00FCD700F0B20E0D6EFF0E0E6E51EC6BF015
:10E0EC00C00E3FEC60F07D0E0D6EFE0E0E6E2DC060
:10E0FC000FF02EC010F02FC011F030C012F031C054
:10E10C0013F032C014F051EC6BF01A0E2C6E5E0E44
:10E11C002B6E6E0EE82EFED72B2EFCD72C2EFAD79C
:10E12C0000D081A2FED742C001F043C002F0000E25
:10E13C00046E3C0E036E2AEC61F001C039F002C093
:10E14C003AF042C008F043C009F0000E0B6E3C0ED2
:10E15C000A6EE3EC60F008C03BF009C03CF0010E25
:10E16C003FEC60F0C30E2B6ECD0EE82EFED72B2E9F
:10E17C00FCD700F0D10E0D6EFD0E0E6E51EC6BF057
:10E18C00C00E3FEC60F08C0E0D6EFF0E0E6E39C0A3
:10E19C000FF03AC010F03BC011F03CC012F051EC43
:10E1AC006BF01A0E2C6E5E0E2B6E6E0EE82EFED7DA
:10E1BC002B2EFCD72C2EFAD700D081A2FED7010E25
:10E1CC003FEC60F0C30E2B6ECD0EE82EFED72B2E3F
:10E1DC00FCD700F0E10E0D6EFD0E0E6E51EC6BF0E7
:10E1EC00C00E3FEC60F04E504F10D8A41ED04C50D7
:10E1FC004D10D8A41AD04A504B10D8A416D07A0E71
:10E20C000D6EFE0E0E6E48C00FF049C010F051ECB2
:10E21C006BF01A0E2C6E5E0E2B6E6E0EE82EFED769
:10E22C002B2EFCD72C2EFAD765D04E504F10D8A4DD
:10E23C001ED04C504D10D8A41AD0760E0D6EFE0E7A
:10E24C000E6E48C00FF049C010F04AC011F04BC020
:10E25C0012F051EC6BF01A0E2C6E5E0E2B6E6E0ED5
:10E26C00E82EFED72B2EFCD72C2EFAD743D04E50AF
:10E27C004F10D8A41ED0720E0D6EFE0E0E6E48C03E
:10E28C000FF049C010F04AC011F04BC012F04CC056
:10E29C0013F04DC014F051EC6BF01A0E2C6E5E0E98
:10E2AC002B6E6E0EE82EFED72B2EFCD72C2EFAD70B
:10E2BC0021D06E0E0D6EFE0E0E6E48C00FF049C0D2
:10E2CC0010F04AC011F04BC012F04CC013F04DC00E
:10E2DC0014F04EC015F04FC016F051EC6BF01A0E46
:10E2EC002C6E5E0E2B6E6E0EE82EFED72B2EFCD7F0
:10E2FC002C2EFAD700D081A2FED7010E3FEC60F095
:10E30C00C30E2B6ECD0EE82EFED72B2EFCD700F0B5
:10E31C00180E0D6EFD0E0E6E51EC6BF0C00E3FEC38
:10E32C0060F06E0E0D6EFD0E0E6E33C00FF034C02D
:10E33C0010F035C011F036C012F037C013F038C0F1
:10E34C0014F051EC6BF01A0E2C6E5E0E2B6E6E0EE2
:10E35C00E82EFED72B2EFCD72C2EFAD700D081A27C
:10E36C00FED7010E3FEC60F0C30E2B6ECD0EE82EE7
:10E37C00FED72B2EFCD700F0500E0D6EFE0E0E6E3F
:10E38C0051EC6BF01A0E2C6E5E0E2B6E6E0EE82E90
:10E39C00FED72B2EFCD72C2EFAD700D081A2FED77D
:10E3AC00000E476E000E466E475005E1080E465CA7
:10E3BC00D8B089D001D087D0010E3FEC60F0C30EED
:10E3CC002B6ECD0EE82EFED72B2EFCD700F0FF0EB9
:10E3DC002924016EFF0E2A20026E000E046E230EFD
:10E3EC00036E9CEC60F001C02BF002C02CF046C018
:10E3FC0001F047C002F0000E046E030E036E9CEC9D
:10E40C0060F001502B24506E02502C20516E505055
:10E41C000B0F53EC60F02B6E2B50446E456A505032
:10E42C000C0F53EC60F02B6E2B503D6E3E6A50502F
:10E43C000D0F53EC60F02B6E2B503F6E406A445026
:10E44C004510D8B43BD0510E0D6EFF0E0E6E44C06D
:10E45C000FF045C010F051EC6BF0C00E3FEC60F0CB
:10E46C00D60E0D6EFF0E0E6ED8903D34D96E3E3426
:10E47C00DA6E800ED926000EDA22DECF0FF0DDCF59
:10E48C0010F0D8903F34D96E4034DA6EA40ED926F1
:10E49C00000EDA22DECF11F0DDCF12F051EC6BF072
:10E4AC001A0E2C6E5E0E2B6E6E0EE82EFED72B2ED9
:10E4BC00FCD72C2EFAD700D081A2FED7464A472A89
:10E4CC00475001E173D7010E3FEC60F0C30E2B6E89
:10E4DC00CD0EE82EFED72B2EFCD700F00B0E0D6EBA
:10E4EC00FF0E0E6E51EC6BF0C00E3FEC60F0210E87
:10E4FC000D6EFE0E0E6E51EC6BF01A0E2C6E5E0E47
:10E50C002B6E6E0EE82EFED72B2EFCD72C2EFAD7A8
:10E51C0000D081A2FED781380F0B0F0B416E81B258
:10E52C00FED741C029F02A6A1200000E086E000EB8
:10E53C00076EB0EF77F003C0D9FF04C0DAFFDE043A
:10E54C00DE10D8A405D0000E086E010EAEEF77F0E9
:10E55C0003C0D9FF04C0DAFF020EDE18DE10D8A407
:10E56C00F4EF77F0000E086E020EAEEF77F003C0FA
:10E57C00D9FF04C0DAFFDE04DE10D8A405D0000EEB
:10E58C00086E030EAEEF77F003C0D9FF04C0DAFFBC
:10E59C00020EDE18DE10D8A4F4EF77F0000E086E31
:10E5AC00040EAEEF77F003C0D9FF04C0DAFFDE042F
:10E5BC00DE10D8A405D0000E086E050EAEEF77F075
:10E5CC0003C0D9FF04C0DAFF020EDE18DE10D8A497
:10E5DC0005D0000E086E060EAEEF77F003C0D9FF23
:10E5EC0004C0DAFF030EDE18DE10D8A4F4EF77F0C7
:10E5FC00000E086E070EAEEF77F003C0D9FF04C013
:10E60C00DAFFDE04DE10D8A40FD020EE02F00350A7
:10E61C00D9260450DA22DE04DE10D8A405D0000E70
:10E62C00086E080EAEEF77F003C0D9FF04C0DAFF16
:10E63C00DE04DE10D8A410D020EE02F00350D92650
:10E64C000450DA22020EDE18DE10D8A405D0000E1B
:10E65C00086E090EAEEF77F003C0D9FF04C0DAFFE5
:10E66C00020EDE18DE10D8A40FD020EE02F00350FC
:10E67C00D9260450DA22DE04DE10D8A405D0000E10
:10E68C00086E0A0EAEEF77F003C0D9FF04C0DAFFB4
:10E69C00020EDE18DE10D8A4F4EF77F020EE02F0B4
:10E6AC000350D9260450DA22020EDE18DE10D8A44C
:10E6BC00F4EF77F0000E086E0B0EAEEF77F003C0A0
:10E6CC00D9FF04C0DAFFDE04DE10D8A40FD020EE90
:10E6DC0002F00350D9260450DA22DE04DE10D8A44E
:10E6EC0005D0000E086E0C0EAEEF77F003C0D9FF0C
:10E6FC0004C0DAFFDE04DE10D8A410D020EE02F045
:10E70C000350D9260450DA22020EDE18DE10D8A4EB
:10E71C0005D0000E086E0D0EAEEF77F003C0D9FFDA
:10E72C0004C0DAFFDE04DE10D8A410D020EE02F014
:10E73C000350D9260450DA22030EDE18DE10D8A4BA
:10E74C0005D0000E086E0E0EAEEF77F003C0D9FFA9
:10E75C0004C0DAFF020EDE18DE10D8A40ED020EEB4
:10E76C0002F00350D9260450DA22DE04DE10D8A4BD
:10E77C0004D0000E086E0F0EEBD303C0D9FF04C0FB
:10E78C00DAFF020EDE18DE10D8A4F4EF77F020EEDC
:10E79C0002F00350D9260450DA22020EDE18DE10E5
:10E7AC00D8A4F4EF77F0000E086E100ED1D303C08E
:10E7BC00D9FF04C0DAFFDE04DE10D8A40ED020EEA0
:10E7CC0002F00350D9260450DA22DE04DE10D8A45D
:10E7DC0004D0000E086E110EBBD303C0D9FF04C0C9
:10E7EC00DAFFDE04DE10D8A40FD020EE02F00350C6
:10E7FC00D9260450DA22020EDE18DE10D8A404D07A
:10E80C00000E086E120EA4D303C0D9FF04C0DAFFA9
:10E81C00DE04DE10D8A40FD020EE02F00350D9266F
:10E82C000450DA22030EDE18DE10D8A404D0000E39
:10E83C00086E130E8DD303C0D9FF04C0DAFF020E8D
:10E84C00DE18DE10D8A40ED020EE02F00350D9262C
:10E85C000450DA22DE04DE10D8A404D0000E086EB8
:10E86C00140E76D303C0D9FF04C0DAFF020EDE18F3
:10E87C00DE10D8A4B3D320EE02F00350D9260450F6
:10E88C00DA22020EDE18DE10D8A4A8D3000E086E11
:10E89C00150E5ED303C0D9FF04C0DAFFDE04DE1010
:10E8AC00D8A418D020EE02F00350D9260450DA2256
:10E8BC00DE04DE10D8A40ED020EE04F00350D926CE
:10E8CC000450DA22DE04DE10D8A404D0000E086E48
:10E8DC00160E3ED303C0D9FF04C0DAFFDE04DE10EF
:10E8EC00D8A47CD320EE02F00350D9260450DA22AF
:10E8FC00DE04DE10D8A472D320EE04F00350D92627
:10E90C000450DA22020EDE18DE10D8A467D3000EF3
:10E91C00086E170E1DD303C0D9FF04C0DAFFDE0446
:10E92C00DE10D8A418D020EE02F00350D9260450E3
:10E93C00DA22DE04DE10D8A40ED020EE04F0035050
:10E94C00D9260450DA22DE04DE10D8A404D0000E3E
:10E95C00086E180EFDD203C0D9FF04C0DAFFDE0426
:10E96C00DE10D8A43BD320EE02F00350D92604507D
:10E97C00DA22DE04DE10D8A431D320EE04F00350EA
:10E98C00D9260450DA22020EDE18DE10D8A426D3C3
:10E99C00000E086E190EDCD203C0D9FF04C0DAFFDA
:10E9AC00DE04DE10D8A418D020EE02F00350D926D5
:10E9BC000450DA22DE04DE10D8A40ED020EE04F0CF
:10E9CC000350D9260450DA22DE04DE10D8A404D079
:10E9DC00000E086E1A0EBCD203C0D9FF04C0DAFFB9
:10E9EC00020EDE18DE10D8A4F9D220EE02F003508D
:10E9FC00D9260450DA22DE04DE10D8A4EFD220EEA1
:10EA0C0004F00350D9260450DA22DE04DE10D8A418
:10EA1C00E5D2000E086E1B0E9BD203C0D9FF04C0BA
:10EA2C00DAFFDE04DE10D8A418D020EE02F003507A
:10EA3C00D9260450DA22DE04DE10D8A40ED020EE43
:10EA4C0004F00350D9260450DA22DE04DE10D8A4D8
:10EA5C0004D0000E086E1C0E7BD203C0D9FF04C07C
:10EA6C00DAFFDE04DE10D8A419D020EE02F0035039
:10EA7C00D9260450DA22DE04DE10D8A40FD020EE02
:10EA8C0004F00350D9260450DA22020EDE18DE10F0
:10EA9C00D8A404D0000E086E1D0E5AD203C0D9FFA4
:10EAAC0004C0DAFFDE04DE10D8A419D020EE02F088
:10EABC000350D9260450DA22020EDE18DE10D8A438
:10EACC000ED020EE04F00350D9260450DA22DE04D6
:10EADC00DE10D8A404D0000E086E1E0E39D203C06E
:10EAEC00D9FF04C0DAFF020EDE18DE10D8A476D2ED
:10EAFC0020EE02F00350D9260450DA22DE04DE1098
:10EB0C00D8A46CD220EE04F00350D9260450DA229B
:10EB1C00DE04DE10D8A462D2000E086E1F0E18D2CE
:10EB2C0003C0D9FF04C0DAFFDE04DE10D8A418D06D
:10EB3C0020EE02F00350D9260450DA22DE04DE1057
:10EB4C00D8A40ED020EE04F00350D9260450DA22BB
:10EB5C00DE04DE10D8A404D0000E086E200EF8D10E
:10EB6C0003C0D9FF04C0DAFFDE04DE10D8A419D02C
:10EB7C0020EE02F00350D9260450DA22DE04DE1017
:10EB8C00D8A40FD020EE04F00350D9260450DA227A
:10EB9C00020EDE18DE10D8A404D0000E086E210E72
:10EBAC00D7D103C0D9FF04C0DAFFDE04DE10D8A42D
:10EBBC0019D020EE02F00350D9260450DA22020EAE
:10EBCC00DE18DE10D8A40ED020EE04F00350D926A7
:10EBDC000450DA22DE04DE10D8A404D0000E086E35
:10EBEC00220EB6D103C0D9FF04C0DAFF020EDE1824
:10EBFC00DE10D8A4F3D120EE02F00350D926045035
:10EC0C00DA22DE04DE10D8A4E9D120EE04F00350A1
:10EC1C00D9260450DA22DE04DE10D8A4DFD1000E8F
:10EC2C00086E230E95D103C0D9FF04C0DAFFDE04B1
:10EC3C00DE10D8A418D020EE02F00350D9260450D0
:10EC4C00DA22DE04DE10D8A40ED020EE04F003503D
:10EC5C00D9260450DA22DE04DE10D8A404D0000E2B
:10EC6C00086E240E75D103C0D9FF04C0DAFFDE0490
:10EC7C00DE10D8A4B3D120EE02F00350D9260450F4
:10EC8C00DA22DE04DE10D8A4A9D120EE04F0035061
:10EC9C00D9260450DA22020EDE18DE10D8A49ED13A
:10ECAC00000E086E250E54D103C0D9FF04C0DAFF44
:10ECBC00DE04DE10D8A418D020EE02F00350D926C2
:10ECCC000450DA22DE04DE10D8A40ED020EE04F0BC
:10ECDC000350D9260450DA22DE04DE10D8A404D066
:10ECEC00000E086E260E34D103C0D9FF04C0DAFF23
:10ECFC00DE04DE10D8A419D020EE02F00350D92681
:10ED0C000450DA22DE04DE10D8A40FD020EE04F07A
:10ED1C000350D9260450DA22020EDE18DE10D8A4D5
:10ED2C0004D0000E086E270E13D103C0D9FF04C007
:10ED3C00DAFFDE04DE10D8A419D020EE02F0035066
:10ED4C00D9260450DA22020EDE18DE10D8A40ED01A
:10ED5C0020EE04F00350D9260450DA22DE04DE1033
:10ED6C00D8A404D0000E086E280EF2D003C0D9FF30
:10ED7C0004C0DAFF020EDE18DE10D8A42FD120EE6C
:10ED8C0002F00350D9260450DA22DE04DE10D8A497
:10ED9C0025D120EE04F00350D9260450DA22DE04EB
:10EDAC00DE10D8A41BD1000E086E290ED1D003C0E2
:10EDBC00D9FF04C0DAFFDE04DE10D8A40FD120EE98
:10EDCC0002F00350D9260450DA22DE04DE10D8A457
:10EDDC0005D120EE04F00350D9260450DA22DE04CB
:10EDEC00DE10D8A4FBD020EE06F00350D926045038
:10EDFC00DA22DE04DE10D8A4F1D0000E086E2A0E42
:10EE0C00A7D003C0D9FF04C0DAFFDE04DE10D8A4FB
:10EE1C00E5D020EE02F00350D9260450DA22DE04AD
:10EE2C00DE10D8A4DBD020EE04F00350D926045019
:10EE3C00DA22DE04DE10D8A4D1D020EE06F0035086
:10EE4C00D9260450DA22DE04DE10D8A4C7D0000E76
:10EE5C00086E2B0E7DD003C0D9FF04C0DAFFDE0490
:10EE6C00DE10D8A4BBD020EE02F00350D9260450FB
:10EE7C00DA22DE04DE10D8A4B1D020EE04F0035068
:10EE8C00D9260450DA22DE04DE10D8A4A7D020EE56
:10EE9C0006F00350D9260450DA22DE04DE10D8A482
:10EEAC009DD0000E086E2C0E53D003C0D9FF04C0A9
:10EEBC00DAFFDE04DE10D8A491D020EE02F003506D
:10EECC00D9260450DA22DE04DE10D8A487D020EE36
:10EEDC0004F00350D9260450DA22DE04DE10D8A444
:10EEEC007DD020EE06F00350D9260450DA22DE0441
:10EEFC00DE10D8A473D0000E086E2D0E29D003C0DE
:10EF0C00D9FF04C0DAFFDE04DE10D8A467D020EEEF
:10EF1C0002F00350D9260450DA22DE04DE10D8A405
:10EF2C005DD020EE04F00350D9260450DA22DE0422
:10EF3C00DE10D8A453D020EE06F00350D92604508E
:10EF4C00DA22DE04DE10D8A449D0000E086E2E0E94
:10EF5C00076E44D001C005F002C006F00650000A4E
:10EF6C00D8A43CD00550030AD8B4A1EF72F0040A1F
:10EF7C00D8B4BDEF72F00D0AD8B403EF73F0060AE3
:10EF8C00D8B4D9EF72F0010AD8B484D4020AD8B438
:10EF9C0065EF73F01E0AD8B4FFD4030AD8B4BBD4FF
:10EFAC00010AD8B404D4050AD8B4BAD50F0AD8B417
:10EFBC00FED6030AD8B437D6010AD8B42ED5060A21
:10EFCC00D8B41FD7020AD8B46FD63D0AD8B443D7E9
:10EFDC00050AD8B46AD70C0AD8B491D707C001F087
:10EFEC0008C002F0120021EEDAF011EE50F00F0E14
:10EFFC00DBCFE3FFE806FCE221EECAF011EE00F0F5
:10F00C000F0EDBCFE3FFE806FCE221EEBAF011EEC7
:10F01C0010F00F0EDBCFE3FFE806FCE221EEAAF0C6
:10F02C0011EE20F00F0EDBCFE3FFE806FCE221EE41
:10F03C009AF011EE30F00F0EDBCFE3FFE806FCE2A6
:10F04C0021EE8AF011EE40F00F0EDBCFE3FFE80665
:10F05C00FCE2000E0101876F000E866F000E896FB7
:10F06C00000E886F000E786F000E776F000E7A6FAF
:10F07C00000E796F000E686F000E676F000E836FC5
:10F08C00000E826F000E816F000E806F000E856F78
:10F09C00000E846F000E7F6F000E7C6F000E7B6F76
:10F0AC00000E6D6F000E6C6F000E6F6F000E6E6FAA
:10F0BC00000E716F000E706F000E736F000E726F8A
:10F0CC00000E756F000E746F000E7E6F000E7D6F5C
:10F0DC00010E3FEC60F0C30E606ECD0EE82EFED735
:10F0EC00602EFCD700F00C0E3FEC60F09C0E0D6E09
:10F0FC00FF0E0E6E51EC6BF0660E616E760E606E4E
:10F10C00C10EE82EFED7602EFCD7612EFAD700F088
:10F11C00010E3FEC60F0C30E606ECD0EE82EFED7F4
:10F12C00602EFCD700F07F0E0D6EFD0E0E6E51ECB6
:10F13C006BF0C00E3FEC60F04C0E0D6EFD0E0E6EC3
:10F14C0051EC6BF081A2FED7010E3FEC60F0C30EC8
:10F15C00606ECD0EE82EFED7602EFCD700F00C0EA4
:10F16C003FEC60F0110E0D6EFE0E0E6E51EC6BF05E
:10F17C00C00E3FEC60F0A10E0D6EFD0E0E6E51EC4C
:10F18C006BF0330E616EBB0E606EE00EE82EFED798
:10F19C00602EFCD7612EFAD7030E016EFA0EAFEC7F
:10F1AC0060F0120E016E000EAFEC60F0020E016EFC
:10F1BC00010EAFEC60F01C0E016E020EAFEC60F0B5
:10F1CC005B0E016E030EAFEC60F0030E016E040ECD
:10F1DC00AFEC60F00F0E016E050EAFEC60F0080E98
:10F1EC00016E060EAFEC60F00C0E016E070EAFEC6C
:10F1FC0060F0010E016E080EAFEC60F00D0E016EAA
:10F20C00090EAFEC60F0000E016E0A0EAFEC60F070
:10F21C00A00E0E6E860E0F6E010E106E000E116E8D
:10F22C007CEC61F029EC60F0000E036ED10E026EE6
:10F23C0031EC60F0000E01017E6F000E7D6F7E518F
:10F24C0012E1060E7D5DD8B00ED0600E7D25D96E14
:10F25C00010E7E21DA6E000E77EC60F0DF6E01019C
:10F26C007D4B7E2BECD7010E77EC60F00101666FC5
:10F27C002DEC60F0010E3FEC60F0C30E606ECD0E15
:10F28C00E82EFED7602EFCD700F0180E0D6EFF0E88
:10F29C000E6E51EC6BF0C00E3FEC60F0670E0D6E15
:10F2AC00FF0E0E6E51EC6BF0660E616E760E606E9C
:10F2BC00C10EE82EFED7602EFCD7612EFAD700F0D7
:10F2CC00010E3FEC60F0C30E606ECD0EE82EFED743
:10F2DC00602EFCD700F08C0E0D6EFE0E0E6E66C10D
:10F2EC000FF0106A65C111F0126A64C113F0146A50
:10F2FC0051EC6BF0C00E3FEC60F09B0E0D6EFE0EF1
:10F30C000E6E62C10FF0106A61C111F0126A60C119
:10F31C0013F0146A51EC6BF0660E616E760E606E33
:10F32C00C10EE82EFED7602EFCD7612EFAD700F066
:10F33C00010E3FEC60F0C30E606ECD0EE82EFED7D2
:10F34C00602EFCD700F05C0E0D6EFF0E0E6E51ECB5
:10F35C006BF0C00E3FEC60F0250E0D6EFF0E0E6EC6
:10F36C0051EC6BF0660E616E760E606EC10EE82E7F
:10F37C00FED7602EFCD7612EFAD700F0010E3FECC1
:10F38C0060F0C30E606ECD0EE82EFED7602EFCD75B
:10F39C0000F0E30E0D6EFE0E0E6E51EC6BF0C00E17
:10F3AC003FEC60F04C0E0D6EFD0E0E6E51EC6BF0E2
:10F3BC0081A2FED781380F0B0F0B01016B6F81B24D
:10F3CC00FED70F0E01016B19D8A4EED36705681197
:10F3DC00D8A4D9D1875104E1080E865DD8A02AD0D3
:10F3EC00010E3FEC60F0C30E606ECD0EE82EFED722
:10F3FC00602EFCD700F00C0E3FEC60F0FE0E0D6E94
:10F40C00FE0E0E6E51EC6BF0C00E3FEC60F03B0E3E
:10F41C000D6EFD0E0E6E51EC6BF0660E616E760E7F
:10F42C00606EC10EE82EFED7602EFCD7612EFAD787
:10F43C0000F028D3010E3FEC60F0C30E606ECD0ED1
:10F44C00E82EFED7602EFCD700F00C0E3FEC60F0DF
:10F45C00010E0D6EFE0E0E6E51EC6BF0C00E3FECFD
:10F46C0060F0210E0D6EFE0E0E6E51EC6BF081A253
:10F47C00FED781380F0B0F0B0101766F81B2FED7CF
:10F48C000F0E01017619D8A477D1010E3FEC60F074
:10F49C00C30E606ECD0EE82EFED7602EFCD700F0AA
:10F4AC00A5EC67F029C082F12AC083F1640E01013A
:10F4BC0082198311D8A405D0000E836F000E826FC1
:10F4CC00B9D7000E896F000E886F89512CE1080E98
:10F4DC00885DD8B028D0D8908835D96E8935DA6E49
:10F4EC00500ED926010EDA228251DE1819E1835111
:10F4FC00DE18D8A415D0000E786F010E776FD89057
:10F50C008835D96E8935DA6E500ED926010EDA227D
:10F51C00DE50DE10D8A404D0000E7A6F010E796F85
:10F52C00884B892BD2D777057811D8A462D079056E
:10F53C007A11D8A42FD0010E3FEC60F0C30E606E90
:10F54C00CD0EE82EFED7602EFCD700F00C0E3FEC53
:10F55C0060F0710E0D6EFF0E0E6E51EC6BF0C00E66
:10F56C003FEC60F0B10E0D6EFD0E0E6E51EC6BF0BB
:10F57C00660E616E760E606EC10EE82EFED7602EA2
:10F58C00FCD7612EFAD700F0000E01017A6F000E45
:10F59C00796F29D0010E3FEC60F0C30E606ECD0E7A
:10F5AC00E82EFED7602EFCD700F00C0E3FEC60F07E
:10F5BC00AA0E0D6EFE0E0E6E51EC6BF0C00E3FECF3
:10F5CC0060F0840E0D6EFF0E0E6E51EC6BF0660E3D
:10F5DC00616E760E606EC10EE82EFED7602EFCD7E3
:10F5EC00612EFAD700F0000E0101786F000E776FD4
:10F5FC00F1D6010E3FEC60F0C30E606ECD0EE82E1E
:10F60C00FED7602EFCD700F082C129F083C12AF00E
:10F61C004AEC6DF029C080F12AC081F1640E010121
:10F62C0080198111D8A405D0000E816F000E806F57
:10F63C002CD780C129F081C12AF082C12BF083C163
:10F64C002CF0A8EC66F029C084F12AC085F1640E78
:10F65C00010184198511D8A409D0000E816F000E08
:10F66C00806F000E856F000E846FC3D7D8908635DF
:10F67C00D96E8735DA6E500ED926010EDA2282C188
:10F68C00DEFF83C1DDFF80C101F081C102F016EC09
:10F69C0066F001C072F102C073F1D8900101863599
:10F6AC00D96E8735DA6E300ED926010EDA2272C188
:10F6BC00DEFF73C1DDFF84C101F085C102F0B0EC47
:10F6CC0068F001C074F102C075F1D8900101863563
:10F6DC00D96E8735DA6E400ED926010EDA2274C146
:10F6EC00DEFF75C1DDFF84C101F085C102F013ECB2
:10F6FC0065F001C06CF102C06DF184C101F085C1EF
:10F70C0002F09BEC64F001C06EF102C06FF184C199
:10F71C0001F085C102F08BEC65F001C070F102C004
:10F72C0071F1D89001018635D96E8735DA6E000EED
:10F73C00D926010EDA226CC1DEFF6DC1DDFFD89037
:10F74C008635D96E8735DA6E100ED926010EDA227F
:10F75C006EC1DEFF6FC1DDFFD8908635D96E87355F
:10F76C00DA6E200ED926010EDA2270C1DEFF71C1CD
:10F77C00DDFF864B872B04D00E0E7619D8B482D1C0
:10F78C00000E766F27D6010E3FEC60F0C30E606E54
:10F79C00CD0EE82EFED7602EFCD700F0A5EC67F05E
:10F7AC0029C082F12AC083F1640E010182198311F0
:10F7BC00D8A409D0000E836F000E826F000E686F04
:10F7CC00010E676F37D6000E686F010E676F000E63
:10F7DC00896F000E886F89512CE1080E885DD8B0B6
:10F7EC0028D0D8908835D96E8935DA6E500ED92646
:10F7FC00010EDA228251DE1819E18351DE18D8A4E9
:10F80C0015D0000E786F010E776FD8908835D96EB1
:10F81C008935DA6E500ED926010EDA22DE50DE1052
:10F82C00D8A404D0000E7A6F010E796F884B892B07
:10F83C00D2D777057811D8A462D079057A11D8A4DB
:10F84C002FD0010E3FEC60F0C30E606ECD0EE82E93
:10F85C00FED7602EFCD700F00C0E3FEC60F0710E62
:10F86C000D6EFF0E0E6E51EC6BF0C00E3FEC60F0A7
:10F87C00B10E0D6EFD0E0E6E51EC6BF0660E616EE0
:10F88C00760E606EC10EE82EFED7602EFCD7612E70
:10F89C00FAD700F0000E01017A6F000E796F29D0B3
:10F8AC00010E3FEC60F0C30E606ECD0EE82EFED75D
:10F8BC00602EFCD700F00C0E3FEC60F0AA0E0D6E23
:10F8CC00FE0E0E6E51EC6BF0C00E3FEC60F0840E31
:10F8DC000D6EFF0E0E6E51EC6BF0660E616E760EB9
:10F8EC00606EC10EE82EFED7602EFCD7612EFAD7C3
:10F8FC0000F0000E0101786F000E776F67D5010ED6
:10F90C003FEC60F0C30E606ECD0EE82EFED7602E7D
:10F91C00FCD700F082C129F083C12AF04AEC6DF0CB
:10F92C0029C080F12AC081F1640E01018019811176
:10F93C00D8A405D0000E816F000E806F24D780C133
:10F94C0029F081C12AF082C12BF083C12CF0A8ECE4
:10F95C0066F029C084F12AC085F1640E0101841976
:10F96C008511D8A409D0000E816F000E806F000E97
:10F97C00856F000E846FC3D7D8908635D96E8735C6
:10F98C00DA6E500ED926010EDA2282C1DEFF83C157
:10F99C00DDFF80C101F081C102F016EC66F001C000
:10F9AC0072F102C073F1D89001018635D96E87359A
:10F9BC00DA6E300ED926010EDA2272C1DEFF73C167
:10F9CC00DDFF84C101F085C102F0B0EC68F001C02C
:10F9DC0074F102C075F1D89001018635D96E873566
:10F9EC00DA6E400ED926010EDA2274C1DEFF75C123
:10F9FC00DDFF84C101F085C102F013EC65F001C09C
:10FA0C006CF102C06DF184C101F085C102F09BEC78
:10FA1C0064F001C06EF102C06FF184C101F085C1C8
:10FA2C0002F08BEC65F001C070F102C071F1D8905E
:10FA3C0001018635D96E8735DA6E000ED926010E96
:10FA4C00DA226CC1DEFF6DC1DDFFD8908635D96E30
:10FA5C008735DA6E100ED926010EDA226EC1DEFF62
:10FA6C006FC1DDFFD8908635D96E8735DA6E200EE2
:10FA7C00D926010EDA2270C1DEFF71C1DDFF864B83
:10FA8C00872BA4D4010186518711D8A405D0000E70
:10FA9C005F6E000E5E6E1200FA0E53EC60F0010108
:10FAAC007F6F040E7F19D8B4A1EC62F0000E010137
:10FABC00896F000E886F895172E1080E885DD8B08D
:10FACC006ED07F51D8B404D0040E7F19D8A40FD0B7
:10FADC0088C101F089C102F0000E046E030E036EA2
:10FAEC009CEC60F001C07BF102C07CF122D0FF0ED7
:10FAFC0001017F25016E026AFF0E0222000E046EC8
:10FB0C00230E036E9CEC60F001C060F002C061F04B
:10FB1C0088C101F089C102F0000E046E030E036E61
:10FB2C009CEC60F00150602401017B6F025061205D
:10FB3C007C6FD89001018835D96E8935DA6E500EFC
:10FB4C00D926010EDA22DF50016E7B510B0FAFEC80
:10FB5C0060F0D89001018835D96E8935DA6E300E97
:10FB6C00D926010EDA22DF50016E7B510C0FAFEC5F
:10FB7C0060F0D89001018835D96E8935DA6E400E67
:10FB8C00D926010EDA22DF50016E7B510D0FAFEC3E
:10FB9C0060F00101884B892B895101E18ED7000E51
:10FBAC005F6E010E5E6E12000E0E6B19D8A45FD044
:10FBBC00DBEC69F052C069F153C06AF10F0E010120
:10FBCC0069196A11D8B4F4D70E0E69196A11D8A440
:10FBDC0020D0010E3FEC60F0C30E606ECD0EE82E0F
:10FBEC00FED7602EFCD700F00C0E3FEC60F03B0E05
:10FBFC000D6EFF0E0E6E51EC6BF0660E616E760E96
:10FC0C00606EC10EE82EFED7602EFCD7612EFAD79F
:10FC1C0028D0010E3FEC60F0C30E606ECD0EE82EC6
:10FC2C00FED7602EFCD700F00C0E3FEC60F0F10E0E
:10FC3C000D6EFE0E0E6E51EC6BF0C00E3FEC60F0D4
:10FC4C003B0E0D6EFF0E0E6E51EC6BF0660E616E80
:10FC5C00760E606EC10EE82EFED7602EFCD7612E9C
:10FC6C00FAD700F0000E5F6E000E5E6E1200010EF1
:10FC7C003FEC60F0C30E606ECD0EE82EFED7602E0A
:10FC8C00FCD700F00C0E3FEC60F0F10E0D6EFE0E8A
:10FC9C000E6E51EC6BF0C00E3FEC60F03B0E0D6E37
:10FCAC00FF0E0E6E51EC6BF0660E616E760E606E92
:10FCBC00C10EE82EFED7602EFCD7612EFAD700F0CD
:10FCCC00000E5F6E000E5E6E120000313233413456
:10FCDC00353642373839432A3023440031323352D7
:10FCEC00343536463738394C2A3023440001000A63
:10FCFC00006400E803102701001000000100100050
:10FD0C0028000624021800010210022852656D61B9
:10FD1C00696E696E67207069656365733A0030318E
:10FD2C003233343536373839616263646566006462
:10FD3C007261776572732072656163686564210016
:10FD4C00626567696E206F7065726174696F6E2E83
:10FD5C0000506C6561736520696E707574206C6FF2
:10FD6C006700523A25692020463A256920204C3AF2
:10FD7C00256900507265737320616E79206B65790B
:10FD8C0020746F0025692070726576696F75732019
:10FD9C006C6F677300636162696E657420736F7258
:10FDAC0074657221006E756D626572207072657378
:10FDBC007365642E00447261776572202569206634
:10FDCC006F6F643A004F7065726174696F6E207466
:10FDDC00696D653A004D61726B6564206472617780
:10FDEC006572733A004472617765722025692064EC
:10FDFC006965743A00416E6F746865722064726153
:10FE0C007765723F0057656C636F6D6520746F206A
:10FE1C00796F75720023203D204E6F2C2044203DBD
:10FE2C002059657300436C656172696E67204545A6
:10FE3C0050524F4D00447261776572206E756D6241
:10FE4C0065723A00496E7075742053756D6D6172F0
:10FE5C00793A00312070726576696F7573206C6F1A
:10FE6C00670025692C2025692C2025692C20256903
:10FE7C0000253032692F253032692F253032690048
:10FE8C00253032782F253032782F253032780025E6
:10FE9C003032783A253032783A2530327800447254
:10FEAC006177657220616C726561647900496E7668
:10FEBC00616C696420666F6F642100496E76616CB9
:10FECC006964206469657421006D6F766520666FC6
:10FEDC0072776172642E006F72207072657373207A
:10FEEC004420746F00496E76616C6964206B65798F
:10FEFC0021004D6178696D756D206F662038004169
:10FF0C006E6F74686572206C6F673F004375727218
:10FF1C00656E7420646174650076696577206C6F1A
:10FF2C0067732C00617661696C61626C652E00529E
:10FF3C0065626F6F74696E672E0054727920616709
:10FF4C0061696E2E004472617765722025693A00F2
:10FF5C005072657373202320746F00616E6420747B
:10FF6C00696D653A004E6F20647261776572006E40
:10FF7C00756D6265723A2000696E2075736521009B
:10FF8C0025693A25303269004E6F206C6F6773001B
:10FF9C005374616E64627900286E756C6C2900472D
:10FFAC00726561742100446174653A0031313131FC
:10FFBC00005246464C005252464C0052464C4C00A5
:10FFCC00464C4C4C00524C4C4C0025732573003263
:10FFDC00313100313231003131320052464600525B
:10FFEC00524600524C4C0052524C003232003133CB
:04FFFC0000520000AF
:020000040020DA
:08000000FFFFFFFFFFFFFFFF00
:020000040030CA
:0E000000FF061F1EFF8381FF0F400FE00F4021
:00000001FF
