:0400000020EF50F0AD
:1099F60036350DEC4DF0C58012000DEC4DF0C584EA
:109A06001200F2013837343332310DEC4DF002C01A
:109A1600C9FF1200C7B4FED7C5CF01F01F0E01164D
:109A2600D8B41200F7D7036E8C9403505EEC4FF057
:109A3600C80E00D0E82EFDD71200016EA6B2FED7E2
:109A460001C0A9FFA69EA69CA680A8501200036E80
:109A56008C8403505EEC4FF0C80E00D0E82EFDD784
:109A66001200036E000E026E3A0E036005D02F0E32
:109A7600036402D0010E026E02C001F00130120032
:109A8600026E0DEC4DF0C5860DEC4DF0C9CF03F01E
:109A96000DEC4DF002B002D0C59A01D0C58AC5883A
:109AA60003501200000E046E000E036E000E046ECC
:109AB600000E036E0404D8B01200000E016E0350AF
:109AC6007BEC4DF0034A042AF5D701500302F3CF8D
:109AD60005F0F4CF06F001500402F35006260250BA
:109AE6000302F350062605C001F006C002F012007C
:109AF600026EA6B2FED7A68402C0A9FF01C0A8FFC7
:109B0600A69EA69CF29E550EA76EAA0EA76EA682CC
:109B1600F28EA6B2FED7A694120006040710D8A4A9
:109B260009D0710E016E000E026E010E036E65EC19
:109B360050F0120006500710D8A41200700E016EE5
:109B4600000E026E010E036E65EC50F01200FCFF73
:109B5600E4FFC0FFE7FFEFFFBFFFE6FFEEFFE2FF18
:109B6600EAFFC3FFBEFFC8FFC2FFBDFFC7FFD1FFAD
:109B7600CCFFBBFFE0FFFAFFBAFFDFFFF9FFDBFF19
:109B8600F6FFB9FFDEFFDAFFD6FFB8FF0A500B106B
:109B9600D8B418D0010E0C6E04D0D8900A360B3605
:109BA6000C2A0BAEFAD70A50085C0B500958D8A0FD
:109BB60004D00A50085E0B50095AD8900B320A326C
:109BC6000C2EF1D708C008F009C009F01200C30E28
:109BD600046ECD0EE82EFED7042EFCD700F0330E11
:109BE60016EC4DF0320E16EC4DF0280E16EC4DF03C
:109BF6000F0E16EC4DF0060E16EC4DF0010E16EC9F
:109C06004DF0C30E046ECD0EE82EFED7042EFCD703
:109C160000F00F0E16EC4DF01200000E066E000E50
:109C2600056E03500410D8B41CD0010E076E04D084
:109C3600D89003360436072A04AEFAD7D8900536EC
:109C460006360350015C04500258D8A005D00350D4
:109C5600015E0450025A0580D89004320332072E62
:109C6600EDD705C001F006C002F01200056E000E29
:109C7600096E000E086E000E076E000E066E000ED0
:109C8600096E000E086E0DD00850011808E1095043
:109C96000218D8A404D0000E076E010E066E084AFC
:109CA600092A0550036E046A0350085C04500958DB
:109CB600D8A0EAD706C001F007C002F01200000ED5
:109CC600066E000E056E01040210D8A40FD0898816
:109CD600899A8D821A0E046E5E0E036E6E0EE82E43
:109CE600FED7032EFCD7042EFAD712D00104021099
:109CF600D8A40FD08998898A8D821A0E046E5E0EBA
:109D0600036E6E0EE82EFED7032EFCD7042EFAD76E
:109D160000D08998899A8D921200C69A9486948862
:109D2600800EC76E280EC66E000EC56E000E016E42
:109D36005A0E026E620E036E020E046E0EC012F012
:109D46000FC013F010C014F011C015F0020ED89019
:109D56001236133614361536E82EF9D712C005F02A
:109D660013C006F014C007F015C008F09DEC4FF0C4
:109D76000104C86E1200000E086E000E076E000E7B
:109D86000A6E000E096E000E0A6E000E096E0A506B
:109D96001DE118D0D8900934D96E0A34DA6E015014
:109DA600D9260250DA220350DE1808E10450DE18E4
:109DB600D8A404D009C007F00AC008F0094A0A2A44
:109DC6000A5004E1080E095CD8A0E4D707C001F0E8
:109DD60008C002F01200000E0B6E000E0A6E080498
:109DE6000910D8A416D0000E0B6E000E0A6E0AD00B
:109DF600730E016E000E026E010E036E65EC50F0DE
:109E06000A4A0B2A06500A5C07500B58D8B01200B3
:109E1600EFD708500910D8A41200000E0B6E000EE2
:109E26000A6E0AD0720E016E000E026E010E036EED
:109E360065EC50F00A4A0B2A06500A5C07500B588C
:109E4600D8B01200EFD7000E0B6E000E0A6E080493
:109E56000910D8A416D0000E0B6E000E0A6E0AD09A
:109E6600750E016E000E026E010E036E65EC50F06B
:109E76000A4A0B2A06500A5C07500B58D8B0120043
:109E8600EFD708500910D8A41200000E0B6E000E72
:109E96000A6E0AD0740E016E000E026E010E036E7B
:109EA60065EC50F00A4A0B2A06500A5C07500B581C
:109EB600D8B01200EFD7026E0250F00B016E8C5034
:109EC6000F0B8C6E01508C108C6E000EF2BE010EC4
:109ED600786EF29E8C86530EE82EFED700F08C9696
:109EE600C80E00D0E82EFDD778B002D0F29E01D081
:109EF600F28E0238F00B026E0250F00B016E8C509F
:109F06000F0B8C6E01508C108C6E000EF2BE010E83
:109F1600786EF29E8C86530EE82EFED700F08C9655
:109F2600C80E00D0E82EFDD778B002D0F29E01D040
:109F3600F28E1200000E096E000E0A6E000E0B6EF7
:109F4600000E0C6E0550061007100810D8B42AD063
:109F5600010E0D6E06D0D890053606360736083641
:109F66000D2A08AEF8D7D89009360A360B360C36C5
:109F76000550015C06500258075003580850045813
:109F8600D8A009D00550015E0650025A0750035A60
:109F96000850045A0980D890083207320632053232
:109FA6000D2EE1D709C001F00AC002F00BC003F084
:109FB6000CC004F01200000E016E5A0E026E620E04
:109FC600036E020E046E0FC013F010C014F011C021
:109FD60015F012C016F0060ED89013361436153644
:109FE6001636E82EF9D713C005F014C006F015C0D2
:109FF60007F016C008F058EC52F00104AF6EAC9CA6
:10A00600AC98AC8AAB9CAB8820EE08F06E50D92693
:10A016006F50DA22010EDF6E20EE09F06E50D9265F
:10A026006F50DA22010EDF6E400E0101F66F020E4E
:10A03600F76F949C948EAB8E1200540EF66E9B0EA8
:10A04600F76E000EF86E02EE50F010EE3EF00900CC
:10A05600F5CFEEFFE550E150FAE1F60EF66E990EF9
:10A06600F76E000EF86E0900F5CFF8F00900F5CF8F
:10A07600F9F0080EF66E9A0EF76E000EF86E00EE08
:10A086006EF010EE08F00900F5CFEEFFE550E15056
:10A09600FAE102EE00F0500EEE6AE806FDE101EE8E
:10A0A6008AF0740EEE6AE806FDE100EED0F0280EA6
:10A0B600EE6AE806FDE1796A786A776A766A0001EF
:10A0C60061EF56F020EE08F06E50D9266F50DA2276
:10A0D600DF50D8B4F7D720EE08F06E50D9266F506F
:10A0E600DA22000EDF6E000E056EAC8A410E046E9B
:10A0F600EE0EE82EFED7042EFCD700D023D0ACB24D
:10A1060002D0010E01D0000E046E9EB802D0010EE0
:10A1160001D0000E0410F3E100F0000EF2BE010EB5
:10A12600796EF29E0550010DF3500124D96EF4505C
:10A136000220DA6EDF50AD6E79B002D0F29E01D009
:10A14600F28E052A0350055CD8A0D9D720EE08F078
:10A156006E50D9266F50DA22010EDF6E1200000E05
:10A166000B6E000E0A6E000E0B6E000E0A6E32D0DB
:10A176008C808C928C948C961A0E096EF80EE82EB2
:10A18600FED7092EFCD700D08C908C828C948C96AE
:10A196001A0E096EF80EE82EFED7092EFCD700D04F
:10A1A6008C908C928C848C961A0E096EF80EE82E82
:10A1B600FED7092EFCD700D08C908C928C948C867E
:10A1C6001A0E096EF80EE82EFED7092EFCD700D01F
:10A1D6000A4A0B2A07C001F008C002F0020E046EFC
:10A1E6000B0E036E68EC4DF001500A5C02500B58E2
:10A1F600D8A0BED78C908C928C948C961200000EB0
:10A206000B6E000E0A6E000E0B6E000E0A6E32D03A
:10A216008B908B928B848D941A0E096EF80EE82E15
:10A22600FED7092EFCD700D08B908B828B948D9411
:10A236001A0E096EF80EE82EFED7092EFCD700D0AE
:10A246008B808B928B948D941A0E096EF80EE82EE5
:10A25600FED7092EFCD700D08B908B928B948D84E1
:10A266001A0E096EF80EE82EFED7092EFCD700D07E
:10A276000A4A0B2A07C001F008C002F0020E046E5B
:10A286000B0E036E68EC4DF001500A5C02500B5841
:10A29600D8A0BED78B908B928B948D941200000E13
:10A2A6000B6E000E0A6E000E0B6E000E0A6E32D09A
:10A2B6008C988C9A8C8C8C9E1A0E096EF80EE82E51
:10A2C600FED7092EFCD700D08C988C8A8C9C8C9E4D
:10A2D6001A0E096EF80EE82EFED7092EFCD700D00E
:10A2E6008C888C9A8C9C8C9E1A0E096EF80EE82E21
:10A2F600FED7092EFCD700D08C988C9A8C9C8C8E1D
:10A306001A0E096EF80EE82EFED7092EFCD700D0DD
:10A316000A4A0B2A07C001F008C002F0020E046EBA
:10A326000B0E036E68EC4DF001500A5C02500B58A0
:10A33600D8A0BED78C988C9A8C9C8C9E1200000E4E
:10A34600076E000E066E000E056E000E046E000E01
:10A35600076E460E066E075014E1690E065CD8B00D
:10A3660010D0065020EC4DF0036E0350046E056AC3
:10A3760004C001F00650230F7BEC4DF0064A072A75
:10A38600EAD7000E076E230E066E075014E1460E3E
:10A39600065CD8B010D0065020EC4DF0036E03508A
:10A3A600046E056A04C001F00650230F7BEC4DF0E5
:10A3B600064A072AEAD7000E076E000E066E0750F9
:10A3C60014E1230E065CD8B01200065020EC4DF0C6
:10A3D600036E0350046E056A04C001F00650230F95
:10A3E6007BEC4DF0064A072AEAD71200000E066EED
:10A3F600000E056E15D0000E066E010E056E50D0CD
:10A40600000E066E020EFAD7000E066E030EF6D783
:10A41600000E066E040EF2D7000E066E000EEED784
:10A4260001C003F002C004F00450000AD8A4F4D717
:10A436000350030AD8B4DFD7040AD8B4DCD70D0A10
:10A44600D8B4DED7060AD8B4D6D7010AD8B4DCD732
:10A45600020AD8B4D5D71E0AD8B4D6D7030AD8B4B8
:10A46600D3D7010AD8B4CCD7050AD8B4CDD70F0AAA
:10A47600D8B4CED7030AD8B4C7D7010AD8B4C4D73C
:10A48600060AD8B4C5D7020AD8B4BED73D0AD8B48E
:10A49600BFD7050AD8B4BCD70C0AD8B4B9D7BCD72D
:10A4A60005C001F006C002F01200000E0A6E08AEEA
:10A4B6000AD0081E071E061E056C000E062207227D
:10A4C6000822010E0A6E04AE0AD0041E031E021EE6
:10A4D600016C000E022203220422010E0A1A000E4B
:10A4E6000B6E000E0C6E000E0D6E000E0E6E0550FD
:10A4F600061007100810D8B42AD0010E096E06D02F
:10A50600D8900536063607360836092A08AEF8D733
:10A51600D8900B360C360D360E360550015C0650BB
:10A5260002580750035808500458D8A009D00550BF
:10A53600015E0650025A0750035A0850045A0B800F
:10A54600D8900832073206320532092EE1D70A5072
:10A55600D8B408D00E1E0D1E0C1E0B6C000E0C225D
:10A566000D220E220BC001F00CC002F00DC003F04C
:10A576000EC004F012003AD0000E066E010E2FD067
:10A58600000E066E020E2BD0000E066E030E27D0AE
:10A59600000E066E070E23D0000E066E080E1FD0A4
:10A5A600000E066E090E1BD0000E066E0A0E17D0A0
:10A5B600000E066E0B0E13D0000E066E0C0E0FD09C
:10A5C600000E066E0D0E0BD0000E066E0E0E07D098
:10A5D600000E066E0F0E03D0000E066E100E056EF0
:10A5E60036D001C005F002C006F031D001C003F03C
:10A5F60002C004F00450000AD8A4F3D70350010A9D
:10A60600D8B4BED7030AD8B4BFD70A0AD8B4C0D7BD
:10A61600010AD8B4C1D7030AD8B4C2D71E0AD8B41F
:10A62600ABD7010AD8B4C8D7030AD8B4C9D70E0A1B
:10A63600D8B4CAD7010AD8B4CBD7030AD8B4CCD772
:10A646003B0AD8B4B1D7090AD8B4B2D7CAD705C01D
:10A6560001F006C002F01200000E066E000E056E36
:10A666000DD0000E066E010E03D0000E066E020E11
:10A67600056E65D0000E066E000EFAD701C003F017
:10A6860002C004F00450000AD8A4F4D70350030A09
:10A69600D8B4E7D7070AD8B4E8D70C0AD8B4E1D7B4
:10A6A600010AD8B4E2D7030AD8B4DBD7010AD8B472
:10A6B600DCD71A0AD8B4D5D7030AD8B4D2D7010A38
:10A6C600D8B4CFD7070AD8B4D0D7010AD8B4CDD7D3
:10A6D600030AD8B4C6D7010AD8B4C7D70D0AD8B466
:10A6E600C4D7010AD8B4C1D73B0AD8B4BAD7010A2D
:10A6F600D8B4B7D7030AD8B4B8D7010AD8B4B1D7F3
:10A70600070AD8B4B2D7010AD8B4AFD7030AD8B467
:10A71600A8D7010AD8B4A5D70F0AD8B4A2D7010A78
:10A72600D8B4A3D7030AD8B49CD7010AD8B49DD706
:10A73600070AD8B496D7020AD8B493D79BD705C0D0
:10A7460001F006C002F01200000E066E000E056E45
:10A756000DD0000E066E020E056E69D0000E066E56
:10A76600010EFAD7000E066E000EF6D701C003F0F2
:10A7760002C004F00450000AD8A4F4D70350010A1A
:10A78600D8B4ECD7030AD8B4E4D70A0AD8B4E6D7C3
:10A79600010AD8B4E3D7030AD8B4DBD7010AD8B480
:10A7A600D8D7070AD8B4DAD7010AD8B4D7D7030A54
:10A7B600D8B4D4D7010AD8B4CCD71F0AD8B4C9D7CD
:10A7C600060AD8B4C6D7010AD8B4C3D70F0AD8B474
:10A7D600C0D7010AD8B4BDD7030AD8B4BFD7010A77
:10A7E600D8B4B7D7070AD8B4B9D7010AD8B4B6D7F8
:10A7F600030AD8B4B3D7010AD8B4ABD73F0AD8B442
:10A80600ADD7010AD8B4AAD7030AD8B4A7D7010A84
:10A81600D8B49FD7090AD8B49CD7010AD8B49ED712
:10A82600070AD8B49BD7010AD8B498D79BD705C0D6
:10A8360001F006C002F01200000E066E000E056E54
:10A8460011D0000E066E010E07D0000E066E020E27
:10A8560003D0000E066E030E056E74D0000E066E53
:10A86600000EFAD701C003F002C004F00450000A3B
:10A87600D8A4F4D70350050AD8B4E3D7030AD8B44A
:10A88600E4D7010AD8B4E5D70B0AD8B4DAD7010A57
:10A89600D8B4DBD7030AD8B4DCD7010AD8B4D1D7E9
:10A8A6001F0AD8B4D2D7010AD8B4CBD7030AD8B472
:10A8B600CCD7010AD8B4CDD7070AD8B4C2D7010A73
:10A8C600D8B4C3D70D0AD8B4BCD7010AD8B4BDD7FB
:10A8D600050AD8B4BAD7010AD8B4BBD7030AD8B484
:10A8E600B8D7010AD8B4B1D73F0AD8B4AAD7010A53
:10A8F600D8B4ABD7030AD8B4A4D7010AD8B4A1D721
:10A90600070AD8B49ED7010AD8B49FD7030AD8B489
:10A916009CD7010AD8B49DD70F0AD8B49AD7010A92
:10A92600D8B493D7030AD8B48CD7010AD8B489D738
:10A93600070AD8B48AD7010AD8B48BD7030AD8B481
:10A9460088D78CD705C001F006C002F01200000EB1
:10A95600166E000E156E000E186E000E176E000EA7
:10A96600106E000E0F6E000E146E000E136E000EAB
:10A97600126E000E116EFA0E20EC4DF00D6E0D509B
:10A986000F6E106A0F501010D8B405D0040E0F18B1
:10A996001010D8A405D0000E146E000E136E10D041
:10A9A600FF0E0F24016EFF0E1020026E000E046EC5
:10A9B600230E036E68EC4DF001C013F002C014F0D4
:10A9C600000E186E0B0E176E18504DE1230E175C15
:10A9D600D8B012001750132420EC4DF00D6E0D5018
:10A9E600156E166AD8901134D96E1234DA6E075085
:10A9F600D9260850DA2215C0DEFF16C0DDFF175033
:10AA060013240D6E0D2820EC4DF00E6E0E50156EB3
:10AA1600166AD8901134D96E1234DA6E0950D926D6
:10AA26000A50DA2215C0DEFF16C0DDFF17501324C8
:10AA3600020F20EC4DF00D6E0D50156E166AD89073
:10AA46001134D96E1234DA6E0B50D9260C50DA2234
:10AA560015C0DEFF16C0DDFF114A122A030E1726A7
:10AA6600000E1822B1D71200000E066E640E056E97
:10AA760049D0000E066E020E43D0000E066E000E82
:10AA86003FD0000E066E010E3BD0000E066E030E82
:10AA960037D0000E066E040E33D0000E066E050E7D
:10AAA6002FD0000E066E060E2BD0000E066E070E79
:10AAB60027D0000E066E080E23D0000E066E090E75
:10AAC6001FD0000E066E0A0E1BD0000E066E0B0E71
:10AAD60017D0000E066E0C0E13D0000E066E0D0E6D
:10AAE6000FD0000E066E0E0E0BD0000E066E0F0E69
:10AAF60007D0000E066E100E03D0000E066E110E65
:10AB0600056E3FD001C003F002C004F00450000AF5
:10AB1600D8A437D00350030AD8B4AFD7040AD8B4A0
:10AB2600B0D70D0AD8B4B1D7060AD8B4A2D7010A4D
:10AB3600D8B4B7D7020AD8B4ACD71E0AD8B4B9D796
:10AB4600030AD8B4B2D7010AD8B4A7D7050AD8B42D
:10AB5600B8D70F0AD8B4C1D7030AD8B4B6D7010AF2
:10AB6600D8B4ABD7060AD8B4BCD7020AD8B4B1D782
:10AB76003D0AD8B4BAD7050AD8B4BBD70C0AD8B49C
:10AB8600BCD705C001F006C002F01200000E086E28
:10AB9600000E076E60D003500410D8A404D0000E37
:10ABA600086E010E08D0030445D0030E03180410E6
:10ABB600D8A403D0F4D7076E7CD0040E0318041073
:10ABC600D8B4EDD7060E03180410D8B436D0070E45
:10ABD60030D0030E03180410D8B4E1D7040E0318BE
:10ABE6000410D8B4DCD7050E03180410D8B4D7D790
:10ABF600060E03180410D8A4EAD71FD0080E0318AF
:10AC06000410D8B41AD0090E14D0080E0BD0080EB2
:10AC160003180410D8B4C3D7090E03180410D8B407
:10AC2600BED70A0E03180410D8B4B9D70B0E01D03C
:10AC36000C0E03180410D8A43CD0000E086E020EA9
:10AC4600BAD70C0E03180410D8A433D0A8D7000E18
:10AC5600086E000EB0D701C005F002C006F006501F
:10AC6600000AD8A4F4D70550000AD8B494D7030A2A
:10AC7600D8B49BD7070AD8B4ACD7020AD8B4BED783
:10AC8600010AD8B4BBD70F0AD8B4BFD7010AD8B4C3
:10AC9600BED7030AD8B4BBD7070AD8B4C9D7030AA4
:10ACA600D8B4CFD7010AD8B4CCD71F0AD8B4C9D7DD
:10ACB600CED707C001F008C002F01200000E896E60
:10ACC600000E8A6E000E8B6E000E8C6E000E8D6E60
:10ACD60092689368000E946E000E956E000E966E46
:10ACE600000EC26E0F0EC16EEAEC4DF0010E16ECB0
:10ACF6004DF0C30E646ECD0EE82EFED7642EFCD743
:10AD060000F00C0E16EC4DF0970E0D6EFF0E0E6E4B
:10AD16000CEC61F0800E0F6E250E106E000E116E9B
:10AD2600000E126EDEEC4FF0000E6B6E000E6A6EB9
:10AD3600000E676E000E666E000E696E000E686E7F
:10AD460095909592959495969598959A959C959E9D
:10AD560094949492949096949298929A96909692AD
:10AD66008D948B948B928B908C968C948C928C90E9
:10AD76008C988C9A8C9C8C9E8D928D908998899AB1
:10AD8600000E6D6E000E6C6EFB0E20EC4DF0646EC8
:10AD960064506C6E6D6A6C286D10D8A41FD055EC8B
:10ADA6004DF0010E16EC4DF0C30E646ECD0EE82E7E
:10ADB600FED7642EFCD700F0A00E0D6EFD0E0E6EB3
:10ADC6000CEC61F0660E656E760E646EC10EE82EB2
:10ADD600FED7642EFCD7652EFAD700F0A8EC76F0E5
:10ADE6005EC06AF05FC06BF06A046B10D8B456ECB4
:10ADF60068F0764A772A00EF00F0000E086E000E23
:10AE0600076E7BD003500410D8A404D0000E086E41
:10AE1600010E20D003040410D8A49DD0000E086EA5
:10AE2600020E18D0030E03180410D8B4EFD7040E80
:10AE360003180410D8B4F2D7060E03180410D8B4B9
:10AE4600E5D7070E0318E7D7030E03180410D8A496
:10AE560003D0DCD7076E7FD0040E03180410D8B4D5
:10AE6600D5D7050E03180410D8B4D0D7060E03188C
:10AE76000410D8B4D3D7E5D7080E03180410D8A405
:10AE860022D0C4D7080E03180410D8B4C7D70B0EA7
:10AE9600D9D7080E03180410D8B4B8D7090E03186A
:10AEA6000410D8B4B3D70A0E03180410D8B4B6D712
:10AEB6000B0E03180410D8A44ED0A8D7080E0318FA
:10AEC6000410D8B4ABD7090EBDD7080E031804106A
:10AED600D8B49CD7090E03180410D8B497D70A0E15
:10AEE60003180410D8A4D3D791D70C0EABD70C0EE9
:10AEF600E0D7000E086E000EADD701C005F002C007
:10AF060006F00650000AD8A4F4D70550010AD8B4B2
:10AF160079D7020AD8B486D7060AD8B495D7030AD1
:10AF2600D8B4AAD70E0AD8B4ADD7020AD8B4B1D7C6
:10AF3600010AD8B4C3D7070AD8B4C7D7010AD8B408
:10AF4600D6D7030AD8B4D1D7010AD8B4D0D71E0AA7
:10AF5600D8B4CDD7CED707C001F008C002F0120092
:10AF660025D0000E086E010E076E52EC51F0660EEB
:10AF7600136E760E126EC10EE82EFED7122EFCD779
:10AF8600132EFAD711D0000E086E020E076E52EC81
:10AF960051F0660E136E760E126EC10EE82EFED7B7
:10AFA600122EFCD7132EFAD700F035D00CC012F0B3
:10AFB6000DC013F01350000AD8A42DD01250010A68
:10AFC600D8B4CFD7030AD8B4DED725D0000E086E82
:10AFD600010E076EB2EC50F0660E136E760E126E10
:10AFE600C10EE82EFED7122EFCD7132EFAD711D09B
:10AFF600000E086E020E076EB2EC50F0660E136E6F
:10B00600760E126EC10EE82EFED7122EFCD7132E28
:10B01600FAD700F049D00EC012F00FC013F013504B
:10B02600000AD8A441D01250010AD8B4CFD7030AD7
:10B03600D8B4DED739D0000E086E010E076E02ECCA
:10B0460051F0660E136E760E126EC10EE82EFED706
:10B05600122EFCD7132EFAD700F01200000E086E3F
:10B06600020E076E02EC51F0660E136E760E126E2D
:10B07600C10EE82EFED7122EFCD7132EFAD700F0FB
:10B086001200000E086E030E076E02EC51F0660EFB
:10B09600136E760E126EC10EE82EFED7122EFCD758
:10B0A600132EFAD700F0120010C012F011C013F0E0
:10B0B6001350000AD8A412001250010AD8B4BBD704
:10B0C600030AD8B4CBD7010AD8A41200DAD70C5099
:10B0D6000D10D8B412000E500F10D8B412000E5036
:10B0E6000C5C0F500D58D8B053D00CC010F00DC0EA
:10B0F60011F0101E111E104A112A0E5010260F5064
:10B10600112210041110D8A40BD0000E076E010EE8
:10B11600066E000E096E000E086EEEEC4EF0120082
:10B126000CC010F00DC011F0101E111E104A112A8D
:10B136000E5010260F501122020E10181110D8A40E
:10B146000BD0000E076E020E066E000E096E000E84
:10B15600086EEEEC4EF012000CC010F00DC011F0AF
:10B16600101E111E104A112A0E5010260F501122C1
:10B17600030E10181110D8A41200000E076E030E4D
:10B18600066E000E096E000E086EEEEC4EF0120012
:10B196000C500E5C0D500F58D8B012000EC010F0B7
:10B1A6000FC011F0101E111E104A112A0C50102645
:10B1B6000D50112210041110D8A40BD0000E076EEA
:10B1C600010E066E000E096E010E086EEEEC4EF0D4
:10B1D60012000EC010F00FC011F0101E111E104A02
:10B1E600112A0C5010260D501122020E10181110A3
:10B1F600D8A40BD0000E076E020E066E000E096E66
:10B20600010E086EEEEC4EF012000EC010F00FC0EC
:10B2160011F0101E111E104A112A0C5010260D5046
:10B226001122030E10181110D8A41200000E076E7A
:10B23600030E066E000E096E010E086EEEEC4EF061
:10B246001200000E086E000E076E8FD00350041019
:10B25600D8B40BD003040410D8B410D0020E7AD0A0
:10B26600030E03180410D8A404D0000E086E010EB5
:10B276002ED0040E03180410D8A404D0000E086EB5
:10B28600020E25D0050E03180410D8A413D0000E04
:10B29600086E030E1CD0030E03180410D8B4E5D7AD
:10B2A600040E03180410D8B4E9D7050E03180410C9
:10B2B600D8B4EDD7060E03180410D8B4D6D7070EA7
:10B2C60001D0090E03180410D8A480D0D7D7076E72
:10B2D6007DD0080E03180410D8B4D0D7090E031871
:10B2E6000410D8B4D4D70A0E03180410D8B4CFD794
:10B2F6000B0EE8D7080E03180410D8B4B6D7090EFB
:10B3060003180410D8B4BAD70A0E03180410D8B418
:10B31600ACD70B0E16D0080E03180410D8A4D1D73C
:10B32600A4D7080E03180410D8B4A8D7090E03181A
:10B336000410D8B4ACD70A0E03180410D8A4D8D772
:10B34600A6D703180410D8A441D08FD70C0EF9D76E
:10B356000C0EB8D703180410D8A438D098D70C0E02
:10B36600F9D7000E086E000EB2D701C005F002C074
:10B3760006F00650000AD8A4F4D70550020AD8B43D
:10B3860065D7060AD8B46CD7010AD8B484D7020A9E
:10B39600D8B4C1D70E0AD8B49CD7030AD8B4AAD752
:10B3A600010AD8B4B8D7070AD8B4BBD7010AD8B4AB
:10B3B600CDD7030AD8B4CAD7010AD8B4C9D71F0A49
:10B3C600D8B4CDD7010AD8B4CAD7CBD707C001F0B5
:10B3D60008C002F01200010E16EC4DF0C30E2D6EE1
:10B3E600CD0EE82EFED72D2EFCD700F0200E0D6ECA
:10B3F600FD0E0E6E2BC00FF02CC010F00CEC61F0A1
:10B40600C00E16EC4DF0000E306E000E2F6E000EC4
:10B41600366E000E356E20EED0F010EE38F0070EC8
:10B42600DBCFE3FFE806FCE2000E346E000E336E5F
:10B43600000E326E000E316E29C001F02AC002F0F5
:10B44600F9EC51F001C02FF002C030F081A2FED716
:10B4560081380F0B0F0B376E81B2FED70F0E3718E0
:10B46600D8B470D00E0E3718D8A405D0000E326EA0
:10B47600010E316E67D03750D8B407D03704D8B430
:10B4860004D0020E3718D8A42CD02F50355C30507B
:10B496003658D8B0DBD73750010D360EF324F66E8A
:10B4A600FC0EF420F76EF86A000EF8220800F5503C
:10B4B6002AEC4DF037502D6E2E6A010E2D26000E09
:10B4C6002E22D8903534D96E3634DA6E380ED92617
:10B4D600000EDA222DC0DEFF2EC0DDFF354A362AE9
:10B4E600B5D70C0E3718D8A4B1D7010E16EC4DF00F
:10B4F600C30E2D6ECD0EE82EFED72D2EFCD700F0F6
:10B50600200E0D6EFD0E0E6E2BC00FF02CC010F02F
:10B516000CEC61F0C00E16EC4DF0000E366E000E0F
:10B52600356E000E396E000E386E000E3B6E000E44
:10B536003A6E000E3D6E000E3C6E000E3F6E000E23
:10B546003E6E84D731043210D8A405D0000E2A6E80
:10B55600640E296E120029C001F02AC002F0380ECE
:10B56600036E000E046ECEEC6BF001C033F002C029
:10B5760034F033503410D8A426D0010E16EC4DF01A
:10B58600C30E2D6ECD0EE82EFED72D2EFCD700F065
:10B59600550E0D6EFE0E0E6E0CEC61F0C00E16EC26
:10B5A6004DF0FD0E0D6EFE0E0E6E0CEC61F0330EC0
:10B5B6002E6EBB0E2D6EE00EE82EFED72D2EFCD77E
:10B5C6002E2EFAD708D733C029F034C02AF012003D
:10B5D6000C0E16EC4DF0010E16EC4DF0C30E2B6E54
:10B5E600CD0EE82EFED72B2EFCD700F0BF0E0D6E2B
:10B5F600FD0E0E6E0CEC61F0C00E16EC4DF0000E5A
:10B60600336E000E326E000E2F6E000E2E6E000E82
:10B61600316E000E306E81A2FED781380F0B0F0BF4
:10B62600346E81B2FED70F0E3418D8B4C3D00E0EC6
:10B636003418D8A405D0000E316E640E306EBAD020
:10B646003450D8B423D03404D8B420D0020E3418E1
:10B65600D8B41CD0040E3418D8B418D0050E34183B
:10B66600D8B414D0060E3418D8B410D0080E341836
:10B67600D8B40CD0090E3418D8B408D00A0E341831
:10B68600D8B404D00D0E3418D8A473D03250331069
:10B69600D8A44CD03404D8B41CD0020E3418D8B474
:10B6A60018D0040E3418D8B414D0050E3418D8B4F3
:10B6B60010D0060E3418D8B40CD0080E3418D8B4EE
:10B6C60008D0090E3418D8B404D00A0E3418D8A4F9
:10B6D60014D0020E3226000E33223450010D360EDF
:10B6E600F324F66EFC0EF420F76EF86A000EF822CC
:10B6F6000800F5502AEC4DF03AD03450D8A48BD738
:10B706003450010D360EF324F66EFC0EF420F76E5F
:10B71600F86A000EF8220800F5502AEC4DF0324A7D
:10B72600332A23D02E26000E2F2275D7320433104B
:10B73600D8A471D7070E346404D00D0E3418D8A4DB
:10B746006AD73450010D360EF324F66EFC0EF42043
:10B75600F76EF86A000EF8220800F5502AEC4DF054
:10B76600324A332A3450D8A402D0140EDBD73450D0
:10B77600D9D70C0E3418D8A44ED7010E16EC4DF0BE
:10B78600C30E2B6ECD0EE82EFED72B2EFCD700F067
:10B79600BF0E0D6EFD0E0E6E0CEC61F0C00E16ECBB
:10B7A6004DF0000E336E000E326E000E2F6E000E40
:10B7B6002E6E31D7640E30183110D8A405D030C0A3
:10B7C60029F031C02AF012002EC001F02FC002F07D
:10B7D600BEEC52F001C02CF002C02DF02CC029F0B6
:10B7E6002DC02AF0120001040210D8B40AD0030EAC
:10B7F60001180210D8B405D0050E01180210D8A4FD
:10B8060005D0000E026E000E016E1200020E011827
:10B816000210D8B40AD0040E01180210D8B405D00C
:10B82600060E01180210D8A405D0000E026E010EF5
:10B83600016E1200070E01180210D8A405D0000EE2
:10B84600026E020E016E1200080E01180210D8B424
:10B856000AD00C0E01180210D8B405D0110E01182A
:10B866000210D8A405D0000E026E030E016E12005F
:10B87600090E01180210D8B40AD00D0E01180210D4
:10B88600D8B405D0120E01180210D8A405D0000EA7
:10B89600026E040E016E12000E0E01180210D8B4CC
:10B8A60005D0130E01180210D8A405D0000E026EA2
:10B8B600050E016E12000A0E01180210D8B40AD045
:10B8C6000F0E01180210D8B405D0140E011802107C
:10B8D600D8A405D0000E026E060E016E12000B0EE5
:10B8E60001180210D8B40AD0100E01180210D8B4EC
:10B8F60005D0150E01180210D8A405D0000E026E50
:10B90600070E016E1200160E01180210D8B41ED0D2
:10B91600180E01180210D8B419D01A0E0118021008
:10B92600D8B414D01C0E01180210D8B40FD0200EB3
:10B9360001180210D8B40AD0240E01180210D8B487
:10B9460005D0260E01180210D8A405D0000E026EEE
:10B95600080E016E1200170E01180210D8B419D085
:10B96600190E01180210D8B414D01D0E01180210B9
:10B97600D8B40FD0210E01180210D8B40AD0250E63
:10B9860001180210D8B405D0270E01180210D8A449
:10B9960005D0000E026E090E016E12001E0E011871
:10B9A6000210D8B40AD0220E01180210D8B405D05D
:10B9B600280E01180210D8A405D0000E026E0A0E39
:10B9C600016E12001B0E01180210D8B40FD01F0E04
:10B9D60001180210D8B40AD0230E01180210D8B4E8
:10B9E60005D0290E01180210D8A405D0000E026E4B
:10B9F6000B0E016E12002A0E01180210D8B414D0D4
:10BA06002B0E01180210D8B40FD02C0E01180210FC
:10BA1600D8B40AD02D0E01180210D8B405D02E0EB7
:10BA260001180210D8A405D0000E026E0C0E016E8D
:10BA36001200000E026E000E016E12000C500D1068
:10BA4600D8B412000C040D10D8B40FD0020E0C1886
:10BA56000D10D8B40AD0030E0C180D10D8B405D0AA
:10BA6600040E0C180D10D8A430D0040E0C180D10AE
:10BA7600D8A40BD0000E076E030E066E000E096EDC
:10BA8600010E086EEEEC4EF01200030E0C180D10AF
:10BA9600D8A40BD0000E076E020E066E000E096EBD
:10BAA600010E086EEEEC4EF01200020E0C180D1090
:10BAB600D8A41200000E076E010E066E000E096E67
:10BAC600010E086EEEEC4EF01200050E0C180D106D
:10BAD600D8B40FD0060E0C180D10D8B40AD0070E25
:10BAE6000C180D10D8B405D0080E0C180D10D8A4DB
:10BAF6003AD0000E076E010E066E000E096E010E9C
:10BB0600086E26EC4FF0080E0C180D10D8A40BD0BA
:10BB1600000E076E030E066E000E096E010E086E0D
:10BB2600EEEC4EF01200070E0C180D10D8A40BD038
:10BB3600000E076E020E066E000E096E010E086EEE
:10BB4600EEEC4EF01200060E0C180D10D8A41200E2
:10BB5600000E076E010E066E000E096E010E086ECF
:10BB6600EEEC4EF01200090E0C180D10D8B40FD0E2
:10BB76000A0E0C180D10D8B40AD00B0E0C180D10A6
:10BB8600D8B405D00C0E0C180D10D8A43AD0000E5F
:10BB9600076E020E066E000E096E010E086E26EC8A
:10BBA6004FF00C0E0C180D10D8A40BD0000E076E1B
:10BBB600030E066E000E096E010E086EEEEC4EF0D8
:10BBC60012000B0E0C180D10D8A40BD0000E076E29
:10BBD600020E066E000E096E010E086EEEEC4EF0B9
:10BBE60012000A0E0C180D10D8A41200000E076ED3
:10BBF600010E066E000E096E010E086EEEEC4EF09A
:10BC060012000D0E0C180D10D8B40FD00E0E0C1815
:10BC16000D10D8B40AD00F0E0C180D10D8B405D0DC
:10BC2600100E0C180D10D8A41200000E076E030E8D
:10BC3600066E000E096E010E086E26EC4FF0100E11
:10BC46000C180D10D8A40BD0000E076E030E066E4E
:10BC5600000E096E010E086EEEEC4EF012000F0E8D
:10BC66000C180D10D8A40BD0000E076E020E066E2F
:10BC7600000E096E010E086EEEEC4EF012000E0E6E
:10BC86000C180D10D8A41200000E076E010E066ED9
:10BC9600000E096E010E086EEEEC4EF012000C500E
:10BCA6000D10D8B43BD10E500F10D8B437D10E506A
:10BCB6000C5C0F500D58D8B031D10C040D10D8B40F
:10BCC6000FD0020E0C180D10D8B40AD0030E0C18A3
:10BCD6000D10D8B405D0040E0C180D10D8A487D0BA
:10BCE600050E0E180F10D8B40FD0060E0E180F1032
:10BCF600D8B40AD0070E0E180F10D8B405D0080E07
:10BD06000E180F10D8A411D0000E076E010E066E85
:10BD1600000E096E000E086E26EC4FF0040E0C2481
:10BD26000C6E000E0D200D6E1200090E0E180F106F
:10BD3600D8B40FD00A0E0E180F10D8B40AD00B0EB6
:10BD46000E180F10D8B405D00C0E0E180F10D8A46C
:10BD560011D0000E076E020E066E000E096E000E62
:10BD6600086E26EC4FF0080E0C240C6E000E0D200B
:10BD76000D6E12000D0E0E180F10D8B40FD00E0E49
:10BD86000E180F10D8B40AD00F0E0E180F10D8B414
:10BD960005D0100E0E180F10D8A411D0000E076E85
:10BDA600030E066E000E096E000E086E26EC4FF0AE
:10BDB6000C0E0C240C6E000E0D200D6E12000E04DF
:10BDC6000F10D8B40FD0020E0E180F10D8B40AD028
:10BDD600030E0E180F10D8B405D0040E0E180F104F
:10BDE600D8A412000CC00CF00DC00DF01200050E08
:10BDF6000C180D10D8B40FD0060E0C180D10D8B4B0
:10BE06000AD0070E0C180D10D8B405D0080E0C1861
:10BE16000D10D8A44AD0090E0E180F10D8B40FD0A2
:10BE26000A0E0E180F10D8B40AD00B0E0E180F10EB
:10BE3600D8B405D00C0E0E180F10D8A411D0000ED1
:10BE4600076E010E066E000E096E000E086E26ECD9
:10BE56004FF0040E0C240C6E000E0D200D6E120019
:10BE66000D0E0E180F10D8B40FD00E0E0E180F10A0
:10BE7600D8B40AD00F0E0E180F10D8B405D0100E75
:10BE86000E180F10D8A41200000E076E020E066ED2
:10BE9600000E096E000E086E26EC4FF0080E0C24FC
:10BEA6000C6E000E0D200D6E1200090E0C180D10F2
:10BEB600D8B40FD00A0E0C180D10D8B40AD00B0E39
:10BEC6000C180D10D8B405D00C0E0C180D10D8A4F3
:10BED60012000D0E0E180F10D8B40FD00E0E0E183D
:10BEE6000F10D8B40AD00F0E0E180F10D8B405D004
:10BEF600100E0E180F10D8A41200000E076E010EB9
:10BF0600066E000E096E000E086E26EC4FF0040E4B
:10BF16000C240C6E000E0D200D6E12000CC00CF0E1
:10BF26000DC00DF01200FA0E20EC4DF05C6E000E06
:10BF36005B6E000E5A6E000E576E000E566E000EA9
:10BF4600596E000E586E5C50D8A42BD0010E16EC1C
:10BF56004DF0C30E546ECD0EE82EFED7542EFCD7F0
:10BF660000F08F0E0D6EFF0E0E6E0CEC61F0C00E23
:10BF760016EC4DF0E70E0D6EFE0E0E6E0CEC61F03B
:10BF8600660E556E760E546EC10EE82EFED7542EF2
:10BF9600FCD7552EFAD700F0000E536E0E0E526ED9
:10BFA60012005C04D8A453D0000E5B6E010E5A6ECC
:10BFB600010E16EC4DF0C30E546ECD0EE82EFED7D4
:10BFC600542EFCD700F0DD0E0D6EFD0E0E6E0CEC41
:10BFD60061F0C00E16EC4DF0E70E0D6EFE0E0E6E05
:10BFE6000CEC61F0660E556E760E546EC10EE82EA0
:10BFF600FED7542EFCD7552EFAD700F0010E16ECBC
:10C006004DF0C30E546ECD0EE82EFED7542EFCD73F
:10C0160000F0DE0E0D6EFC0E0E6E0CEC61F0C00E26
:10C0260016EC4DF07F0E0D6EFE0E0E6E0CEC61F0F2
:10C036001A0E556E5E0E546E6E0EE82EFED7542EF8
:10C04600FCD7552EFAD700D081B2D4D0FDD7010E39
:10C0560016EC4DF0C30E546ECD0EE82EFED7542EC0
:10C06600FCD700F0EF0E0D6EFC0E0E6E5CC00FF0EE
:10C07600106A0CEC61F0C00E16EC4DF0E70E0D6E7A
:10C08600FE0E0E6E0CEC61F0660E556E760E546E5C
:10C09600C10EE82EFED7542EFCD7552EFAD700F047
:10C0A600010E16EC4DF0C30E546ECD0EE82EFED7E3
:10C0B600542EFCD700F0BC0E0D6EFC0E0E6E0CEC72
:10C0C60061F0C00E16EC4DF05C0E0D6EFF0E0E6E9E
:10C0D6000CEC61F081A2FED781380F0B0F0B5D6E61
:10C0E60081B2FED75D50D8B40BD05D04D8B408D069
:10C0F600020E5D18D8B404D0040E5D18D8A4EAD791
:10C106005DC001F0026A5C5039EC4EF001C056F099
:10C1160002C057F056045710D8A4DCD75D50010D65
:10C12600250EF324F66EFC0EF420F76EF86A000E68
:10C13600F8220800F5502AEC4DF0040E5D18D8A43C
:10C1460004D05DC05AF05B6A06D0010E5D245A6EBB
:10C156005B6A000E5B22330E556EBB0E546EE00E0C
:10C16600E82EFED7542EFCD7552EFAD7010E16EC24
:10C176004DF0C30E546ECD0EE82EFED7542EFCD7CE
:10C1860000F0A60E0D6EFF0E0E6E0CEC61F0330E77
:10C19600556EBB0E546EE00EE82EFED7542EFCD71D
:10C1A600552EFAD7010E16EC4DF0C30E546ECD0E79
:10C1B600E82EFED7542EFCD700F0DE0E0D6EFC0ED8
:10C1C6000E6E0CEC61F0C00E16EC4DF07F0E0D6E8F
:10C1D600FE0E0E6E0CEC61F01A0E556E5E0E546E6F
:10C1E6006E0EE82EFED7542EFCD7552EFAD700D069
:10C1F60081A2FED75AC029F05BC02AF09EEC65F0FA
:10C2060029C058F02AC059F058C052F059C053F00E
:10C2160012000F0E1F6E000E206EE6D1250E281896
:10C22600D8B404D028502AEC4DF0DED1000E276E8B
:10C23600000E266E000E256E03D025840D4A0E2AAA
:10C246000DC0F6FF0EC0F7FFF86A0800F550300A79
:10C25600D8B4F3D70DC0F6FF0EC0F7FFF86A080092
:10C26600F55034EC4DF0D8A092D0000E276E000E9B
:10C27600266E26C001F027C002F0000E046E0A0EDC
:10C28600036E68EC4DF001C026F002C027F0D00E18
:10C29600176EFF0E186E0DC0F6FF0EC0F7FFF86A98
:10C2A6000800F550196E1A6A1750192618501A22E6
:10C2B600195026261A5027220D4A0E2A0DC0F6FFBF
:10C2C6000EC0F7FFF86A0800F55034EC4DF0D8A020
:10C2D6005ED0CFD7258E76D01FC0D9FF20C0DAFF1B
:10C2E600DECF1DF0DDCF1EF0020E1F26000E20222F
:10C2F6001D501E10D8A404D09F0E1D6EFF0E1E6E7C
:10C30600000E226E000E216E02D0214A222A2150F2
:10C316001D24176E22501E20186E17C0F6FF18C077
:10C32600F7FFF86A0800F5500009D8A4EED72650A2
:10C33600215C27502258D8B005D02150265E2250C5
:10C34600275A08D0000E276E000E266E03D0200E48
:10C356002AEC4DF02606D8A027062628F8E127283D
:10C36600D8B40CD0F4D71DC0F6FF1EC0F7FFF86A8C
:10C376000800F5502AEC4DF01D4A1E2A2106D8A0C9
:10C3860022062128F0E12228D8B42ED1ECD70DC000
:10C39600F6FF0EC0F7FF0D4A0E2AF86A0800F5CF21
:10C3A60028F02850000AD8B41200640AD8B40AD07B
:10C3B6000D0AD8B407D01A0AD8B48ED70B0AD8B447
:10C3C60089D712D125BE15D01FC0D9FF20C0DAFFEC
:10C3D600DECF23F0DDCF24F0020E1F26000E202232
:10C3E60024AE4AD0030E2512236C241ED8B0242A6C
:10C3F60043D01FC0D9FF20C0DAFFDECF23F0DDCF48
:10C4060024F0020E1F26000E202236D0010E286EC2
:10C41600050E2818D8B438D02850020D470EF3243C
:10C42600F66EFC0EF420F76EF86A000EF82209008C
:10C43600F550235C0900F5502458D8A025D0282AA9
:10C44600E7D7010E286E040E2818D8B41DD0285040
:10C45600020D510EF324F66EFC0EF420F76EF86A08
:10C46600000EF8220900F550235C0900F550245807
:10C47600D8A00AD0282AE7D72550800B000AD8B4BE
:10C48600C5D7800AD8B4DDD726502710D8B409D02E
:10C4960025C017F0030E1716D8B403D02606D8A069
:10C4A6002706800E28BE7F0E176E2650285C275062
:10C4B600800A1758D8B007D02850265E000E28BE2E
:10C4C600FF0E275A04D0000E276E000E266E25A4F6
:10C4D60014D025C017F0030E1716D8B403D02D0EAE
:10C4E6002AEC4DF026502710D8B41ED0300E2AEC78
:10C4F6004DF02606D8A02706F5D726502710D8B423
:10C506000AD0200E2AEC4DF02606D8A02706265083
:10C516002710D8A4F6D725C017F0030E1716D8B4DF
:10C5260003D02D0E2AEC4DF028C01CF059D01C501B
:10C53600020D470EF324F66EFC0EF420F76EF86A31
:10C54600000EF8220900F5CF03F00A00F5CF04F03B
:10C5560023C001F024C002F010EC4EF001C008F038
:10C5660002C009F0000E0B6E0A0E0A6EC9EC4DF001
:10C576000850300F286E31D023C001F024C002F0DD
:10C586001C50020D510EF324F66EFC0EF420F76ECD
:10C59600F86A000EF8220900F5CF03F00A00F5CF7D
:10C5A60004F010EC4EF001500F0B1B6E1B50010DEA
:10C5B600780EF324F66EFC0EF420F76EF86A000E81
:10C5C600F8220800F5CF28F008D02550800B000A85
:10C5D600D8B4ADD7800AD8B4CFD728502AEC4DF0BE
:10C5E6001C061C28D8A4F1D70DC0F6FF0EC0F7FF15
:10C5F6000D4A0E2AF86A0800F5CF28F02850D8B45C
:10C6060012000CD6010E16EC4DF0C30E2B6ECD0E9D
:10C61600E82EFED72B2EFCD700F0500E0D6EFD0E29
:10C626000E6E29C00FF02AC010F00CEC61F0C00E9F
:10C6360016EC4DF0000E346E000E336E000E2E6EAC
:10C64600000E2D6E000E366E000E356E000E306E2C
:10C65600000E2F6E21EEEAF010EE38F0070EDBCF5B
:10C66600E3FFE806FCE2000E326E000E316E81A298
:10C67600FED781380F0B0F0B376E81B2FED70F0E28
:10C686003718D8B486D00E0E3718D8A405D0000EA9
:10C69600326E010E316E7DD00C0E3718D8A42DD017
:10C6A600010E16EC4DF0C30E2B6ECD0EE82EFED706
:10C6B6002B2EFCD700F0500E0D6EFD0E0E6E29C00F
:10C6C6000FF02AC010F00CEC61F0C00E16EC4DF025
:10C6D600000E346E000E336E000E396E000E386E8C
:10C6E600000E3B6E000E3A6E000E3D6E000E3C6E66
:10C6F600000E3F6E000E3E6EBAD73450B8E1040EFF
:10C70600335CD8B0B4D7030E3718D8B404D0070EAC
:10C716003718D8A416D03750010D360EF324F66E0E
:10C72600FC0EF420F76EF86A000EF8220800F550A9
:10C736002AEC4DF037502B6E2C6A1DD0334A342A22
:10C7460096D70B0E3718D8A492D73750010D360E50
:10C75600F324F66EFC0EF420F76EF86A000EF8224B
:10C766000800F5502AEC4DF037502B6E2C6A010E5E
:10C776002B26000E2C22D8903334D96E3434DA6E40
:10C78600380ED926000EDA222BC0DEFF2CC0DDFFC4
:10C79600D5D731043210D8A404D0000E366E640EFC
:10C7A60099D10C0E38183910D8A410D03A503B1035
:10C7B600D8A40CD03C503D10D8A408D03E503F1011
:10C7C600D8A404D0000E366E0C0E84D1030E381891
:10C7D6003910D8A410D03A503B10D8A40CD03C50F5
:10C7E6003D10D8A408D03E503F10D8A404D0000E67
:10C7F600366E030E6FD1070E38183910D8A410D034
:10C806003A503B10D8A40CD03C503D10D8A408D0C8
:10C816003E503F10D8A404D0000E366E070E5AD1F3
:10C82600030E38183910D8A411D0070E3A183B1049
:10C83600D8A40CD03C503D10D8A408D03E503F1090
:10C84600D8A404D0000E366E0A0E44D1030E381852
:10C856003910D8A411D00C0E3A183B10D8A40CD01D
:10C866003C503D10D8A408D03E503F10D8A404D068
:10C87600000E366E0F0E2ED1070E38183910D8A4BA
:10C8860011D00C0E3A183B10D8A40CD03C503D10D9
:10C89600D8A408D03E503F10D8A404D0000E366E5F
:10C8A600130E18D1030E38183910D8A412D0030E5F
:10C8B6003A183B10D8A40DD0070E3C183D10D8A44A
:10C8C60008D03E503F10D8A404D0000E366E0D0E90
:10C8D60001D1030E38183910D8A412D0030E3A1815
:10C8E6003B10D8A40DD00C0E3C183D10D8A408D08F
:10C8F6003E503F10D8A404D0000E366E120EEAD079
:10C90600030E38183910D8A412D0070E3A183B1067
:10C91600D8A40DD0070E3C183D10D8A408D03E5020
:10C926003F10D8A404D0000E366E110ED3D0030EDD
:10C9360038183910D8A412D00C0E3A183B10D8A4C7
:10C946000DD00C0E3C183D10D8A408D03E503F1018
:10C95600D8A404D0000E366E1B0EBCD0030E3818B9
:10C966003910D8A412D0070E3A183B10D8A40DD00F
:10C976000C0E3C183D10D8A408D03E503F10D8A449
:10C9860004D0000E366E160EA5D0070E38183910D4
:10C99600D8A412D0070E3A183B10D8A40DD00C0E0E
:10C9A6003C183D10D8A408D03E503F10D8A404D05F
:10C9B600000E366E1A0E8ED0070E38183910D8A40F
:10C9C60012D00C0E3A183B10D8A40DD00C0E3C1801
:10C9D6003D10D8A408D03E503F10D8A404D0000E75
:10C9E600366E1F0E77D0030E38183910D8A413D020
:10C9F600030E3A183B10D8A40ED0070E3C183D1073
:10CA0600D8A409D00C0E3E183F10D8A404D0000EAE
:10CA1600366E190E5FD0030E38183910D8A413D00D
:10CA2600070E3A183B10D8A40ED0070E3C183D103E
:10CA3600D8A409D00C0E3E183F10D8A404D0000E7E
:10CA4600366E1D0E47D0030E38183910D8A413D0F1
:10CA5600070E3A183B10D8A40ED00C0E3C183D1009
:10CA6600D8A409D00C0E3E183F10D8A404D0000E4E
:10CA7600366E220E2FD0030E38183910D8A413D0D4
:10CA86000C0E3A183B10D8A40ED00C0E3C183D10D4
:10CA9600D8A409D00C0E3E183F10D8A404D0000E1E
:10CAA600366E270E17D0070E38183910D8A414D0B2
:10CAB6000C0E3A183B10D8A40FD00C0E3C183D10A3
:10CAC600D8A40AD00C0E3E183F10D8A405D0000EEC
:10CAD600366E2B0E356E2AD0010E16EC4DF0C30EB7
:10CAE6002B6ECD0EE82EFED72B2EFCD700F0630E54
:10CAF6000D6EFE0E0E6E0CEC61F0C00E16EC4DF0D7
:10CB0600FD0E0D6EFE0E0E6E0CEC61F0330E2C6EED
:10CB1600BB0E2B6EE00EE82EFED72B2EFCD72C2E4E
:10CB2600FAD7000E366E000E356E6CD535C029F07C
:10CB360036C02AF01200FF0E2924016EFF0E2A20AD
:10CB4600026E000E046E230E036E68EC4DF001C0FB
:10CB560050F002C051F0505020EC4DF02B6E2B508F
:10CB66002D6E2E6A502820EC4DF02B6E2B502F6E1A
:10CB7600306A5050020F20EC4DF02B6E2B50316E68
:10CB8600326A5050030F20EC4DF02B6E2B50426E44
:10CB9600436A5050040F20EC4DF02B6E2B50336E31
:10CBA600346A5050050F20EC4DF02B6E2B50356E2D
:10CBB600366A5050060F20EC4DF02B6E2B50376E18
:10CBC600386A5050070F20EC4DF02B6E2B50486EF4
:10CBD600496A5050080F20EC4DF02B6E2B504A6ED0
:10CBE6004B6A5050090F20EC4DF02B6E2B504C6EBB
:10CBF6004D6A50500A0F20EC4DF02B6E2B504E6EA6
:10CC06004F6A50500B0F20EC4DF02B6E2B50446E9C
:10CC1600456A50500C0F20EC4DF02B6E2B503D6E9C
:10CC26003E6A50500D0F20EC4DF02B6E2B503F6E90
:10CC3600406A000E476E000E466E010E16EC4DF071
:10CC4600C30E2B6ECD0EE82EFED72B2EFCD700F092
:10CC5600AD0E0D6EFF0E0E6E0CEC61F0C00E16ECF6
:10CC66004DF0FB0E0D6EFD0E0E6E2DC00FF02EC09C
:10CC760010F02FC011F030C012F031C013F032C0E6
:10CC860014F00CEC61F0240E2C6E830E2B6ECF0E7E
:10CC9600E82EFED72B2EFCD72C2EFAD700F081A239
:10CCA600FED742C001F043C002F0000E046E3C0EF7
:10CCB600036E10EC4EF001C039F002C03AF042C0EB
:10CCC60008F043C009F0000E0B6E3C0E0A6EC9EC6C
:10CCD6004DF008C03BF009C03CF0010E16EC4DF0DB
:10CCE600C30E2B6ECD0EE82EFED72B2EFCD700F0F2
:10CCF600300E0D6EFD0E0E6E0CEC61F0C00E16ECD5
:10CD06004DF0870E0D6EFF0E0E6E39C00FF03AC055
:10CD160010F03BC011F03CC012F00CEC61F0240E98
:10CD26002C6E830E2B6ECF0EE82EFED72B2EFCD745
:10CD36002C2EFAD700F081A2FED7010E16EC4DF08C
:10CD4600C30E2B6ECD0EE82EFED72B2EFCD700F091
:10CD5600400E0D6EFD0E0E6E0CEC61F0C00E16EC64
:10CD66004DF04E504F10D8A41ED04C504D10D8A4A4
:10CD76001AD04A504B10D8A416D0F80E0D6EFD0EE0
:10CD86000E6E48C00FF049C010F00CEC61F0240E96
:10CD96002C6E830E2B6ECF0EE82EFED72B2EFCD7D5
:10CDA6002C2EFAD765D04E504F10D8A41ED04C501A
:10CDB6004D10D8A41AD0F40E0D6EFD0E0E6E48C09E
:10CDC6000FF049C010F04AC011F04BC012F00CEC45
:10CDD60061F0240E2C6E830E2B6ECF0EE82EFED73E
:10CDE6002B2EFCD72C2EFAD743D04E504F10D8A45A
:10CDF6001ED0F00E0D6EFD0E0E6E48C00FF049C02F
:10CE060010F04AC011F04BC012F04CC013F04DC0E8
:10CE160014F00CEC61F0240E2C6E830E2B6ECF0EEC
:10CE2600E82EFED72B2EFCD72C2EFAD721D0EC0ECF
:10CE36000D6EFD0E0E6E48C00FF049C010F04AC0D0
:10CE460011F04BC012F04CC013F04DC014F04EC0A0
:10CE560015F04FC016F00CEC61F0240E2C6E830E0C
:10CE66002B6ECF0EE82EFED72B2EFCD72C2EFAD704
:10CE760000F081A2FED7010E16EC4DF0C30E2B6E0C
:10CE8600CD0EE82EFED72B2EFCD700F0660E0D6ECB
:10CE9600FC0E0E6E0CEC61F0C00E16EC4DF0CD0ED5
:10CEA6000D6EFC0E0E6E33C00FF034C010F035C0A0
:10CEB60011F036C012F037C013F038C014F00CEC85
:10CEC60061F0240E2C6E830E2B6ECF0EE82EFED74D
:10CED6002B2EFCD72C2EFAD700F081A2FED7010EFE
:10CEE60016EC4DF0C30E2B6ECD0EE82EFED72B2E74
:10CEF600FCD700F0CE0E0D6EFD0E0E6E0CEC61F042
:10CF0600240E2C6E830E2B6ECF0EE82EFED72B2E04
:10CF1600FCD72C2EFAD700F081A2FED7000E476E62
:10CF2600000E466E475005E1080E465CD8B089D023
:10CF360001D087D0010E16EC4DF0C30E2B6ECD0E30
:10CF4600E82EFED72B2EFCD700F0FF0E2924016E0B
:10CF5600FF0E2A20026E000E046E230E036E68EC8E
:10CF66004DF001C02BF002C02CF046C001F047C0C6
:10CF760002F0000E046E030E036E68EC4DF00150D5
:10CF86002B24506E02502C20516E50500B0F20EC6B
:10CF96004DF02B6E2B50446E456A50500C0F20EC12
:10CFA6004DF02B6E2B503D6E3E6A50500D0F20EC0F
:10CFB6004DF02B6E2B503F6E406A44504510D8B44E
:10CFC6003BD0080E0D6EFF0E0E6E44C00FF045C02E
:10CFD60010F00CEC61F0C00E16EC4DF0B30E0D6EB9
:10CFE600FF0E0E6ED8903D34D96E3E34DA6E500E7A
:10CFF600D926020EDA22DECF0FF0DDCF10F0D89060
:10D006003F34D96E4034DA6E740ED926020EDA2217
:10D01600DECF11F0DDCF12F00CEC61F0240E2C6E99
:10D02600830E2B6ECF0EE82EFED72B2EFCD72C2E82
:10D03600FAD700F081A2FED7464A472A475001E1B7
:10D0460073D7010E16EC4DF0C30E2B6ECD0EE82EE7
:10D05600FED72B2EFCD700F0B50E0D6EFE0E0E6E13
:10D066000CEC61F0C00E16EC4DF0800E0D6EFD0E50
:10D076000E6E0CEC61F0240E2C6E830E2B6ECF0E12
:10D08600E82EFED72B2EFCD72C2EFAD700F081A245
:10D09600FED781380F0B0F0B416E81B2FED741C010
:10D0A60029F02A6A1200000E0001CF6F000ECE6F23
:10D0B600000ECB6F000ECA6F000EB16F000EB06F80
:10D0C600000EC36F000EC26F000ECD6F000ECC6F48
:10D0D600000EC56F000EC46F000EC76F000EC66F40
:10D0E600000EC96F000EC86F21EEDAF010EE80F068
:10D0F6000F0EDBCFE3FFE806FCE221EECAF010EEEE
:10D10600B2F00F0EDBCFE3FFE806FCE221EEBAF049
:10D1160010EE90F00F0EDBCFE3FFE806FCE221EE07
:10D12600AAF010EEA0F00F0EDBCFE3FFE806FCE25C
:10D13600000ECB6F010ECA6F800E076E000E086ED2
:10D14600900E096E000E0A6EA00E0B6E000E0C6E8F
:10D15600AAEC54F0800E016E000E026EB20E036E43
:10D16600000E046E2CEC71F0000E0001CF6F000E65
:10D17600CE6FCF5105E1080ECE5DD8B0ADD201D04D
:10D18600ABD2D890CE35D96ECF35DA6EB20ED9265F
:10D19600000EDA22DE50DE10D8B498D2D890CE3502
:10D1A600D96ECF35DA6EB20ED926000EDA22DECF70
:10D1B600CAF0DDCFCBF0CEC039F0CFC03AF0D89070
:10D1C60039363A36020E3926000E3A22B20E392484
:10D1D600D96E000E3A20DA6EDECFC2F0DDCFC3F094
:10D1E600CA05CB11D8B472D0CE51CF11D8A46ED007
:10D1F600010E16EC4DF0C30E396ECD0EE82EFED79D
:10D20600392EFCD700F0520E0D6EFF0E0E6E0CEC92
:10D2160061F0C00E16EC4DF0480E0D6EFF0E0E6E50
:10D22600D8900001CE35D96ECF35DA6EB20ED9263A
:10D23600000EDA22DECF0FF0DDCF10F00CEC61F03D
:10D24600660E3A6E760E396EC10EE82EFED7392E70
:10D25600FCD73A2EFAD700F0000E0D6E010E0C6EBA
:10D26600D8900001CE35D96ECF35DA6EB20ED926FA
:10D27600000EDA22DECF0EF0DDCF0FF052EC5EF0BC
:10D286000CC0B0F00DC0B1F0000E0D6E010E0C6EAC
:10D29600D8900001CE35D96ECF35DA6EB20ED926CA
:10D2A600000EDA22DECF0EF0DDCF0FF06AEC58F07A
:10D2B600D8900001CE35D96ECF35DA6EB20ED926AA
:10D2C600000EDA22DECFCAF0DDCFCBF0F80E016E0B
:10D2D600000E026E010E036E65EC50F0330E3A6ED0
:10D2E600BB0E396EE00EE82EFED7392EFCD73A2E4D
:10D2F600FAD7000E076E000E066E90EC4DF0330E58
:10D306003A6EBB0E396EE00EE82EFED7392EFCD7EC
:10D316003A2EFAD7F90E016E000E026E010E036E5A
:10D3260065EC50F0330E3A6EBB0E396EE00EE82E09
:10D33600FED7392EFCD73A2EFAD7000E076E010E0D
:10D34600066E90EC4DF0330E3A6EBB0E396EE00E63
:10D35600E82EFED7392EFCD73A2EFAD7800E016E6C
:10D36600000E026ED8900001CE35D96ECF35DA6E3A
:10D37600B20ED926000EDA22DECF03F0DDCF04F09E
:10D38600BEEC4EF001C0CCF002C0CDF0010E16ECA2
:10D396004DF0C30E396ECD0EE82EFED7392EFCD7D2
:10D3A60000F06E0E0D6EFF0E0E6ED8900001CC359D
:10D3B600D96ECD35DA6E900ED926000EDA22DECF82
:10D3C60039F0DDCF3AF0D89039363A36500E392456
:10D3D600D96E020E3A20DA6EDECF0FF0DDCF10F0F6
:10D3E6000CEC61F0C00E16EC4DF0650E0D6EFF0EE6
:10D3F6000E6ED8900001CC35D96ECD35DA6EA00E02
:10D40600D926000EDA22DECF39F0DDCF3AF0D890F9
:10D4160039363A36740E3924D96E020E3A20DA6E4F
:10D42600DECF0FF0DDCF10F00CEC61F0660E3A6E39
:10D43600760E396EC10EE82EFED7392EFCD73A2E5F
:10D44600FAD700F0D8900001CC35D96ECD35DA6E1A
:10D45600900ED926000EDA22DECF01F0DDCF02F0E3
:10D46600D890CC35D96ECD35DA6EA00ED926000E01
:10D47600DA22DECF03F0DDCF04F0C9EC55F001C0AF
:10D48600C4F002C0C5F0D8900001CC35D96ECD35B8
:10D49600DA6E900ED926000EDA22DECF01F0DDCF4D
:10D4A60002F0D890CC35D96ECD35DA6EA00ED926DD
:10D4B600000EDA22DECF03F0DDCF04F000EC57F0E9
:10D4C60001C0C6F002C0C7F0D8900001CC35D96EB5
:10D4D600CD35DA6E900ED926000EDA22DECF01F0B7
:10D4E600DDCF02F0D890CC35D96ECD35DA6EA00EF0
:10D4F600D926000EDA22DECF03F0DDCF04F024ECCD
:10D5060059F001C0C8F002C0C9F0010E16EC4DF08A
:10D51600C30E396ECD0EE82EFED7392EFCD700F09D
:10D52600460E0D6EFE0E0E6EC4C00FF0C5C010F096
:10D53600C6C011F0C7C012F0C8C013F0C9C014F0BD
:10D546000CEC61F0660E3A6E760E396EC10EE82E60
:10D55600FED7392EFCD73A2EFAD700F0C4C00CF00D
:10D56600C5C00DF0C6C00EF0C7C00FF0C8C010F0A1
:10D57600C9C011F0B3EC57F0FE0E3A6EA70E396E25
:10D58600660EE82EFED7392EFCD73A2EFAD7000EB5
:10D59600076E000E066E90EC4DF0330E3A6EBB0E23
:10D5A600396EE00EE82EFED7392EFCD73A2EFAD782
:10D5B600F80E016E000E026E010E036E65EC50F061
:10D5C600330E3A6EBB0E396EE00EE82EFED7392EBC
:10D5D600FCD73A2EFAD7000E076E010E066E90ECB7
:10D5E6004DF0330E3A6EBB0E396EE00EE82EFED7C6
:10D5F600392EFCD73A2EFAD7F90E016E000E026EBE
:10D60600010E036E65EC50F0330E3A6EBB0E396EAA
:10D61600E00EE82EFED7392EFCD73A2EFAD7010EA9
:10D6260016EC4DF0C30E396ECD0EE82EFED7392E10
:10D63600FCD700F0520E0D6EFF0E0E6E0CEC61F074
:10D64600C00E16EC4DF0480E0D6EFF0E0E6ECEC0DF
:10D6560039F0CFC03AF0D89039363A36020E39262C
:10D66600000E3A22B20E3924D96E000E3A20DA6E36
:10D67600DECF0FF0DDCF10F00CEC61F0CAC00CF07D
:10D68600CBC00DF0C2C00EF0C3C00FF052EC5EF07E
:10D696000CC0B0F00DC0B1F0B0C0CAF0B1C0CBF054
:10D6A600CAC00CF0CBC00DF0C2C00EF0C3C00FF064
:10D6B6006AEC58F0660E3A6E760E396EC10EE82E9A
:10D6C600FED7392EFCD73A2EFAD700F00001CE4B02
:10D6D600CF2BCF5101E14FD5CAC00CF0CBC00DF016
:10D6E60021EC5DF0010E16EC4DF0C30E396ECD0E39
:10D6F600E82EFED7392EFCD700F0CF0E0D6EFE0EAB
:10D706000E6E0CEC61F0C00E16EC4DF0F20E0D6EC6
:10D71600FF0E0E6E0CEC61F0660E3A6E760E396EEA
:10D72600C10EE82EFED7392EFCD73A2EFAD700F0D6
:10D73600000E026E010E016E62EC4EF0010E16EC4A
:10D746004DF0C30E396ECD0EE82EFED7392EFCD71E
:10D7560000F0900E0D6EFD0E0E6E0CEC61F0C00E1C
:10D7660016EC4DF0290E0D6EFF0E0E6E0CEC61F0F0
:10D77600660E3A6E760E396EC10EE82EFED7392E3B
:10D78600FCD73A2EFAD700F0000E026E000E016E9C
:10D7960062EC4EF01200000E086E000E076EE3EF0C
:10D7A60070F003C0D9FF04C0DAFFDE04DE10D8A48F
:10D7B60005D0000E086E010EE1EF70F003C0D9FF30
:10D7C60004C0DAFF020EDE18DE10D8A427EF71F0CF
:10D7D600000E086E020EE1EF70F003C0D9FF04C020
:10D7E600DAFFDE04DE10D8A405D0000E086E030EA4
:10D7F600E1EF70F003C0D9FF04C0DAFF020EDE18B5
:10D80600DE10D8A427EF71F0000E086E040EE1EFCB
:10D8160070F003C0D9FF04C0DAFFDE04DE10D8A41E
:10D8260005D0000E086E050EE1EF70F003C0D9FFBB
:10D8360004C0DAFF020EDE18DE10D8A405D0000EF2
:10D84600086E060EE1EF70F003C0D9FF04C0DAFFE0
:10D85600030EDE18DE10D8A427EF71F0000E086E56
:10D86600070EE1EF70F003C0D9FF04C0DAFFDE0453
:10D87600DE10D8A40FD020EE02F00350D9260450B3
:10D88600DA22DE04DE10D8A405D0000E086E080EDB
:10D89600E1EF70F003C0D9FF04C0DAFFDE04DE104A
:10D8A600D8A410D020EE02F00350D9260450DA2274
:10D8B600020EDE18DE10D8A405D0000E086E090E82
:10D8C600E1EF70F003C0D9FF04C0DAFF020EDE18E4
:10D8D600DE10D8A40FD020EE02F00350D926045053
:10D8E600DA22DE04DE10D8A405D0000E086E0A0E79
:10D8F600E1EF70F003C0D9FF04C0DAFF020EDE18B4
:10D90600DE10D8A427EF71F020EE02F00350D926DE
:10D916000450DA22020EDE18DE10D8A427EF71F0CA
:10D92600000E086E0B0EE1EF70F003C0D9FF04C0C5
:10D93600DAFFDE04DE10D8A40FD020EE02F003508A
:10D94600D9260450DA22DE04DE10D8A405D0000E53
:10D95600086E0C0EE1EF70F003C0D9FF04C0DAFFC9
:10D96600DE04DE10D8A410D020EE02F00350D92633
:10D976000450DA22020EDE18DE10D8A405D0000EFE
:10D98600086E0D0EE1EF70F003C0D9FF04C0DAFF98
:10D99600DE04DE10D8A410D020EE02F00350D92603
:10D9A6000450DA22030EDE18DE10D8A405D0000ECD
:10D9B600086E0E0EE1EF70F003C0D9FF04C0DAFF67
:10D9C600020EDE18DE10D8A40ED020EE02F00350B0
:10D9D600D9260450DA22DE04DE10D8A404D0000EC4
:10D9E600086E0F0EEBD303C0D9FF04C0DAFF020E98
:10D9F600DE18DE10D8A427EF71F020EE02F00350F7
:10DA0600D9260450DA22020EDE18DE10D8A427EF3B
:10DA160071F0000E086E100ED1D303C0D9FF04C0FA
:10DA2600DAFFDE04DE10D8A40ED020EE02F003509A
:10DA3600D9260450DA22DE04DE10D8A404D0000E63
:10DA4600086E110EBBD303C0D9FF04C0DAFFDE0493
:10DA5600DE10D8A40FD020EE02F00350D9260450D1
:10DA6600DA22020EDE18DE10D8A404D0000E086EEC
:10DA7600120EA4D303C0D9FF04C0DAFFDE04DE1001
:10DA8600D8A40FD020EE02F00350D9260450DA2293
:10DA9600030EDE18DE10D8A404D0000E086E130E96
:10DAA6008DD303C0D9FF04C0DAFF020EDE18DE10E4
:10DAB600D8A40ED020EE02F00350D9260450DA2264
:10DAC600DE04DE10D8A404D0000E086E140E76D341
:10DAD60003C0D9FF04C0DAFF020EDE18DE10D8A498
:10DAE600B3D320EE02F00350D9260450DA22020EF8
:10DAF600DE18DE10D8A4A8D3000E086E150E5ED36D
:10DB060003C0D9FF04C0DAFFDE04DE10D8A418D0A3
:10DB160020EE02F00350D9260450DA22DE04DE108D
:10DB2600D8A40ED020EE04F00350D9260450DA22F1
:10DB3600DE04DE10D8A404D0000E086E160E3ED306
:10DB460003C0D9FF04C0DAFFDE04DE10D8A47CD3FC
:10DB560020EE02F00350D9260450DA22DE04DE104D
:10DB6600D8A472D320EE04F00350D9260450DA224A
:10DB7600020EDE18DE10D8A467D3000E086E170E4C
:10DB86001DD303C0D9FF04C0DAFFDE04DE10D8A41B
:10DB960018D020EE02F00350D9260450DA22DE0413
:10DBA600DE10D8A40ED020EE04F00350D92604507F
:10DBB600DA22DE04DE10D8A404D0000E086E180E99
:10DBC600FDD203C0D9FF04C0DAFFDE04DE10D8A4FC
:10DBD6003BD320EE02F00350D9260450DA22DE04AD
:10DBE600DE10D8A431D320EE04F00350D926045019
:10DBF600DA22020EDE18DE10D8A426D3000E086E36
:10DC0600190EDCD203C0D9FF04C0DAFFDE04DE1031
:10DC1600D8A418D020EE02F00350D9260450DA22F8
:10DC2600DE04DE10D8A40ED020EE04F00350D92670
:10DC36000450DA22DE04DE10D8A404D0000E086EEA
:10DC46001A0EBCD203C0D9FF04C0DAFF020EDE18DA
:10DC5600DE10D8A4F9D220EE02F00350D9260450E3
:10DC6600DA22DE04DE10D8A4EFD220EE04F0035050
:10DC7600D9260450DA22DE04DE10D8A4E5D2000E3E
:10DC8600086E1B0E9BD203C0D9FF04C0DAFFDE0468
:10DC9600DE10D8A418D020EE02F00350D926045086
:10DCA600DA22DE04DE10D8A40ED020EE04F00350F3
:10DCB600D9260450DA22DE04DE10D8A404D0000EE1
:10DCC600086E1C0E7BD203C0D9FF04C0DAFFDE0447
:10DCD600DE10D8A419D020EE02F00350D926045045
:10DCE600DA22DE04DE10D8A40FD020EE04F00350B2
:10DCF600D9260450DA22020EDE18DE10D8A404D08B
:10DD0600000E086E1D0E5AD203C0D9FF04C0DAFFFA
:10DD1600DE04DE10D8A419D020EE02F00350D92676
:10DD26000450DA22020EDE18DE10D8A40ED020EE41
:10DD360004F00350D9260450DA22DE04DE10D8A4FB
:10DD460004D0000E086E1E0E39D203C0D9FF04C0DF
:10DD5600DAFF020EDE18DE10D8A476D220EE02F02C
:10DD66000350D9260450DA22DE04DE10D8A46CD281
:10DD760020EE04F00350D9260450DA22DE04DE1029
:10DD8600D8A462D2000E086E1F0E18D203C0D9FFA7
:10DD960004C0DAFFDE04DE10D8A418D020EE02F0AC
:10DDA6000350D9260450DA22DE04DE10D8A40ED0A1
:10DDB60020EE04F00350D9260450DA22DE04DE10E9
:10DDC600D8A404D0000E086E200EF8D103C0D9FFE7
:10DDD60004C0DAFFDE04DE10D8A419D020EE02F06B
:10DDE6000350D9260450DA22DE04DE10D8A40FD060
:10DDF60020EE04F00350D9260450DA22020EDE1873
:10DE0600DE10D8A404D0000E086E210ED7D103C0B0
:10DE1600D9FF04C0DAFFDE04DE10D8A419D020EE44
:10DE260002F00350D9260450DA22020EDE18DE1064
:10DE3600D8A40ED020EE04F00350D9260450DA22DE
:10DE4600DE04DE10D8A404D0000E086E220EB6D171
:10DE560003C0D9FF04C0DAFF020EDE18DE10D8A414
:10DE6600F3D120EE02F00350D9260450DA22DE0464
:10DE7600DE10D8A4E9D120EE04F00350D9260450D0
:10DE8600DA22DE04DE10D8A4DFD1000E086E230EDF
:10DE960095D103C0D9FF04C0DAFFDE04DE10D8A492
:10DEA60018D020EE02F00350D9260450DA22DE0400
:10DEB600DE10D8A40ED020EE04F00350D92604506C
:10DEC600DA22DE04DE10D8A404D0000E086E240E7A
:10DED60075D103C0D9FF04C0DAFFDE04DE10D8A472
:10DEE600B3D120EE02F00350D9260450DA22DE0424
:10DEF600DE10D8A4A9D120EE04F00350D926045090
:10DF0600DA22020EDE18DE10D8A49ED1000E086EAC
:10DF1600250E54D103C0D9FF04C0DAFFDE04DE109B
:10DF2600D8A418D020EE02F00350D9260450DA22E5
:10DF3600DE04DE10D8A40ED020EE04F00350D9265D
:10DF46000450DA22DE04DE10D8A404D0000E086ED7
:10DF5600260E34D103C0D9FF04C0DAFFDE04DE107A
:10DF6600D8A419D020EE02F00350D9260450DA22A4
:10DF7600DE04DE10D8A40FD020EE04F00350D9261C
:10DF86000450DA22020EDE18DE10D8A404D0000EE9
:10DF9600086E270E13D103C0D9FF04C0DAFFDE04D2
:10DFA600DE10D8A419D020EE02F00350D926045072
:10DFB600DA22020EDE18DE10D8A40ED020EE04F00F
:10DFC6000350D9260450DA22DE04DE10D8A404D089
:10DFD600000E086E280EF2D003C0D9FF04C0DAFF87
:10DFE600020EDE18DE10D8A42FD120EE02F0035068
:10DFF600D9260450DA22DE04DE10D8A425D120EE7C
:10E0060004F00350D9260450DA22DE04DE10D8A428
:10E016001BD1000E086E290ED1D003C0D9FF04C053
:10E02600DAFFDE04DE10D8A40FD120EE02F0035092
:10E03600D9260450DA22DE04DE10D8A405D120EE5B
:10E0460004F00350D9260450DA22DE04DE10D8A4E8
:10E05600FBD020EE06F00350D9260450DA22DE0467
:10E06600DE10D8A4F1D0000E086E2A0EA7D003C089
:10E07600D9FF04C0DAFFDE04DE10D8A4E5D020EE16
:10E0860002F00350D9260450DA22DE04DE10D8A4AA
:10E09600DBD020EE04F00350D9260450DA22DE0449
:10E0A600DE10D8A4D1D020EE06F00350D9260450B5
:10E0B600DA22DE04DE10D8A4C7D0000E086E2B0EBE
:10E0C6007DD003C0D9FF04C0DAFFDE04DE10D8A479
:10E0D600BBD020EE02F00350D9260450DA22DE042B
:10E0E600DE10D8A4B1D020EE04F00350D926045097
:10E0F600DA22DE04DE10D8A4A7D020EE06F0035004
:10E10600D9260450DA22DE04DE10D8A49DD0000EF3
:10E11600086E2C0E53D003C0D9FF04C0DAFFDE040C
:10E12600DE10D8A491D020EE02F00350D926045078
:10E13600DA22DE04DE10D8A487D020EE04F00350E5
:10E14600D9260450DA22DE04DE10D8A47DD020EED3
:10E1560006F00350D9260450DA22DE04DE10D8A4D5
:10E1660073D0000E086E2D0E29D003C0D9FF04C04F
:10E17600DAFFDE04DE10D8A467D020EE02F00350EA
:10E18600D9260450DA22DE04DE10D8A45DD020EEB3
:10E1960004F00350D9260450DA22DE04DE10D8A497
:10E1A60053D020EE06F00350D9260450DA22DE04BE
:10E1B600DE10D8A449D0000E086E2E0E076E44D08D
:10E1C60001C005F002C006F00650000AD8A43CD0F3
:10E1D6000550030AD8B4D4EF6BF0040AD8B4F0EFB4
:10E1E6006BF00D0AD8B436EF6CF0060AD8B40CEF13
:10E1F6006CF0010AD8B484D4020AD8B498EF6CF053
:10E206001E0AD8B4FFD4030AD8B4BBD4010AD8B4C2
:10E2160004D4050AD8B4BAD50F0AD8B4FED6030A70
:10E22600D8B437D6010AD8B42ED5060AD8B41FD723
:10E23600020AD8B46FD63D0AD8B443D7050AD8B473
:10E246006AD70C0AD8B491D707C001F008C002F00B
:10E256001200000E386E000E376E000E366E000E7F
:10E26600356E20EEF0F010EE0BF0070EDBCFE3FF7D
:10E27600E806FCE2000E326E000E316E20EEE8F08B
:10E2860010EE1BF0070EDBCFE3FFE806FCE2000E04
:10E296002E6E000E2D6E20EEE0F010EE23F0070E2F
:10E2A600DBCFE3FFE806FCE2000E346E000E336EB1
:10E2B60020EED8F010EE13F0070EDBCFE3FFE806F2
:10E2C600FCE2000E2C6E000E2B6E000E386E000E59
:10E2D600376E38501DE1080E375CD8B019D0D8908B
:10E2E6003734D96E3834DA6E0150D9260250DA2224
:10E2F600D8903734E16E3834E26E0350E12604508C
:10E30600E222DECFE6FFDDCFE5FF374A382AE1D746
:10E31600000E386E000E376E385005E1080E375C79
:10E32600D8B049D101D047D1D8903734D96E3834D6
:10E33600DA6E0350D9260450DA22DE04DE10D8B491
:10E346002AD0D8903734D96E3834DA6E0350D926AD
:10E356000450DA22020EDE18DE10D8B41CD0D89093
:10E366003734D96E3834DA6E0350D9260450DA229F
:10E37600030EDE18DE10D8B40ED0D8903734D96E1E
:10E386003834DA6E0350D9260450DA22040EDE1829
:10E39600DE10D8A419D0D8903734D96E3834DA6E56
:10E3A6000350D9260450DA22D8903134E16E323443
:10E3B600E26E0B0EE126000EE222DECFE6FFDDCF97
:10E3C600E5FF314A322AF2D0D8903734D96E383444
:10E3D600DA6E0350D9260450DA22050EDE18DE1056
:10E3E600D8B42AD0D8903734D96E3834DA6E035080
:10E3F600D9260450DA22060EDE18DE10D8B41CD058
:10E40600D8903734D96E3834DA6E0350D926045092
:10E41600DA22070EDE18DE10D8B40ED0D8903734C4
:10E42600D96E3834DA6E0350D9260450DA22080E33
:10E43600DE18DE10D8A419D0D8903734D96E383407
:10E44600DA6E0350D9260450DA22D8902D34E16EC4
:10E456002E34E26E1B0EE126000EE222DECFE6FF30
:10E46600DDCFE5FF2D4A2E2AA1D0D8903734D96EBC
:10E476003834DA6E0350D9260450DA22090EDE1833
:10E48600DE10D8B42AD0D8903734D96E3834DA6E44
:10E496000350D9260450DA220A0EDE18DE10D8B44C
:10E4A6001CD0D8903734D96E3834DA6E0350D9265A
:10E4B6000450DA220B0EDE18DE10D8B40ED0D89037
:10E4C6003734D96E3834DA6E0350D9260450DA223E
:10E4D6000C0EDE18DE10D8A419D0D8903734D96EB9
:10E4E6003834DA6E0350D9260450DA22D890333401
:10E4F600E16E3434E26E230EE126000EE222DECF18
:10E50600E6FFDDCFE5FF334A342A50D0D8903734C2
:10E51600D96E3834DA6E0350D9260450DA220D0E3D
:10E52600DE18DE10D8B42AD0D8903734D96E3834F5
:10E53600DA6E0350D9260450DA220E0EDE18DE10EB
:10E54600D8B41CD0D8903734D96E3834DA6E03502C
:10E55600D9260450DA220F0EDE18DE10D8B40ED0FB
:10E56600D8903734D96E3834DA6E0350D926045031
:10E57600DA22100EDE18DE10D8A418D0D890373460
:10E58600D96E3834DA6E0350D9260450DA22D89080
:10E596002B34E16E2C34E26E130EE126000EE222DD
:10E5A600DECFE6FFDDCFE5FF2B4A2C2A374A382A95
:10E5B600385001E1B3D6000E386E000E376E57D0D4
:10E5C600000E366E000E356E4AD0D8903534D96EB0
:10E5D6003634DA6E0B0ED926000EDA22D89037348E
:10E5E600E16E3834E26E0B0EE126000EE222DE50BA
:10E5F600E65CDE50E658D8B030D0D8903734D96EC5
:10E606003834DA6E0B0ED926000EDA22DECF2FF062
:10E61600DDCF30F0D8903534D96E3634DA6E0B0E45
:10E62600D926000EDA22D8903734E16E3834E26EFD
:10E636000B0EE126000EE222DECFE6FFDDCFE5FF80
:10E64600D8903534D96E3634DA6E0B0ED926000ED4
:10E65600DA222FC0DEFF30C0DDFF354A362A3150C0
:10E66600355C32503658D8A0B0D7374A382A3150A0
:10E67600375C32503858D8A0A3D7000E386E000E3B
:10E68600376E57D0000E366E000E356E4AD0D890D3
:10E696003534D96E3634DA6E230ED926000EDA22D8
:10E6A600D8903734E16E3834E26E230EE126000E40
:10E6B600E222DE50E65CDE50E658D8B030D0D89084
:10E6C6003734D96E3834DA6E230ED926000EDA22A4
:10E6D600DECF2FF0DDCF30F0D8903534D96E36341A
:10E6E600DA6E230ED926000EDA22D8903734E16E80
:10E6F6003834E26E230EE126000EE222DECFE6FF7C
:10E70600DDCFE5FFD8903534D96E3634DA6E230E78
:10E71600D926000EDA222FC0DEFF30C0DDFF354AD3
:10E72600362A3350355C34503658D8A0B0D7374ADD
:10E73600382A3350375C34503858D8A0A3D7000E47
:10E74600386E000E376E57D0000E366E000E356EE0
:10E756004AD0D8903734D96E3834DA6E1B0ED926A3
:10E76600000EDA22D8903534E16E3634E26E1B0E96
:10E77600E126000EE222DE50E65CDE50E658D8B016
:10E7860030D0D8903734D96E3834DA6E1B0ED9268D
:10E79600000EDA22DECF2FF0DDCF30F0D890353400
:10E7A600D96E3634DA6E1B0ED926000EDA22D890D0
:10E7B6003734E16E3834E26E1B0EE126000EE2229B
:10E7C600DECFE6FFDDCFE5FFD8903534D96E36349F
:10E7D600DA6E1B0ED926000EDA222FC0DEFF30C0FD
:10E7E600DDFF354A362A2D50355C2E503658D8A0D6
:10E7F600B0D7374A382A2D50375C2E503858D8A013
:10E80600A3D7000E386E000E376E57D0000E366E48
:10E81600000E356E4AD0D8903734D96E3834DA6E59
:10E82600130ED926000EDA22D8903534E16E36342E
:10E83600E26E130EE126000EE222DE50E65CDE50AA
:10E84600E658D8B030D0D8903734D96E3834DA6E2E
:10E85600130ED926000EDA22DECF2FF0DDCF30F0F0
:10E86600D8903534D96E3634DA6E130ED926000EAA
:10E87600DA22D8903734E16E3834E26E130EE12690
:10E88600000EE222DECFE6FFDDCFE5FFD89035347D
:10E89600D96E3634DA6E130ED926000EDA222FC060
:10E8A600DEFF30C0DDFF354A362A2B50355C2C5052
:10E8B6003658D8A0B0D7374A382A2B50375C2C5058
:10E8C6003858D8A0A3D7FE0E056EFF0E066E33C0CD
:10E8D60007F034C008F0D8900736083605500726EA
:10E8E60006500822230E0724D96E000E0820DA6E81
:10E8F6000A0EDE18DE10D8B41AD0FE0E056EFF0E14
:10E90600066E33C007F034C008F0D89007360836D4
:10E916000550072606500822230E0724D96E000E3E
:10E926000820DA6E090EDE18DE10D8A462D0000EBA
:10E93600386E000E376E57D0000E366E000E356EEE
:10E946004AD0D8903534D96E3634DA6E130ED926BD
:10E95600000EDA22D8903734E16E3834E26E130EA8
:10E96600E126000EE222DE50E65CDE50E658D8B024
:10E9760030D0D8903734D96E3834DA6E130ED926A3
:10E98600000EDA22DECF2FF0DDCF30F0D89035340E
:10E99600D96E3634DA6E130ED926000EDA22D890E6
:10E9A6003734E16E3834E26E130EE126000EE222B1
:10E9B600DECFE6FFDDCFE5FFD8903534D96E3634AD
:10E9C600DA6E130ED926000EDA222FC0DEFF30C013
:10E9D600DDFF354A362A2B50355C2C503658D8A0E8
:10E9E600B0D7374A382A2B50375C2C503858D8A025
:10E9F600A3D7070E1B181C10D8B405D0080E1B1879
:10EA06001C10D8A462D0000E386E000E376E57D098
:10EA1600000E366E000E356E4AD0D8903734D96E59
:10EA26003834DA6E230ED926000EDA22D890353421
:10EA3600E16E3634E26E230EE126000EE222DE504F
:10EA4600E65CDE50E658D8B030D0D8903734D96E70
:10EA56003834DA6E230ED926000EDA22DECF2FF0F6
:10EA6600DDCF30F0D8903534D96E3634DA6E230ED9
:10EA7600D926000EDA22D8903734E16E3834E26EA9
:10EA8600230EE126000EE222DECFE6FFDDCFE5FF14
:10EA9600D8903534D96E3634DA6E230ED926000E68
:10EAA600DA222FC0DEFF30C0DDFF354A362A33506A
:10EAB600355C34503658D8A0B0D7374A382A335048
:10EAC600375C34503858D8A0A3D7FE0E056EFF0E1B
:10EAD600066E31C007F032C008F0D8900736083607
:10EAE60005500726065008220B0E0724D96E000E85
:10EAF6000820DA6EDE04DE10D8B41AD0FE0E056EDB
:10EB0600FF0E066E31C007F032C008F0D890073607
:10EB1600083605500726065008220B0E0724D96E24
:10EB2600000E0820DA6E020EDE18DE10D8A462D0BF
:10EB3600000E386E000E376E57D0000E366E000E81
:10EB4600356E4AD0D8903534D96E3634DA6E1B0E0F
:10EB5600D926000EDA22D8903734E16E3834E26EC8
:10EB66001B0EE126000EE222DE50E65CDE50E65881
:10EB7600D8B030D0D8903734D96E3834DA6E1B0E10
:10EB8600D926000EDA22DECF2FF0DDCF30F0D89076
:10EB96003534D96E3634DA6E1B0ED926000EDA22DB
:10EBA600D8903734E16E3834E26E1B0EE126000E43
:10EBB600E222DECFE6FFDDCFE5FFD8903534D96E11
:10EBC6003634DA6E1B0ED926000EDA222FC0DEFF8F
:10EBD60030C0DDFF354A362A2D50355C2E5036586A
:10EBE600D8A0B0D7374A382A2D50375C2E5038581F
:10EBF600D8A0A3D7000E386E000E376E18D0D89066
:10EC06003734D96E3834DA6E0B0ED926000EDA2276
:10EC1600D8903734E16E3834E26E0350E126045062
:10EC2600E222DECFE6FFDDCFE5FF374A382A315054
:10EC3600375C32503858D8A0E2D7000E386E000E36
:10EC4600376E1ED0D8903734D96E3834DA6E1B0E34
:10EC5600D926000EDA2231503724056E325038207C
:10EC6600066ED8900536063605500324E16E06502A
:10EC76000420E26EDECFE6FFDDCFE5FF374A382A15
:10EC86002D50375C2E503858D8A0DCD7000E386E81
:10EC9600000E376E22D0D8903734D96E3834DA6EFB
:10ECA600230ED926000EDA2231503724056E325053
:10ECB6003820066E2D5005262E500622D890053691
:10ECC600063605500324E16E06500420E26EDECFC0
:10ECD600E6FFDDCFE5FF374A382A3350375C34503C
:10ECE6003858D8A0D8D7000E386E000E376E26D00A
:10ECF600D8903734D96E3834DA6E130ED926000E12
:10ED0600DA2231503724056E32503820066E2D50E7
:10ED160005262E5006223350052634500622D8905A
:10ED26000536063605500324E16E06500420E26ED1
:10ED3600DECFE6FFDDCFE5FF374A382A2B50375CBA
:10ED46002C503858D8B01200D3D721EE9AF011EED5
:10ED560050F00F0EDBCFE3FFE806FCE221EE8AF06F
:10ED660011EE00F00F0EDBCFE3FFE806FCE222EE29
:10ED760030F011EE10F00F0EDBCFE3FFE806FCE2F9
:10ED860022EE20F011EE20F00F0EDBCFE3FFE806B7
:10ED9600FCE222EE10F011EE30F00F0EDBCFE3FFB7
:10EDA600E806FCE222EE00F011EE40F00F0EDBCF9B
:10EDB600E3FFE806FCE2000E0101876F000E866F96
:10EDC600000E896F000E886F000E786F000E776F49
:10EDD600000E7A6F000E796F000E686F000E676F77
:10EDE600000E836F000E826F000E816F000E806F23
:10EDF600000E856F000E846F000E7F6F000E7C6F15
:10EE0600000E7B6F000E6D6F000E6C6F000E6F6F45
:10EE1600000E6E6F000E716F000E706F000E736F36
:10EE2600000E726F000E756F000E746F000E7E6F0F
:10EE3600000E7D6F010E16EC4DF0C30E606ECD0E0A
:10EE4600E82EFED7602EFCD700F00C0E16EC4DF027
:10EE5600970E0D6EFF0E0E6E0CEC61F0660E616E77
:10EE6600760E606EC10EE82EFED7602EFCD7612EA0
:10EE7600FAD700F0010E16EC4DF0C30E606ECD0E03
:10EE8600E82EFED7602EFCD700F0DE0E0D6EFC0ECF
:10EE96000E6E0CEC61F0C00E16EC4DF09A0E0D6E77
:10EEA600FC0E0E6E0CEC61F081A2FED7010E16EC84
:10EEB6004DF0C30E606ECD0EE82EFED7602EFCD749
:10EEC60000F00C0E16EC4DF0700E0D6EFD0E0E6E73
:10EED6000CEC61F0C00E16EC4DF0000E0D6EFD0E42
:10EEE6000E6E0CEC61F0330E616EBB0E606EE00EC2
:10EEF600E82EFED7602EFCD7612EFAD7030E016EE0
:10EF0600FA0E7BEC4DF0120E016E000E7BEC4DF00E
:10EF1600020E016E010E7BEC4DF01C0E016E020E10
:10EF26007BEC4DF05B0E016E030E7BEC4DF0030E99
:10EF3600016E040E7BEC4DF00F0E016E050E7BECA0
:10EF46004DF0080E016E060E7BEC4DF00C0E016EB8
:10EF5600070E7BEC4DF0010E016E080E7BEC4DF0BA
:10EF66000D0E016E090E7BEC4DF0000E016E0A0EC1
:10EF76007BEC4DF0A00E0E6E860E0F6E010E106E1F
:10EF8600000E116E90EC4EF0FCEC4CF0000E036E91
:10EF9600D10E026E08EC4DF0000E01017E6F000EE0
:10EFA6007D6F7E5112E1060E7D5DD8B00ED0600EEB
:10EFB6007D25D96E010E7E21DA6E000E43EC4DF0F2
:10EFC600DF6E01017D4B7E2BECD7010E43EC4DF03D
:10EFD6000101666F00EC4DF0010E16EC4DF0C30E0C
:10EFE600606ECD0EE82EFED7602EFCD700F0C20E66
:10EFF6000D6EFE0E0E6E0CEC61F0C00E16EC4DF0B2
:10F00600340E0D6EFF0E0E6E0CEC61F0660E616E28
:10F01600760E606EC10EE82EFED7602EFCD7612EEE
:10F02600FAD700F0010E16EC4DF0C30E606ECD0E51
:10F03600E82EFED7602EFCD700F0190E0D6EFE0EE0
:10F046000E6E66C10FF0106A65C111F0126A64C1D6
:10F0560013F0146A0CEC61F0C00E16EC4DF0280E9D
:10F066000D6EFE0E0E6E62C10FF0106A61C111F0D8
:10F07600126A60C113F0146A0CEC61F0660E616EE0
:10F08600760E606EC10EE82EFED7602EFCD7612E7E
:10F09600FAD700F0010E16EC4DF0C30E606ECD0EE1
:10F0A600E82EFED7602EFCD700F01E0E0D6EFF0E6A
:10F0B6000E6E0CEC61F0C00E16EC4DF0DC0E0D6E13
:10F0C600FE0E0E6E0CEC61F0660E616E760E606ED4
:10F0D600C10EE82EFED7602EFCD7612EFAD700F0BF
:10F0E600010E16EC4DF0C30E606ECD0EE82EFED767
:10F0F600602EFCD700F08D0E0D6EFE0E0E6E0CEC23
:10F1060061F0C00E16EC4DF09A0E0D6EFC0E0E6EF2
:10F116000CEC61F081A2FED781380F0B0F0B0101B9
:10F126006B6F81B2FED70F0E01016B19D8A481EF68
:10F136007DF067056811D8A4D9D1875104E1080E7E
:10F14600865DD8A02AD0010E16EC4DF0C30E606E77
:10F15600CD0EE82EFED7602EFCD700F00C0E16EC76
:10F166004DF0A80E0D6EFE0E0E6E0CEC61F0C00E8C
:10F1760016EC4DF0890E0D6EFC0E0E6E0CEC61F069
:10F18600660E616E760E606EC10EE82EFED7602E9C
:10F19600FCD7612EFAD700F028D3010E16EC4DF0FD
:10F1A600C30E606ECD0EE82EFED7602EFCD700F0A3
:10F1B6000C0E16EC4DF0600E0D6EFD0E0E6E0CEC88
:10F1C60061F0C00E16EC4DF0800E0D6EFD0E0E6E4B
:10F1D6000CEC61F081A2FED781380F0B0F0B0101F9
:10F1E600766F81B2FED70F0E01017619D8A477D1BA
:10F1F600010E16EC4DF0C30E606ECD0EE82EFED756
:10F20600602EFCD700F0EBEC5AF029C082F12AC040
:10F2160083F1640E010182198311D8A405D0000E72
:10F22600836F000E826FB9D7000E896F000E886F4C
:10F2360089512CE1080E885DD8B028D0D890883541
:10F24600D96E8935DA6E500ED926010EDA22825130
:10F25600DE1819E18351DE18D8A415D0000E786F98
:10F26600010E776FD8908835D96E8935DA6E500ED3
:10F27600D926010EDA22DE50DE10D8A404D0000E04
:10F286007A6F010E796F884B892BD2D77705781163
:10F29600D8A462D079057A11D8A42FD0010E16EC25
:10F2A6004DF0C30E606ECD0EE82EFED7602EFCD755
:10F2B60000F00C0E16EC4DF03E0E0D6EFF0E0E6EAF
:10F2C6000CEC61F0C00E16EC4DF0100E0D6EFD0E3E
:10F2D6000E6E0CEC61F0660E616E760E606EC10EFF
:10F2E600E82EFED7602EFCD7612EFAD700F0000E6E
:10F2F60001017A6F000E796F29D0010E16EC4DF0E0
:10F30600C30E606ECD0EE82EFED7602EFCD700F041
:10F316000C0E16EC4DF0370E0D6EFE0E0E6E0CEC4E
:10F3260061F0C00E16EC4DF0770E0D6EFF0E0E6EF0
:10F336000CEC61F0660E616E760E606EC10EE82E04
:10F34600FED7602EFCD7612EFAD700F0000E010121
:10F35600786F000E776FF1D6010E16EC4DF0C30EE6
:10F36600606ECD0EE82EFED7602EFCD700F082C16F
:10F3760029F083C12AF005EC63F029C080F12AC088
:10F3860081F1640E010180198111D8A405D0000E07
:10F39600816F000E806F2CD780C129F081C12AF0C1
:10F3A60082C12BF083C12CF0EEEC59F029C084F118
:10F3B6002AC085F1640E010184198511D8A409D0EB
:10F3C600000E816F000E806F000E856F000E846F39
:10F3D600C3D7D8908635D96E8735DA6E500ED926C2
:10F3E600010EDA2282C1DEFF83C1DDFF80C101F09A
:10F3F60081C102F037EC55F001C072F102C073F121
:10F40600D89001018635D96E8735DA6E300ED92649
:10F41600010EDA2272C1DEFF73C1DDFF84C101F085
:10F4260085C102F0F6EC5BF001C074F102C075F123
:10F43600D89001018635D96E8735DA6E400ED92609
:10F44600010EDA2274C1DEFF75C1DDFF84C101F051
:10F4560085C102F0A7EC53F001C06CF102C06DF15A
:10F4660084C101F085C102F02FEC53F001C06EF1AA
:10F4760002C06FF184C101F085C102F01FEC54F0A7
:10F4860001C070F102C071F1D89001018635D96EC4
:10F496008735DA6E000ED926010EDA226CC1DEFF40
:10F4A6006DC1DDFFD8908635D96E8735DA6E100EC0
:10F4B600D926010EDA226EC1DEFF6FC1DDFFD890BC
:10F4C6008635D96E8735DA6E200ED926010EDA22F8
