:0400000058EF69F05C
:10D22A0022EC69F0C580120022EC69F0C584120074
:10D23A0022EC69F002C0C9FF1200C7B4FED7C5CFFD
:10D24A0001F01F0E0116D8B41200F7D7036E8C94A2
:10D25A00035099EC6AF0C80E00D0E82EFDD71200F0
:10D26A00036E8C84035099EC6AF0C80E00D0E82E45
:10D27A00FDD71200016EA6B2FED701C0A9FFA69E75
:10D28A00A69CA680A8501200036E000E026E3A0EEB
:10D29A00036005D02F0E036402D0010E026E02C095
:10D2AA0001F00130120000EE80F0180EEE6AE80676
:10D2BA00FDE100EE71F00A0EEE6AE806FDE1000EED
:10D2CA00F86E0001B6EF69F0026E22EC69F0C586CD
:10D2DA0022EC69F0C9CF03F022EC69F002B002D067
:10D2EA00C59A01D0C58AC5880350120001500302AD
:10D2FA00F3CF05F0F4CF06F001500402F3500626EE
:10D30A0002500302F350062605C001F006C002F0DF
:10D31A001200000E046E000E036E000E046E000E64
:10D32A00036E0404D8B01200000E016E0350A1EC83
:10D33A0069F0034A042AF5D7026EA6B2FED7A6847C
:10D34A0002C0A9FF01C0A8FFA69EA69CF29E550E88
:10D35A00A76EAA0EA76EA682F28EA6B2FED7A694D2
:10D36A001200000E896E000E8A6E000E8B6E000E81
:10D37A008C6E000E8D6E92689368000E946E000E8D
:10D38A00956E000E966E000EC26E0F0EC16EF3EC15
:10D39A0069F004EC7AF000EF00F00A500B10D8B4F0
:10D3AA0018D0010E0C6E04D0D8900A360B360C2A0F
:10D3BA000BAEFAD70A50085C0B500958D8A004D013
:10D3CA000A50085E0B50095AD8900B320A320C2EBA
:10D3DA00F1D708C008F009C009F01200C30E046EA4
:10D3EA00CD0EE82EFED7042EFCD700F0330E2BEC20
:10D3FA0069F0320E2BEC69F0280E2BEC69F00F0E57
:10D40A002BEC69F0060E2BEC69F0010E2BEC69F09F
:10D41A00C30E046ECD0EE82EFED7042EFCD700F004
:10D42A000F0E2BEC69F01200000E066E000E056E50
:10D43A0003500410D8B41CD0010E076E04D0D89043
:10D44A0003360436072A04AEFAD7D89005360636CC
:10D45A000350015C04500258D8A005D00350015E65
:10D46A000450025A0580D89004320332072EEDD7B1
:10D47A0005C001F006C002F01200056E000E096E2A
:10D48A00000E086E000E076E000E066E000E096E84
:10D49A00000E086E0DD00850011808E10950021854
:10D4AA00D8A404D0000E076E010E066E084A092A97
:10D4BA000550036E046A0350085C04500958D8A04A
:10D4CA00EAD706C001F007C002F01200C69A948695
:10D4DA009488800EC76E280EC66E000EC56E000EAA
:10D4EA00016E5A0E026E620E036E020E046E0EC0BA
:10D4FA0012F00FC013F010C014F011C015F0020E94
:10D50A00D8901236133614361536E82EF9D712C0CB
:10D51A0005F013C006F014C007F015C008F0D8ECE7
:10D52A006AF00104C86E1200026E0250F00B016E1E
:10D53A008C500F0B8C6E01508C108C6E000EF2BE4C
:10D54A00010E796EF29E8C86530EE82EFED700F0FD
:10D55A008C96C80E00D0E82EFDD779B002D0F29E84
:10D56A0001D0F28E0238F00B026E0250F00B016EFF
:10D57A008C500F0B8C6E01508C108C6E000EF2BE0C
:10D58A00010E796EF29E8C86530EE82EFED700F0BD
:10D59A008C96C80E00D0E82EFDD779B002D0F29E44
:10D5AA0001D0F28E1200000E096E000E0A6E000EF5
:10D5BA000B6E000E0C6E0550061007100810D8B43A
:10D5CA002AD0010E0D6E06D0D890053606360736DB
:10D5DA0008360D2A08AEF8D7D89009360A360B361F
:10D5EA000C360550015C0650025807500358085083
:10D5FA000458D8A009D00550015E0650025A0750B7
:10D60A00035A0850045A0980D89008320732063261
:10D61A0005320D2EE1D709C001F00AC002F00BC095
:10D62A0003F00CC004F01200000E076E000E066E26
:10D63A00000E056E000E046E000E076E660E066E74
:10D64A00075014E1990E065CD8B010D006503FEC92
:10D65A0069F0036E0350046E056A04C001F00650B7
:10D66A00330FA1EC69F0064A072AEAD7000E076EC3
:10D67A00330E066E075014E1660E065CD8B010D061
:10D68A0006503FEC69F0036E0350046E056A04C04D
:10D69A0001F00650330FA1EC69F0064A072AEAD7CF
:10D6AA00000E076E000E066E075014E1330E065C7C
:10D6BA00D8B0120006503FEC69F0036E0350046EB6
:10D6CA00056A04C001F00650330FA1EC69F0064A5E
:10D6DA00072AEAD71200000E066E000E056E15D054
:10D6EA00000E066E010E056E50D0000E066E020E7A
:10D6FA00FAD7000E066E030EF6D7000E066E040E5B
:10D70A00F2D7000E066E000EEED701C003F002C07B
:10D71A0004F00450000AD8A4F4D70350030AD8B47A
:10D72A00DFD7040AD8B4DCD70D0AD8B4DED7060A84
:10D73A00D8B4D6D7010AD8B4DCD7020AD8B4D5D718
:10D74A001E0AD8B4D6D7030AD8B4D3D7010AD8B494
:10D75A00CCD7050AD8B4CDD70F0AD8B4CED7030A86
:10D76A00D8B4C7D7010AD8B4C4D7060AD8B4C5D71B
:10D77A00020AD8B4BED73D0AD8B4BFD7050AD8B46E
:10D78A00BCD70C0AD8B4B9D7BCD705C001F006C0BB
:10D79A0002F012003AD0000E066E010E2FD0000ED3
:10D7AA00066E020E2BD0000E066E030E27D0000E58
:10D7BA00066E070E23D0000E066E080E1FD0000E4E
:10D7CA00066E090E1BD0000E066E0A0E17D0000E4A
:10D7DA00066E0B0E13D0000E066E0C0E0FD0000E46
:10D7EA00066E0D0E0BD0000E066E0E0E07D0000E42
:10D7FA00066E0F0E03D0000E066E100E056E36D0A2
:10D80A0001C005F002C006F031D001C003F002C029
:10D81A0004F00450000AD8A4F3D70350010AD8B47C
:10D82A00BED7030AD8B4BFD70A0AD8B4C0D7010AE8
:10D83A00D8B4C1D7030AD8B4C2D71E0AD8B4ABD752
:10D84A00010AD8B4C8D7030AD8B4C9D70E0AD8B4BB
:10D85A00CAD7010AD8B4CBD7030AD8B4CCD73B0A63
:10D86A00D8B4B1D7090AD8B4B2D7CAD705C001F01B
:10D87A0006C002F01200010E2BEC69F0C30E296EED
:10D88A00CD0EE82EFED7292EFCD700F00D0E0D6E18
:10D89A00FE0E0E6E27C00FF028C010F0AFEC6FF02E
:10D8AA00C00E2BEC69F0000E2C6E000E2B6E000ED3
:10D8BA00326E000E316E20EE71F010EE33F0070E6C
:10D8CA00DBCFE3FFE806FCE2000E306E000E2F6E9F
:10D8DA00000E2E6E000E2D6E25C001F026C002F03D
:10D8EA0070EC6BF001C02BF002C02CF081A2FED7C5
:10D8FA0081380F0B0F0B3B6E81B2FED70F0E3B1810
:10D90A00D8B46DD00E0E3B18D8A405D0000E2E6EDA
:10D91A00010E2D6E64D03B50D8B407D03B04D8B466
:10D92A0004D0020E3B18D8A429D02B50315C2C50BD
:10D93A003258D8B0DBD73B50010D340EF324F66EC3
:10D94A00FD0EF420F76E0800F55035EC69F03B50F7
:10D95A00296E2A6A010E2926000E2A22D89031340D
:10D96A00D96E3234DA6E330ED926000EDA2229C085
:10D97A00DEFF2AC0DDFF314A322AB8D70C0E3B1827
:10D98A00D8A4B4D7010E2BEC69F0C30E296ECD0EC4
:10D99A00E82EFED7292EFCD700F00D0E0D6EFE0ED6
:10D9AA000E6E27C00FF028C010F0AFEC6FF0C00E5B
:10D9BA002BEC69F0000E326E000E316E000E346EE2
:10D9CA00000E336E000E366E000E356E000E386E87
:10D9DA00000E376E000E3A6E000E396E87D72D0490
:10D9EA002E10D8A405D0000E266E640E256E1200E5
:10D9FA0025C001F026C002F0330E036E000E046E3D
:10DA0A00EBEC75F001C02FF002C030F02F5030104F
:10DA1A00D8A426D0010E2BEC69F0C30E296ECD0EC8
:10DA2A00E82EFED7292EFCD700F0040E0D6EFF0E4D
:10DA3A000E6EAFEC6FF0C00E2BEC69F09E0E0D6E01
:10DA4A00FF0E0E6EAFEC6FF0330E2A6EBB0E296E10
:10DA5A00E00EE82EFED7292EFCD72A2EFAD70BD7AE
:10DA6A002FC025F030C026F012000C0E2BEC69F006
:10DA7A00010E2BEC69F0C30E276ECD0EE82EFED7F1
:10DA8A00272EFCD700F08C0E0D6EFE0E0E6EAFEC3C
:10DA9A006FF0C00E2BEC69F0000E2F6E000E2E6E8A
:10DAAA00000E2B6E000E2A6E000E2D6E000E2C6ECE
:10DABA0081A2FED781380F0B0F0B306E81B2FED7D1
:10DACA000F0E3018D8B4BAD00E0E3018D8A405D01C
:10DADA00000E2D6E640E2C6EB1D03050D8B423D007
:10DAEA003004D8B420D0020E3018D8B41CD0040E9A
:10DAFA003018D8B418D0050E3018D8B414D0060E81
:10DB0A003018D8B410D0080E3018D8B40CD0090E7A
:10DB1A003018D8B408D00A0E3018D8B404D00D0E74
:10DB2A003018D8A46AD02E502F10D8A446D030046A
:10DB3A00D8B41CD0020E3018D8B418D0040E30183D
:10DB4A00D8B414D0050E3018D8B410D0060E301838
:10DB5A00D8B40CD0080E3018D8B408D0090E301832
:10DB6A00D8B404D00A0E3018D8A411D0020E2E262A
:10DB7A00000E2F223050010D340EF324F66EFD0EE6
:10DB8A00F420F76E0800F55035EC69F034D03050C7
:10DB9A00D8A48ED73050010D340EF324F66EFD0E44
:10DBAA00F420F76E0800F55035EC69F02E4A2F2A5A
:10DBBA0020D02A26000E2B227BD72E042F10D8A481
:10DBCA0077D7070E306404D00D0E3018D8A470D75A
:10DBDA003050010D340EF324F66EFD0EF420F76E6C
:10DBEA000800F55035EC69F02E4A2F2A3050D8A497
:10DBFA0002D0140EDED73050DCD70C0E3018D8A461
:10DC0A0057D7010E2BEC69F0C30E276ECD0EE82E06
:10DC1A00FED7272EFCD700F08C0E0D6EFE0E0E6E70
:10DC2A00AFEC6FF0C00E2BEC69F0000E2F6E000EF9
:10DC3A002E6E000E2B6E000E2A6E3AD7640E2C182A
:10DC4A002D10D8A405D02CC025F02DC026F0120026
:10DC5A002AC001F02BC002F0CFEC6BF001C028F013
:10DC6A0002C029F028C025F029C026F01200FA0EB9
:10DC7A003FEC69F0506E000E4F6E000E4E6E000EB5
:10DC8A004B6E000E4A6E000E4D6E000E4C6E5050DA
:10DC9A00D8A42BD0010E2BEC69F0C30E486ECD0E22
:10DCAA00E82EFED7482EFCD700F0E10E0D6EFF0ECF
:10DCBA000E6EAFEC6FF0C00E2BEC69F0880E0D6E95
:10DCCA00FF0E0E6EAFEC6FF0660E496E760E486E62
:10DCDA00C10EE82EFED7482EFCD7492EFAD700F0FF
:10DCEA00000E476E0E0E466E12005004D8A453D092
:10DCFA00000E4F6E010E4E6E010E2BEC69F0C30E34
:10DD0A00486ECD0EE82EFED7482EFCD700F0AA0E9C
:10DD1A000D6EFE0E0E6EAFEC6FF0C00E2BEC69F0BE
:10DD2A00880E0D6EFF0E0E6EAFEC6FF0660E496E2A
:10DD3A00760E486EC10EE82EFED7482EFCD7492E25
:10DD4A00FAD700F0010E2BEC69F0C30E486ECD0E27
:10DD5A00E82EFED7482EFCD700F0CB0E0D6EFD0E36
:10DD6A000E6EAFEC6FF0C00E2BEC69F0200E0D6E4C
:10DD7A00FF0E0E6EAFEC6FF01A0E496E5E0E486E15
:10DD8A006E0EE82EFED7482EFCD7492EFAD700D0C1
:10DD9A0081B2D1D0FDD7010E2BEC69F0C30E486ECB
:10DDAA00CD0EE82EFED7482EFCD700F0DC0E0D6E05
:10DDBA00FD0E0E6E50C00FF0106AAFEC6FF0C00E81
:10DDCA002BEC69F0880E0D6EFF0E0E6EAFEC6FF045
:10DDDA00660E496E760E486EC10EE82EFED7482EA4
:10DDEA00FCD7492EFAD700F0010E2BEC69F0C30ECE
:10DDFA00486ECD0EE82EFED7482EFCD700F0A90EAD
:10DE0A000D6EFD0E0E6EAFEC6FF0C00E2BEC69F0CE
:10DE1A00C80E0D6EFF0E0E6EAFEC6FF081A2FED72C
:10DE2A0081380F0B0F0B516E81B2FED75150D8B407
:10DE3A000BD05104D8B408D0020E5118D8B404D06B
:10DE4A00040E5118D8A4EAD751C001F0026A505002
:10DE5A0042EC6AF001C04AF002C04BF04A044B108F
:10DE6A00D8A4DCD75150010D230EF324F66EFD0E13
:10DE7A00F420F76E0800F55035EC69F0040E5118DD
:10DE8A00D8A404D051C04EF04F6A06D0010E5124D6
:10DE9A004E6E4F6A000E4F22330E496EBB0E486E0D
:10DEAA00E00EE82EFED7482EFCD7492EFAD7010EEF
:10DEBA002BEC69F0C30E486ECD0EE82EFED7482E25
:10DECA00FCD700F0F10E0D6EFF0E0E6EAFEC6FF088
:10DEDA00330E496EBB0E486EE00EE82EFED7482E72
:10DEEA00FCD7492EFAD7010E2BEC69F0C30E486E07
:10DEFA00CD0EE82EFED7482EFCD700F0CB0E0D6EC5
:10DF0A00FD0E0E6EAFEC6FF0C00E2BEC69F0200E1A
:10DF1A000D6EFF0E0E6EAFEC6FF01A0E496E5E0EAE
:10DF2A00486E6E0EE82EFED7482EFCD7492EFAD739
:10DF3A0000D081A2FED74EC025F04FC026F035ECA6
:10DF4A0071F025C04CF026C04DF04CC046F04DC0D3
:10DF5A0047F012000F0E1C6E000E1D6E74D1250EB6
:10DF6A002418D8B404D0245035EC69F06CD1000ED2
:10DF7A00236E000E226E000E216E03D021840D4AFC
:10DF8A000E2A0DC0F6FF0EC0F7FF0800F550300A42
:10DF9A00D8B4F4D70DC0F6FF0EC0F7FF0800F5504D
:10DFAA0049EC69F0D8A035D0000E236E000E226E1F
:10DFBA0022C001F023C002F0000E046E0A0E036EA6
:10DFCA007BEC69F001C022F002C023F0D00E176E7C
:10DFDA00FF0E186E0DC0F6FF0EC0F7FF0800F550D1
:10DFEA00196E1A6A1750192618501A221950222621
:10DFFA001A5023220D4A0E2A0DC0F6FF0EC0F7FF53
:10E00A000800F55049EC69F0D8A003D0D1D7218E89
:10E01A0017D00DC0F6FF0EC0F7FF0D4A0E2A0800F2
:10E02A00F5CF24F02450000AD8B41200640AD8B4F8
:10E03A0007D00D0AD8B404D0110AD8B4E8D703D14E
:10E04A0021BE15D01CC0D9FF1DC0DAFFDECF1FF0DC
:10E05A00DDCF20F0020E1C26000E1D2220AE44D079
:10E06A00030E21121F6C201ED8B0202A3DD01CC0DE
:10E07A00D9FF1DC0DAFFDECF1FF0DDCF20F0020E80
:10E08A001C26000E1D2230D0010E246E050E241807
:10E09A00D8B432D02450020D450EF324F66EFD0E8C
:10E0AA00F420F76E0900F5501F5C0900F55020585E
:10E0BA00D8A022D0242AEAD7010E246E040E2418EE
:10E0CA00D8B41AD02450020D4F0EF324F66EFD0E6A
:10E0DA00F420F76E0900F5501F5C0900F55020582E
:10E0EA00D8A00AD0242AEAD72150800B000AD8B433
:10E0FA00CBD7800AD8B4E0D722502310D8B409D09D
:10E10A0021C017F0030E1716D8B403D02206D8A0E0
:10E11A002306800E24BE7F0E176E2250245C2350E5
:10E12A00800A1758D8B007D02450225E000E24BEA9
:10E13A00FF0E235A04D0000E236E000E226E21A475
:10E14A0014D021C017F0030E1716D8B403D02D0E21
:10E15A0035EC69F022502310D8B41ED0300E35ECBD
:10E16A0069F02206D8A02306F5D722502310D8B486
:10E17A000AD0200E35EC69F02206D8A023062250D8
:10E18A002310D8A4F6D721C017F0030E1716D8B457
:10E19A0003D02D0E35EC69F024C01EF050D01E506D
:10E1AA00020D450EF324F66EFD0EF420F76E0900FB
:10E1BA00F5CF03F00A00F5CF04F01FC001F020C02C
:10E1CA0002F019EC6AF001C008F002C009F0000E72
:10E1DA000B6E0A0E0A6ED2EC69F00850300F246EEC
:10E1EA002BD01FC001F020C002F01E50020D4F0EAE
:10E1FA00F324F66EFD0EF420F76E0900F5CF03F056
:10E20A000A00F5CF04F019EC6AF001500F0B1B6EEF
:10E21A001B50010D760EF324F66EFD0EF420F76EF8
:10E22A000800F5CF24F008D02150800B000AD8B49A
:10E23A00B6D7800AD8B4D5D7245035EC69F01E0673
:10E24A001E28D8A4F1D70DC0F6FF0EC0F7FF0D4A5D
:10E25A000E2A0800F5CF24F02450D8B412007FD635
:10E26A00FF0E2524016EFF0E2620026E000E046E9C
:10E27A00330E036E7BEC69F001C044F002C045F036
:10E28A0044503FEC69F0276E2750296E2A6A4428C9
:10E29A003FEC69F0276E27502B6E2C6A4450020F10
:10E2AA003FEC69F0276E27502D6E2E6A4450030FFB
:10E2BA003FEC69F0276E27503A6E3B6A4450040FD0
:10E2CA003FEC69F0276E27502F6E306A4450050FD5
:10E2DA003FEC69F0276E2750316E326A4450060FC0
:10E2EA003FEC69F0276E2750336E346A4450070FAB
:10E2FA003FEC69F0276E27503C6E3D6A4450080F88
:10E30A003FEC69F0276E27503E6E3F6A4450090F72
:10E31A003FEC69F0276E2750406E416A44500A0F5D
:10E32A003FEC69F0276E2750426E436A010E2BECD0
:10E33A0069F0C30E276ECD0EE82EFED7272EFCD726
:10E34A0000F0F80E0D6EFF0E0E6EAFEC6FF0C00E01
:10E35A002BEC69F0C80E0D6EFE0E0E6E29C00FF082
:10E36A002AC010F02BC011F02CC012F02DC013F0EF
:10E37A002EC014F0AFEC6FF01A0E286E5E0E276EE8
:10E38A006E0EE82EFED7272EFCD7282EFAD700D0FD
:10E39A0081A2FED73AC001F03BC002F0000E046E23
:10E3AA003C0E036E19EC6AF001C035F002C036F07B
:10E3BA003AC008F03BC009F0000E0B6E3C0E0A6E24
:10E3CA00D2EC69F008C037F009C038F0010E2BEC26
:10E3DA0069F0C30E276ECD0EE82EFED7272EFCD786
:10E3EA0000F01D0E0D6EFE0E0E6EAFEC6FF0C00E3D
:10E3FA002BEC69F0D90E0D6EFF0E0E6E35C00FF0C4
:10E40A0036C010F037C011F038C012F0AFEC6FF020
:10E41A001A0E286E5E0E276E6E0EE82EFED7272E77
:10E42A00FCD7282EFAD700D081A2FED7010E2BECFA
:10E43A0069F0C30E276ECD0EE82EFED7272EFCD725
:10E44A0000F02D0E0D6EFE0E0E6EAFEC6FF0C00ECC
:10E45A002BEC69F042504310D8A41ED04050411012
:10E46A00D8A41AD03E503F10D8A416D0C50E0D6EAF
:10E47A00FE0E0E6E3CC00FF03DC010F0AFEC6FF018
:10E48A001A0E286E5E0E276E6E0EE82EFED7272E07
:10E49A00FCD7282EFAD765D042504310D8A41ED0F4
:10E4AA0040504110D8A41AD0C10E0D6EFE0E0E6E49
:10E4BA003CC00FF03DC010F03EC011F03FC012F05A
:10E4CA00AFEC6FF01A0E286E5E0E276E6E0EE82EF7
:10E4DA00FED7272EFCD7282EFAD743D04250431016
:10E4EA00D8A41ED0BD0E0D6EFE0E0E6E3CC00FF0EF
:10E4FA003DC010F03EC011F03FC012F040C013F012
:10E50A0041C014F0AFEC6FF01A0E286E5E0E276E43
:10E51A006E0EE82EFED7272EFCD7282EFAD721D04A
:10E52A00B90E0D6EFE0E0E6E3CC00FF03DC010F01F
:10E53A003EC011F03FC012F040C013F041C014F0C9
:10E54A0042C015F043C016F0AFEC6FF01A0E286EF9
:10E55A005E0E276E6E0EE82EFED7272EFCD7282ECB
:10E56A00FAD700D081A2FED7010E2BEC69F0C30EB8
:10E57A00276ECD0EE82EFED7272EFCD700F0640EAC
:10E58A000D6EFD0E0E6EAFEC6FF0C00E2BEC69F047
:10E59A00BA0E0D6EFD0E0E6E2FC00FF030C010F0C9
:10E5AA0031C011F032C012F033C013F034C014F08D
:10E5BA00AFEC6FF01A0E286E5E0E276E6E0EE82E06
:10E5CA00FED7272EFCD7282EFAD700D081A2FED755
:10E5DA00010E2BEC69F0C30E276ECD0EE82EFED786
:10E5EA00272EFCD700F09B0E0D6EFE0E0E6EAFECC2
:10E5FA006FF01A0E286E5E0E276E6E0EE82EFED78C
:10E60A00272EFCD7282EFAD700D081A2FED7010EDA
:10E61A002BEC69F0C30E276ECD0EE82EFED7272EFF
:10E62A00FCD700F07D0E0D6EFE0E0E6EAFEC6FF095
:10E63A00C00E2BEC69F0490E0D6EFF0E0E6EAFEC9C
:10E64A006FF0660E286E760E276EC10EE82EFED784
:10E65A00272EFCD7282EFAD700F0010E2BEC69F0F2
:10E66A00C30E276ECD0EE82EFED7272EFCD700F05C
:10E67A00630E0D6EFF0E0E6EAFEC6FF0C00E2BEC3C
:10E68A0069F06D0E0D6EFE0E0E6EAFEC6FF081A28C
:10E69A00FED781380F0B0F0B396E81B2FED739C006
:10E6AA0025F0266A1200010E2BEC69F0C30E276EC4
:10E6BA00CD0EE82EFED7272EFCD700F03D0E0D6EAC
:10E6CA00FE0E0E6E25C00FF026C010F0AFEC6FF0F4
:10E6DA00C00E2BEC69F0000E306E000E2F6E000E8D
:10E6EA002A6E000E296E000E326E000E316E000E7A
:10E6FA002C6E000E2B6E20EE90F010EE34F0070E0A
:10E70A00DBCFE3FFE806FCE2000E2E6E000E2D6E54
:10E71A0081A2FED781380F0B0F0B336E81B2FED761
:10E72A000F0E3318D8B480D00E0E3318D8A405D0E3
:10E73A00000E2E6E010E2D6E77D00C0E3318D8A453
:10E74A002DD0010E2BEC69F0C30E276ECD0EE82EEC
:10E75A00FED7272EFCD700F03D0E0D6EFE0E0E6E74
:10E76A0025C00FF026C010F0AFEC6FF0C00E2BECF6
:10E77A0069F0000E306E000E2F6E000E356E000E20
:10E78A00346E000E376E000E366E000E396E000EB5
:10E79A00386E000E3B6E000E3A6EBAD73050B8E1B2
:10E7AA00040E2F5CD8B0B4D7030E3318D8B404D0F3
:10E7BA00070E3318D8A413D03350010D340EF324A6
:10E7CA00F66EFD0EF420F76E0800F55035EC69F090
:10E7DA003350276E286A1AD02F4A302A99D70B0E3F
:10E7EA003318D8A495D73350010D340EF324F66E9E
:10E7FA00FD0EF420F76E0800F55035EC69F0335041
:10E80A00276E286A010E2726000E2822D8902F3458
:10E81A00D96E3034DA6E340ED926000EDA2227C0C9
:10E82A00DEFF28C0DDFFD8D72D042E10D8A404D0CF
:10E83A00000E326E640E99D10C0E34183510D8A41D
:10E84A0010D036503710D8A40CD038503910D8A46C
:10E85A0008D03A503B10D8A404D0000E326E0C0EE9
:10E86A0084D1030E34183510D8A410D0365037107E
:10E87A00D8A40CD038503910D8A408D03A503B103C
:10E88A00D8A404D0000E326E030E6FD1070E3418CE
:10E89A003510D8A410D036503710D8A40CD0385020
:10E8AA003910D8A408D03A503B10D8A404D0000E8E
:10E8BA00326E070E5AD1030E34183510D8A411D06F
:10E8CA00070E36183710D8A40CD038503910D8A4EF
:10E8DA0008D03A503B10D8A404D0000E326E0A0E6B
:10E8EA0044D1030E34183510D8A411D00C0E3618A2
:10E8FA003710D8A40CD038503910D8A408D03A50C0
:10E90A003B10D8A404D0000E326E0F0E2ED1070E83
:10E91A0034183510D8A411D00C0E36183710D8A4D4
:10E92A000CD038503910D8A408D03A503B10D8A48B
:10E93A0004D0000E326E130E18D1030E341835109F
:10E94A00D8A412D0030E36183710D8A40DD0070E4B
:10E95A0038183910D8A408D03A503B10D8A404D09B
:10E96A00000E326E0D0E01D1030E34183510D8A4E4
:10E97A0012D0030E36183710D8A40DD00C0E381842
:10E98A003910D8A408D03A503B10D8A404D0000EAD
:10E99A00326E120EEAD0030E34183510D8A412D0F3
:10E9AA00070E36183710D8A40DD0070E38183910AC
:10E9BA00D8A408D03A503B10D8A404D0000E326E26
:10E9CA00110ED3D0030E34183510D8A412D00C0E61
:10E9DA0036183710D8A40DD00C0E38183910D8A410
:10E9EA0008D03A503B10D8A404D0000E326E1B0E49
:10E9FA00BCD0030E34183510D8A412D0070E36181E
:10EA0A003710D8A40DD00C0E38183910D8A408D055
:10EA1A003A503B10D8A404D0000E326E160EA5D080
:10EA2A00070E34183510D8A412D0070E361837102E
:10EA3A00D8A40DD00C0E38183910D8A408D03A50E2
:10EA4A003B10D8A404D0000E326E1A0E8ED0070ED8
:10EA5A0034183510D8A412D00C0E36183710D8A492
:10EA6A000DD00C0E38183910D8A408D03A503B10E3
:10EA7A00D8A404D0000E326E1F0E77D0030E3418BD
:10EA8A003510D8A413D0030E36183710D8A40ED0D8
:10EA9A00070E38183910D8A409D00C0E3A183B10B2
:10EAAA00D8A404D0000E326E190E5FD0030E3418AB
:10EABA003510D8A413D0070E36183710D8A40ED0A4
:10EACA00070E38183910D8A409D00C0E3A183B1082
:10EADA00D8A404D0000E326E1D0E47D0030E34188F
:10EAEA003510D8A413D0070E36183710D8A40ED074
:10EAFA000C0E38183910D8A409D00C0E3A183B104D
:10EB0A00D8A404D0000E326E220E2FD0030E341871
:10EB1A003510D8A413D00C0E36183710D8A40ED03E
:10EB2A000C0E38183910D8A409D00C0E3A183B101C
:10EB3A00D8A404D0000E326E270E17D0070E341850
:10EB4A003510D8A414D00C0E36183710D8A40FD00C
:10EB5A000C0E38183910D8A40AD00C0E3A183B10EB
:10EB6A00D8A405D0000E326E2B0E316E2AD0010EBB
:10EB7A002BEC69F0C30E276ECD0EE82EFED7272E9A
:10EB8A00FCD700F0120E0D6EFF0E0E6EAFEC6FF09A
:10EB9A00C00E2BEC69F09E0E0D6EFF0E0E6EAFECE2
:10EBAA006FF0330E286EBB0E276EE00EE82EFED7EE
:10EBBA00272EFCD7282EFAD7000E326E000E316EA1
:10EBCA0072D531C025F032C026F01200000E086E50
:10EBDA00000E076ED0D303C0D9FF04C0DAFFDE04EB
:10EBEA00DE10D8B409D003C0D9FF04C0DAFF020E80
:10EBFA00DE18DE10D8A4FED3000E086E010EB9D3BB
:10EC0A0003C0D9FF04C0DAFFDE04DE10D8B409D08D
:10EC1A0003C0D9FF04C0DAFF020EDE18DE10D8A442
:10EC2A00E9D3000E086E020EA4D303C0D9FF04C0B4
:10EC3A00DAFFDE04DE10D8B412D003C0D9FF04C054
:10EC4A00DAFF020EDE18DE10D8B409D003C0D9FFED
:10EC5A0004C0DAFF030EDE18DE10D8A4CBD3000EF0
:10EC6A00086E030E86D303C0D9FF04C0DAFF030E71
:10EC7A00DE18DE10D8B4BED320EE02F00350D92637
:10EC8A000450DA22030EDE18DE10D8B4B3D303C060
:10EC9A00D9FF04C0DAFFDE50DE10D8B4ABD320EEC1
:10ECAA0002F00350D9260450DA22DE50DE10D8B41E
:10ECBA00A1D3000E086E040E5CD320EE02F00350BE
:10ECCA00D9260450DA22030EDE18DE10D8A40CD09E
:10ECDA0003C0D9FF04C0DAFFDE04DE10D8A48AD349
:10ECEA00000E086E050E45D303C0D9FF04C0DAFF33
:10ECFA00030EDE18DE10D8B47DD303C0D9FF04C0DA
:10ED0A00DAFFDE50DE10D8B475D3000E086E060E98
:10ED1A0030D320EE02F00350D9260450DA22030E33
:10ED2A00DE18DE10D8A40CD003C0D9FF04C0DAFF65
:10ED3A00DE04DE10D8A45ED3000E086E070E19D3C7
:10ED4A0003C0D9FF04C0DAFF030EDE18DE10D8B400
:10ED5A0051D303C0D9FF04C0DAFFDE50DE10D8B4A5
:10ED6A0049D3000E086E080E04D303C0D9FF04C0AD
:10ED7A00DAFFDE04DE10D8A43DD320EE02F0035001
:10ED8A00D9260450DA22DE04DE10D8A433D320EECA
:10ED9A0004F00350D9260450DA22DE04DE10D8B477
:10EDAA000BD020EE04F00350D9260450DA22020ECA
:10EDBA00DE18DE10D8A41ED3000E086E090ED9D2B2
:10EDCA0003C0D9FF04C0DAFFDE04DE10D8A412D3D0
:10EDDA0020EE02F00350D9260450DA22DE04DE10B7
:10EDEA00D8A408D320EE04F00350D9260450DA221E
:10EDFA00DE04DE10D8B40BD020EE04F00350D9267E
:10EE0A000450DA22020EDE18DE10D8A4F3D2000E65
:10EE1A00086E0A0EAED220EE02F00350D926045034
:10EE2A00DA22DE04DE10D8A4E5D220EE04F0035084
:10EE3A00D9260450DA22DE04DE10D8A4DBD203C0BD
:10EE4A00D9FF04C0DAFFDE04DE10D8B409D003C04B
:10EE5A00D9FF04C0DAFF020EDE18DE10D8A4CAD227
:10EE6A00000E086E0B0E85D203C0D9FF04C0DAFF6C
:10EE7A00DE04DE10D8A418D020EE02F00350D92602
:10EE8A000450DA22DE04DE10D8A40ED020EE04F0FC
:10EE9A000350D9260450DA22DE04DE10D8A404D0A6
:10EEAA00000E086E0C0E65D203C0D9FF04C0DAFF4B
:10EEBA00020EDE18DE10D8A418D020EE02F003509D
:10EECA00D9260450DA22DE04DE10D8A40ED020EEB1
:10EEDA0004F00350D9260450DA22DE04DE10D8A446
:10EEEA0004D0000E086E0D0E44D203C0D9FF04C030
:10EEFA00DAFFDE04DE10D8A419D020EE02F00350A7
:10EF0A00D9260450DA22020EDE18DE10D8A40ED05A
:10EF1A0020EE04F00350D9260450DA22DE04DE1073
:10EF2A00D8A404D0000E086E0E0E23D203C0D9FF57
:10EF3A0004C0DAFFDE04DE10D8A45CD220EE02F0B0
:10EF4A000350D9260450DA22DE04DE10D8A452D2A5
:10EF5A0020EE04F00350D9260450DA22020EDE18FD
:10EF6A00DE10D8A447D2000E086E0F0E02D203C0DC
:10EF7A00D9FF04C0DAFFDE04DE10D8A418D020EED0
:10EF8A0002F00350D9260450DA22DE04DE10D8A497
:10EF9A000ED020EE04F00350D9260450DA22DE0403
:10EFAA00DE10D8A404D0000E086E100EE2D103C001
:10EFBA00D9FF04C0DAFF020EDE18DE10D8A418D07A
:10EFCA0020EE02F00350D9260450DA22DE04DE10C5
:10EFDA00D8A40ED020EE04F00350D9260450DA2229
:10EFEA00DE04DE10D8A404D0000E086E110EC1D1C2
:10EFFA0003C0D9FF04C0DAFFDE04DE10D8A419D09A
:10F00A0020EE02F00350D9260450DA22020EDE184E
:10F01A00DE10D8A40ED020EE04F00350D9260450F6
:10F02A00DA22DE04DE10D8A404D0000E086E120E16
:10F03A00A0D103C0D9FF04C0DAFFDE04DE10D8A4D1
:10F04A00D9D120EE02F00350D9260450DA22DE0488
:10F05A00DE10D8A4CFD120EE04F00350D9260450F4
:10F06A00DA22020EDE18DE10D8A4C4D1000E086E11
:10F07A00130E7FD103C0D9FF04C0DAFFDE04DE100D
:10F08A00D8A4B8D120EE02F00350D9260450DA22CF
:10F09A00DE04DE10D8A4AED120EE04F00350D92647
:10F0AA000450DA22DE04DE10D8B40BD020EE04F0CD
:10F0BA000350D9260450DA22020EDE18DE10D8A434
:10F0CA0099D1000E086E140E54D103C0D9FF04C0A2
:10F0DA00DAFFDE04DE10D8A418D020EE02F00350C6
:10F0EA00D9260450DA22DE04DE10D8A40ED020EE8F
:10F0FA0004F00350D9260450DA22DE04DE10D8A424
:10F10A0004D0000E086E150E34D103C0D9FF04C016
:10F11A00DAFF020EDE18DE10D8A418D020EE02F0B4
:10F12A000350D9260450DA22DE04DE10D8A40ED009
:10F13A0020EE04F00350D9260450DA22DE04DE1051
:10F14A00D8A404D0000E086E160E13D103C0D9FF3E
:10F15A0004C0DAFFDE04DE10D8A419D020EE02F0D3
:10F16A000350D9260450DA22020EDE18DE10D8A483
:10F17A000ED020EE04F00350D9260450DA22DE0421
:10F18A00DE10D8A404D0000E086E170EF2D003C009
:10F19A00D9FF04C0DAFFDE04DE10D8A42BD120EE9A
:10F1AA0002F00350D9260450DA22DE04DE10D8A475
:10F1BA0021D120EE04F00350D9260450DA22020E9F
:10F1CA00DE18DE10D8A416D1000E086E180ED1D0A3
:10F1DA0003C0D9FF04C0DAFFDE04DE10D8A40AD1C6
:10F1EA0020EE02F00350D9260450DA22DE04DE10A3
:10F1FA00D8A400D120EE04F00350D9260450DA2214
:10F20A00DE04DE10D8A4F6D020EE06F00350D9268C
:10F21A000450DA22DE04DE10D8A4ECD0000E086E08
:10F22A00190EA7D003C0D9FF04C0DAFFDE04DE102E
:10F23A00D8A4E0D020EE02F00350D9260450DA22F6
:10F24A00DE04DE10D8A4D6D020EE04F00350D9266E
:10F25A000450DA22DE04DE10D8A4CCD020EE06F068
:10F26A000350D9260450DA22DE04DE10D8A4C2D014
:10F27A00000E086E1A0E7DD003C0D9FF04C0DAFF53
:10F28A00DE04DE10D8A4B6D020EE02F00350D92650
:10F29A000450DA22DE04DE10D8A4ACD020EE04F04A
:10F2AA000350D9260450DA22DE04DE10D8A4A2D0F4
:10F2BA0020EE06F00350D9260450DA22DE04DE10CE
:10F2CA00D8A498D0000E086E1B0E53D003C0D9FFE5
:10F2DA0004C0DAFFDE04DE10D8A48CD020EE02F0DF
:10F2EA000350D9260450DA22DE04DE10D8A482D0D4
:10F2FA0020EE04F00350D9260450DA22DE04DE1090
:10F30A00D8A478D020EE06F00350D9260450DA2289
:10F31A00DE04DE10D8A46ED0000E086E1C0E29D0B2
:10F32A0003C0D9FF04C0DAFFDE04DE10D8A462D01D
:10F33A0020EE02F00350D9260450DA22DE04DE1051
:10F34A00D8A458D020EE04F00350D9260450DA226B
:10F35A00DE04DE10D8A44ED020EE06F00350D926E3
:10F36A000450DA22DE04DE10D8A444D0000E086E5F
:10F37A001D0E076E3FD001C005F002C006F0065010
:10F38A00000AD8A437D00550030AD8B424D4040AF2
:10F39A00D8B436D40D0AD8B466D4060AD8B445D43B
:10F3AA00010AD8B4E2D4020AD8B487D41E0AD8B45F
:10F3BA0032D5030AD8B404D5010AD8B4AAD4050AA6
:10F3CA00D8B4D5D50F0AD8B403D7030AD8B452D6BD
:10F3DA00010AD8B449D5060AD8B424D7020AD8B43F
:10F3EA0074D63D0AD8B448D7050AD8B46FD70C0AE0
:10F3FA00D8B496D707C001F008C002F01200000E78
:10F40A00686E000E676E8EEC69F0010E2BEC69F0E7
:10F41A00C30E526ECD0EE82EFED7522EFCD700F048
:10F42A000C0E2BEC69F0E90E0D6EFF0E0E6EAFECB2
:10F43A006FF0660E536E760E526EC10EE82EFED730
:10F44A00522EFCD7532EFAD700F0010E2BEC69F09E
:10F45A00C30E526ECD0EE82EFED7522EFCD700F008
:10F46A00CB0E0D6EFD0E0E6EAFEC6FF0C00E2BECD8
:10F47A0069F0980E0D6EFD0E0E6EAFEC6FF081A264
:10F48A00FED7010E2BEC69F0C30E526ECD0EE82E9C
:10F49A00FED7522EFCD700F00C0E2BEC69F05D0E55
:10F4AA000D6EFE0E0E6EAFEC6FF0C00E2BEC69F017
:10F4BA00ED0E0D6EFD0E0E6EAFEC6FF0330E536E49
:10F4CA00BB0E526EE00EE82EFED7522EFCD7532EFC
:10F4DA00FAD7020E016EFA0EA1EC69F0120E016E55
:10F4EA00000EA1EC69F0020E016E010EA1EC69F0AA
:10F4FA001C0E016E020EA1EC69F05B0E016E030E8A
:10F50A00A1EC69F0030E016E040EA1EC69F00F0E76
:10F51A00016E050EA1EC69F0080E016E060EA1EC53
:10F52A0069F00C0E016E070EA1EC69F0010E016E76
:10F53A00080EA1EC69F00D0E016E090EA1EC69F03E
:10F54A00000E016E0A0EA1EC69F019EC6BF0A00E28
:10F55A000E6E860E0F6E010E106E000E116E6BECA3
:10F56A006AF015EC69F0000E036ED10E026E1DEC06
:10F57A0069F0000E686E000E676E685011E1060EA3
:10F58A00675CD8B00DD0540E6724D96E000E68207F
:10F59A00DA6E000E69EC69F0DF6E674A682AEDD709
:10F5AA00010E69EC69F05A6E19EC69F0010E2BEC48
:10F5BA0069F0C30E526ECD0EE82EFED7522EFCD73E
:10F5CA0000F0700E0D6EFF0E0E6EAFEC6FF0C00EF7
:10F5DA002BEC69F0B40E0D6EFF0E0E6EAFEC6FF0F1
:10F5EA00660E536E760E526EC10EE82EFED7522E5E
:10F5FA00FCD7532EFAD700F0010E2BEC69F0C30E9C
:10F60A00526ECD0EE82EFED7522EFCD700F0D70E42
:10F61A000D6EFE0E0E6E5AC00FF0106A59C011F030
:10F62A00126A58C013F0146AAFEC6FF0C00E2BECDC
:10F63A0069F0E60E0D6EFE0E0E6E56C00FF0106AE1
:10F64A0055C011F0126A54C013F0146AAFEC6FF08F
:10F65A00660E536E760E526EC10EE82EFED7522EED
:10F66A00FCD7532EFAD700F0010E2BEC69F0C30E2B
:10F67A00526ECD0EE82EFED7522EFCD700F0A90E00
:10F68A000D6EFF0E0E6EAFEC6FF0C00E2BEC69F034
:10F69A007D0E0D6EFF0E0E6EAFEC6FF0660E536EA2
:10F6AA00760E526EC10EE82EFED7522EFCD7532E7E
:10F6BA00FAD700F0010E2BEC69F0C30E526ECD0E94
:10F6CA00E82EFED7522EFCD700F02E0E0D6EFF0E3E
:10F6DA000E6EAFEC6FF0C00E2BEC69F0980E0D6E4B
:10F6EA00FD0E0E6EAFEC6FF081A2FED781380F0BC4
:10F6FA000F0B5F6E81B2FED70F0E5F18D8A484D2AB
:10F70A00000E6A6E000E696E000E6E6E000E6D6E51
:10F71A00000E626E000E616E000E646E000E636E65
:10F72A00000E5C6E000E5B6E000E706E000E6F6E49
:10F73A00000E6C6E000E6B6E000E666E000E656E2D
:10F74A005B045C10D8A45CD16A5004E1080E695CC1
:10F75A00D8A02AD0010E2BEC69F0C30E526ECD0E42
:10F76A00E82EFED7522EFCD700F00C0E2BEC69F0D7
:10F77A00560E0D6EFF0E0E6EAFEC6FF0C00E2BEC38
:10F78A0069F0870E0D6EFD0E0E6EAFEC6FF0660E11
:10F79A00536E760E526EC10EE82EFED7522EFCD74D
:10F7AA00532EFAD700F01200010E2BEC69F0C30EAB
:10F7BA00526ECD0EE82EFED7522EFCD700F00C0E5C
:10F7CA002BEC69F04D0E0D6EFE0E0E6EAFEC6FF067
:10F7DA00C00E2BEC69F06D0E0D6EFE0E0E6EAFECC8
:10F7EA006FF081A2FED781380F0B0F0B606E81B2CA
:10F7FA00FED70F0E6018D8A4FCD0010E2BEC69F0CE
:10F80A00C30E526ECD0EE82EFED7522EFCD700F054
:10F81A003AEC6DF025C06FF026C070F0640E6F18D8
:10F82A007010D8A405D0000E706E000E6F6EBCD793
:10F83A00000E6E6E000E6D6E6E502CE1080E6D5C41
:10F84A00D8B028D0D8906D34D96E6E34DA6E800E66
:10F85A00D926000EDA226F50DE1819E17050DE1830
:10F86A00D8A415D0000E626E010E616ED8906D3468
:10F87A00D96E6E34DA6E800ED926000EDA22DE5088
:10F88A00DE10D8A404D0000E646E010E636E6D4AB9
:10F89A006E2AD2D761046210D8A460D063046410BF
:10F8AA00D8A42ED0010E2BEC69F0C30E526ECD0EE9
:10F8BA00E82EFED7522EFCD700F00C0E2BEC69F086
:10F8CA00BE0E0D6EFF0E0E6EAFEC6FF0C00E2BEC7F
:10F8DA0069F0FD0E0D6EFD0E0E6EAFEC6FF0660E4A
:10F8EA00536E760E526EC10EE82EFED7522EFCD7FC
:10F8FA00532EFAD700F0000E646E000E636E29D004
:10F90A00010E2BEC69F0C30E526ECD0EE82EFED717
:10F91A00522EFCD700F00C0E2BEC69F0F50E0D6E92
:10F92A00FE0E0E6EAFEC6FF0C00E2BEC69F0D10E2E
:10F93A000D6EFF0E0E6EAFEC6FF0660E536E760E06
:10F94A00526EC10EE82EFED7522EFCD7532EFAD78E
:10F95A0000F0000E626E000E616EF6D6010E2BEC00
:10F96A0069F0C30E526ECD0EE82EFED7522EFCD78A
:10F97A0000F06FC025F070C026F058EC73F025C077
:10F98A006BF026C06CF0640E6B186C10D8A405D00E
:10F99A00000E6C6E000E6B6E30D76BC025F06CC01B
:10F9AA0026F06FC027F070C028F040EC6CF025C03C
:10F9BA0065F026C066F0640E65186610D8A409D0F2
:10F9CA00000E6C6E000E6B6E000E666E000E656E9B
:10F9DA00C5D7D8906934D96E6A34DA6E800ED926C2
:10F9EA00000EDA226FC0DEFF70C0DDFF694A6A2AA4
:10F9FA0004D00E0E6018D8B41200000E606EA4D6A1
:10FA0A00010E2BEC69F0C30E526ECD0EE82EFED716
:10FA1A00522EFCD700F03AEC6DF025C06FF026C0EC
:10FA2A0070F0640E6F187010D8A409D0000E706EB2
:10FA3A00000E6F6E000E5C6E010E5B6EB5D6000E88
:10FA4A005C6E010E5B6E000E6E6E000E6D6E6E5079
:10FA5A002CE1080E6D5CD8B028D0D8906D34D96EE0
:10FA6A006E34DA6E800ED926000EDA226F50DE1856
:10FA7A0019E17050DE18D8A415D0000E626E010E7E
:10FA8A00616ED8906D34D96E6E34DA6E800ED926D6
:10FA9A00000EDA22DE50DE10D8A404D0000E646E06
:10FAAA00010E636E6D4A6E2AD2D761046210D8A421
:10FABA0060D063046410D8A42ED0010E2BEC69F038
:10FACA00C30E526ECD0EE82EFED7522EFCD700F092
:10FADA000C0E2BEC69F0BE0E0D6EFF0E0E6EAFEC27
:10FAEA006FF0C00E2BEC69F0FD0E0D6EFD0E0E6E62
:10FAFA00AFEC6FF0660E536E760E526EC10EE82EA4
:10FB0A00FED7522EFCD7532EFAD700F0000E646EA1
:10FB1A00000E636E29D0010E2BEC69F0C30E526EF3
:10FB2A00CD0EE82EFED7522EFCD700F00C0E2BEC91
:10FB3A0069F0F50E0D6EFE0E0E6EAFEC6FF0C00E94
:10FB4A002BEC69F0D10E0D6EFF0E0E6EAFEC6FF05E
:10FB5A00660E536E760E526EC10EE82EFED7522EE8
:10FB6A00FCD7532EFAD700F0000E626E000E616EBB
:10FB7A00E7D5010E2BEC69F0C30E526ECD0EE82EBE
:10FB8A00FED7522EFCD700F06FC025F070C026F0C9
:10FB9A0058EC73F025C06BF026C06CF0640E6B183D
:10FBAA006C10D8A405D0000E6C6E000E6B6E28D7B0
:10FBBA006BC025F06CC026F06FC027F070C028F02B
:10FBCA0040EC6CF025C065F026C066F0640E65183E
:10FBDA006610D8A409D0000E6C6E000E6B6E000E73
:10FBEA00666E000E656EC5D7D8906934D96E6A34D0
:10FBFA00DA6E800ED926000EDA226FC0DEFF70C0E0
:10FC0A00DDFF694A6A2A9CD50E0E5F18D8A45AD01D
:10FC1A003CEC6EF046C05DF047C05EF00F0E5D181A
:10FC2A005E10D8B4F5D70E0E5D185E10D8A420D099
:10FC3A00010E2BEC69F0C30E526ECD0EE82EFED7E4
:10FC4A00522EFCD700F00C0E2BEC69F0930E0D6EC1
:10FC5A00FF0E0E6EAFEC6FF0660E536E760E526E9E
:10FC6A00C10EE82EFED7522EFCD7532EFAD728D033
:10FC7A00010E2BEC69F0C30E526ECD0EE82EFED7A4
:10FC8A00522EFCD700F00C0E2BEC69F03C0E0D6ED8
:10FC9A00FF0E0E6EAFEC6FF0C00E2BEC69F0930EF8
:10FCAA000D6EFF0E0E6EAFEC6FF0660E536E760E93
:10FCBA00526EC10EE82EFED7522EFCD7532EFAD71B
:10FCCA0000F01200010E2BEC69F0C30E526ECD0E3D
:10FCDA00E82EFED7522EFCD700F00C0E2BEC69F062
:10FCEA003C0E0D6EFF0E0E6EAFEC6FF0C00E2BECDD
:10FCFA0069F0930E0D6EFF0E0E6EAFEC6FF0660E8E
:10FD0A00536E760E526EC10EE82EFED7522EFCD7D7
:10FD1A00532EFAD700F0120000313233413435360F
:10FD2A0042373839432A302344003132335234358A
:10FD3A0036463738394C2A3023440001000A006419
:10FD4A0000E803102701001000000100100028003D
:10FD5A000624021800010210022852656D61696EBC
:10FD6A00696E67207069656365733A0030313233B2
:10FD7A0034353637383961626364656600647261A6
:10FD8A0077657273207265616368656421006265D4
:10FD9A0067696E206F7065726174696F6E2E0050AC
:10FDAA006C6561736520696E707574206C6F67008D
:10FDBA00523A25692020463A256920204C3A25697D
:10FDCA0000507265737320616E79206B65792074B7
:10FDDA006F0025692070726576696F7573206C6F84
:10FDEA00677300636162696E657420736F7274650C
:10FDFA007221006E756D626572207072657373652B
:10FE0A00642E0044726177657220256920666F6FDF
:10FE1A00643A004F7065726174696F6E2074696D1F
:10FE2A00653A004D61726B65642064726177657230
:10FE3A00733A0044726177657220256920646965A6
:10FE4A00743A00416E6F74686572206472617765F6
:10FE5A00723F0057656C636F6D6520746F20796F10
:10FE6A0075720023203D204E6F2C2044203D2059DE
:10FE7A0065730044726177657220313A20524631C7
:10FE8A003200447261776572206E756D6265723AEE
:10FE9A0000496E7075742053756D6D6172793A0000
:10FEAA00312070726576696F7573206C6F670025F3
:10FEBA00692C2025692C2025692C202569002530EC
:10FECA0032692F253032692F2530326900253032C8
:10FEDA00782F253032782F25303278002530327845
:10FEEA003A253032783A25303278004472617765A3
:10FEFA007220616C726561647900496E76616C6921
:10FF0A006420666F6F642100496E76616C696420B3
:10FF1A006469657421006D6F766520666F7277611A
:10FF2A0072642E006F72207072657373204420749D
:10FF3A006F00496E76616C6964206B6579210044B3
:10FF4A00726177657220323A204C31004D617869CE
:10FF5A006D756D206F66203800416E6F746865722A
:10FF6A00206C6F673F0043757272656E742064611E
:10FF7A0074650076696577206C6F67732C0061760B
:10FF8A0061696C61626C652E005265626F6F74699B
:10FF9A006E672E0054727920616761696E2E005077
:10FFAA0072657373202320746F00616E6420746914
:10FFBA006D653A004E6F20647261776572006E75E6
:10FFCA006D6265723A2000696E207573652100259D
:10FFDA00693A25303269004E6F206C6F677300539F
:10FFEA0074616E64627900477265617421004461CC
:05FFFA0074653A0000EF
:020000040020DA
:08000000FFFFFFFFFFFFFFFF00
:020000040030CA
:0E000000FF061F1EFF8381FF0F400FE00F4021
:00000001FF
